{
  "address": "0x6937AB15925C5269Ac237b046F66D072e0e50127",
  "abi": [
    {
      "inputs": [],
      "stateMutability": "nonpayable",
      "type": "constructor"
    },
    {
      "anonymous": false,
      "inputs": [
        {
          "indexed": false,
          "internalType": "address",
          "name": "voter",
          "type": "address"
        },
        {
          "indexed": false,
          "internalType": "uint256",
          "name": "electionId",
          "type": "uint256"
        },
        {
          "indexed": false,
          "internalType": "address[]",
          "name": "adrs",
          "type": "address[]"
        },
        {
          "indexed": false,
          "internalType": "string[]",
          "name": "scores",
          "type": "string[]"
        }
      ],
      "name": "BallotCast",
      "type": "event"
    },
    {
      "anonymous": false,
      "inputs": [
        {
          "indexed": false,
          "internalType": "address",
          "name": "creator",
          "type": "address"
        },
        {
          "indexed": false,
          "internalType": "uint256",
          "name": "electionId",
          "type": "uint256"
        }
      ],
      "name": "ElectionCreated",
      "type": "event"
    },
    {
      "anonymous": false,
      "inputs": [
        {
          "indexed": false,
          "internalType": "uint256",
          "name": "electionId",
          "type": "uint256"
        }
      ],
      "name": "ElectionEnded",
      "type": "event"
    },
    {
      "anonymous": false,
      "inputs": [
        {
          "indexed": false,
          "internalType": "uint256",
          "name": "electionId",
          "type": "uint256"
        }
      ],
      "name": "ElectionPaid",
      "type": "event"
    },
    {
      "anonymous": false,
      "inputs": [
        {
          "indexed": true,
          "internalType": "address",
          "name": "previousOwner",
          "type": "address"
        },
        {
          "indexed": true,
          "internalType": "address",
          "name": "newOwner",
          "type": "address"
        }
      ],
      "name": "OwnershipTransferred",
      "type": "event"
    },
    {
      "anonymous": false,
      "inputs": [
        {
          "indexed": true,
          "internalType": "bytes32",
          "name": "role",
          "type": "bytes32"
        },
        {
          "indexed": true,
          "internalType": "bytes32",
          "name": "previousAdminRole",
          "type": "bytes32"
        },
        {
          "indexed": true,
          "internalType": "bytes32",
          "name": "newAdminRole",
          "type": "bytes32"
        }
      ],
      "name": "RoleAdminChanged",
      "type": "event"
    },
    {
      "anonymous": false,
      "inputs": [
        {
          "indexed": true,
          "internalType": "bytes32",
          "name": "role",
          "type": "bytes32"
        },
        {
          "indexed": true,
          "internalType": "address",
          "name": "account",
          "type": "address"
        },
        {
          "indexed": true,
          "internalType": "address",
          "name": "sender",
          "type": "address"
        }
      ],
      "name": "RoleGranted",
      "type": "event"
    },
    {
      "anonymous": false,
      "inputs": [
        {
          "indexed": true,
          "internalType": "bytes32",
          "name": "role",
          "type": "bytes32"
        },
        {
          "indexed": true,
          "internalType": "address",
          "name": "account",
          "type": "address"
        },
        {
          "indexed": true,
          "internalType": "address",
          "name": "sender",
          "type": "address"
        }
      ],
      "name": "RoleRevoked",
      "type": "event"
    },
    {
      "inputs": [],
      "name": "DEFAULT_ADMIN_ROLE",
      "outputs": [
        {
          "internalType": "bytes32",
          "name": "",
          "type": "bytes32"
        }
      ],
      "stateMutability": "view",
      "type": "function"
    },
    {
      "inputs": [
        {
          "internalType": "uint256",
          "name": "electionId",
          "type": "uint256"
        }
      ],
      "name": "approveToken",
      "outputs": [],
      "stateMutability": "nonpayable",
      "type": "function"
    },
    {
      "inputs": [
        {
          "internalType": "uint256",
          "name": "electionId",
          "type": "uint256"
        },
        {
          "internalType": "address",
          "name": "_sender",
          "type": "address"
        }
      ],
      "name": "canVote",
      "outputs": [
        {
          "internalType": "bool",
          "name": "status",
          "type": "bool"
        }
      ],
      "stateMutability": "view",
      "type": "function"
    },
    {
      "inputs": [
        {
          "internalType": "uint256",
          "name": "electionId",
          "type": "uint256"
        },
        {
          "internalType": "address[]",
          "name": "_adrs",
          "type": "address[]"
        },
        {
          "internalType": "string[]",
          "name": "_scores",
          "type": "string[]"
        }
      ],
      "name": "castBallot",
      "outputs": [],
      "stateMutability": "nonpayable",
      "type": "function"
    },
    {
      "inputs": [
        {
          "internalType": "uint256",
          "name": "",
          "type": "uint256"
        }
      ],
      "name": "elections",
      "outputs": [
        {
          "internalType": "string",
          "name": "name",
          "type": "string"
        },
        {
          "internalType": "bool",
          "name": "active",
          "type": "bool"
        },
        {
          "internalType": "bool",
          "name": "paid",
          "type": "bool"
        },
        {
          "internalType": "uint256",
          "name": "createdAt",
          "type": "uint256"
        },
        {
          "internalType": "uint256",
          "name": "funds",
          "type": "uint256"
        },
        {
          "internalType": "address",
          "name": "token",
          "type": "address"
        },
        {
          "internalType": "uint256",
          "name": "votes",
          "type": "uint256"
        },
        {
          "internalType": "address",
          "name": "admin",
          "type": "address"
        }
      ],
      "stateMutability": "view",
      "type": "function"
    },
    {
      "inputs": [
        {
          "internalType": "uint256",
          "name": "electionId",
          "type": "uint256"
        }
      ],
      "name": "endElection",
      "outputs": [],
      "stateMutability": "nonpayable",
      "type": "function"
    },
    {
      "inputs": [
        {
          "internalType": "uint256",
          "name": "electionId",
          "type": "uint256"
        }
      ],
      "name": "getElectionById",
      "outputs": [
        {
          "internalType": "string",
          "name": "name",
          "type": "string"
        },
        {
          "internalType": "address[]",
          "name": "candidates",
          "type": "address[]"
        },
        {
          "internalType": "uint256",
          "name": "n_addr",
          "type": "uint256"
        },
        {
          "internalType": "uint256",
          "name": "createdAt",
          "type": "uint256"
        },
        {
          "internalType": "uint256",
          "name": "funds",
          "type": "uint256"
        },
        {
          "internalType": "address",
          "name": "token",
          "type": "address"
        },
        {
          "internalType": "uint256",
          "name": "votes",
          "type": "uint256"
        },
        {
          "internalType": "address",
          "name": "admin",
          "type": "address"
        },
        {
          "internalType": "bool",
          "name": "isActive",
          "type": "bool"
        },
        {
          "internalType": "bool",
          "name": "paid",
          "type": "bool"
        }
      ],
      "stateMutability": "view",
      "type": "function"
    },
    {
      "inputs": [
        {
          "internalType": "uint256",
          "name": "electionId",
          "type": "uint256"
        },
        {
          "internalType": "address",
          "name": "_adr",
          "type": "address"
        }
      ],
      "name": "getElectionResults",
      "outputs": [
        {
          "internalType": "int256",
          "name": "",
          "type": "int256"
        }
      ],
      "stateMutability": "view",
      "type": "function"
    },
    {
      "inputs": [
        {
          "internalType": "uint256",
          "name": "electionId",
          "type": "uint256"
        },
        {
          "internalType": "address",
          "name": "_adr",
          "type": "address"
        }
      ],
      "name": "getElectionScores",
      "outputs": [
        {
          "internalType": "string[]",
          "name": "",
          "type": "string[]"
        }
      ],
      "stateMutability": "view",
      "type": "function"
    },
    {
      "inputs": [
        {
          "internalType": "uint256",
          "name": "electionId",
          "type": "uint256"
        }
      ],
      "name": "getElectionVoted",
      "outputs": [
        {
          "internalType": "uint256",
          "name": "count",
          "type": "uint256"
        }
      ],
      "stateMutability": "view",
      "type": "function"
    },
    {
      "inputs": [
        {
          "internalType": "bytes32",
          "name": "role",
          "type": "bytes32"
        }
      ],
      "name": "getRoleAdmin",
      "outputs": [
        {
          "internalType": "bytes32",
          "name": "",
          "type": "bytes32"
        }
      ],
      "stateMutability": "view",
      "type": "function"
    },
    {
      "inputs": [
        {
          "internalType": "bytes32",
          "name": "role",
          "type": "bytes32"
        },
        {
          "internalType": "address",
          "name": "account",
          "type": "address"
        }
      ],
      "name": "grantRole",
      "outputs": [],
      "stateMutability": "nonpayable",
      "type": "function"
    },
    {
      "inputs": [
        {
          "internalType": "bytes32",
          "name": "role",
          "type": "bytes32"
        },
        {
          "internalType": "address",
          "name": "account",
          "type": "address"
        }
      ],
      "name": "hasRole",
      "outputs": [
        {
          "internalType": "bool",
          "name": "",
          "type": "bool"
        }
      ],
      "stateMutability": "view",
      "type": "function"
    },
    {
      "inputs": [
        {
          "internalType": "uint256",
          "name": "electionId",
          "type": "uint256"
        },
        {
          "internalType": "address",
          "name": "_sender",
          "type": "address"
        }
      ],
      "name": "hasVoted",
      "outputs": [
        {
          "internalType": "bool",
          "name": "",
          "type": "bool"
        }
      ],
      "stateMutability": "view",
      "type": "function"
    },
    {
      "inputs": [
        {
          "internalType": "uint256",
          "name": "electionId",
          "type": "uint256"
        },
        {
          "internalType": "address",
          "name": "_sender",
          "type": "address"
        }
      ],
      "name": "isElectionAdmin",
      "outputs": [
        {
          "internalType": "bool",
          "name": "",
          "type": "bool"
        }
      ],
      "stateMutability": "view",
      "type": "function"
    },
    {
      "inputs": [
        {
          "internalType": "uint256",
          "name": "electionId",
          "type": "uint256"
        },
        {
          "internalType": "address",
          "name": "_sender",
          "type": "address"
        }
      ],
      "name": "isElectionCandidate",
      "outputs": [
        {
          "internalType": "bool",
          "name": "status",
          "type": "bool"
        }
      ],
      "stateMutability": "view",
      "type": "function"
    },
    {
      "inputs": [
        {
          "internalType": "string",
          "name": "_name",
          "type": "string"
        },
        {
          "internalType": "uint256",
          "name": "_funds",
          "type": "uint256"
        },
        {
          "internalType": "address",
          "name": "_token",
          "type": "address"
        },
        {
          "internalType": "uint256",
          "name": "_votes",
          "type": "uint256"
        },
        {
          "internalType": "address[]",
          "name": "_adrs",
          "type": "address[]"
        }
      ],
      "name": "newElection",
      "outputs": [
        {
          "internalType": "uint256",
          "name": "electionId",
          "type": "uint256"
        }
      ],
      "stateMutability": "nonpayable",
      "type": "function"
    },
    {
      "inputs": [],
      "name": "numElections",
      "outputs": [
        {
          "internalType": "uint256",
          "name": "",
          "type": "uint256"
        }
      ],
      "stateMutability": "view",
      "type": "function"
    },
    {
      "inputs": [],
      "name": "owner",
      "outputs": [
        {
          "internalType": "address",
          "name": "",
          "type": "address"
        }
      ],
      "stateMutability": "view",
      "type": "function"
    },
    {
      "inputs": [
        {
          "internalType": "uint256",
          "name": "electionId",
          "type": "uint256"
        },
        {
          "internalType": "address[]",
          "name": "_adrs",
          "type": "address[]"
        },
        {
          "internalType": "uint256[]",
          "name": "_pay",
          "type": "uint256[]"
        }
      ],
      "name": "payoutElection",
      "outputs": [],
      "stateMutability": "payable",
      "type": "function"
    },
    {
      "inputs": [],
      "name": "renounceOwnership",
      "outputs": [],
      "stateMutability": "nonpayable",
      "type": "function"
    },
    {
      "inputs": [
        {
          "internalType": "bytes32",
          "name": "role",
          "type": "bytes32"
        },
        {
          "internalType": "address",
          "name": "account",
          "type": "address"
        }
      ],
      "name": "renounceRole",
      "outputs": [],
      "stateMutability": "nonpayable",
      "type": "function"
    },
    {
      "inputs": [
        {
          "internalType": "bytes32",
          "name": "role",
          "type": "bytes32"
        },
        {
          "internalType": "address",
          "name": "account",
          "type": "address"
        }
      ],
      "name": "revokeRole",
      "outputs": [],
      "stateMutability": "nonpayable",
      "type": "function"
    },
    {
      "inputs": [
        {
          "internalType": "bytes4",
          "name": "interfaceId",
          "type": "bytes4"
        }
      ],
      "name": "supportsInterface",
      "outputs": [
        {
          "internalType": "bool",
          "name": "",
          "type": "bool"
        }
      ],
      "stateMutability": "view",
      "type": "function"
    },
    {
      "inputs": [
        {
          "internalType": "address",
          "name": "newOwner",
          "type": "address"
        }
      ],
      "name": "transferOwnership",
      "outputs": [],
      "stateMutability": "nonpayable",
      "type": "function"
    }
  ],
  "transactionHash": "0x7bf6ea2e3a80b75301052ae8f9a4021885e3a4a9146bdabdacf097af15235cab",
  "args": [],
  "solcInputHash": "c57f40ff059696d2ed1f75038ee93eea",
  "bytecode": "0x60806040523480156200001157600080fd5b506200001d3362000030565b6200002a60003362000082565b62000132565b600180546001600160a01b038381166001600160a01b0319831681179093556040519116919082907f8be0079c531659141344cd1fd0a4f28419497f9722a3daafe3b4186f6b6457e090600090a35050565b6200008e828262000092565b5050565b6000828152602081815260408083206001600160a01b038516845290915290205460ff166200008e576000828152602081815260408083206001600160a01b03851684529091529020805460ff19166001179055620000ee3390565b6001600160a01b0316816001600160a01b0316837f2f8788117e7eff1d82e926ec794901d17c78024a50270940304540a733656f0d60405160405180910390a45050565b6126ce80620001426000396000f3fe6080604052600436106101665760003560e01c80636e38d9bd116100d1578063a217fddf1161008a578063cdb2867b11610064578063cdb2867b146104c2578063d547741f146104e2578063ea3c6cde14610502578063f2fde38b1461052257600080fd5b8063a217fddf14610430578063be70a00914610445578063c6958b121461048c57600080fd5b80636e38d9bd1461035e578063715018a6146103745780638da5cb5b1461038957806391b84f16146103b157806391d14854146103f05780639c98bcbb1461041057600080fd5b80633ac9fc11116101235780633ac9fc111461026057806343859632146102805780634548e52b146102ca5780634b8b477e146102ea57806352e968ad1461030a5780635e6fef011461032a57600080fd5b806301ffc9a71461016b57806308108288146101a05780630ece86d0146101cd578063248a9ca3146101e25780632f2ff15d1461022057806336568abe14610240575b600080fd5b34801561017757600080fd5b5061018b61018636600461201b565b610542565b60405190151581526020015b60405180910390f35b3480156101ac57600080fd5b506101c06101bb3660046120c8565b610579565b60405161019791906123f9565b6101e06101db3660046121b9565b610673565b005b3480156101ee57600080fd5b506102126101fd366004611fd8565b60009081526020819052604090206001015490565b604051908152602001610197565b34801561022c57600080fd5b506101e061023b366004611ff0565b6107e1565b34801561024c57600080fd5b506101e061025b366004611ff0565b61080c565b34801561026c57600080fd5b506101e061027b366004611fd8565b61088a565b34801561028c57600080fd5b5061018b61029b3660046120c8565b60008281526003602090815260408083206001600160a01b038516845260080190915290205460ff1692915050565b3480156102d657600080fd5b506101e06102e53660046120da565b610928565b3480156102f657600080fd5b50610212610305366004612043565b610c38565b34801561031657600080fd5b50610212610325366004611fd8565b610cbf565b34801561033657600080fd5b5061034a610345366004611fd8565b610d73565b604051610197989796959493929190612498565b34801561036a57600080fd5b5061021260025481565b34801561038057600080fd5b506101e0610e50565b34801561039557600080fd5b506001546040516001600160a01b039091168152602001610197565b3480156103bd57600080fd5b5061018b6103cc3660046120c8565b600091825260036020526040909120600701546001600160a01b0390811691161490565b3480156103fc57600080fd5b5061018b61040b366004611ff0565b610eb6565b34801561041c57600080fd5b506101e061042b366004611fd8565b610edf565b34801561043c57600080fd5b50610212600081565b34801561045157600080fd5b506102126104603660046120c8565b60008281526003602090815260408083206001600160a01b0385168452600a0190915290205492915050565b34801561049857600080fd5b506104ac6104a7366004611fd8565b610ff3565b6040516101979a9998979695949392919061241f565b3480156104ce57600080fd5b5061018b6104dd3660046120c8565b61122c565b3480156104ee57600080fd5b506101e06104fd366004611ff0565b6112bc565b34801561050e57600080fd5b5061018b61051d3660046120c8565b6112e2565b34801561052e57600080fd5b506101e061053d366004611f9e565b61136c565b60006001600160e01b03198216637965db0b60e01b148061057357506301ffc9a760e01b6001600160e01b03198316145b92915050565b60008281526003602090815260408083206001600160a01b03851684526009018252808320805482518185028101850190935280835260609492939192909184015b828210156106675783829060005260206000200180546105da906125fc565b80601f0160208091040260200160405190810160405280929190818152602001828054610606906125fc565b80156106535780601f1061062857610100808354040283529160200191610653565b820191906000526020600020905b81548152906001019060200180831161063657829003601f168201915b5050505050815260200190600101906105bb565b50505050905092915050565b8261068c60008051602061267983398151915233610eb6565b6106b15760405162461bcd60e51b81526004016106a8906124f2565b60405180910390fd5b6000818152600360205260409020600701546001600160a01b031633146106ea5760405162461bcd60e51b81526004016106a8906124f2565b60008481526003602052604090206001015460ff16156107455760405162461bcd60e51b8152602060048201526016602482015275456c656374696f6e205374696c6c204163746976652160501b60448201526064016106a8565b6000848152600360205260408120600501546001600160a01b03166107765761076f858585611437565b9050610784565b610781858585611682565b90505b600085815260036020908152604091829020600101805461ff0019166101008515150217905590518681527fb27761a3b9064636a27795816e4f8a8e5cadd6ac8b1e3a553bd47bf414c2b402910160405180910390a15050505050565b6000828152602081905260409020600101546107fd813361185a565b61080783836118be565b505050565b6001600160a01b038116331461087c5760405162461bcd60e51b815260206004820152602f60248201527f416363657373436f6e74726f6c3a2063616e206f6e6c792072656e6f756e636560448201526e103937b632b9903337b91039b2b63360891b60648201526084016106a8565b6108868282611942565b5050565b600081815260036020526040908190206005810154600491820154925163095ea7b360e01b8152309281019290925260248201929092526001600160a01b039091169063095ea7b390604401602060405180830381600087803b1580156108f057600080fd5b505af1158015610904573d6000803e3d6000fd5b505050506040513d601f19601f820116820180604052508101906108869190611fb8565b826109537f9096faa56698daa37ec8d3542ff829c66d5e81213bd6faab8ba4e9ce824a5def33610eb6565b61099f5760405162461bcd60e51b815260206004820152601e60248201527f53656e646572206e6f7420456c656374696f6e2043616e64696461746521000060448201526064016106a8565b6109a981336112e2565b6109f55760405162461bcd60e51b815260206004820152601e60248201527f53656e646572206e6f7420456c656374696f6e2043616e64696461746521000060448201526064016106a8565b60008481526003602052604090206001015484908490849060ff16610a535760405162461bcd60e51b8152602060048201526014602482015273456c656374696f6e204e6f74204163746976652160601b60448201526064016106a8565b600083815260036020908152604080832033845260080190915290205460ff1615610ab85760405162461bcd60e51b815260206004820152601560248201527453656e64657220616c726561647920766f7465642160581b60448201526064016106a8565b8151815114610b095760405162461bcd60e51b815260206004820152601a60248201527f53636f726573202d2041646472657373204d69736d617463682100000000000060448201526064016106a8565b6000878152600360205260408120905b8751811015610bd557816009016000898381518110610b4857634e487b7160e01b600052603260045260246000fd5b60200260200101516001600160a01b03166001600160a01b03168152602001908152602001600020878281518110610b9057634e487b7160e01b600052603260045260246000fd5b60209081029190910181015182546001810184556000938452928290208151610bc29491909101929190910190611db3565b5080610bcd81612631565b915050610b19565b5033600081815260088301602052604090819020805460ff19166001179055517faaf8175507b94c84621088891ecf31ca1c2548c0aeab2f2f21d3459515f9c4ed91610c26918b908b908b906123b5565b60405180910390a15050505050505050565b60006001600160a01b038416610c5b57610c54868685856119a7565b9050610c6b565b610c688686868686611a38565b90505b610c7482611ae7565b610c7d33611b56565b60408051338152602081018390527fc91fe4766a7a928d6625f66818425dc115b03c854a8ed8d28de2f34a684e0f1a910160405180910390a195945050505050565b6000805b60008381526003602081905260409091200154811015610d6d576000838152600360208190526040822001805483908110610d0e57634e487b7160e01b600052603260045260246000fd5b60009182526020808320909101548683526003825260408084206001600160a01b03909216808552600890920190925291205490915060ff1615610d5a5782610d5681612631565b9350505b5080610d6581612631565b915050610cc3565b50919050565b600360205260009081526040902080548190610d8e906125fc565b80601f0160208091040260200160405190810160405280929190818152602001828054610dba906125fc565b8015610e075780601f10610ddc57610100808354040283529160200191610e07565b820191906000526020600020905b815481529060010190602001808311610dea57829003601f168201915b50505060018401546002850154600486015460058701546006880154600790980154969760ff8086169861010090960416965092945090926001600160a01b0391821692911688565b6001546001600160a01b03163314610eaa5760405162461bcd60e51b815260206004820181905260248201527f4f776e61626c653a2063616c6c6572206973206e6f7420746865206f776e657260448201526064016106a8565b610eb46000611b6e565b565b6000918252602082815260408084206001600160a01b0393909316845291905290205460ff1690565b80610ef860008051602061267983398151915233610eb6565b610f145760405162461bcd60e51b81526004016106a8906124f2565b6000818152600360205260409020600701546001600160a01b03163314610f4d5760405162461bcd60e51b81526004016106a8906124f2565b6000828152600360205260409020600181015460ff16610faf5760405162461bcd60e51b815260206004820152601760248201527f456c656374696f6e20416c726561647920456e6465642100000000000000000060448201526064016106a8565b60018101805460ff191690556040518381527f562cd572b2ba3b666cd989fc4ca98419ec81e75f04528df9d9d76fdb7807ee719060200160405180910390a1505050565b606080600080600080600080600080600360008c81526020019081526020016000206000018054611023906125fc565b80601f016020809104026020016040519081016040528092919081815260200182805461104f906125fc565b801561109c5780601f106110715761010080835404028352916020019161109c565b820191906000526020600020905b81548152906001019060200180831161107f57829003601f168201915b50505050509950600360008c815260200190815260200160002060030180548060200260200160405190810160405280929190818152602001828054801561110d57602002820191906000526020600020905b81546001600160a01b031681526001909101906020018083116110ef575b50505050509850600360008c8152602001908152602001600020600301805490509750600360008c8152602001908152602001600020600201549650600360008c8152602001908152602001600020600401549550600360008c815260200190815260200160002060050160009054906101000a90046001600160a01b03169450600360008c8152602001908152602001600020600601549350600360008c815260200190815260200160002060070160009054906101000a90046001600160a01b03169250600360008c815260200190815260200160002060010160009054906101000a900460ff169150600360008c815260200190815260200160002060010160019054906101000a900460ff1690509193959799509193959799565b6000805b600084815260036020819052604090912001548110156112b557600084815260036020819052604082200180548390811061127b57634e487b7160e01b600052603260045260246000fd5b6000918252602090912001546001600160a01b03908116915084168114156112a257600192505b50806112ad81612631565b915050611230565b5092915050565b6000828152602081905260409020600101546112d8813361185a565b6108078383611942565b6000805b600084815260036020819052604090912001548110156112b55760008481526003602081905260409091200180548290811061133257634e487b7160e01b600052603260045260246000fd5b6000918252602090912001546001600160a01b038481169116141561135a57600191506112b5565b8061136481612631565b9150506112e6565b6001546001600160a01b031633146113c65760405162461bcd60e51b815260206004820181905260248201527f4f776e61626c653a2063616c6c6572206973206e6f7420746865206f776e657260448201526064016106a8565b6001600160a01b03811661142b5760405162461bcd60e51b815260206004820152602660248201527f4f776e61626c653a206e6577206f776e657220697320746865207a65726f206160448201526564647265737360d01b60648201526084016106a8565b61143481611b6e565b50565b60008361145260008051602061267983398151915233610eb6565b61146e5760405162461bcd60e51b81526004016106a8906124f2565b6000818152600360205260409020600701546001600160a01b031633146114a75760405162461bcd60e51b81526004016106a8906124f2565b60008060005b600088815260036020819052604090912001548110156115d6578681815181106114e757634e487b7160e01b600052603260045260246000fd5b60200260200101516001600160a01b0316600360008a8152602001908152602001600020600301828154811061152d57634e487b7160e01b600052603260045260246000fd5b6000918252602090912001546001600160a01b03161461158f5760405162461bcd60e51b815260206004820152601a60248201527f456c656374696f6e2d41646472657373204d69736d617463682100000000000060448201526064016106a8565b8581815181106115af57634e487b7160e01b600052603260045260246000fd5b6020026020010151836115c2919061257e565b9250806115ce81612631565b9150506114ad565b5060005b85518110156116775786818151811061160357634e487b7160e01b600052603260045260246000fd5b60200260200101516001600160a01b03166108fc87838151811061163757634e487b7160e01b600052603260045260246000fd5b6020026020010151600161164b9190612596565b6040518115909202916000818181858888f193505050509150808061166f90612631565b9150506115da565b509695505050505050565b600083815260036020526040808220600581015460049182015492516323b872dd60e01b8152339281019290925230602483015260448201929092526001600160a01b03909116906323b872dd90606401602060405180830381600087803b1580156116ed57600080fd5b505af1158015611701573d6000803e3d6000fd5b505050506040513d601f19601f820116820180604052508101906117259190611fb8565b5060005b6000858152600360208190526040909120015481101561184f5760008581526003602052604090206005015484516001600160a01b039091169063a9059cbb9086908490811061178957634e487b7160e01b600052603260045260246000fd5b60200260200101518584815181106117b157634e487b7160e01b600052603260045260246000fd5b60200260200101516040518363ffffffff1660e01b81526004016117ea9291906001600160a01b03929092168252602082015260400190565b602060405180830381600087803b15801561180457600080fd5b505af1158015611818573d6000803e3d6000fd5b505050506040513d601f19601f8201168201806040525081019061183c9190611fb8565b508061184781612631565b915050611729565b506001949350505050565b6118648282610eb6565b6108865761187c816001600160a01b03166014611bc0565b611887836020611bc0565b604051602001611898929190612340565b60408051601f198184030181529082905262461bcd60e51b82526106a89160040161240c565b6118c88282610eb6565b610886576000828152602081815260408083206001600160a01b03851684529091529020805460ff191660011790556118fe3390565b6001600160a01b0316816001600160a01b0316837f2f8788117e7eff1d82e926ec794901d17c78024a50270940304540a733656f0d60405160405180910390a45050565b61194c8282610eb6565b15610886576000828152602081815260408083206001600160a01b0385168085529252808320805460ff1916905551339285917ff6391f5c32d9c69d2a47ea670b442974b53935d1edc7fd64eb21e047a839171b9190a45050565b60028054600091826119b883612631565b9091555060008181526003602090815260409091208751929350916119e291839190890190611db3565b5060048101859055600681018490558251611a069060038301906020860190611e37565b504260028201556001808201805460ff1916909117905560070180546001600160a01b03191633179055949350505050565b6002805460009182611a4983612631565b909155506000818152600360209081526040909120885192935091611a73918391908a0190611db3565b50600481018690556005810180546001600160a01b0319166001600160a01b038716179055600681018490558251611ab49060038301906020860190611e37565b504260028201556001808201805460ff1916909117905560070180546001600160a01b0319163317905595945050505050565b60005b815181101561088657611b447f9096faa56698daa37ec8d3542ff829c66d5e81213bd6faab8ba4e9ce824a5def838381518110611b3757634e487b7160e01b600052603260045260246000fd5b6020026020010151611da9565b80611b4e81612631565b915050611aea565b61143460008051602061267983398151915282611da9565b600180546001600160a01b038381166001600160a01b0319831681179093556040519116919082907f8be0079c531659141344cd1fd0a4f28419497f9722a3daafe3b4186f6b6457e090600090a35050565b60606000611bcf836002612596565b611bda90600261257e565b67ffffffffffffffff811115611c0057634e487b7160e01b600052604160045260246000fd5b6040519080825280601f01601f191660200182016040528015611c2a576020820181803683370190505b509050600360fc1b81600081518110611c5357634e487b7160e01b600052603260045260246000fd5b60200101906001600160f81b031916908160001a905350600f60fb1b81600181518110611c9057634e487b7160e01b600052603260045260246000fd5b60200101906001600160f81b031916908160001a9053506000611cb4846002612596565b611cbf90600161257e565b90505b6001811115611d53576f181899199a1a9b1b9c1cb0b131b232b360811b85600f1660108110611d0157634e487b7160e01b600052603260045260246000fd5b1a60f81b828281518110611d2557634e487b7160e01b600052603260045260246000fd5b60200101906001600160f81b031916908160001a90535060049490941c93611d4c816125e5565b9050611cc2565b508315611da25760405162461bcd60e51b815260206004820181905260248201527f537472696e67733a20686578206c656e67746820696e73756666696369656e7460448201526064016106a8565b9392505050565b61088682826118be565b828054611dbf906125fc565b90600052602060002090601f016020900481019282611de15760008555611e27565b82601f10611dfa57805160ff1916838001178555611e27565b82800160010185558215611e27579182015b82811115611e27578251825591602001919060010190611e0c565b50611e33929150611e8c565b5090565b828054828255906000526020600020908101928215611e27579160200282015b82811115611e2757825182546001600160a01b0319166001600160a01b03909116178255602090920191600190910190611e57565b5b80821115611e335760008155600101611e8d565b80356001600160a01b0381168114611eb857600080fd5b919050565b600082601f830112611ecd578081fd5b81356020611ee2611edd8361255a565b612529565b80838252828201915082860187848660051b8901011115611f01578586fd5b855b85811015611f2657611f1482611ea1565b84529284019290840190600101611f03565b5090979650505050505050565b600082601f830112611f43578081fd5b813567ffffffffffffffff811115611f5d57611f5d612662565b611f70601f8201601f1916602001612529565b818152846020838601011115611f84578283fd5b816020850160208301379081016020019190915292915050565b600060208284031215611faf578081fd5b611da282611ea1565b600060208284031215611fc9578081fd5b81518015158114611da2578182fd5b600060208284031215611fe9578081fd5b5035919050565b60008060408385031215612002578081fd5b8235915061201260208401611ea1565b90509250929050565b60006020828403121561202c578081fd5b81356001600160e01b031981168114611da2578182fd5b600080600080600060a0868803121561205a578081fd5b853567ffffffffffffffff80821115612071578283fd5b61207d89838a01611f33565b96506020880135955061209260408901611ea1565b94506060880135935060808801359150808211156120ae578283fd5b506120bb88828901611ebd565b9150509295509295909350565b60008060408385031215612002578182fd5b6000806000606084860312156120ee578283fd5b8335925060208085013567ffffffffffffffff8082111561210d578485fd5b61211988838901611ebd565b9450604087013591508082111561212e578384fd5b818701915087601f830112612141578384fd5b813561214f611edd8261255a565b8082825285820191508585018b878560051b880101111561216e578788fd5b875b848110156121a75781358681111561218657898afd5b6121948e8a838b0101611f33565b8552509287019290870190600101612170565b50508096505050505050509250925092565b6000806000606084860312156121cd578081fd5b8335925060208085013567ffffffffffffffff808211156121ec578384fd5b6121f888838901611ebd565b9450604087013591508082111561220d578384fd5b508501601f8101871361221e578283fd5b803561222c611edd8261255a565b8082825284820191508484018a868560051b870101111561224b578687fd5b8694505b8385101561226d57803583526001949094019391850191850161224f565b5080955050505050509250925092565b6000815180845260208085019450808401835b838110156122b55781516001600160a01b031687529582019590820190600101612290565b509495945050505050565b600081518084526020808501808196508360051b81019150828601855b858110156123075782840389526122f5848351612314565b988501989350908401906001016122dd565b5091979650505050505050565b6000815180845261232c8160208601602086016125b5565b601f01601f19169290920160200192915050565b7f416363657373436f6e74726f6c3a206163636f756e74200000000000000000008152600083516123788160178501602088016125b5565b7001034b99036b4b9b9b4b733903937b6329607d1b60179184019182015283516123a98160288401602088016125b5565b01602801949350505050565b60018060a01b03851681528360208201526080604082015260006123dc608083018561227d565b82810360608401526123ee81856122c0565b979650505050505050565b602081526000611da260208301846122c0565b602081526000611da26020830184612314565b60006101408083526124338184018e612314565b90508281036020840152612447818d61227d565b604084019b909b525050606081019790975260808701959095526001600160a01b0393841660a087015260c086019290925290911660e0840152151561010083015215156101209091015292915050565b60006101008083526124ac8184018c612314565b991515602084015250509515156040870152606086019490945260808501929092526001600160a01b0390811660a085015260c08401919091521660e090910152919050565b6020808252601a908201527f53656e646572206e6f7420456c656374696f6e2041646d696e21000000000000604082015260600190565b604051601f8201601f1916810167ffffffffffffffff8111828210171561255257612552612662565b604052919050565b600067ffffffffffffffff82111561257457612574612662565b5060051b60200190565b600082198211156125915761259161264c565b500190565b60008160001904831182151516156125b0576125b061264c565b500290565b60005b838110156125d05781810151838201526020016125b8565b838111156125df576000848401525b50505050565b6000816125f4576125f461264c565b506000190190565b600181811c9082168061261057607f821691505b60208210811415610d6d57634e487b7160e01b600052602260045260246000fd5b60006000198214156126455761264561264c565b5060010190565b634e487b7160e01b600052601160045260246000fd5b634e487b7160e01b600052604160045260246000fdfe16f50c1fe196fa8f2d59c3eca367f2f7bf83b35c12ed36436b26d5af3695f5c4a26469706673582212204187b23ce4071a7b880ca77148a66d0b4a8b65b2301c31c13cef488a3e06cd9164736f6c63430008040033",
  "devdoc": {
    "kind": "dev",
    "methods": {
      "getRoleAdmin(bytes32)": {
        "details": "Returns the admin role that controls `role`. See {grantRole} and {revokeRole}. To change a role's admin, use {_setRoleAdmin}."
      },
      "grantRole(bytes32,address)": {
        "details": "Grants `role` to `account`. If `account` had not been already granted `role`, emits a {RoleGranted} event. Requirements: - the caller must have ``role``'s admin role."
      },
      "hasRole(bytes32,address)": {
        "details": "Returns `true` if `account` has been granted `role`."
      },
      "owner()": {
        "details": "Returns the address of the current owner."
      },
      "renounceOwnership()": {
        "details": "Leaves the contract without owner. It will not be possible to call `onlyOwner` functions anymore. Can only be called by the current owner. NOTE: Renouncing ownership will leave the contract without an owner, thereby removing any functionality that is only available to the owner."
      },
      "renounceRole(bytes32,address)": {
        "details": "Revokes `role` from the calling account. Roles are often managed via {grantRole} and {revokeRole}: this function's purpose is to provide a mechanism for accounts to lose their privileges if they are compromised (such as when a trusted device is misplaced). If the calling account had been granted `role`, emits a {RoleRevoked} event. Requirements: - the caller must be `account`."
      },
      "revokeRole(bytes32,address)": {
        "details": "Revokes `role` from `account`. If `account` had been granted `role`, emits a {RoleRevoked} event. Requirements: - the caller must have ``role``'s admin role."
      },
      "supportsInterface(bytes4)": {
        "details": "See {IERC165-supportsInterface}."
      },
      "transferOwnership(address)": {
        "details": "Transfers ownership of the contract to a new account (`newOwner`). Can only be called by the current owner."
      }
    },
    "version": 1
  },
  "userdoc": {
    "kind": "user",
    "methods": {
      "approveToken(uint256)": {
        "notice": "User Approve selected token for the Funding Amount"
      },
      "castBallot(uint256,address[],string[])": {
        "notice": "Cast a ballot to an election"
      },
      "endElection(uint256)": {
        "notice": "End an Active Election"
      },
      "getElectionById(uint256)": {
        "notice": "Get election metadata by the ID  "
      },
      "newElection(string,uint256,address,uint256,address[])": {
        "notice": "Create a new election  "
      },
      "payoutElection(uint256,address[],uint256[])": {
        "notice": "Payout the election"
      }
    },
    "version": 1
  },
  "storageLayout": {
    "storage": [
      {
        "astId": 24,
        "contract": "contracts/Diplomacy.sol:Diplomacy",
        "label": "_roles",
        "offset": 0,
        "slot": "0",
        "type": "t_mapping(t_bytes32,t_struct(RoleData)19_storage)"
      },
      {
        "astId": 387,
        "contract": "contracts/Diplomacy.sol:Diplomacy",
        "label": "_owner",
        "offset": 0,
        "slot": "1",
        "type": "t_address"
      },
      {
        "astId": 1905,
        "contract": "contracts/Diplomacy.sol:Diplomacy",
        "label": "numElections",
        "offset": 0,
        "slot": "2",
        "type": "t_uint256"
      },
      {
        "astId": 1910,
        "contract": "contracts/Diplomacy.sol:Diplomacy",
        "label": "elections",
        "offset": 0,
        "slot": "3",
        "type": "t_mapping(t_uint256,t_struct(Election)1753_storage)"
      }
    ],
    "types": {
      "t_address": {
        "encoding": "inplace",
        "label": "address",
        "numberOfBytes": "20"
      },
      "t_array(t_address)dyn_storage": {
        "base": "t_address",
        "encoding": "dynamic_array",
        "label": "address[]",
        "numberOfBytes": "32"
      },
      "t_array(t_string_storage)dyn_storage": {
        "base": "t_string_storage",
        "encoding": "dynamic_array",
        "label": "string[]",
        "numberOfBytes": "32"
      },
      "t_bool": {
        "encoding": "inplace",
        "label": "bool",
        "numberOfBytes": "1"
      },
      "t_bytes32": {
        "encoding": "inplace",
        "label": "bytes32",
        "numberOfBytes": "32"
      },
      "t_int256": {
        "encoding": "inplace",
        "label": "int256",
        "numberOfBytes": "32"
      },
      "t_mapping(t_address,t_array(t_string_storage)dyn_storage)": {
        "encoding": "mapping",
        "key": "t_address",
        "label": "mapping(address => string[])",
        "numberOfBytes": "32",
        "value": "t_array(t_string_storage)dyn_storage"
      },
      "t_mapping(t_address,t_bool)": {
        "encoding": "mapping",
        "key": "t_address",
        "label": "mapping(address => bool)",
        "numberOfBytes": "32",
        "value": "t_bool"
      },
      "t_mapping(t_address,t_int256)": {
        "encoding": "mapping",
        "key": "t_address",
        "label": "mapping(address => int256)",
        "numberOfBytes": "32",
        "value": "t_int256"
      },
      "t_mapping(t_bytes32,t_struct(RoleData)19_storage)": {
        "encoding": "mapping",
        "key": "t_bytes32",
        "label": "mapping(bytes32 => struct AccessControl.RoleData)",
        "numberOfBytes": "32",
        "value": "t_struct(RoleData)19_storage"
      },
      "t_mapping(t_uint256,t_struct(Election)1753_storage)": {
        "encoding": "mapping",
        "key": "t_uint256",
        "label": "mapping(uint256 => struct Diplomacy.Election)",
        "numberOfBytes": "32",
        "value": "t_struct(Election)1753_storage"
      },
      "t_string_storage": {
        "encoding": "bytes",
        "label": "string",
        "numberOfBytes": "32"
      },
      "t_struct(Election)1753_storage": {
        "encoding": "inplace",
        "label": "struct Diplomacy.Election",
        "members": [
          {
            "astId": 1722,
            "contract": "contracts/Diplomacy.sol:Diplomacy",
            "label": "name",
            "offset": 0,
            "slot": "0",
            "type": "t_string_storage"
          },
          {
            "astId": 1724,
            "contract": "contracts/Diplomacy.sol:Diplomacy",
            "label": "active",
            "offset": 0,
            "slot": "1",
            "type": "t_bool"
          },
          {
            "astId": 1726,
            "contract": "contracts/Diplomacy.sol:Diplomacy",
            "label": "paid",
            "offset": 1,
            "slot": "1",
            "type": "t_bool"
          },
          {
            "astId": 1728,
            "contract": "contracts/Diplomacy.sol:Diplomacy",
            "label": "createdAt",
            "offset": 0,
            "slot": "2",
            "type": "t_uint256"
          },
          {
            "astId": 1731,
            "contract": "contracts/Diplomacy.sol:Diplomacy",
            "label": "candidates",
            "offset": 0,
            "slot": "3",
            "type": "t_array(t_address)dyn_storage"
          },
          {
            "astId": 1733,
            "contract": "contracts/Diplomacy.sol:Diplomacy",
            "label": "funds",
            "offset": 0,
            "slot": "4",
            "type": "t_uint256"
          },
          {
            "astId": 1735,
            "contract": "contracts/Diplomacy.sol:Diplomacy",
            "label": "token",
            "offset": 0,
            "slot": "5",
            "type": "t_address"
          },
          {
            "astId": 1737,
            "contract": "contracts/Diplomacy.sol:Diplomacy",
            "label": "votes",
            "offset": 0,
            "slot": "6",
            "type": "t_uint256"
          },
          {
            "astId": 1739,
            "contract": "contracts/Diplomacy.sol:Diplomacy",
            "label": "admin",
            "offset": 0,
            "slot": "7",
            "type": "t_address"
          },
          {
            "astId": 1743,
            "contract": "contracts/Diplomacy.sol:Diplomacy",
            "label": "voted",
            "offset": 0,
            "slot": "8",
            "type": "t_mapping(t_address,t_bool)"
          },
          {
            "astId": 1748,
            "contract": "contracts/Diplomacy.sol:Diplomacy",
            "label": "scores",
            "offset": 0,
            "slot": "9",
            "type": "t_mapping(t_address,t_array(t_string_storage)dyn_storage)"
          },
          {
            "astId": 1752,
            "contract": "contracts/Diplomacy.sol:Diplomacy",
            "label": "results",
            "offset": 0,
            "slot": "10",
            "type": "t_mapping(t_address,t_int256)"
          }
        ],
        "numberOfBytes": "352"
      },
      "t_struct(RoleData)19_storage": {
        "encoding": "inplace",
        "label": "struct AccessControl.RoleData",
        "members": [
          {
            "astId": 16,
            "contract": "contracts/Diplomacy.sol:Diplomacy",
            "label": "members",
            "offset": 0,
            "slot": "0",
            "type": "t_mapping(t_address,t_bool)"
          },
          {
            "astId": 18,
            "contract": "contracts/Diplomacy.sol:Diplomacy",
            "label": "adminRole",
            "offset": 0,
            "slot": "1",
            "type": "t_bytes32"
          }
        ],
        "numberOfBytes": "64"
      },
      "t_uint256": {
        "encoding": "inplace",
        "label": "uint256",
        "numberOfBytes": "32"
      }
    }
  }
}