{"address":"0xC1C06B92d563879A8ef29C8DdD94214F5e98a429","bytecode":"0x60806040523480156200001157600080fd5b50604051806040016040528060098152602001684469706c6f6d61637960b81b815250604051806040016040528060018152602001603160f81b81525081816200006a620000646200011e60201b60201c565b62000122565b60016002556040805160808101909152604f808252620038b56020830139805190602001208280519060200120828051906020012030620000b06200017460201b60201c565b60408051602081019690965285019390935260608401919091526001600160a01b0316608083015260a082015260c00160408051601f198184030181529190528051602090910120600355506200011892506000915062000112905062000178565b620001d7565b62000287565b3390565b600180546001600160a01b038381166001600160a01b0319831681179093556040519116919082907f8be0079c531659141344cd1fd0a4f28419497f9722a3daafe3b4186f6b6457e090600090a35050565b4690565b600033301415620001d157600080368080601f0160208091040260200160405190810160405280939291908181526020018383808284376000920191909152505050503601516001600160a01b03169150620001d49050565b50335b90565b620001e38282620001e7565b5050565b6000828152602081815260408083206001600160a01b038516845290915290205460ff16620001e3576000828152602081815260408083206001600160a01b03851684529091529020805460ff19166001179055620002433390565b6001600160a01b0316816001600160a01b0316837f2f8788117e7eff1d82e926ec794901d17c78024a50270940304540a733656f0d60405160405180910390a45050565b61361e80620002976000396000f3fe6080604052600436106101ae5760003560e01c80635e6fef01116100eb578063a217fddf1161008f578063cdb2867b11610061578063cdb2867b146105ab578063d547741f146105cb578063ea3c6cde146105eb578063f2fde38b1461060b57005b8063a217fddf1461052d578063b082c38514610542578063c6958b1214610562578063c71bad6e1461059857005b80638da5cb5b116100c85780638da5cb5b1461046057806391b84f161461048857806391d14854146104c95780639c98bcbb1461050d57005b80635e6fef01146104015780636e38d9bd14610435578063715018a61461044b57005b806336568abe116101525780634548e52b1161012f5780634548e52b146103665780634b8b477e146103865780635277b4ae146103a657806352e968ad146103e157005b806336568abe146102e05780633ac9fc1114610300578063438596321461032057005b80630ece86d01161018b5780630ece86d014610239578063248a9ca31461024c5780632d0335ab1461028a5780632f2ff15d146102c057005b806301ffc9a7146101b757806308108288146101ec5780630c53c51c1461021957005b366101b557005b005b3480156101c357600080fd5b506101d76101d2366004612e41565b61062b565b60405190151581526020015b60405180910390f35b3480156101f857600080fd5b5061020c610207366004612e11565b610694565b6040516101e391906132e8565b61022c610227366004612ce7565b61078b565b6040516101e391906132fb565b6101b5610247366004613016565b610a23565b34801561025857600080fd5b5061027c610267366004612df8565b60009081526020819052604090206001015490565b6040519081526020016101e3565b34801561029657600080fd5b5061027c6102a5366004612cca565b6001600160a01b031660009081526004602052604090205490565b3480156102cc57600080fd5b506101b56102db366004612e11565b610c6f565b3480156102ec57600080fd5b506101b56102fb366004612e11565b610c9a565b34801561030c57600080fd5b506101b561031b366004612df8565b610d26565b34801561032c57600080fd5b506101d761033b366004612e11565b60009182526005602090815260408084206001600160a01b0393909316845291905290205460ff1690565b34801561037257600080fd5b506101b5610381366004612f2f565b610ddd565b34801561039257600080fd5b5061027c6103a1366004612e6b565b611128565b3480156103b257600080fd5b506101d76103c1366004612e11565b600560209081526000928352604080842090915290825290205460ff1681565b3480156103ed57600080fd5b5061027c6103fc366004612df8565b6111c7565b34801561040d57600080fd5b5061042161041c366004612df8565b611268565b6040516101e3989796959493929190613387565b34801561044157600080fd5b5061027c60085481565b34801561045757600080fd5b506101b5611345565b34801561046c57600080fd5b506001546040516001600160a01b0390911681526020016101e3565b34801561049457600080fd5b506101d76104a3366004612e11565b6000918252600760208190526040909220909101546001600160a01b0390811691161490565b3480156104d557600080fd5b506101d76104e4366004612e11565b6000918252602082815260408084206001600160a01b0393909316845291905290205460ff1690565b34801561051957600080fd5b506101b5610528366004612df8565b6113ab565b34801561053957600080fd5b5061027c600081565b34801561054e57600080fd5b5061022c61055d366004612ef7565b611544565b34801561056e57600080fd5b5061058261057d366004612df8565b61160a565b6040516101e39a9998979695949392919061330e565b6101d76105a6366004612d5b565b611843565b3480156105b757600080fd5b506101d76105c6366004612e11565b611a3b565b3480156105d757600080fd5b506101b56105e6366004612e11565b611abc565b3480156105f757600080fd5b506101d7610606366004612e11565b611ae2565b34801561061757600080fd5b506101b5610626366004612cca565b611b5c565b60006001600160e01b031982167f7965db0b00000000000000000000000000000000000000000000000000000000148061068e57507f01ffc9a7000000000000000000000000000000000000000000000000000000006001600160e01b03198316145b92915050565b60008281526006602090815260408083206001600160a01b03851684528252808320805482518185028101850190935280835260609492939192909184015b8282101561077f5783829060005260206000200180546106f2906134fe565b80601f016020809104026020016040519081016040528092919081815260200182805461071e906134fe565b801561076b5780601f106107405761010080835404028352916020019161076b565b820191906000526020600020905b81548152906001019060200180831161074e57829003601f168201915b5050505050815260200190600101906106d3565b50505050905092915050565b6060600061079886611c3e565b90506000356001600160e01b031990811690821614156108255760405162461bcd60e51b815260206004820152603d60248201527f66756e6374696f6e5369676e61747572652063616e206e6f74206265206f662060448201527f657865637574654d6574615472616e73616374696f6e206d6574686f6400000060648201526084015b60405180910390fd5b604080516060810182526001600160a01b038916600081815260046020908152908490205483528201529081018790526108628882888888611c5a565b6108d45760405162461bcd60e51b815260206004820152602160248201527f5369676e657220616e64207369676e617475726520646f206e6f74206d61746360448201527f6800000000000000000000000000000000000000000000000000000000000000606482015260840161081c565b6001600160a01b0388166000908152600460205260409020546108f8906001611d42565b6001600160a01b038916600090815260046020908152604080832093909355915190918291309161092d918c918e91016131c1565b60408051601f1981840301815290829052610947916131a5565b6000604051808303816000865af19150503d8060008114610984576040519150601f19603f3d011682016040523d82523d6000602084013e610989565b606091505b5091509150816109db5760405162461bcd60e51b815260206004820152601c60248201527f46756e6374696f6e2063616c6c206e6f74207375636365737366756c00000000604482015260640161081c565b7f5845892132946850460bff5a0083f71031bc5bf9aadcd40f1de79423eac9b10b8a338b604051610a0e93929190613279565b60405180910390a19998505050505050505050565b82610a507f16f50c1fe196fa8f2d59c3eca367f2f7bf83b35c12ed36436b26d5af3695f5c46104e4611d4e565b610a9c5760405162461bcd60e51b815260206004820152601a60248201527f53656e646572206e6f7420456c656374696f6e2041646d696e21000000000000604482015260640161081c565b600081815260076020819052604090912001546001600160a01b0316610ac0611d4e565b6001600160a01b031614610b165760405162461bcd60e51b815260206004820152601a60248201527f53656e646572206e6f7420456c656374696f6e2041646d696e21000000000000604482015260640161081c565b600280541415610b685760405162461bcd60e51b815260206004820152601f60248201527f5265656e7472616e637947756172643a207265656e7472616e742063616c6c00604482015260640161081c565b6002805560008481526007602052604090206001015460ff1615610bce5760405162461bcd60e51b815260206004820152601660248201527f456c656374696f6e205374696c6c204163746976652100000000000000000000604482015260640161081c565b6000848152600760205260408120600501546001600160a01b0316610bff57610bf8858585611dab565b9050610c0d565b610c0a8585856120a8565b90505b600085815260076020908152604091829020600101805461ff0019166101008515150217905590518681527fb27761a3b9064636a27795816e4f8a8e5cadd6ac8b1e3a553bd47bf414c2b402910160405180910390a150506001600255505050565b600082815260208190526040902060010154610c8b813361213e565b610c9583836121bc565b505050565b6001600160a01b0381163314610d185760405162461bcd60e51b815260206004820152602f60248201527f416363657373436f6e74726f6c3a2063616e206f6e6c792072656e6f756e636560448201527f20726f6c657320666f722073656c660000000000000000000000000000000000606482015260840161081c565b610d22828261225a565b5050565b60008181526007602052604090819020600581015460049182015492517f095ea7b3000000000000000000000000000000000000000000000000000000008152309281019290925260248201929092526001600160a01b039091169063095ea7b390604401602060405180830381600087803b158015610da557600080fd5b505af1158015610db9573d6000803e3d6000fd5b505050506040513d601f19601f82011682018060405250810190610d229190612dd6565b82610e0a7f9096faa56698daa37ec8d3542ff829c66d5e81213bd6faab8ba4e9ce824a5def6104e4611d4e565b610e565760405162461bcd60e51b815260206004820152601e60248201527f53656e646572206e6f7420456c656374696f6e2043616e646964617465210000604482015260640161081c565b610e6281610606611d4e565b610eae5760405162461bcd60e51b815260206004820152601e60248201527f53656e646572206e6f7420456c656374696f6e2043616e646964617465210000604482015260640161081c565b60008481526007602052604090206001015484908490849060ff16610f155760405162461bcd60e51b815260206004820152601460248201527f456c656374696f6e204e6f742041637469766521000000000000000000000000604482015260640161081c565b600083815260056020526040812090610f2c611d4e565b6001600160a01b0316815260208101919091526040016000205460ff1615610f965760405162461bcd60e51b815260206004820152601560248201527f53656e64657220616c726561647920766f746564210000000000000000000000604482015260640161081c565b8151815114610fe75760405162461bcd60e51b815260206004820152601a60248201527f53636f726573202d2041646472657373204d69736d6174636821000000000000604482015260640161081c565b60005b86518110156110995760066000898152602001908152602001600020600088838151811061101a5761101a613564565b60200260200101516001600160a01b03166001600160a01b0316815260200190815260200160002086828151811061105457611054613564565b602090810291909101810151825460018101845560009384529282902081516110869491909101929190910190612adb565b508061109181613533565b915050610fea565b5060008781526005602052604081206001916110b3611d4e565b6001600160a01b031681526020810191909152604001600020805460ff19169115159190911790557faaf8175507b94c84621088891ecf31ca1c2548c0aeab2f2f21d3459515f9c4ed611104611d4e565b88888860405161111794939291906132ae565b60405180910390a150505050505050565b60006001600160a01b03841661114b57611144868685856122d9565b905061115b565b6111588686868686612382565b90505b61116482612449565b61117461116f611d4e565b6124aa565b7fc91fe4766a7a928d6625f66818425dc115b03c854a8ed8d28de2f34a684e0f1a61119d611d4e565b604080516001600160a01b039092168252602082018490520160405180910390a195945050505050565b6000805b60008381526007602052604090206003015481101561126257600083815260076020526040812060030180548390811061120757611207613564565b60009182526020808320909101548683526005825260408084206001600160a01b039092168085529190925291205490915060ff161561124f578261124b81613533565b9350505b508061125a81613533565b9150506111cb565b50919050565b600760205260009081526040902080548190611283906134fe565b80601f01602080910402602001604051908101604052809291908181526020018280546112af906134fe565b80156112fc5780601f106112d1576101008083540402835291602001916112fc565b820191906000526020600020905b8154815290600101906020018083116112df57829003601f168201915b50505060018401546002850154600486015460058701546006880154600790980154969760ff8086169861010090960416965092945090926001600160a01b0391821692911688565b6001546001600160a01b0316331461139f5760405162461bcd60e51b815260206004820181905260248201527f4f776e61626c653a2063616c6c6572206973206e6f7420746865206f776e6572604482015260640161081c565b6113a960006124d4565b565b806113d87f16f50c1fe196fa8f2d59c3eca367f2f7bf83b35c12ed36436b26d5af3695f5c46104e4611d4e565b6114245760405162461bcd60e51b815260206004820152601a60248201527f53656e646572206e6f7420456c656374696f6e2041646d696e21000000000000604482015260640161081c565b600081815260076020819052604090912001546001600160a01b0316611448611d4e565b6001600160a01b03161461149e5760405162461bcd60e51b815260206004820152601a60248201527f53656e646572206e6f7420456c656374696f6e2041646d696e21000000000000604482015260640161081c565b6000828152600760205260409020600181015460ff166115005760405162461bcd60e51b815260206004820152601760248201527f456c656374696f6e20416c726561647920456e64656421000000000000000000604482015260640161081c565b60018101805460ff191690556040518381527f562cd572b2ba3b666cd989fc4ca98419ec81e75f04528df9d9d76fdb7807ee719060200160405180910390a1505050565b6006602052826000526040600020602052816000526040600020818154811061156c57600080fd5b9060005260206000200160009250925050508054611589906134fe565b80601f01602080910402602001604051908101604052809291908181526020018280546115b5906134fe565b80156116025780601f106115d757610100808354040283529160200191611602565b820191906000526020600020905b8154815290600101906020018083116115e557829003601f168201915b505050505081565b606080600080600080600080600080600760008c8152602001908152602001600020600001805461163a906134fe565b80601f0160208091040260200160405190810160405280929190818152602001828054611666906134fe565b80156116b35780601f10611688576101008083540402835291602001916116b3565b820191906000526020600020905b81548152906001019060200180831161169657829003601f168201915b50505050509950600760008c815260200190815260200160002060030180548060200260200160405190810160405280929190818152602001828054801561172457602002820191906000526020600020905b81546001600160a01b03168152600190910190602001808311611706575b50505050509850600760008c8152602001908152602001600020600301805490509750600760008c8152602001908152602001600020600201549650600760008c8152602001908152602001600020600401549550600760008c815260200190815260200160002060050160009054906101000a90046001600160a01b03169450600760008c8152602001908152602001600020600601549350600760008c815260200190815260200160002060070160009054906101000a90046001600160a01b03169250600760008c815260200190815260200160002060010160009054906101000a900460ff169150600760008c815260200190815260200160002060010160019054906101000a900460ff1690509193959799509193959799565b6000805b82811015611a2e57600080600080600089898781811061186957611869613564565b905060200281019061187b91906133e1565b8101906118889190612ce7565b94509450945094509450600061189d85611c3e565b90506000356001600160e01b031990811690821614156118c257505050505050611a1c565b604080516060810182526001600160a01b038816600081815260046020908152908490205483528201529081018690526118ff8782878787611c5a565b61190f5750505050505050611a1c565b6001600160a01b038716600090815260046020526040902054611933906001611d42565b6001600160a01b038816600090815260046020908152604080832093909355915190913091611966918a918c91016131c1565b60408051601f1981840301815290829052611980916131a5565b6000604051808303816000865af19150503d80600081146119bd576040519150601f19603f3d011682016040523d82523d6000602084013e6119c2565b606091505b50509050806119d8575050505050505050611a1c565b7f5845892132946850460bff5a0083f71031bc5bf9aadcd40f1de79423eac9b10b883389604051611a0b93929190613279565b60405180910390a150505050505050505b80611a2681613533565b915050611847565b50600190505b9392505050565b6000805b600084815260076020526040902060030154811015611ab5576000848152600760205260408120600301805483908110611a7b57611a7b613564565b6000918252602090912001546001600160a01b0390811691508416811415611aa257600192505b5080611aad81613533565b915050611a3f565b5092915050565b600082815260208190526040902060010154611ad8813361213e565b610c95838361225a565b6000805b600084815260076020526040902060030154811015611ab5576000848152600760205260409020600301805482908110611b2257611b22613564565b6000918252602090912001546001600160a01b0384811691161415611b4a5760019150611ab5565b80611b5481613533565b915050611ae6565b6001546001600160a01b03163314611bb65760405162461bcd60e51b815260206004820181905260248201527f4f776e61626c653a2063616c6c6572206973206e6f7420746865206f776e6572604482015260640161081c565b6001600160a01b038116611c325760405162461bcd60e51b815260206004820152602660248201527f4f776e61626c653a206e6577206f776e657220697320746865207a65726f206160448201527f6464726573730000000000000000000000000000000000000000000000000000606482015260840161081c565b611c3b816124d4565b50565b6000815160001415611c5257506000919050565b506020015190565b6000806001611c70611c6b88612526565b6125a3565b6040805160008152602081018083529290925260ff861690820152606081018790526080810186905260a0016020604051602081039080840390855afa158015611cbe573d6000803e3d6000fd5b5050604051601f1901519150506001600160a01b038116611d215760405162461bcd60e51b815260206004820152601160248201527f496e76616c6964207369676e6174757265000000000000000000000000000000604482015260640161081c565b866001600160a01b0316816001600160a01b03161491505095945050505050565b6000611a348284613484565b600033301415611da557600080368080601f0160208091040260200160405190810160405280939291908181526020018383808284376000920191909152505050503601516001600160a01b03169150611da89050565b50335b90565b600083611dda7f16f50c1fe196fa8f2d59c3eca367f2f7bf83b35c12ed36436b26d5af3695f5c46104e4611d4e565b611e265760405162461bcd60e51b815260206004820152601a60248201527f53656e646572206e6f7420456c656374696f6e2041646d696e21000000000000604482015260640161081c565b600081815260076020819052604090912001546001600160a01b0316611e4a611d4e565b6001600160a01b031614611ea05760405162461bcd60e51b815260206004820152601a60248201527f53656e646572206e6f7420456c656374696f6e2041646d696e21000000000000604482015260640161081c565b6000805b600087815260076020526040902060030154811015611fa257858181518110611ecf57611ecf613564565b60200260200101516001600160a01b0316600760008981526020019081526020016000206003018281548110611f0757611f07613564565b6000918252602090912001546001600160a01b031614611f695760405162461bcd60e51b815260206004820152601a60248201527f456c656374696f6e2d41646472657373204d69736d6174636821000000000000604482015260640161081c565b848181518110611f7b57611f7b613564565b602002602001015182611f8e9190613484565b915080611f9a81613533565b915050611ea4565b5060005b845181101561209b57600080878381518110611fc457611fc4613564565b60200260200101516001600160a01b0316878481518110611fe757611fe7613564565b602002602001015160405160006040518083038185875af1925050503d806000811461202f576040519150601f19603f3d011682016040523d82523d6000602084013e612034565b606091505b5091509150816120865760405162461bcd60e51b815260206004820152601460248201527f4661696c656420746f2073656e64204574686572000000000000000000000000604482015260640161081c565b5050808061209390613533565b915050611fa6565b5060019695505050505050565b6000805b600085815260076020526040902060030154811015611a2e5761212c6120d0611d4e565b8583815181106120e2576120e2613564565b60200260200101518584815181106120fc576120fc613564565b60209081029190910181015160008a815260079092526040909120600501546001600160a01b03169291906125ee565b8061213681613533565b9150506120ac565b6000828152602081815260408083206001600160a01b038516845290915290205460ff16610d225761217a816001600160a01b0316601461267c565b61218583602061267c565b6040516020016121969291906131f8565b60408051601f198184030181529082905262461bcd60e51b825261081c916004016132fb565b6000828152602081815260408083206001600160a01b038516845290915290205460ff16610d22576000828152602081815260408083206001600160a01b03851684529091529020805460ff191660011790556122163390565b6001600160a01b0316816001600160a01b0316837f2f8788117e7eff1d82e926ec794901d17c78024a50270940304540a733656f0d60405160405180910390a45050565b6000828152602081815260408083206001600160a01b038516845290915290205460ff1615610d22576000828152602081815260408083206001600160a01b0385168085529252808320805460ff1916905551339285917ff6391f5c32d9c69d2a47ea670b442974b53935d1edc7fd64eb21e047a839171b9190a45050565b60088054600091826122ea83613533565b90915550600081815260076020908152604090912087519293509161231491839190890190612adb565b50600481018590556006810184905582516123389060038301906020860190612b5f565b504260028201556001808201805460ff19169091179055612357611d4e565b60079190910180546001600160a01b0319166001600160a01b03909216919091179055949350505050565b600880546000918261239383613533565b9091555060008181526007602090815260409091208851929350916123bd918391908a0190612adb565b50600481018690556005810180546001600160a01b0319166001600160a01b0387161790556006810184905582516123fe9060038301906020860190612b5f565b504260028201556001808201805460ff1916909117905561241d611d4e565b60079190910180546001600160a01b0319166001600160a01b0390921691909117905595945050505050565b60005b8151811015610d22576124987f9096faa56698daa37ec8d3542ff829c66d5e81213bd6faab8ba4e9ce824a5def83838151811061248b5761248b613564565b602002602001015161285d565b806124a281613533565b91505061244c565b611c3b7f16f50c1fe196fa8f2d59c3eca367f2f7bf83b35c12ed36436b26d5af3695f5c48261285d565b600180546001600160a01b038381166001600160a01b0319831681179093556040519116919082907f8be0079c531659141344cd1fd0a4f28419497f9722a3daafe3b4186f6b6457e090600090a35050565b60006040518060800160405280604381526020016135a66043913980516020918201208351848301516040808701518051908601209051612586950193845260208401929092526001600160a01b03166040830152606082015260800190565b604051602081830303815290604052805190602001209050919050565b60006125ae60035490565b6040517f19010000000000000000000000000000000000000000000000000000000000006020820152602281019190915260428101839052606201612586565b604080516001600160a01b0385811660248301528416604482015260648082018490528251808303909101815260849091019091526020810180517bffffffffffffffffffffffffffffffffffffffffffffffffffffffff167f23b872dd00000000000000000000000000000000000000000000000000000000179052612676908590612867565b50505050565b6060600061268b83600261349c565b612696906002613484565b67ffffffffffffffff8111156126ae576126ae61357a565b6040519080825280601f01601f1916602001820160405280156126d8576020820181803683370190505b5090507f30000000000000000000000000000000000000000000000000000000000000008160008151811061270f5761270f613564565b60200101906001600160f81b031916908160001a9053507f78000000000000000000000000000000000000000000000000000000000000008160018151811061275a5761275a613564565b60200101906001600160f81b031916908160001a905350600061277e84600261349c565b612789906001613484565b90505b600181111561280e577f303132333435363738396162636465660000000000000000000000000000000085600f16601081106127ca576127ca613564565b1a60f81b8282815181106127e0576127e0613564565b60200101906001600160f81b031916908160001a90535060049490941c93612807816134e7565b905061278c565b508315611a345760405162461bcd60e51b815260206004820181905260248201527f537472696e67733a20686578206c656e67746820696e73756666696369656e74604482015260640161081c565b610d2282826121bc565b60006128bc826040518060400160405280602081526020017f5361666545524332303a206c6f772d6c6576656c2063616c6c206661696c6564815250856001600160a01b031661294c9092919063ffffffff16565b805190915015610c9557808060200190518101906128da9190612dd6565b610c955760405162461bcd60e51b815260206004820152602a60248201527f5361666545524332303a204552433230206f7065726174696f6e20646964206e60448201527f6f74207375636365656400000000000000000000000000000000000000000000606482015260840161081c565b606061295b8484600085612963565b949350505050565b6060824710156129db5760405162461bcd60e51b815260206004820152602660248201527f416464726573733a20696e73756666696369656e742062616c616e636520666f60448201527f722063616c6c0000000000000000000000000000000000000000000000000000606482015260840161081c565b843b612a295760405162461bcd60e51b815260206004820152601d60248201527f416464726573733a2063616c6c20746f206e6f6e2d636f6e7472616374000000604482015260640161081c565b600080866001600160a01b03168587604051612a4591906131a5565b60006040518083038185875af1925050503d8060008114612a82576040519150601f19603f3d011682016040523d82523d6000602084013e612a87565b606091505b5091509150612a97828286612aa2565b979650505050505050565b60608315612ab1575081611a34565b825115612ac15782518084602001fd5b8160405162461bcd60e51b815260040161081c91906132fb565b828054612ae7906134fe565b90600052602060002090601f016020900481019282612b095760008555612b4f565b82601f10612b2257805160ff1916838001178555612b4f565b82800160010185558215612b4f579182015b82811115612b4f578251825591602001919060010190612b34565b50612b5b929150612bb4565b5090565b828054828255906000526020600020908101928215612b4f579160200282015b82811115612b4f57825182546001600160a01b0319166001600160a01b03909116178255602090920191600190910190612b7f565b5b80821115612b5b5760008155600101612bb5565b600082601f830112612bda57600080fd5b81356020612bef612bea83613460565b61342f565b80838252828201915082860187848660051b8901011115612c0f57600080fd5b60005b85811015612c37578135612c2581613590565b84529284019290840190600101612c12565b5090979650505050505050565b600082601f830112612c5557600080fd5b813567ffffffffffffffff811115612c6f57612c6f61357a565b612c82601f8201601f191660200161342f565b818152846020838601011115612c9757600080fd5b816020850160208301376000918101602001919091529392505050565b803560ff81168114612cc557600080fd5b919050565b600060208284031215612cdc57600080fd5b8135611a3481613590565b600080600080600060a08688031215612cff57600080fd5b8535612d0a81613590565b9450602086013567ffffffffffffffff811115612d2657600080fd5b612d3288828901612c44565b9450506040860135925060608601359150612d4f60808701612cb4565b90509295509295909350565b600080600060408486031215612d7057600080fd5b833567ffffffffffffffff80821115612d8857600080fd5b818601915086601f830112612d9c57600080fd5b813581811115612dab57600080fd5b8760208260051b8501011115612dc057600080fd5b6020928301989097509590910135949350505050565b600060208284031215612de857600080fd5b81518015158114611a3457600080fd5b600060208284031215612e0a57600080fd5b5035919050565b60008060408385031215612e2457600080fd5b823591506020830135612e3681613590565b809150509250929050565b600060208284031215612e5357600080fd5b81356001600160e01b031981168114611a3457600080fd5b600080600080600060a08688031215612e8357600080fd5b853567ffffffffffffffff80821115612e9b57600080fd5b612ea789838a01612c44565b96506020880135955060408801359150612ec082613590565b9093506060870135925060808701359080821115612edd57600080fd5b50612eea88828901612bc9565b9150509295509295909350565b600080600060608486031215612f0c57600080fd5b833592506020840135612f1e81613590565b929592945050506040919091013590565b600080600060608486031215612f4457600080fd5b8335925060208085013567ffffffffffffffff80821115612f6457600080fd5b612f7088838901612bc9565b94506040870135915080821115612f8657600080fd5b818701915087601f830112612f9a57600080fd5b8135612fa8612bea82613460565b8082825285820191508585018b878560051b8801011115612fc857600080fd5b6000805b8581101561300357823587811115612fe2578283fd5b612ff08f8b838c0101612c44565b8652509388019391880191600101612fcc565b5050508096505050505050509250925092565b60008060006060848603121561302b57600080fd5b8335925060208085013567ffffffffffffffff8082111561304b57600080fd5b61305788838901612bc9565b9450604087013591508082111561306d57600080fd5b508501601f8101871361307f57600080fd5b803561308d612bea82613460565b8082825284820191508484018a868560051b87010111156130ad57600080fd5b600094505b838510156130d05780358352600194909401939185019185016130b2565b5080955050505050509250925092565b600081518084526020808501945080840160005b838110156131195781516001600160a01b0316875295820195908201906001016130f4565b509495945050505050565b600081518084526020808501808196508360051b8101915082860160005b8581101561316c57828403895261315a848351613179565b98850198935090840190600101613142565b5091979650505050505050565b600081518084526131918160208601602086016134bb565b601f01601f19169290920160200192915050565b600082516131b78184602087016134bb565b9190910192915050565b600083516131d38184602088016134bb565b60609390931b6bffffffffffffffffffffffff19169190920190815260140192915050565b7f416363657373436f6e74726f6c3a206163636f756e74200000000000000000008152600083516132308160178501602088016134bb565b7f206973206d697373696e6720726f6c6520000000000000000000000000000000601791840191820152835161326d8160288401602088016134bb565b01602801949350505050565b60006001600160a01b038086168352808516602084015250606060408301526132a56060830184613179565b95945050505050565b6001600160a01b03851681528360208201526080604082015260006132d660808301856130e0565b8281036060840152612a978185613124565b602081526000611a346020830184613124565b602081526000611a346020830184613179565b60006101408083526133228184018e613179565b90508281036020840152613336818d6130e0565b604084019b909b525050606081019790975260808701959095526001600160a01b0393841660a087015260c086019290925290911660e0840152151561010083015215156101209091015292915050565b600061010080835261339b8184018c613179565b991515602084015250509515156040870152606086019490945260808501929092526001600160a01b0390811660a085015260c08401919091521660e090910152919050565b6000808335601e198436030181126133f857600080fd5b83018035915067ffffffffffffffff82111561341357600080fd5b60200191503681900382131561342857600080fd5b9250929050565b604051601f8201601f1916810167ffffffffffffffff811182821017156134585761345861357a565b604052919050565b600067ffffffffffffffff82111561347a5761347a61357a565b5060051b60200190565b600082198211156134975761349761354e565b500190565b60008160001904831182151516156134b6576134b661354e565b500290565b60005b838110156134d65781810151838201526020016134be565b838111156126765750506000910152565b6000816134f6576134f661354e565b506000190190565b600181811c9082168061351257607f821691505b6020821081141561126257634e487b7160e01b600052602260045260246000fd5b60006000198214156135475761354761354e565b5060010190565b634e487b7160e01b600052601160045260246000fd5b634e487b7160e01b600052603260045260246000fd5b634e487b7160e01b600052604160045260246000fd5b6001600160a01b0381168114611c3b57600080fdfe4d6574615472616e73616374696f6e2875696e74323536206e6f6e63652c616464726573732066726f6d2c62797465732066756e6374696f6e5369676e617475726529a26469706673582212201c8a5e7138ee3c86ab2295b9789da4ed2a4944c5a6e3909939323b0948587c1864736f6c63430008070033454950373132446f6d61696e28737472696e67206e616d652c737472696e672076657273696f6e2c6164647265737320766572696679696e67436f6e74726163742c627974657333322073616c7429","abi":[{"inputs":[],"stateMutability":"nonpayable","type":"constructor"},{"anonymous":false,"inputs":[{"indexed":false,"internalType":"address","name":"voter","type":"address"},{"indexed":false,"internalType":"uint256","name":"electionId","type":"uint256"},{"indexed":false,"internalType":"address[]","name":"adrs","type":"address[]"},{"indexed":false,"internalType":"string[]","name":"scores","type":"string[]"}],"name":"BallotCast","type":"event"},{"anonymous":false,"inputs":[{"indexed":false,"internalType":"address payable","name":"relayerAddress","type":"address"},{"indexed":false,"internalType":"bytes[]","name":"data","type":"bytes[]"}],"name":"BatchMetaTransactionExecuted","type":"event"},{"anonymous":false,"inputs":[{"indexed":false,"internalType":"address","name":"creator","type":"address"},{"indexed":false,"internalType":"uint256","name":"electionId","type":"uint256"}],"name":"ElectionCreated","type":"event"},{"anonymous":false,"inputs":[{"indexed":false,"internalType":"uint256","name":"electionId","type":"uint256"}],"name":"ElectionEnded","type":"event"},{"anonymous":false,"inputs":[{"indexed":false,"internalType":"uint256","name":"electionId","type":"uint256"}],"name":"ElectionPaid","type":"event"},{"anonymous":false,"inputs":[{"indexed":false,"internalType":"address","name":"userAddress","type":"address"},{"indexed":false,"internalType":"address payable","name":"relayerAddress","type":"address"},{"indexed":false,"internalType":"bytes","name":"functionSignature","type":"bytes"}],"name":"MetaTransactionExecuted","type":"event"},{"anonymous":false,"inputs":[{"indexed":true,"internalType":"address","name":"previousOwner","type":"address"},{"indexed":true,"internalType":"address","name":"newOwner","type":"address"}],"name":"OwnershipTransferred","type":"event"},{"anonymous":false,"inputs":[{"indexed":true,"internalType":"bytes32","name":"role","type":"bytes32"},{"indexed":true,"internalType":"bytes32","name":"previousAdminRole","type":"bytes32"},{"indexed":true,"internalType":"bytes32","name":"newAdminRole","type":"bytes32"}],"name":"RoleAdminChanged","type":"event"},{"anonymous":false,"inputs":[{"indexed":true,"internalType":"bytes32","name":"role","type":"bytes32"},{"indexed":true,"internalType":"address","name":"account","type":"address"},{"indexed":true,"internalType":"address","name":"sender","type":"address"}],"name":"RoleGranted","type":"event"},{"anonymous":false,"inputs":[{"indexed":true,"internalType":"bytes32","name":"role","type":"bytes32"},{"indexed":true,"internalType":"address","name":"account","type":"address"},{"indexed":true,"internalType":"address","name":"sender","type":"address"}],"name":"RoleRevoked","type":"event"},{"stateMutability":"payable","type":"fallback"},{"inputs":[],"name":"DEFAULT_ADMIN_ROLE","outputs":[{"internalType":"bytes32","name":"","type":"bytes32"}],"stateMutability":"view","type":"function"},{"inputs":[{"internalType":"uint256","name":"electionId","type":"uint256"}],"name":"approveToken","outputs":[],"stateMutability":"nonpayable","type":"function"},{"inputs":[{"internalType":"uint256","name":"electionId","type":"uint256"},{"internalType":"address","name":"_sender","type":"address"}],"name":"canVote","outputs":[{"internalType":"bool","name":"status","type":"bool"}],"stateMutability":"view","type":"function"},{"inputs":[{"internalType":"uint256","name":"electionId","type":"uint256"},{"internalType":"address[]","name":"_adrs","type":"address[]"},{"internalType":"string[]","name":"_scores","type":"string[]"}],"name":"castBallot","outputs":[],"stateMutability":"nonpayable","type":"function"},{"inputs":[{"internalType":"uint256","name":"","type":"uint256"}],"name":"elections","outputs":[{"internalType":"string","name":"name","type":"string"},{"internalType":"bool","name":"active","type":"bool"},{"internalType":"bool","name":"paid","type":"bool"},{"internalType":"uint256","name":"createdAt","type":"uint256"},{"internalType":"uint256","name":"funds","type":"uint256"},{"internalType":"address","name":"token","type":"address"},{"internalType":"uint256","name":"votes","type":"uint256"},{"internalType":"address","name":"admin","type":"address"}],"stateMutability":"view","type":"function"},{"inputs":[{"internalType":"uint256","name":"electionId","type":"uint256"}],"name":"endElection","outputs":[],"stateMutability":"nonpayable","type":"function"},{"inputs":[{"internalType":"bytes[]","name":"mtx","type":"bytes[]"},{"internalType":"uint256","name":"size","type":"uint256"}],"name":"executeBatchMetaTransaction","outputs":[{"internalType":"bool","name":"","type":"bool"}],"stateMutability":"payable","type":"function"},{"inputs":[{"internalType":"address","name":"userAddress","type":"address"},{"internalType":"bytes","name":"functionSignature","type":"bytes"},{"internalType":"bytes32","name":"sigR","type":"bytes32"},{"internalType":"bytes32","name":"sigS","type":"bytes32"},{"internalType":"uint8","name":"sigV","type":"uint8"}],"name":"executeMetaTransaction","outputs":[{"internalType":"bytes","name":"","type":"bytes"}],"stateMutability":"payable","type":"function"},{"inputs":[{"internalType":"uint256","name":"electionId","type":"uint256"}],"name":"getElectionById","outputs":[{"internalType":"string","name":"name","type":"string"},{"internalType":"address[]","name":"candidates","type":"address[]"},{"internalType":"uint256","name":"n_addr","type":"uint256"},{"internalType":"uint256","name":"createdAt","type":"uint256"},{"internalType":"uint256","name":"funds","type":"uint256"},{"internalType":"address","name":"token","type":"address"},{"internalType":"uint256","name":"votes","type":"uint256"},{"internalType":"address","name":"admin","type":"address"},{"internalType":"bool","name":"isActive","type":"bool"},{"internalType":"bool","name":"paid","type":"bool"}],"stateMutability":"view","type":"function"},{"inputs":[{"internalType":"uint256","name":"electionId","type":"uint256"},{"internalType":"address","name":"_adr","type":"address"}],"name":"getElectionScores","outputs":[{"internalType":"string[]","name":"","type":"string[]"}],"stateMutability":"view","type":"function"},{"inputs":[{"internalType":"uint256","name":"electionId","type":"uint256"}],"name":"getElectionVoted","outputs":[{"internalType":"uint256","name":"count","type":"uint256"}],"stateMutability":"view","type":"function"},{"inputs":[{"internalType":"address","name":"user","type":"address"}],"name":"getNonce","outputs":[{"internalType":"uint256","name":"nonce","type":"uint256"}],"stateMutability":"view","type":"function"},{"inputs":[{"internalType":"bytes32","name":"role","type":"bytes32"}],"name":"getRoleAdmin","outputs":[{"internalType":"bytes32","name":"","type":"bytes32"}],"stateMutability":"view","type":"function"},{"inputs":[{"internalType":"bytes32","name":"role","type":"bytes32"},{"internalType":"address","name":"account","type":"address"}],"name":"grantRole","outputs":[],"stateMutability":"nonpayable","type":"function"},{"inputs":[{"internalType":"bytes32","name":"role","type":"bytes32"},{"internalType":"address","name":"account","type":"address"}],"name":"hasRole","outputs":[{"internalType":"bool","name":"","type":"bool"}],"stateMutability":"view","type":"function"},{"inputs":[{"internalType":"uint256","name":"electionId","type":"uint256"},{"internalType":"address","name":"_sender","type":"address"}],"name":"hasVoted","outputs":[{"internalType":"bool","name":"","type":"bool"}],"stateMutability":"view","type":"function"},{"inputs":[{"internalType":"uint256","name":"electionId","type":"uint256"},{"internalType":"address","name":"_sender","type":"address"}],"name":"isElectionAdmin","outputs":[{"internalType":"bool","name":"","type":"bool"}],"stateMutability":"view","type":"function"},{"inputs":[{"internalType":"uint256","name":"electionId","type":"uint256"},{"internalType":"address","name":"_sender","type":"address"}],"name":"isElectionCandidate","outputs":[{"internalType":"bool","name":"status","type":"bool"}],"stateMutability":"view","type":"function"},{"inputs":[{"internalType":"string","name":"_name","type":"string"},{"internalType":"uint256","name":"_funds","type":"uint256"},{"internalType":"address","name":"_token","type":"address"},{"internalType":"uint256","name":"_votes","type":"uint256"},{"internalType":"address[]","name":"_adrs","type":"address[]"}],"name":"newElection","outputs":[{"internalType":"uint256","name":"electionId","type":"uint256"}],"stateMutability":"nonpayable","type":"function"},{"inputs":[],"name":"numElections","outputs":[{"internalType":"uint256","name":"","type":"uint256"}],"stateMutability":"view","type":"function"},{"inputs":[],"name":"owner","outputs":[{"internalType":"address","name":"","type":"address"}],"stateMutability":"view","type":"function"},{"inputs":[{"internalType":"uint256","name":"electionId","type":"uint256"},{"internalType":"address[]","name":"_adrs","type":"address[]"},{"internalType":"uint256[]","name":"_pay","type":"uint256[]"}],"name":"payoutElection","outputs":[],"stateMutability":"payable","type":"function"},{"inputs":[],"name":"renounceOwnership","outputs":[],"stateMutability":"nonpayable","type":"function"},{"inputs":[{"internalType":"bytes32","name":"role","type":"bytes32"},{"internalType":"address","name":"account","type":"address"}],"name":"renounceRole","outputs":[],"stateMutability":"nonpayable","type":"function"},{"inputs":[{"internalType":"bytes32","name":"role","type":"bytes32"},{"internalType":"address","name":"account","type":"address"}],"name":"revokeRole","outputs":[],"stateMutability":"nonpayable","type":"function"},{"inputs":[{"internalType":"uint256","name":"","type":"uint256"},{"internalType":"address","name":"","type":"address"},{"internalType":"uint256","name":"","type":"uint256"}],"name":"scores","outputs":[{"internalType":"string","name":"","type":"string"}],"stateMutability":"view","type":"function"},{"inputs":[{"internalType":"bytes4","name":"interfaceId","type":"bytes4"}],"name":"supportsInterface","outputs":[{"internalType":"bool","name":"","type":"bool"}],"stateMutability":"view","type":"function"},{"inputs":[{"internalType":"address","name":"newOwner","type":"address"}],"name":"transferOwnership","outputs":[],"stateMutability":"nonpayable","type":"function"},{"inputs":[{"internalType":"uint256","name":"","type":"uint256"},{"internalType":"address","name":"","type":"address"}],"name":"voted","outputs":[{"internalType":"bool","name":"","type":"bool"}],"stateMutability":"view","type":"function"},{"stateMutability":"payable","type":"receive"}]}