{"address":"0xd57eC3ED8BB6b16aE3eE039114512bcFD1001ECC","bytecode":"0x60806040523480156200001157600080fd5b50604051806040016040528060098152602001684469706c6f6d61637960b81b815250604051806040016040528060018152602001603160f81b81525081816200006a620000646200011e60201b60201c565b62000122565b60016002556040805160808101909152604f808252620035726020830139805190602001208280519060200120828051906020012030620000b06200017460201b60201c565b60408051602081019690965285019390935260608401919091526001600160a01b0316608083015260a082015260c00160408051601f198184030181529190528051602090910120600355506200011892506000915062000112905062000178565b620001d7565b62000287565b3390565b600180546001600160a01b038381166001600160a01b0319831681179093556040519116919082907f8be0079c531659141344cd1fd0a4f28419497f9722a3daafe3b4186f6b6457e090600090a35050565b4690565b600033301415620001d157600080368080601f0160208091040260200160405190810160405280939291908181526020018383808284376000920191909152505050503601516001600160a01b03169150620001d49050565b50335b90565b620001e38282620001e7565b5050565b6000828152602081815260408083206001600160a01b038516845290915290205460ff16620001e3576000828152602081815260408083206001600160a01b03851684529091529020805460ff19166001179055620002433390565b6001600160a01b0316816001600160a01b0316837f2f8788117e7eff1d82e926ec794901d17c78024a50270940304540a733656f0d60405160405180910390a45050565b6132db80620002976000396000f3fe6080604052600436106101ae5760003560e01c80635e6fef01116100eb578063a217fddf1161008f578063cdb2867b11610061578063cdb2867b14610587578063d547741f146105a7578063ea3c6cde146105c7578063f2fde38b146105e757005b8063a217fddf14610509578063b082c3851461051e578063c6958b121461053e578063c71bad6e1461057457005b80638da5cb5b116100c85780638da5cb5b1461046057806391b84f161461048857806391d14854146104c95780639c98bcbb146104e957005b80635e6fef01146104015780636e38d9bd14610435578063715018a61461044b57005b806336568abe116101525780634548e52b1161012f5780634548e52b146103665780634b8b477e146103865780635277b4ae146103a657806352e968ad146103e157005b806336568abe146102e05780633ac9fc1114610300578063438596321461032057005b80630ece86d01161018b5780630ece86d014610239578063248a9ca31461024c5780632d0335ab1461028a5780632f2ff15d146102c057005b806301ffc9a7146101b757806308108288146101ec5780630c53c51c1461021957005b366101b557005b005b3480156101c357600080fd5b506101d76101d2366004612ae2565b610607565b60405190151581526020015b60405180910390f35b3480156101f857600080fd5b5061020c610207366004612ab3565b61063e565b6040516101e39190612f66565b61022c610227366004612993565b610735565b6040516101e39190612f79565b6101b5610247366004612ca9565b6109b1565b34801561025857600080fd5b5061027c610267366004612a9b565b60009081526020819052604090206001015490565b6040519081526020016101e3565b34801561029657600080fd5b5061027c6102a5366004612977565b6001600160a01b031660009081526004602052604090205490565b3480156102cc57600080fd5b506101b56102db366004612ab3565b610b84565b3480156102ec57600080fd5b506101b56102fb366004612ab3565b610baf565b34801561030c57600080fd5b506101b561031b366004612a9b565b610c2d565b34801561032c57600080fd5b506101d761033b366004612ab3565b60009182526005602090815260408084206001600160a01b0393909316845291905290205460ff1690565b34801561037257600080fd5b506101b5610381366004612bca565b610ccb565b34801561039257600080fd5b5061027c6103a1366004612b0a565b611021565b3480156103b257600080fd5b506101d76103c1366004612ab3565b600560209081526000928352604080842090915290825290205460ff1681565b3480156103ed57600080fd5b5061027c6103fc366004612a9b565b6110c0565b34801561040d57600080fd5b5061042161041c366004612a9b565b61116f565b6040516101e3989796959493929190613005565b34801561044157600080fd5b5061027c60085481565b34801561045757600080fd5b506101b561124c565b34801561046c57600080fd5b506001546040516001600160a01b0390911681526020016101e3565b34801561049457600080fd5b506101d76104a3366004612ab3565b6000918252600760208190526040909220909101546001600160a01b0390811691161490565b3480156104d557600080fd5b506101d76104e4366004612ab3565b6112b2565b3480156104f557600080fd5b506101b5610504366004612a9b565b6112db565b34801561051557600080fd5b5061027c600081565b34801561052a57600080fd5b5061022c610539366004612b93565b611402565b34801561054a57600080fd5b5061055e610559366004612a9b565b6114c8565b6040516101e39a99989796959493929190612f8c565b6101d7610582366004612a05565b611701565b34801561059357600080fd5b506101d76105a2366004612ab3565b6117c9565b3480156105b357600080fd5b506101b56105c2366004612ab3565b611858565b3480156105d357600080fd5b506101d76105e2366004612ab3565b61187e565b3480156105f357600080fd5b506101b5610602366004612977565b611906565b60006001600160e01b03198216637965db0b60e01b148061063857506301ffc9a760e01b6001600160e01b03198316145b92915050565b60008281526006602090815260408083206001600160a01b03851684528252808320805482518185028101850190935280835260609492939192909184015b8282101561072957838290600052602060002001805461069c906131b1565b80601f01602080910402602001604051908101604052809291908181526020018280546106c8906131b1565b80156107155780601f106106ea57610100808354040283529160200191610715565b820191906000526020600020905b8154815290600101906020018083116106f857829003601f168201915b50505050508152602001906001019061067d565b50505050905092915050565b60606000610742866119d1565b90506000356001600160e01b031990811690821614156107cf5760405162461bcd60e51b815260206004820152603d60248201527f66756e6374696f6e5369676e61747572652063616e206e6f74206265206f662060448201527f657865637574654d6574615472616e73616374696f6e206d6574686f6400000060648201526084015b60405180910390fd5b604080516060810182526001600160a01b0389166000818152600460209081529084902054835282015290810187905261080c88828888886119ed565b6108625760405162461bcd60e51b815260206004820152602160248201527f5369676e657220616e64207369676e617475726520646f206e6f74206d6174636044820152600d60fb1b60648201526084016107c6565b6001600160a01b038816600090815260046020526040902054610886906001611ac9565b6001600160a01b03891660009081526004602090815260408083209390935591519091829130916108bb918c918e9101612e4c565b60408051601f19818403018152908290526108d591612e30565b6000604051808303816000865af19150503d8060008114610912576040519150601f19603f3d011682016040523d82523d6000602084013e610917565b606091505b5091509150816109695760405162461bcd60e51b815260206004820152601c60248201527f46756e6374696f6e2063616c6c206e6f74207375636365737366756c0000000060448201526064016107c6565b7f5845892132946850460bff5a0083f71031bc5bf9aadcd40f1de79423eac9b10b8a338b60405161099c93929190612ef8565b60405180910390a19998505050505050505050565b826109cc6000805160206132868339815191526104e4611ad5565b6109e85760405162461bcd60e51b81526004016107c69061305f565b600081815260076020819052604090912001546001600160a01b0316610a0c611ad5565b6001600160a01b031614610a325760405162461bcd60e51b81526004016107c69061305f565b600280541415610a845760405162461bcd60e51b815260206004820152601f60248201527f5265656e7472616e637947756172643a207265656e7472616e742063616c6c0060448201526064016107c6565b6002805560008481526007602052604090206001015460ff1615610ae35760405162461bcd60e51b8152602060048201526016602482015275456c656374696f6e205374696c6c204163746976652160501b60448201526064016107c6565b6000848152600760205260408120600501546001600160a01b0316610b1457610b0d858585611b32565b9050610b22565b610b1f858585611dfa565b90505b600085815260076020908152604091829020600101805461ff0019166101008515150217905590518681527fb27761a3b9064636a27795816e4f8a8e5cadd6ac8b1e3a553bd47bf414c2b402910160405180910390a150506001600255505050565b600082815260208190526040902060010154610ba08133611eb7565b610baa8383611f1b565b505050565b6001600160a01b0381163314610c1f5760405162461bcd60e51b815260206004820152602f60248201527f416363657373436f6e74726f6c3a2063616e206f6e6c792072656e6f756e636560448201526e103937b632b9903337b91039b2b63360891b60648201526084016107c6565b610c298282611f9f565b5050565b600081815260076020526040908190206005810154600491820154925163095ea7b360e01b8152309281019290925260248201929092526001600160a01b039091169063095ea7b390604401602060405180830381600087803b158015610c9357600080fd5b505af1158015610ca7573d6000803e3d6000fd5b505050506040513d601f19601f82011682018060405250810190610c299190612a7b565b82610cf87f9096faa56698daa37ec8d3542ff829c66d5e81213bd6faab8ba4e9ce824a5def6104e4611ad5565b610d445760405162461bcd60e51b815260206004820152601e60248201527f53656e646572206e6f7420456c656374696f6e2043616e64696461746521000060448201526064016107c6565b610d50816105e2611ad5565b610d9c5760405162461bcd60e51b815260206004820152601e60248201527f53656e646572206e6f7420456c656374696f6e2043616e64696461746521000060448201526064016107c6565b60008481526007602052604090206001015484908490849060ff16610dfa5760405162461bcd60e51b8152602060048201526014602482015273456c656374696f6e204e6f74204163746976652160601b60448201526064016107c6565b600083815260056020526040812090610e11611ad5565b6001600160a01b0316815260208101919091526040016000205460ff1615610e735760405162461bcd60e51b815260206004820152601560248201527453656e64657220616c726561647920766f7465642160581b60448201526064016107c6565b8151815114610ec45760405162461bcd60e51b815260206004820152601a60248201527f53636f726573202d2041646472657373204d69736d617463682100000000000060448201526064016107c6565b60005b8651811015610f9257600660008981526020019081526020016000206000888381518110610f0557634e487b7160e01b600052603260045260246000fd5b60200260200101516001600160a01b03166001600160a01b03168152602001908152602001600020868281518110610f4d57634e487b7160e01b600052603260045260246000fd5b60209081029190910181015182546001810184556000938452928290208151610f7f9491909101929190910190612790565b5080610f8a816131e6565b915050610ec7565b506000878152600560205260408120600191610fac611ad5565b6001600160a01b031681526020810191909152604001600020805460ff19169115159190911790557faaf8175507b94c84621088891ecf31ca1c2548c0aeab2f2f21d3459515f9c4ed610ffd611ad5565b8888886040516110109493929190612f2d565b60405180910390a150505050505050565b60006001600160a01b0384166110445761103d86868585612004565b9050611054565b61105186868686866120ad565b90505b61105d82612174565b61106d611068611ad5565b6121e3565b7fc91fe4766a7a928d6625f66818425dc115b03c854a8ed8d28de2f34a684e0f1a611096611ad5565b604080516001600160a01b039092168252602082018490520160405180910390a195945050505050565b6000805b60008381526007602052604090206003015481101561116957600083815260076020526040812060030180548390811061110e57634e487b7160e01b600052603260045260246000fd5b60009182526020808320909101548683526005825260408084206001600160a01b039092168085529190925291205490915060ff16156111565782611152816131e6565b9350505b5080611161816131e6565b9150506110c4565b50919050565b60076020526000908152604090208054819061118a906131b1565b80601f01602080910402602001604051908101604052809291908181526020018280546111b6906131b1565b80156112035780601f106111d857610100808354040283529160200191611203565b820191906000526020600020905b8154815290600101906020018083116111e657829003601f168201915b50505060018401546002850154600486015460058701546006880154600790980154969760ff8086169861010090960416965092945090926001600160a01b0391821692911688565b6001546001600160a01b031633146112a65760405162461bcd60e51b815260206004820181905260248201527f4f776e61626c653a2063616c6c6572206973206e6f7420746865206f776e657260448201526064016107c6565b6112b060006121fb565b565b6000918252602082815260408084206001600160a01b0393909316845291905290205460ff1690565b806112f66000805160206132868339815191526104e4611ad5565b6113125760405162461bcd60e51b81526004016107c69061305f565b600081815260076020819052604090912001546001600160a01b0316611336611ad5565b6001600160a01b03161461135c5760405162461bcd60e51b81526004016107c69061305f565b6000828152600760205260409020600181015460ff166113be5760405162461bcd60e51b815260206004820152601760248201527f456c656374696f6e20416c726561647920456e6465642100000000000000000060448201526064016107c6565b60018101805460ff191690556040518381527f562cd572b2ba3b666cd989fc4ca98419ec81e75f04528df9d9d76fdb7807ee719060200160405180910390a1505050565b6006602052826000526040600020602052816000526040600020818154811061142a57600080fd5b9060005260206000200160009250925050508054611447906131b1565b80601f0160208091040260200160405190810160405280929190818152602001828054611473906131b1565b80156114c05780601f10611495576101008083540402835291602001916114c0565b820191906000526020600020905b8154815290600101906020018083116114a357829003601f168201915b505050505081565b606080600080600080600080600080600760008c815260200190815260200160002060000180546114f8906131b1565b80601f0160208091040260200160405190810160405280929190818152602001828054611524906131b1565b80156115715780601f1061154657610100808354040283529160200191611571565b820191906000526020600020905b81548152906001019060200180831161155457829003601f168201915b50505050509950600760008c81526020019081526020016000206003018054806020026020016040519081016040528092919081815260200182805480156115e257602002820191906000526020600020905b81546001600160a01b031681526001909101906020018083116115c4575b50505050509850600760008c8152602001908152602001600020600301805490509750600760008c8152602001908152602001600020600201549650600760008c8152602001908152602001600020600401549550600760008c815260200190815260200160002060050160009054906101000a90046001600160a01b03169450600760008c8152602001908152602001600020600601549350600760008c815260200190815260200160002060070160009054906101000a90046001600160a01b03169250600760008c815260200190815260200160002060010160009054906101000a900460ff169150600760008c815260200190815260200160002060010160019054906101000a900460ff1690509193959799509193959799565b6000805b8281101561178457600080600080600089898781811061173557634e487b7160e01b600052603260045260246000fd5b90506020028101906117479190613096565b8101906117549190612993565b9450945094509450945061176b8585858585610735565b505050505050808061177c906131e6565b915050611705565b5060408051338152602081018490527fd761ebc8542bf9f4bc3e93954097f0ffcc1f3f42ef8410147a0d92c55059c93a910160405180910390a15060015b9392505050565b6000805b60008481526007602052604090206003015481101561185157600084815260076020526040812060030180548390811061181757634e487b7160e01b600052603260045260246000fd5b6000918252602090912001546001600160a01b039081169150841681141561183e57600192505b5080611849816131e6565b9150506117cd565b5092915050565b6000828152602081905260409020600101546118748133611eb7565b610baa8383611f9f565b6000805b6000848152600760205260409020600301548110156118515760008481526007602052604090206003018054829081106118cc57634e487b7160e01b600052603260045260246000fd5b6000918252602090912001546001600160a01b03848116911614156118f45760019150611851565b806118fe816131e6565b915050611882565b6001546001600160a01b031633146119605760405162461bcd60e51b815260206004820181905260248201527f4f776e61626c653a2063616c6c6572206973206e6f7420746865206f776e657260448201526064016107c6565b6001600160a01b0381166119c55760405162461bcd60e51b815260206004820152602660248201527f4f776e61626c653a206e6577206f776e657220697320746865207a65726f206160448201526564647265737360d01b60648201526084016107c6565b6119ce816121fb565b50565b60008151600014156119e557506000919050565b506020015190565b6000806001611a036119fe8861224d565b6122ca565b6040805160008152602081018083529290925260ff861690820152606081018790526080810186905260a0016020604051602081039080840390855afa158015611a51573d6000803e3d6000fd5b5050604051601f1901519150506001600160a01b038116611aa85760405162461bcd60e51b8152602060048201526011602482015270496e76616c6964207369676e617475726560781b60448201526064016107c6565b866001600160a01b0316816001600160a01b03161491505095945050505050565b60006117c28284613137565b600033301415611b2c57600080368080601f0160208091040260200160405190810160405280939291908181526020018383808284376000920191909152505050503601516001600160a01b03169150611b2f9050565b50335b90565b600083611b4f6000805160206132868339815191526104e4611ad5565b611b6b5760405162461bcd60e51b81526004016107c69061305f565b600081815260076020819052604090912001546001600160a01b0316611b8f611ad5565b6001600160a01b031614611bb55760405162461bcd60e51b81526004016107c69061305f565b6000805b600087815260076020526040902060030154811015611ce157858181518110611bf257634e487b7160e01b600052603260045260246000fd5b60200260200101516001600160a01b0316600760008981526020019081526020016000206003018281548110611c3857634e487b7160e01b600052603260045260246000fd5b6000918252602090912001546001600160a01b031614611c9a5760405162461bcd60e51b815260206004820152601a60248201527f456c656374696f6e2d41646472657373204d69736d617463682100000000000060448201526064016107c6565b848181518110611cba57634e487b7160e01b600052603260045260246000fd5b602002602001015182611ccd9190613137565b915080611cd9816131e6565b915050611bb9565b5060005b8451811015611ded57600080878381518110611d1157634e487b7160e01b600052603260045260246000fd5b60200260200101516001600160a01b0316878481518110611d4257634e487b7160e01b600052603260045260246000fd5b602002602001015160405160006040518083038185875af1925050503d8060008114611d8a576040519150601f19603f3d011682016040523d82523d6000602084013e611d8f565b606091505b509150915081611dd85760405162461bcd60e51b81526020600482015260146024820152732330b4b632b2103a379039b2b7321022ba3432b960611b60448201526064016107c6565b50508080611de5906131e6565b915050611ce5565b5060019695505050505050565b6000805b600085815260076020526040902060030154811015611eac57611e9a611e22611ad5565b858381518110611e4257634e487b7160e01b600052603260045260246000fd5b6020026020010151858481518110611e6a57634e487b7160e01b600052603260045260246000fd5b60209081029190910181015160008a815260079092526040909120600501546001600160a01b03169291906122fa565b80611ea4816131e6565b915050611dfe565b506001949350505050565b611ec182826112b2565b610c2957611ed9816001600160a01b0316601461235a565b611ee483602061235a565b604051602001611ef5929190612e83565b60408051601f198184030181529082905262461bcd60e51b82526107c691600401612f79565b611f2582826112b2565b610c29576000828152602081815260408083206001600160a01b03851684529091529020805460ff19166001179055611f5b3390565b6001600160a01b0316816001600160a01b0316837f2f8788117e7eff1d82e926ec794901d17c78024a50270940304540a733656f0d60405160405180910390a45050565b611fa982826112b2565b15610c29576000828152602081815260408083206001600160a01b0385168085529252808320805460ff1916905551339285917ff6391f5c32d9c69d2a47ea670b442974b53935d1edc7fd64eb21e047a839171b9190a45050565b6008805460009182612015836131e6565b90915550600081815260076020908152604090912087519293509161203f91839190890190612790565b50600481018590556006810184905582516120639060038301906020860190612814565b504260028201556001808201805460ff19169091179055612082611ad5565b60079190910180546001600160a01b0319166001600160a01b03909216919091179055949350505050565b60088054600091826120be836131e6565b9091555060008181526007602090815260409091208851929350916120e8918391908a0190612790565b50600481018690556005810180546001600160a01b0319166001600160a01b0387161790556006810184905582516121299060038301906020860190612814565b504260028201556001808201805460ff19169091179055612148611ad5565b60079190910180546001600160a01b0319166001600160a01b0390921691909117905595945050505050565b60005b8151811015610c29576121d17f9096faa56698daa37ec8d3542ff829c66d5e81213bd6faab8ba4e9ce824a5def8383815181106121c457634e487b7160e01b600052603260045260246000fd5b602002602001015161253c565b806121db816131e6565b915050612177565b6119ce6000805160206132868339815191528261253c565b600180546001600160a01b038381166001600160a01b0319831681179093556040519116919082907f8be0079c531659141344cd1fd0a4f28419497f9722a3daafe3b4186f6b6457e090600090a35050565b600060405180608001604052806043815260200161324360439139805160209182012083518483015160408087015180519086012090516122ad950193845260208401929092526001600160a01b03166040830152606082015260800190565b604051602081830303815290604052805190602001209050919050565b60006122d560035490565b60405161190160f01b60208201526022810191909152604281018390526062016122ad565b604080516001600160a01b0385811660248301528416604482015260648082018490528251808303909101815260849091019091526020810180516001600160e01b03166323b872dd60e01b179052612354908590612546565b50505050565b6060600061236983600261314f565b612374906002613137565b67ffffffffffffffff81111561239a57634e487b7160e01b600052604160045260246000fd5b6040519080825280601f01601f1916602001820160405280156123c4576020820181803683370190505b509050600360fc1b816000815181106123ed57634e487b7160e01b600052603260045260246000fd5b60200101906001600160f81b031916908160001a905350600f60fb1b8160018151811061242a57634e487b7160e01b600052603260045260246000fd5b60200101906001600160f81b031916908160001a905350600061244e84600261314f565b612459906001613137565b90505b60018111156124ed576f181899199a1a9b1b9c1cb0b131b232b360811b85600f166010811061249b57634e487b7160e01b600052603260045260246000fd5b1a60f81b8282815181106124bf57634e487b7160e01b600052603260045260246000fd5b60200101906001600160f81b031916908160001a90535060049490941c936124e68161319a565b905061245c565b5083156117c25760405162461bcd60e51b815260206004820181905260248201527f537472696e67733a20686578206c656e67746820696e73756666696369656e7460448201526064016107c6565b610c298282611f1b565b600061259b826040518060400160405280602081526020017f5361666545524332303a206c6f772d6c6576656c2063616c6c206661696c6564815250856001600160a01b03166126189092919063ffffffff16565b805190915015610baa57808060200190518101906125b99190612a7b565b610baa5760405162461bcd60e51b815260206004820152602a60248201527f5361666545524332303a204552433230206f7065726174696f6e20646964206e6044820152691bdd081cdd58d8d9595960b21b60648201526084016107c6565b6060612627848460008561262f565b949350505050565b6060824710156126905760405162461bcd60e51b815260206004820152602660248201527f416464726573733a20696e73756666696369656e742062616c616e636520666f6044820152651c8818d85b1b60d21b60648201526084016107c6565b843b6126de5760405162461bcd60e51b815260206004820152601d60248201527f416464726573733a2063616c6c20746f206e6f6e2d636f6e747261637400000060448201526064016107c6565b600080866001600160a01b031685876040516126fa9190612e30565b60006040518083038185875af1925050503d8060008114612737576040519150601f19603f3d011682016040523d82523d6000602084013e61273c565b606091505b509150915061274c828286612757565b979650505050505050565b606083156127665750816117c2565b8251156127765782518084602001fd5b8160405162461bcd60e51b81526004016107c69190612f79565b82805461279c906131b1565b90600052602060002090601f0160209004810192826127be5760008555612804565b82601f106127d757805160ff1916838001178555612804565b82800160010185558215612804579182015b828111156128045782518255916020019190600101906127e9565b50612810929150612869565b5090565b828054828255906000526020600020908101928215612804579160200282015b8281111561280457825182546001600160a01b0319166001600160a01b03909116178255602090920191600190910190612834565b5b80821115612810576000815560010161286a565b600082601f83011261288e578081fd5b813560206128a361289e83613113565b6130e2565b80838252828201915082860187848660051b89010111156128c2578586fd5b855b858110156128e95781356128d78161322d565b845292840192908401906001016128c4565b5090979650505050505050565b600082601f830112612906578081fd5b813567ffffffffffffffff81111561292057612920613217565b612933601f8201601f19166020016130e2565b818152846020838601011115612947578283fd5b816020850160208301379081016020019190915292915050565b803560ff8116811461297257600080fd5b919050565b600060208284031215612988578081fd5b81356117c28161322d565b600080600080600060a086880312156129aa578081fd5b85356129b58161322d565b9450602086013567ffffffffffffffff8111156129d0578182fd5b6129dc888289016128f6565b94505060408601359250606086013591506129f960808701612961565b90509295509295909350565b600080600060408486031215612a19578283fd5b833567ffffffffffffffff80821115612a30578485fd5b818601915086601f830112612a43578485fd5b813581811115612a51578586fd5b8760208260051b8501011115612a65578586fd5b6020928301989097509590910135949350505050565b600060208284031215612a8c578081fd5b815180151581146117c2578182fd5b600060208284031215612aac578081fd5b5035919050565b60008060408385031215612ac5578182fd5b823591506020830135612ad78161322d565b809150509250929050565b600060208284031215612af3578081fd5b81356001600160e01b0319811681146117c2578182fd5b600080600080600060a08688031215612b21578283fd5b853567ffffffffffffffff80821115612b38578485fd5b612b4489838a016128f6565b96506020880135955060408801359150612b5d8261322d565b9093506060870135925060808701359080821115612b79578283fd5b50612b868882890161287e565b9150509295509295909350565b600080600060608486031215612ba7578081fd5b833592506020840135612bb98161322d565b929592945050506040919091013590565b600080600060608486031215612bde578081fd5b8335925060208085013567ffffffffffffffff80821115612bfd578384fd5b612c098883890161287e565b94506040870135915080821115612c1e578384fd5b818701915087601f830112612c31578384fd5b8135612c3f61289e82613113565b8082825285820191508585018b878560051b8801011115612c5e578788fd5b875b84811015612c9757813586811115612c7657898afd5b612c848e8a838b01016128f6565b8552509287019290870190600101612c60565b50508096505050505050509250925092565b600080600060608486031215612cbd578081fd5b8335925060208085013567ffffffffffffffff80821115612cdc578384fd5b612ce88883890161287e565b94506040870135915080821115612cfd578384fd5b508501601f81018713612d0e578283fd5b8035612d1c61289e82613113565b8082825284820191508484018a868560051b8701011115612d3b578687fd5b8694505b83851015612d5d578035835260019490940193918501918501612d3f565b5080955050505050509250925092565b6000815180845260208085019450808401835b83811015612da55781516001600160a01b031687529582019590820190600101612d80565b509495945050505050565b600081518084526020808501808196508360051b81019150828601855b85811015612df7578284038952612de5848351612e04565b98850198935090840190600101612dcd565b5091979650505050505050565b60008151808452612e1c81602086016020860161316e565b601f01601f19169290920160200192915050565b60008251612e4281846020870161316e565b9190910192915050565b60008351612e5e81846020880161316e565b60609390931b6bffffffffffffffffffffffff19169190920190815260140192915050565b7f416363657373436f6e74726f6c3a206163636f756e7420000000000000000000815260008351612ebb81601785016020880161316e565b7001034b99036b4b9b9b4b733903937b6329607d1b6017918401918201528351612eec81602884016020880161316e565b01602801949350505050565b6001600160a01b03848116825283166020820152606060408201819052600090612f2490830184612e04565b95945050505050565b60018060a01b0385168152836020820152608060408201526000612f546080830185612d6d565b828103606084015261274c8185612db0565b6020815260006117c26020830184612db0565b6020815260006117c26020830184612e04565b6000610140808352612fa08184018e612e04565b90508281036020840152612fb4818d612d6d565b604084019b909b525050606081019790975260808701959095526001600160a01b0393841660a087015260c086019290925290911660e0840152151561010083015215156101209091015292915050565b60006101008083526130198184018c612e04565b991515602084015250509515156040870152606086019490945260808501929092526001600160a01b0390811660a085015260c08401919091521660e090910152919050565b6020808252601a908201527f53656e646572206e6f7420456c656374696f6e2041646d696e21000000000000604082015260600190565b6000808335601e198436030181126130ac578283fd5b83018035915067ffffffffffffffff8211156130c6578283fd5b6020019150368190038213156130db57600080fd5b9250929050565b604051601f8201601f1916810167ffffffffffffffff8111828210171561310b5761310b613217565b604052919050565b600067ffffffffffffffff82111561312d5761312d613217565b5060051b60200190565b6000821982111561314a5761314a613201565b500190565b600081600019048311821515161561316957613169613201565b500290565b60005b83811015613189578181015183820152602001613171565b838111156123545750506000910152565b6000816131a9576131a9613201565b506000190190565b600181811c908216806131c557607f821691505b6020821081141561116957634e487b7160e01b600052602260045260246000fd5b60006000198214156131fa576131fa613201565b5060010190565b634e487b7160e01b600052601160045260246000fd5b634e487b7160e01b600052604160045260246000fd5b6001600160a01b03811681146119ce57600080fdfe4d6574615472616e73616374696f6e2875696e74323536206e6f6e63652c616464726573732066726f6d2c62797465732066756e6374696f6e5369676e61747572652916f50c1fe196fa8f2d59c3eca367f2f7bf83b35c12ed36436b26d5af3695f5c4a2646970667358221220b40996bc56d09cb0373488c28daba7d96e496023e9f0f343879014186e6e52f264736f6c63430008040033454950373132446f6d61696e28737472696e67206e616d652c737472696e672076657273696f6e2c6164647265737320766572696679696e67436f6e74726163742c627974657333322073616c7429","abi":[{"inputs":[],"stateMutability":"nonpayable","type":"constructor"},{"anonymous":false,"inputs":[{"indexed":false,"internalType":"address","name":"voter","type":"address"},{"indexed":false,"internalType":"uint256","name":"electionId","type":"uint256"},{"indexed":false,"internalType":"address[]","name":"adrs","type":"address[]"},{"indexed":false,"internalType":"string[]","name":"scores","type":"string[]"}],"name":"BallotCast","type":"event"},{"anonymous":false,"inputs":[{"indexed":false,"internalType":"address payable","name":"relayerAddress","type":"address"},{"indexed":false,"internalType":"uint256","name":"functionCalls","type":"uint256"}],"name":"BatchMetaTransactionExecuted","type":"event"},{"anonymous":false,"inputs":[{"indexed":false,"internalType":"address","name":"creator","type":"address"},{"indexed":false,"internalType":"uint256","name":"electionId","type":"uint256"}],"name":"ElectionCreated","type":"event"},{"anonymous":false,"inputs":[{"indexed":false,"internalType":"uint256","name":"electionId","type":"uint256"}],"name":"ElectionEnded","type":"event"},{"anonymous":false,"inputs":[{"indexed":false,"internalType":"uint256","name":"electionId","type":"uint256"}],"name":"ElectionPaid","type":"event"},{"anonymous":false,"inputs":[{"indexed":false,"internalType":"address","name":"userAddress","type":"address"},{"indexed":false,"internalType":"address payable","name":"relayerAddress","type":"address"},{"indexed":false,"internalType":"bytes","name":"functionSignature","type":"bytes"}],"name":"MetaTransactionExecuted","type":"event"},{"anonymous":false,"inputs":[{"indexed":true,"internalType":"address","name":"previousOwner","type":"address"},{"indexed":true,"internalType":"address","name":"newOwner","type":"address"}],"name":"OwnershipTransferred","type":"event"},{"anonymous":false,"inputs":[{"indexed":true,"internalType":"bytes32","name":"role","type":"bytes32"},{"indexed":true,"internalType":"bytes32","name":"previousAdminRole","type":"bytes32"},{"indexed":true,"internalType":"bytes32","name":"newAdminRole","type":"bytes32"}],"name":"RoleAdminChanged","type":"event"},{"anonymous":false,"inputs":[{"indexed":true,"internalType":"bytes32","name":"role","type":"bytes32"},{"indexed":true,"internalType":"address","name":"account","type":"address"},{"indexed":true,"internalType":"address","name":"sender","type":"address"}],"name":"RoleGranted","type":"event"},{"anonymous":false,"inputs":[{"indexed":true,"internalType":"bytes32","name":"role","type":"bytes32"},{"indexed":true,"internalType":"address","name":"account","type":"address"},{"indexed":true,"internalType":"address","name":"sender","type":"address"}],"name":"RoleRevoked","type":"event"},{"stateMutability":"payable","type":"fallback"},{"inputs":[],"name":"DEFAULT_ADMIN_ROLE","outputs":[{"internalType":"bytes32","name":"","type":"bytes32"}],"stateMutability":"view","type":"function"},{"inputs":[{"internalType":"uint256","name":"electionId","type":"uint256"}],"name":"approveToken","outputs":[],"stateMutability":"nonpayable","type":"function"},{"inputs":[{"internalType":"uint256","name":"electionId","type":"uint256"},{"internalType":"address","name":"_sender","type":"address"}],"name":"canVote","outputs":[{"internalType":"bool","name":"status","type":"bool"}],"stateMutability":"view","type":"function"},{"inputs":[{"internalType":"uint256","name":"electionId","type":"uint256"},{"internalType":"address[]","name":"_adrs","type":"address[]"},{"internalType":"string[]","name":"_scores","type":"string[]"}],"name":"castBallot","outputs":[],"stateMutability":"nonpayable","type":"function"},{"inputs":[{"internalType":"uint256","name":"","type":"uint256"}],"name":"elections","outputs":[{"internalType":"string","name":"name","type":"string"},{"internalType":"bool","name":"active","type":"bool"},{"internalType":"bool","name":"paid","type":"bool"},{"internalType":"uint256","name":"createdAt","type":"uint256"},{"internalType":"uint256","name":"funds","type":"uint256"},{"internalType":"address","name":"token","type":"address"},{"internalType":"uint256","name":"votes","type":"uint256"},{"internalType":"address","name":"admin","type":"address"}],"stateMutability":"view","type":"function"},{"inputs":[{"internalType":"uint256","name":"electionId","type":"uint256"}],"name":"endElection","outputs":[],"stateMutability":"nonpayable","type":"function"},{"inputs":[{"internalType":"bytes[]","name":"mtx","type":"bytes[]"},{"internalType":"uint256","name":"size","type":"uint256"}],"name":"executeBatchMetaTransaction","outputs":[{"internalType":"bool","name":"","type":"bool"}],"stateMutability":"payable","type":"function"},{"inputs":[{"internalType":"address","name":"userAddress","type":"address"},{"internalType":"bytes","name":"functionSignature","type":"bytes"},{"internalType":"bytes32","name":"sigR","type":"bytes32"},{"internalType":"bytes32","name":"sigS","type":"bytes32"},{"internalType":"uint8","name":"sigV","type":"uint8"}],"name":"executeMetaTransaction","outputs":[{"internalType":"bytes","name":"","type":"bytes"}],"stateMutability":"payable","type":"function"},{"inputs":[{"internalType":"uint256","name":"electionId","type":"uint256"}],"name":"getElectionById","outputs":[{"internalType":"string","name":"name","type":"string"},{"internalType":"address[]","name":"candidates","type":"address[]"},{"internalType":"uint256","name":"n_addr","type":"uint256"},{"internalType":"uint256","name":"createdAt","type":"uint256"},{"internalType":"uint256","name":"funds","type":"uint256"},{"internalType":"address","name":"token","type":"address"},{"internalType":"uint256","name":"votes","type":"uint256"},{"internalType":"address","name":"admin","type":"address"},{"internalType":"bool","name":"isActive","type":"bool"},{"internalType":"bool","name":"paid","type":"bool"}],"stateMutability":"view","type":"function"},{"inputs":[{"internalType":"uint256","name":"electionId","type":"uint256"},{"internalType":"address","name":"_adr","type":"address"}],"name":"getElectionScores","outputs":[{"internalType":"string[]","name":"","type":"string[]"}],"stateMutability":"view","type":"function"},{"inputs":[{"internalType":"uint256","name":"electionId","type":"uint256"}],"name":"getElectionVoted","outputs":[{"internalType":"uint256","name":"count","type":"uint256"}],"stateMutability":"view","type":"function"},{"inputs":[{"internalType":"address","name":"user","type":"address"}],"name":"getNonce","outputs":[{"internalType":"uint256","name":"nonce","type":"uint256"}],"stateMutability":"view","type":"function"},{"inputs":[{"internalType":"bytes32","name":"role","type":"bytes32"}],"name":"getRoleAdmin","outputs":[{"internalType":"bytes32","name":"","type":"bytes32"}],"stateMutability":"view","type":"function"},{"inputs":[{"internalType":"bytes32","name":"role","type":"bytes32"},{"internalType":"address","name":"account","type":"address"}],"name":"grantRole","outputs":[],"stateMutability":"nonpayable","type":"function"},{"inputs":[{"internalType":"bytes32","name":"role","type":"bytes32"},{"internalType":"address","name":"account","type":"address"}],"name":"hasRole","outputs":[{"internalType":"bool","name":"","type":"bool"}],"stateMutability":"view","type":"function"},{"inputs":[{"internalType":"uint256","name":"electionId","type":"uint256"},{"internalType":"address","name":"_sender","type":"address"}],"name":"hasVoted","outputs":[{"internalType":"bool","name":"","type":"bool"}],"stateMutability":"view","type":"function"},{"inputs":[{"internalType":"uint256","name":"electionId","type":"uint256"},{"internalType":"address","name":"_sender","type":"address"}],"name":"isElectionAdmin","outputs":[{"internalType":"bool","name":"","type":"bool"}],"stateMutability":"view","type":"function"},{"inputs":[{"internalType":"uint256","name":"electionId","type":"uint256"},{"internalType":"address","name":"_sender","type":"address"}],"name":"isElectionCandidate","outputs":[{"internalType":"bool","name":"status","type":"bool"}],"stateMutability":"view","type":"function"},{"inputs":[{"internalType":"string","name":"_name","type":"string"},{"internalType":"uint256","name":"_funds","type":"uint256"},{"internalType":"address","name":"_token","type":"address"},{"internalType":"uint256","name":"_votes","type":"uint256"},{"internalType":"address[]","name":"_adrs","type":"address[]"}],"name":"newElection","outputs":[{"internalType":"uint256","name":"electionId","type":"uint256"}],"stateMutability":"nonpayable","type":"function"},{"inputs":[],"name":"numElections","outputs":[{"internalType":"uint256","name":"","type":"uint256"}],"stateMutability":"view","type":"function"},{"inputs":[],"name":"owner","outputs":[{"internalType":"address","name":"","type":"address"}],"stateMutability":"view","type":"function"},{"inputs":[{"internalType":"uint256","name":"electionId","type":"uint256"},{"internalType":"address[]","name":"_adrs","type":"address[]"},{"internalType":"uint256[]","name":"_pay","type":"uint256[]"}],"name":"payoutElection","outputs":[],"stateMutability":"payable","type":"function"},{"inputs":[],"name":"renounceOwnership","outputs":[],"stateMutability":"nonpayable","type":"function"},{"inputs":[{"internalType":"bytes32","name":"role","type":"bytes32"},{"internalType":"address","name":"account","type":"address"}],"name":"renounceRole","outputs":[],"stateMutability":"nonpayable","type":"function"},{"inputs":[{"internalType":"bytes32","name":"role","type":"bytes32"},{"internalType":"address","name":"account","type":"address"}],"name":"revokeRole","outputs":[],"stateMutability":"nonpayable","type":"function"},{"inputs":[{"internalType":"uint256","name":"","type":"uint256"},{"internalType":"address","name":"","type":"address"},{"internalType":"uint256","name":"","type":"uint256"}],"name":"scores","outputs":[{"internalType":"string","name":"","type":"string"}],"stateMutability":"view","type":"function"},{"inputs":[{"internalType":"bytes4","name":"interfaceId","type":"bytes4"}],"name":"supportsInterface","outputs":[{"internalType":"bool","name":"","type":"bool"}],"stateMutability":"view","type":"function"},{"inputs":[{"internalType":"address","name":"newOwner","type":"address"}],"name":"transferOwnership","outputs":[],"stateMutability":"nonpayable","type":"function"},{"inputs":[{"internalType":"uint256","name":"","type":"uint256"},{"internalType":"address","name":"","type":"address"}],"name":"voted","outputs":[{"internalType":"bool","name":"","type":"bool"}],"stateMutability":"view","type":"function"},{"stateMutability":"payable","type":"receive"}]}