{
  "_format": "hh-sol-artifact-1",
  "contractName": "Diplomacy",
  "sourceName": "contracts/Diplomacy.sol",
  "abi": [
    {
      "inputs": [],
      "stateMutability": "nonpayable",
      "type": "constructor"
    },
    {
      "anonymous": false,
      "inputs": [
        {
          "indexed": false,
          "internalType": "address",
          "name": "voter",
          "type": "address"
        },
        {
          "indexed": false,
          "internalType": "uint256",
          "name": "electionId",
          "type": "uint256"
        },
        {
          "indexed": false,
          "internalType": "address[]",
          "name": "adrs",
          "type": "address[]"
        },
        {
          "indexed": false,
          "internalType": "string[]",
          "name": "scores",
          "type": "string[]"
        }
      ],
      "name": "BallotCast",
      "type": "event"
    },
    {
      "anonymous": false,
      "inputs": [
        {
          "indexed": false,
          "internalType": "address",
          "name": "creator",
          "type": "address"
        },
        {
          "indexed": false,
          "internalType": "uint256",
          "name": "electionId",
          "type": "uint256"
        }
      ],
      "name": "ElectionCreated",
      "type": "event"
    },
    {
      "anonymous": false,
      "inputs": [
        {
          "indexed": false,
          "internalType": "uint256",
          "name": "electionId",
          "type": "uint256"
        }
      ],
      "name": "ElectionEnded",
      "type": "event"
    },
    {
      "anonymous": false,
      "inputs": [
        {
          "indexed": false,
          "internalType": "uint256",
          "name": "electionId",
          "type": "uint256"
        }
      ],
      "name": "ElectionPaid",
      "type": "event"
    },
    {
      "anonymous": false,
      "inputs": [
        {
          "indexed": true,
          "internalType": "address",
          "name": "previousOwner",
          "type": "address"
        },
        {
          "indexed": true,
          "internalType": "address",
          "name": "newOwner",
          "type": "address"
        }
      ],
      "name": "OwnershipTransferred",
      "type": "event"
    },
    {
      "anonymous": false,
      "inputs": [
        {
          "indexed": true,
          "internalType": "bytes32",
          "name": "role",
          "type": "bytes32"
        },
        {
          "indexed": true,
          "internalType": "bytes32",
          "name": "previousAdminRole",
          "type": "bytes32"
        },
        {
          "indexed": true,
          "internalType": "bytes32",
          "name": "newAdminRole",
          "type": "bytes32"
        }
      ],
      "name": "RoleAdminChanged",
      "type": "event"
    },
    {
      "anonymous": false,
      "inputs": [
        {
          "indexed": true,
          "internalType": "bytes32",
          "name": "role",
          "type": "bytes32"
        },
        {
          "indexed": true,
          "internalType": "address",
          "name": "account",
          "type": "address"
        },
        {
          "indexed": true,
          "internalType": "address",
          "name": "sender",
          "type": "address"
        }
      ],
      "name": "RoleGranted",
      "type": "event"
    },
    {
      "anonymous": false,
      "inputs": [
        {
          "indexed": true,
          "internalType": "bytes32",
          "name": "role",
          "type": "bytes32"
        },
        {
          "indexed": true,
          "internalType": "address",
          "name": "account",
          "type": "address"
        },
        {
          "indexed": true,
          "internalType": "address",
          "name": "sender",
          "type": "address"
        }
      ],
      "name": "RoleRevoked",
      "type": "event"
    },
    {
      "inputs": [],
      "name": "DEFAULT_ADMIN_ROLE",
      "outputs": [
        {
          "internalType": "bytes32",
          "name": "",
          "type": "bytes32"
        }
      ],
      "stateMutability": "view",
      "type": "function"
    },
    {
      "inputs": [
        {
          "internalType": "uint256",
          "name": "electionId",
          "type": "uint256"
        }
      ],
      "name": "approveToken",
      "outputs": [],
      "stateMutability": "nonpayable",
      "type": "function"
    },
    {
      "inputs": [
        {
          "internalType": "uint256",
          "name": "electionId",
          "type": "uint256"
        },
        {
          "internalType": "address",
          "name": "_sender",
          "type": "address"
        }
      ],
      "name": "canVote",
      "outputs": [
        {
          "internalType": "bool",
          "name": "status",
          "type": "bool"
        }
      ],
      "stateMutability": "view",
      "type": "function"
    },
    {
      "inputs": [
        {
          "internalType": "uint256",
          "name": "electionId",
          "type": "uint256"
        },
        {
          "internalType": "address[]",
          "name": "_adrs",
          "type": "address[]"
        },
        {
          "internalType": "string[]",
          "name": "_scores",
          "type": "string[]"
        }
      ],
      "name": "castBallot",
      "outputs": [],
      "stateMutability": "nonpayable",
      "type": "function"
    },
    {
      "inputs": [
        {
          "internalType": "uint256",
          "name": "",
          "type": "uint256"
        }
      ],
      "name": "elections",
      "outputs": [
        {
          "internalType": "string",
          "name": "name",
          "type": "string"
        },
        {
          "internalType": "bool",
          "name": "active",
          "type": "bool"
        },
        {
          "internalType": "bool",
          "name": "paid",
          "type": "bool"
        },
        {
          "internalType": "uint256",
          "name": "createdAt",
          "type": "uint256"
        },
        {
          "internalType": "uint256",
          "name": "funds",
          "type": "uint256"
        },
        {
          "internalType": "address",
          "name": "token",
          "type": "address"
        },
        {
          "internalType": "uint256",
          "name": "votes",
          "type": "uint256"
        },
        {
          "internalType": "address",
          "name": "admin",
          "type": "address"
        }
      ],
      "stateMutability": "view",
      "type": "function"
    },
    {
      "inputs": [
        {
          "internalType": "uint256",
          "name": "electionId",
          "type": "uint256"
        }
      ],
      "name": "endElection",
      "outputs": [],
      "stateMutability": "nonpayable",
      "type": "function"
    },
    {
      "inputs": [
        {
          "internalType": "uint256",
          "name": "electionId",
          "type": "uint256"
        }
      ],
      "name": "getElectionById",
      "outputs": [
        {
          "internalType": "string",
          "name": "name",
          "type": "string"
        },
        {
          "internalType": "address[]",
          "name": "candidates",
          "type": "address[]"
        },
        {
          "internalType": "uint256",
          "name": "n_addr",
          "type": "uint256"
        },
        {
          "internalType": "uint256",
          "name": "createdAt",
          "type": "uint256"
        },
        {
          "internalType": "uint256",
          "name": "funds",
          "type": "uint256"
        },
        {
          "internalType": "address",
          "name": "token",
          "type": "address"
        },
        {
          "internalType": "uint256",
          "name": "votes",
          "type": "uint256"
        },
        {
          "internalType": "address",
          "name": "admin",
          "type": "address"
        },
        {
          "internalType": "bool",
          "name": "isActive",
          "type": "bool"
        },
        {
          "internalType": "bool",
          "name": "paid",
          "type": "bool"
        }
      ],
      "stateMutability": "view",
      "type": "function"
    },
    {
      "inputs": [
        {
          "internalType": "uint256",
          "name": "electionId",
          "type": "uint256"
        },
        {
          "internalType": "address",
          "name": "_adr",
          "type": "address"
        }
      ],
      "name": "getElectionResults",
      "outputs": [
        {
          "internalType": "int256",
          "name": "",
          "type": "int256"
        }
      ],
      "stateMutability": "view",
      "type": "function"
    },
    {
      "inputs": [
        {
          "internalType": "uint256",
          "name": "electionId",
          "type": "uint256"
        },
        {
          "internalType": "address",
          "name": "_adr",
          "type": "address"
        }
      ],
      "name": "getElectionScores",
      "outputs": [
        {
          "internalType": "string[]",
          "name": "",
          "type": "string[]"
        }
      ],
      "stateMutability": "view",
      "type": "function"
    },
    {
      "inputs": [
        {
          "internalType": "uint256",
          "name": "electionId",
          "type": "uint256"
        }
      ],
      "name": "getElectionVoted",
      "outputs": [
        {
          "internalType": "uint256",
          "name": "count",
          "type": "uint256"
        }
      ],
      "stateMutability": "view",
      "type": "function"
    },
    {
      "inputs": [
        {
          "internalType": "bytes32",
          "name": "role",
          "type": "bytes32"
        }
      ],
      "name": "getRoleAdmin",
      "outputs": [
        {
          "internalType": "bytes32",
          "name": "",
          "type": "bytes32"
        }
      ],
      "stateMutability": "view",
      "type": "function"
    },
    {
      "inputs": [
        {
          "internalType": "bytes32",
          "name": "role",
          "type": "bytes32"
        },
        {
          "internalType": "address",
          "name": "account",
          "type": "address"
        }
      ],
      "name": "grantRole",
      "outputs": [],
      "stateMutability": "nonpayable",
      "type": "function"
    },
    {
      "inputs": [
        {
          "internalType": "bytes32",
          "name": "role",
          "type": "bytes32"
        },
        {
          "internalType": "address",
          "name": "account",
          "type": "address"
        }
      ],
      "name": "hasRole",
      "outputs": [
        {
          "internalType": "bool",
          "name": "",
          "type": "bool"
        }
      ],
      "stateMutability": "view",
      "type": "function"
    },
    {
      "inputs": [
        {
          "internalType": "uint256",
          "name": "electionId",
          "type": "uint256"
        },
        {
          "internalType": "address",
          "name": "_sender",
          "type": "address"
        }
      ],
      "name": "hasVoted",
      "outputs": [
        {
          "internalType": "bool",
          "name": "",
          "type": "bool"
        }
      ],
      "stateMutability": "view",
      "type": "function"
    },
    {
      "inputs": [
        {
          "internalType": "uint256",
          "name": "electionId",
          "type": "uint256"
        },
        {
          "internalType": "address",
          "name": "_sender",
          "type": "address"
        }
      ],
      "name": "isElectionAdmin",
      "outputs": [
        {
          "internalType": "bool",
          "name": "",
          "type": "bool"
        }
      ],
      "stateMutability": "view",
      "type": "function"
    },
    {
      "inputs": [
        {
          "internalType": "uint256",
          "name": "electionId",
          "type": "uint256"
        },
        {
          "internalType": "address",
          "name": "_sender",
          "type": "address"
        }
      ],
      "name": "isElectionCandidate",
      "outputs": [
        {
          "internalType": "bool",
          "name": "status",
          "type": "bool"
        }
      ],
      "stateMutability": "view",
      "type": "function"
    },
    {
      "inputs": [
        {
          "internalType": "string",
          "name": "_name",
          "type": "string"
        },
        {
          "internalType": "uint256",
          "name": "_funds",
          "type": "uint256"
        },
        {
          "internalType": "address",
          "name": "_token",
          "type": "address"
        },
        {
          "internalType": "uint256",
          "name": "_votes",
          "type": "uint256"
        },
        {
          "internalType": "address[]",
          "name": "_adrs",
          "type": "address[]"
        }
      ],
      "name": "newElection",
      "outputs": [
        {
          "internalType": "uint256",
          "name": "electionId",
          "type": "uint256"
        }
      ],
      "stateMutability": "nonpayable",
      "type": "function"
    },
    {
      "inputs": [],
      "name": "numElections",
      "outputs": [
        {
          "internalType": "uint256",
          "name": "",
          "type": "uint256"
        }
      ],
      "stateMutability": "view",
      "type": "function"
    },
    {
      "inputs": [],
      "name": "owner",
      "outputs": [
        {
          "internalType": "address",
          "name": "",
          "type": "address"
        }
      ],
      "stateMutability": "view",
      "type": "function"
    },
    {
      "inputs": [
        {
          "internalType": "uint256",
          "name": "electionId",
          "type": "uint256"
        },
        {
          "internalType": "address[]",
          "name": "_adrs",
          "type": "address[]"
        },
        {
          "internalType": "uint256[]",
          "name": "_pay",
          "type": "uint256[]"
        }
      ],
      "name": "payoutElection",
      "outputs": [],
      "stateMutability": "payable",
      "type": "function"
    },
    {
      "inputs": [],
      "name": "renounceOwnership",
      "outputs": [],
      "stateMutability": "nonpayable",
      "type": "function"
    },
    {
      "inputs": [
        {
          "internalType": "bytes32",
          "name": "role",
          "type": "bytes32"
        },
        {
          "internalType": "address",
          "name": "account",
          "type": "address"
        }
      ],
      "name": "renounceRole",
      "outputs": [],
      "stateMutability": "nonpayable",
      "type": "function"
    },
    {
      "inputs": [
        {
          "internalType": "bytes32",
          "name": "role",
          "type": "bytes32"
        },
        {
          "internalType": "address",
          "name": "account",
          "type": "address"
        }
      ],
      "name": "revokeRole",
      "outputs": [],
      "stateMutability": "nonpayable",
      "type": "function"
    },
    {
      "inputs": [
        {
          "internalType": "bytes4",
          "name": "interfaceId",
          "type": "bytes4"
        }
      ],
      "name": "supportsInterface",
      "outputs": [
        {
          "internalType": "bool",
          "name": "",
          "type": "bool"
        }
      ],
      "stateMutability": "view",
      "type": "function"
    },
    {
      "inputs": [
        {
          "internalType": "address",
          "name": "newOwner",
          "type": "address"
        }
      ],
      "name": "transferOwnership",
      "outputs": [],
      "stateMutability": "nonpayable",
      "type": "function"
    }
  ],
  "bytecode": "0x60806040523480156200001157600080fd5b506200001d3362000030565b6200002a60003362000082565b62000132565b600180546001600160a01b038381166001600160a01b0319831681179093556040519116919082907f8be0079c531659141344cd1fd0a4f28419497f9722a3daafe3b4186f6b6457e090600090a35050565b6200008e828262000092565b5050565b6000828152602081815260408083206001600160a01b038516845290915290205460ff166200008e576000828152602081815260408083206001600160a01b03851684529091529020805460ff19166001179055620000ee3390565b6001600160a01b0316816001600160a01b0316837f2f8788117e7eff1d82e926ec794901d17c78024a50270940304540a733656f0d60405160405180910390a45050565b6126cc80620001426000396000f3fe6080604052600436106101665760003560e01c80636e38d9bd116100d1578063a217fddf1161008a578063cdb2867b11610064578063cdb2867b146104c2578063d547741f146104e2578063ea3c6cde14610502578063f2fde38b1461052257600080fd5b8063a217fddf14610430578063be70a00914610445578063c6958b121461048c57600080fd5b80636e38d9bd1461035e578063715018a6146103745780638da5cb5b1461038957806391b84f16146103b157806391d14854146103f05780639c98bcbb1461041057600080fd5b80633ac9fc11116101235780633ac9fc111461026057806343859632146102805780634548e52b146102ca5780634b8b477e146102ea57806352e968ad1461030a5780635e6fef011461032a57600080fd5b806301ffc9a71461016b57806308108288146101a05780630ece86d0146101cd578063248a9ca3146101e25780632f2ff15d1461022057806336568abe14610240575b600080fd5b34801561017757600080fd5b5061018b610186366004612019565b610542565b60405190151581526020015b60405180910390f35b3480156101ac57600080fd5b506101c06101bb3660046120c6565b610579565b60405161019791906123f7565b6101e06101db3660046121b7565b610673565b005b3480156101ee57600080fd5b506102126101fd366004611fd6565b60009081526020819052604090206001015490565b604051908152602001610197565b34801561022c57600080fd5b506101e061023b366004611fee565b6107e1565b34801561024c57600080fd5b506101e061025b366004611fee565b61080c565b34801561026c57600080fd5b506101e061027b366004611fd6565b61088a565b34801561028c57600080fd5b5061018b61029b3660046120c6565b60008281526003602090815260408083206001600160a01b038516845260080190915290205460ff1692915050565b3480156102d657600080fd5b506101e06102e53660046120d8565b610928565b3480156102f657600080fd5b50610212610305366004612041565b610c38565b34801561031657600080fd5b50610212610325366004611fd6565b610cbd565b34801561033657600080fd5b5061034a610345366004611fd6565b610d71565b604051610197989796959493929190612496565b34801561036a57600080fd5b5061021260025481565b34801561038057600080fd5b506101e0610e4e565b34801561039557600080fd5b506001546040516001600160a01b039091168152602001610197565b3480156103bd57600080fd5b5061018b6103cc3660046120c6565b600091825260036020526040909120600701546001600160a01b0390811691161490565b3480156103fc57600080fd5b5061018b61040b366004611fee565b610eb4565b34801561041c57600080fd5b506101e061042b366004611fd6565b610edd565b34801561043c57600080fd5b50610212600081565b34801561045157600080fd5b506102126104603660046120c6565b60008281526003602090815260408083206001600160a01b0385168452600a0190915290205492915050565b34801561049857600080fd5b506104ac6104a7366004611fd6565b610ff1565b6040516101979a9998979695949392919061241d565b3480156104ce57600080fd5b5061018b6104dd3660046120c6565b61122a565b3480156104ee57600080fd5b506101e06104fd366004611fee565b6112ba565b34801561050e57600080fd5b5061018b61051d3660046120c6565b6112e0565b34801561052e57600080fd5b506101e061053d366004611f9c565b61136a565b60006001600160e01b03198216637965db0b60e01b148061057357506301ffc9a760e01b6001600160e01b03198316145b92915050565b60008281526003602090815260408083206001600160a01b03851684526009018252808320805482518185028101850190935280835260609492939192909184015b828210156106675783829060005260206000200180546105da906125fa565b80601f0160208091040260200160405190810160405280929190818152602001828054610606906125fa565b80156106535780601f1061062857610100808354040283529160200191610653565b820191906000526020600020905b81548152906001019060200180831161063657829003601f168201915b5050505050815260200190600101906105bb565b50505050905092915050565b8261068c60008051602061267783398151915233610eb4565b6106b15760405162461bcd60e51b81526004016106a8906124f0565b60405180910390fd5b6000818152600360205260409020600701546001600160a01b031633146106ea5760405162461bcd60e51b81526004016106a8906124f0565b60008481526003602052604090206001015460ff16156107455760405162461bcd60e51b8152602060048201526016602482015275456c656374696f6e205374696c6c204163746976652160501b60448201526064016106a8565b6000848152600360205260408120600501546001600160a01b03166107765761076f858585611435565b9050610784565b610781858585611680565b90505b600085815260036020908152604091829020600101805461ff0019166101008515150217905590518681527fb27761a3b9064636a27795816e4f8a8e5cadd6ac8b1e3a553bd47bf414c2b402910160405180910390a15050505050565b6000828152602081905260409020600101546107fd8133611858565b61080783836118bc565b505050565b6001600160a01b038116331461087c5760405162461bcd60e51b815260206004820152602f60248201527f416363657373436f6e74726f6c3a2063616e206f6e6c792072656e6f756e636560448201526e103937b632b9903337b91039b2b63360891b60648201526084016106a8565b6108868282611940565b5050565b600081815260036020526040908190206005810154600491820154925163095ea7b360e01b8152309281019290925260248201929092526001600160a01b039091169063095ea7b390604401602060405180830381600087803b1580156108f057600080fd5b505af1158015610904573d6000803e3d6000fd5b505050506040513d601f19601f820116820180604052508101906108869190611fb6565b826109537f9096faa56698daa37ec8d3542ff829c66d5e81213bd6faab8ba4e9ce824a5def33610eb4565b61099f5760405162461bcd60e51b815260206004820152601e60248201527f53656e646572206e6f7420456c656374696f6e2043616e64696461746521000060448201526064016106a8565b6109a981336112e0565b6109f55760405162461bcd60e51b815260206004820152601e60248201527f53656e646572206e6f7420456c656374696f6e2043616e64696461746521000060448201526064016106a8565b60008481526003602052604090206001015484908490849060ff16610a535760405162461bcd60e51b8152602060048201526014602482015273456c656374696f6e204e6f74204163746976652160601b60448201526064016106a8565b600083815260036020908152604080832033845260080190915290205460ff1615610ab85760405162461bcd60e51b815260206004820152601560248201527453656e64657220616c726561647920766f7465642160581b60448201526064016106a8565b8151815114610b095760405162461bcd60e51b815260206004820181905260248201527f53636f7265732043616e64696461746520436f756e74204d69736d617463682160448201526064016106a8565b6000878152600360205260408120905b8751811015610bd557816009016000898381518110610b4857634e487b7160e01b600052603260045260246000fd5b60200260200101516001600160a01b03166001600160a01b03168152602001908152602001600020878281518110610b9057634e487b7160e01b600052603260045260246000fd5b60209081029190910181015182546001810184556000938452928290208151610bc29491909101929190910190611db1565b5080610bcd8161262f565b915050610b19565b5033600081815260088301602052604090819020805460ff19166001179055517faaf8175507b94c84621088891ecf31ca1c2548c0aeab2f2f21d3459515f9c4ed91610c26918b908b908b906123b3565b60405180910390a15050505050505050565b60006001600160a01b038416610c5a57610c54868685856119a5565b50610c69565b610c678686868686611a36565b505b610c7282611ae5565b610c7b33611b54565b60408051338152602081018390527fc91fe4766a7a928d6625f66818425dc115b03c854a8ed8d28de2f34a684e0f1a910160405180910390a195945050505050565b6000805b60008381526003602081905260409091200154811015610d6b576000838152600360208190526040822001805483908110610d0c57634e487b7160e01b600052603260045260246000fd5b60009182526020808320909101548683526003825260408084206001600160a01b03909216808552600890920190925291205490915060ff1615610d585782610d548161262f565b9350505b5080610d638161262f565b915050610cc1565b50919050565b600360205260009081526040902080548190610d8c906125fa565b80601f0160208091040260200160405190810160405280929190818152602001828054610db8906125fa565b8015610e055780601f10610dda57610100808354040283529160200191610e05565b820191906000526020600020905b815481529060010190602001808311610de857829003601f168201915b50505060018401546002850154600486015460058701546006880154600790980154969760ff8086169861010090960416965092945090926001600160a01b0391821692911688565b6001546001600160a01b03163314610ea85760405162461bcd60e51b815260206004820181905260248201527f4f776e61626c653a2063616c6c6572206973206e6f7420746865206f776e657260448201526064016106a8565b610eb26000611b6c565b565b6000918252602082815260408084206001600160a01b0393909316845291905290205460ff1690565b80610ef660008051602061267783398151915233610eb4565b610f125760405162461bcd60e51b81526004016106a8906124f0565b6000818152600360205260409020600701546001600160a01b03163314610f4b5760405162461bcd60e51b81526004016106a8906124f0565b6000828152600360205260409020600181015460ff16610fad5760405162461bcd60e51b815260206004820152601760248201527f456c656374696f6e20416c726561647920456e6465642100000000000000000060448201526064016106a8565b60018101805460ff191690556040518381527f562cd572b2ba3b666cd989fc4ca98419ec81e75f04528df9d9d76fdb7807ee719060200160405180910390a1505050565b606080600080600080600080600080600360008c81526020019081526020016000206000018054611021906125fa565b80601f016020809104026020016040519081016040528092919081815260200182805461104d906125fa565b801561109a5780601f1061106f5761010080835404028352916020019161109a565b820191906000526020600020905b81548152906001019060200180831161107d57829003601f168201915b50505050509950600360008c815260200190815260200160002060030180548060200260200160405190810160405280929190818152602001828054801561110b57602002820191906000526020600020905b81546001600160a01b031681526001909101906020018083116110ed575b50505050509850600360008c8152602001908152602001600020600301805490509750600360008c8152602001908152602001600020600201549650600360008c8152602001908152602001600020600401549550600360008c815260200190815260200160002060050160009054906101000a90046001600160a01b03169450600360008c8152602001908152602001600020600601549350600360008c815260200190815260200160002060070160009054906101000a90046001600160a01b03169250600360008c815260200190815260200160002060010160009054906101000a900460ff169150600360008c815260200190815260200160002060010160019054906101000a900460ff1690509193959799509193959799565b6000805b600084815260036020819052604090912001548110156112b357600084815260036020819052604082200180548390811061127957634e487b7160e01b600052603260045260246000fd5b6000918252602090912001546001600160a01b03908116915084168114156112a057600192505b50806112ab8161262f565b91505061122e565b5092915050565b6000828152602081905260409020600101546112d68133611858565b6108078383611940565b6000805b600084815260036020819052604090912001548110156112b35760008481526003602081905260409091200180548290811061133057634e487b7160e01b600052603260045260246000fd5b6000918252602090912001546001600160a01b038481169116141561135857600191506112b3565b806113628161262f565b9150506112e4565b6001546001600160a01b031633146113c45760405162461bcd60e51b815260206004820181905260248201527f4f776e61626c653a2063616c6c6572206973206e6f7420746865206f776e657260448201526064016106a8565b6001600160a01b0381166114295760405162461bcd60e51b815260206004820152602660248201527f4f776e61626c653a206e6577206f776e657220697320746865207a65726f206160448201526564647265737360d01b60648201526084016106a8565b61143281611b6c565b50565b60008361145060008051602061267783398151915233610eb4565b61146c5760405162461bcd60e51b81526004016106a8906124f0565b6000818152600360205260409020600701546001600160a01b031633146114a55760405162461bcd60e51b81526004016106a8906124f0565b60008060005b600088815260036020819052604090912001548110156115d4578681815181106114e557634e487b7160e01b600052603260045260246000fd5b60200260200101516001600160a01b0316600360008a8152602001908152602001600020600301828154811061152b57634e487b7160e01b600052603260045260246000fd5b6000918252602090912001546001600160a01b03161461158d5760405162461bcd60e51b815260206004820152601a60248201527f456c656374696f6e2d41646472657373204d69736d617463682100000000000060448201526064016106a8565b8581815181106115ad57634e487b7160e01b600052603260045260246000fd5b6020026020010151836115c0919061257c565b9250806115cc8161262f565b9150506114ab565b5060005b85518110156116755786818151811061160157634e487b7160e01b600052603260045260246000fd5b60200260200101516001600160a01b03166108fc87838151811061163557634e487b7160e01b600052603260045260246000fd5b602002602001015160016116499190612594565b6040518115909202916000818181858888f193505050509150808061166d9061262f565b9150506115d8565b509695505050505050565b600083815260036020526040808220600581015460049182015492516323b872dd60e01b8152339281019290925230602483015260448201929092526001600160a01b03909116906323b872dd90606401602060405180830381600087803b1580156116eb57600080fd5b505af11580156116ff573d6000803e3d6000fd5b505050506040513d601f19601f820116820180604052508101906117239190611fb6565b5060005b6000858152600360208190526040909120015481101561184d5760008581526003602052604090206005015484516001600160a01b039091169063a9059cbb9086908490811061178757634e487b7160e01b600052603260045260246000fd5b60200260200101518584815181106117af57634e487b7160e01b600052603260045260246000fd5b60200260200101516040518363ffffffff1660e01b81526004016117e89291906001600160a01b03929092168252602082015260400190565b602060405180830381600087803b15801561180257600080fd5b505af1158015611816573d6000803e3d6000fd5b505050506040513d601f19601f8201168201806040525081019061183a9190611fb6565b50806118458161262f565b915050611727565b506001949350505050565b6118628282610eb4565b6108865761187a816001600160a01b03166014611bbe565b611885836020611bbe565b60405160200161189692919061233e565b60408051601f198184030181529082905262461bcd60e51b82526106a89160040161240a565b6118c68282610eb4565b610886576000828152602081815260408083206001600160a01b03851684529091529020805460ff191660011790556118fc3390565b6001600160a01b0316816001600160a01b0316837f2f8788117e7eff1d82e926ec794901d17c78024a50270940304540a733656f0d60405160405180910390a45050565b61194a8282610eb4565b15610886576000828152602081815260408083206001600160a01b0385168085529252808320805460ff1916905551339285917ff6391f5c32d9c69d2a47ea670b442974b53935d1edc7fd64eb21e047a839171b9190a45050565b60028054600091826119b68361262f565b9091555060008181526003602090815260409091208751929350916119e091839190890190611db1565b5060048101859055600681018490558251611a049060038301906020860190611e35565b504260028201556001808201805460ff1916909117905560070180546001600160a01b03191633179055949350505050565b6002805460009182611a478361262f565b909155506000818152600360209081526040909120885192935091611a71918391908a0190611db1565b50600481018690556005810180546001600160a01b0319166001600160a01b038716179055600681018490558251611ab29060038301906020860190611e35565b504260028201556001808201805460ff1916909117905560070180546001600160a01b0319163317905595945050505050565b60005b815181101561088657611b427f9096faa56698daa37ec8d3542ff829c66d5e81213bd6faab8ba4e9ce824a5def838381518110611b3557634e487b7160e01b600052603260045260246000fd5b6020026020010151611da7565b80611b4c8161262f565b915050611ae8565b61143260008051602061267783398151915282611da7565b600180546001600160a01b038381166001600160a01b0319831681179093556040519116919082907f8be0079c531659141344cd1fd0a4f28419497f9722a3daafe3b4186f6b6457e090600090a35050565b60606000611bcd836002612594565b611bd890600261257c565b67ffffffffffffffff811115611bfe57634e487b7160e01b600052604160045260246000fd5b6040519080825280601f01601f191660200182016040528015611c28576020820181803683370190505b509050600360fc1b81600081518110611c5157634e487b7160e01b600052603260045260246000fd5b60200101906001600160f81b031916908160001a905350600f60fb1b81600181518110611c8e57634e487b7160e01b600052603260045260246000fd5b60200101906001600160f81b031916908160001a9053506000611cb2846002612594565b611cbd90600161257c565b90505b6001811115611d51576f181899199a1a9b1b9c1cb0b131b232b360811b85600f1660108110611cff57634e487b7160e01b600052603260045260246000fd5b1a60f81b828281518110611d2357634e487b7160e01b600052603260045260246000fd5b60200101906001600160f81b031916908160001a90535060049490941c93611d4a816125e3565b9050611cc0565b508315611da05760405162461bcd60e51b815260206004820181905260248201527f537472696e67733a20686578206c656e67746820696e73756666696369656e7460448201526064016106a8565b9392505050565b61088682826118bc565b828054611dbd906125fa565b90600052602060002090601f016020900481019282611ddf5760008555611e25565b82601f10611df857805160ff1916838001178555611e25565b82800160010185558215611e25579182015b82811115611e25578251825591602001919060010190611e0a565b50611e31929150611e8a565b5090565b828054828255906000526020600020908101928215611e25579160200282015b82811115611e2557825182546001600160a01b0319166001600160a01b03909116178255602090920191600190910190611e55565b5b80821115611e315760008155600101611e8b565b80356001600160a01b0381168114611eb657600080fd5b919050565b600082601f830112611ecb578081fd5b81356020611ee0611edb83612558565b612527565b80838252828201915082860187848660051b8901011115611eff578586fd5b855b85811015611f2457611f1282611e9f565b84529284019290840190600101611f01565b5090979650505050505050565b600082601f830112611f41578081fd5b813567ffffffffffffffff811115611f5b57611f5b612660565b611f6e601f8201601f1916602001612527565b818152846020838601011115611f82578283fd5b816020850160208301379081016020019190915292915050565b600060208284031215611fad578081fd5b611da082611e9f565b600060208284031215611fc7578081fd5b81518015158114611da0578182fd5b600060208284031215611fe7578081fd5b5035919050565b60008060408385031215612000578081fd5b8235915061201060208401611e9f565b90509250929050565b60006020828403121561202a578081fd5b81356001600160e01b031981168114611da0578182fd5b600080600080600060a08688031215612058578081fd5b853567ffffffffffffffff8082111561206f578283fd5b61207b89838a01611f31565b96506020880135955061209060408901611e9f565b94506060880135935060808801359150808211156120ac578283fd5b506120b988828901611ebb565b9150509295509295909350565b60008060408385031215612000578182fd5b6000806000606084860312156120ec578283fd5b8335925060208085013567ffffffffffffffff8082111561210b578485fd5b61211788838901611ebb565b9450604087013591508082111561212c578384fd5b818701915087601f83011261213f578384fd5b813561214d611edb82612558565b8082825285820191508585018b878560051b880101111561216c578788fd5b875b848110156121a55781358681111561218457898afd5b6121928e8a838b0101611f31565b855250928701929087019060010161216e565b50508096505050505050509250925092565b6000806000606084860312156121cb578081fd5b8335925060208085013567ffffffffffffffff808211156121ea578384fd5b6121f688838901611ebb565b9450604087013591508082111561220b578384fd5b508501601f8101871361221c578283fd5b803561222a611edb82612558565b8082825284820191508484018a868560051b8701011115612249578687fd5b8694505b8385101561226b57803583526001949094019391850191850161224d565b5080955050505050509250925092565b6000815180845260208085019450808401835b838110156122b35781516001600160a01b03168752958201959082019060010161228e565b509495945050505050565b600081518084526020808501808196508360051b81019150828601855b858110156123055782840389526122f3848351612312565b988501989350908401906001016122db565b5091979650505050505050565b6000815180845261232a8160208601602086016125b3565b601f01601f19169290920160200192915050565b7f416363657373436f6e74726f6c3a206163636f756e74200000000000000000008152600083516123768160178501602088016125b3565b7001034b99036b4b9b9b4b733903937b6329607d1b60179184019182015283516123a78160288401602088016125b3565b01602801949350505050565b60018060a01b03851681528360208201526080604082015260006123da608083018561227b565b82810360608401526123ec81856122be565b979650505050505050565b602081526000611da060208301846122be565b602081526000611da06020830184612312565b60006101408083526124318184018e612312565b90508281036020840152612445818d61227b565b604084019b909b525050606081019790975260808701959095526001600160a01b0393841660a087015260c086019290925290911660e0840152151561010083015215156101209091015292915050565b60006101008083526124aa8184018c612312565b991515602084015250509515156040870152606086019490945260808501929092526001600160a01b0390811660a085015260c08401919091521660e090910152919050565b6020808252601a908201527f53656e646572206e6f7420456c656374696f6e2041646d696e21000000000000604082015260600190565b604051601f8201601f1916810167ffffffffffffffff8111828210171561255057612550612660565b604052919050565b600067ffffffffffffffff82111561257257612572612660565b5060051b60200190565b6000821982111561258f5761258f61264a565b500190565b60008160001904831182151516156125ae576125ae61264a565b500290565b60005b838110156125ce5781810151838201526020016125b6565b838111156125dd576000848401525b50505050565b6000816125f2576125f261264a565b506000190190565b600181811c9082168061260e57607f821691505b60208210811415610d6b57634e487b7160e01b600052602260045260246000fd5b60006000198214156126435761264361264a565b5060010190565b634e487b7160e01b600052601160045260246000fd5b634e487b7160e01b600052604160045260246000fdfe16f50c1fe196fa8f2d59c3eca367f2f7bf83b35c12ed36436b26d5af3695f5c4a2646970667358221220230b60ab65e8e6868d11e2bd93f1b4743ef085d960a70d611eeb56f65fa06bde64736f6c63430008040033",
  "linkReferences": {},
  "deployedLinkReferences": {}
}