{
  "_format": "hh-sol-artifact-1",
  "contractName": "Diplomacy",
  "sourceName": "contracts/Diplomacy.sol",
  "abi": [
    {
      "inputs": [],
      "stateMutability": "nonpayable",
      "type": "constructor"
    },
    {
      "anonymous": false,
      "inputs": [
        {
          "indexed": false,
          "internalType": "address",
          "name": "voter",
          "type": "address"
        },
        {
          "indexed": false,
          "internalType": "uint256",
          "name": "electionId",
          "type": "uint256"
        },
        {
          "indexed": false,
          "internalType": "address[]",
          "name": "adrs",
          "type": "address[]"
        },
        {
          "indexed": false,
          "internalType": "string[]",
          "name": "scores",
          "type": "string[]"
        }
      ],
      "name": "BallotCast",
      "type": "event"
    },
    {
      "anonymous": false,
      "inputs": [
        {
          "indexed": false,
          "internalType": "address",
          "name": "creator",
          "type": "address"
        },
        {
          "indexed": false,
          "internalType": "uint256",
          "name": "electionId",
          "type": "uint256"
        }
      ],
      "name": "ElectionCreated",
      "type": "event"
    },
    {
      "anonymous": false,
      "inputs": [
        {
          "indexed": false,
          "internalType": "uint256",
          "name": "electionId",
          "type": "uint256"
        }
      ],
      "name": "ElectionEnded",
      "type": "event"
    },
    {
      "anonymous": false,
      "inputs": [
        {
          "indexed": false,
          "internalType": "uint256",
          "name": "electionId",
          "type": "uint256"
        }
      ],
      "name": "ElectionPaid",
      "type": "event"
    },
    {
      "anonymous": false,
      "inputs": [
        {
          "indexed": true,
          "internalType": "address",
          "name": "previousOwner",
          "type": "address"
        },
        {
          "indexed": true,
          "internalType": "address",
          "name": "newOwner",
          "type": "address"
        }
      ],
      "name": "OwnershipTransferred",
      "type": "event"
    },
    {
      "anonymous": false,
      "inputs": [
        {
          "indexed": true,
          "internalType": "bytes32",
          "name": "role",
          "type": "bytes32"
        },
        {
          "indexed": true,
          "internalType": "bytes32",
          "name": "previousAdminRole",
          "type": "bytes32"
        },
        {
          "indexed": true,
          "internalType": "bytes32",
          "name": "newAdminRole",
          "type": "bytes32"
        }
      ],
      "name": "RoleAdminChanged",
      "type": "event"
    },
    {
      "anonymous": false,
      "inputs": [
        {
          "indexed": true,
          "internalType": "bytes32",
          "name": "role",
          "type": "bytes32"
        },
        {
          "indexed": true,
          "internalType": "address",
          "name": "account",
          "type": "address"
        },
        {
          "indexed": true,
          "internalType": "address",
          "name": "sender",
          "type": "address"
        }
      ],
      "name": "RoleGranted",
      "type": "event"
    },
    {
      "anonymous": false,
      "inputs": [
        {
          "indexed": true,
          "internalType": "bytes32",
          "name": "role",
          "type": "bytes32"
        },
        {
          "indexed": true,
          "internalType": "address",
          "name": "account",
          "type": "address"
        },
        {
          "indexed": true,
          "internalType": "address",
          "name": "sender",
          "type": "address"
        }
      ],
      "name": "RoleRevoked",
      "type": "event"
    },
    {
      "inputs": [],
      "name": "DEFAULT_ADMIN_ROLE",
      "outputs": [
        {
          "internalType": "bytes32",
          "name": "",
          "type": "bytes32"
        }
      ],
      "stateMutability": "view",
      "type": "function"
    },
    {
      "inputs": [
        {
          "internalType": "uint256",
          "name": "electionId",
          "type": "uint256"
        },
        {
          "internalType": "address",
          "name": "_sender",
          "type": "address"
        }
      ],
      "name": "canVote",
      "outputs": [
        {
          "internalType": "bool",
          "name": "status",
          "type": "bool"
        }
      ],
      "stateMutability": "view",
      "type": "function"
    },
    {
      "inputs": [
        {
          "internalType": "uint256",
          "name": "electionId",
          "type": "uint256"
        },
        {
          "internalType": "address[]",
          "name": "_adrs",
          "type": "address[]"
        },
        {
          "internalType": "string[]",
          "name": "_scores",
          "type": "string[]"
        }
      ],
      "name": "castBallot",
      "outputs": [],
      "stateMutability": "nonpayable",
      "type": "function"
    },
    {
      "inputs": [
        {
          "internalType": "uint256",
          "name": "",
          "type": "uint256"
        }
      ],
      "name": "elections",
      "outputs": [
        {
          "internalType": "string",
          "name": "name",
          "type": "string"
        },
        {
          "internalType": "bool",
          "name": "active",
          "type": "bool"
        },
        {
          "internalType": "bool",
          "name": "paid",
          "type": "bool"
        },
        {
          "internalType": "uint256",
          "name": "createdAt",
          "type": "uint256"
        },
        {
          "internalType": "uint256",
          "name": "funds",
          "type": "uint256"
        },
        {
          "internalType": "string",
          "name": "fundingType",
          "type": "string"
        },
        {
          "internalType": "uint256",
          "name": "votes",
          "type": "uint256"
        },
        {
          "internalType": "address",
          "name": "admin",
          "type": "address"
        }
      ],
      "stateMutability": "view",
      "type": "function"
    },
    {
      "inputs": [
        {
          "internalType": "uint256",
          "name": "electionId",
          "type": "uint256"
        }
      ],
      "name": "endElection",
      "outputs": [],
      "stateMutability": "nonpayable",
      "type": "function"
    },
    {
      "inputs": [
        {
          "internalType": "uint256",
          "name": "electionId",
          "type": "uint256"
        }
      ],
      "name": "getElectionById",
      "outputs": [
        {
          "internalType": "string",
          "name": "name",
          "type": "string"
        },
        {
          "internalType": "address[]",
          "name": "candidates",
          "type": "address[]"
        },
        {
          "internalType": "uint256",
          "name": "n_addr",
          "type": "uint256"
        },
        {
          "internalType": "uint256",
          "name": "createdAt",
          "type": "uint256"
        },
        {
          "internalType": "uint256",
          "name": "funds",
          "type": "uint256"
        },
        {
          "internalType": "uint256",
          "name": "votes",
          "type": "uint256"
        },
        {
          "internalType": "address",
          "name": "admin",
          "type": "address"
        },
        {
          "internalType": "bool",
          "name": "isActive",
          "type": "bool"
        },
        {
          "internalType": "bool",
          "name": "paid",
          "type": "bool"
        }
      ],
      "stateMutability": "view",
      "type": "function"
    },
    {
      "inputs": [
        {
          "internalType": "uint256",
          "name": "electionId",
          "type": "uint256"
        },
        {
          "internalType": "address",
          "name": "_adr",
          "type": "address"
        }
      ],
      "name": "getElectionResults",
      "outputs": [
        {
          "internalType": "int256",
          "name": "",
          "type": "int256"
        }
      ],
      "stateMutability": "view",
      "type": "function"
    },
    {
      "inputs": [
        {
          "internalType": "uint256",
          "name": "electionId",
          "type": "uint256"
        },
        {
          "internalType": "address",
          "name": "_adr",
          "type": "address"
        }
      ],
      "name": "getElectionScores",
      "outputs": [
        {
          "internalType": "string[]",
          "name": "",
          "type": "string[]"
        }
      ],
      "stateMutability": "view",
      "type": "function"
    },
    {
      "inputs": [
        {
          "internalType": "uint256",
          "name": "electionId",
          "type": "uint256"
        }
      ],
      "name": "getElectionVoted",
      "outputs": [
        {
          "internalType": "uint256",
          "name": "count",
          "type": "uint256"
        }
      ],
      "stateMutability": "view",
      "type": "function"
    },
    {
      "inputs": [
        {
          "internalType": "bytes32",
          "name": "role",
          "type": "bytes32"
        }
      ],
      "name": "getRoleAdmin",
      "outputs": [
        {
          "internalType": "bytes32",
          "name": "",
          "type": "bytes32"
        }
      ],
      "stateMutability": "view",
      "type": "function"
    },
    {
      "inputs": [
        {
          "internalType": "bytes32",
          "name": "role",
          "type": "bytes32"
        },
        {
          "internalType": "address",
          "name": "account",
          "type": "address"
        }
      ],
      "name": "grantRole",
      "outputs": [],
      "stateMutability": "nonpayable",
      "type": "function"
    },
    {
      "inputs": [
        {
          "internalType": "bytes32",
          "name": "role",
          "type": "bytes32"
        },
        {
          "internalType": "address",
          "name": "account",
          "type": "address"
        }
      ],
      "name": "hasRole",
      "outputs": [
        {
          "internalType": "bool",
          "name": "",
          "type": "bool"
        }
      ],
      "stateMutability": "view",
      "type": "function"
    },
    {
      "inputs": [
        {
          "internalType": "uint256",
          "name": "electionId",
          "type": "uint256"
        },
        {
          "internalType": "address",
          "name": "_sender",
          "type": "address"
        }
      ],
      "name": "hasVoted",
      "outputs": [
        {
          "internalType": "bool",
          "name": "",
          "type": "bool"
        }
      ],
      "stateMutability": "view",
      "type": "function"
    },
    {
      "inputs": [
        {
          "internalType": "uint256",
          "name": "electionId",
          "type": "uint256"
        },
        {
          "internalType": "address",
          "name": "_sender",
          "type": "address"
        }
      ],
      "name": "isElectionAdmin",
      "outputs": [
        {
          "internalType": "bool",
          "name": "",
          "type": "bool"
        }
      ],
      "stateMutability": "view",
      "type": "function"
    },
    {
      "inputs": [
        {
          "internalType": "uint256",
          "name": "electionId",
          "type": "uint256"
        },
        {
          "internalType": "address",
          "name": "_sender",
          "type": "address"
        }
      ],
      "name": "isElectionCandidate",
      "outputs": [
        {
          "internalType": "bool",
          "name": "status",
          "type": "bool"
        }
      ],
      "stateMutability": "view",
      "type": "function"
    },
    {
      "inputs": [
        {
          "internalType": "string",
          "name": "_name",
          "type": "string"
        },
        {
          "internalType": "uint256",
          "name": "_funds",
          "type": "uint256"
        },
        {
          "internalType": "string",
          "name": "_type",
          "type": "string"
        },
        {
          "internalType": "uint256",
          "name": "_votes",
          "type": "uint256"
        },
        {
          "internalType": "address[]",
          "name": "_adrs",
          "type": "address[]"
        }
      ],
      "name": "newElection",
      "outputs": [
        {
          "internalType": "uint256",
          "name": "electionId",
          "type": "uint256"
        }
      ],
      "stateMutability": "nonpayable",
      "type": "function"
    },
    {
      "inputs": [],
      "name": "numElections",
      "outputs": [
        {
          "internalType": "uint256",
          "name": "",
          "type": "uint256"
        }
      ],
      "stateMutability": "view",
      "type": "function"
    },
    {
      "inputs": [],
      "name": "owner",
      "outputs": [
        {
          "internalType": "address",
          "name": "",
          "type": "address"
        }
      ],
      "stateMutability": "view",
      "type": "function"
    },
    {
      "inputs": [
        {
          "internalType": "uint256",
          "name": "electionId",
          "type": "uint256"
        },
        {
          "internalType": "address[]",
          "name": "_adrs",
          "type": "address[]"
        },
        {
          "internalType": "uint256[]",
          "name": "_pay",
          "type": "uint256[]"
        }
      ],
      "name": "payoutElection",
      "outputs": [],
      "stateMutability": "payable",
      "type": "function"
    },
    {
      "inputs": [],
      "name": "renounceOwnership",
      "outputs": [],
      "stateMutability": "nonpayable",
      "type": "function"
    },
    {
      "inputs": [
        {
          "internalType": "bytes32",
          "name": "role",
          "type": "bytes32"
        },
        {
          "internalType": "address",
          "name": "account",
          "type": "address"
        }
      ],
      "name": "renounceRole",
      "outputs": [],
      "stateMutability": "nonpayable",
      "type": "function"
    },
    {
      "inputs": [
        {
          "internalType": "bytes32",
          "name": "role",
          "type": "bytes32"
        },
        {
          "internalType": "address",
          "name": "account",
          "type": "address"
        }
      ],
      "name": "revokeRole",
      "outputs": [],
      "stateMutability": "nonpayable",
      "type": "function"
    },
    {
      "inputs": [
        {
          "internalType": "bytes4",
          "name": "interfaceId",
          "type": "bytes4"
        }
      ],
      "name": "supportsInterface",
      "outputs": [
        {
          "internalType": "bool",
          "name": "",
          "type": "bool"
        }
      ],
      "stateMutability": "view",
      "type": "function"
    },
    {
      "inputs": [
        {
          "internalType": "address",
          "name": "newOwner",
          "type": "address"
        }
      ],
      "name": "transferOwnership",
      "outputs": [],
      "stateMutability": "nonpayable",
      "type": "function"
    }
  ],
  "bytecode": "0x60806040523480156200001157600080fd5b506200001d3362000030565b6200002a60003362000082565b62000132565b600180546001600160a01b038381166001600160a01b0319831681179093556040519116919082907f8be0079c531659141344cd1fd0a4f28419497f9722a3daafe3b4186f6b6457e090600090a35050565b6200008e828262000092565b5050565b6000828152602081815260408083206001600160a01b038516845290915290205460ff166200008e576000828152602081815260408083206001600160a01b03851684529091529020805460ff19166001179055620000ee3390565b6001600160a01b0316816001600160a01b0316837f2f8788117e7eff1d82e926ec794901d17c78024a50270940304540a733656f0d60405160405180910390a45050565b61226980620001426000396000f3fe60806040526004361061014b5760003560e01c8063715018a6116100b6578063be70a0091161006f578063be70a0091461040a578063c6958b1214610451578063cdb2867b14610486578063d547741f146104a6578063ea3c6cde146104c6578063f2fde38b146104e657600080fd5b8063715018a6146103395780638da5cb5b1461034e57806391b84f161461037657806391d14854146103b55780639c98bcbb146103d5578063a217fddf146103f557600080fd5b806336568abe1161010857806336568abe1461024557806343859632146102655780634548e52b146102af57806352e968ad146102cf5780635e6fef01146102ef5780636e38d9bd1461032357600080fd5b806301ffc9a71461015057806308108288146101855780630ece86d0146101b2578063248a9ca3146101c75780632f2ff15d1461020557806334a22bc914610225575b600080fd5b34801561015c57600080fd5b5061017061016b366004611bce565b610506565b60405190151581526020015b60405180910390f35b34801561019157600080fd5b506101a56101a0366004611c8e565b61053d565b60405161017c9190611faf565b6101c56101c0366004611d7f565b610637565b005b3480156101d357600080fd5b506101f76101e2366004611b8b565b60009081526020819052604090206001015490565b60405190815260200161017c565b34801561021157600080fd5b506101c5610220366004611ba3565b610958565b34801561023157600080fd5b506101f7610240366004611bf6565b610983565b34801561025157600080fd5b506101c5610260366004611ba3565b610a78565b34801561027157600080fd5b50610170610280366004611c8e565b60008281526003602090815260408083206001600160a01b038516845260080190915290205460ff1692915050565b3480156102bb57600080fd5b506101c56102ca366004611ca0565b610af6565b3480156102db57600080fd5b506101f76102ea366004611b8b565b610e06565b3480156102fb57600080fd5b5061030f61030a366004611b8b565b610eba565b60405161017c989796959493929190612043565b34801561032f57600080fd5b506101f760025481565b34801561034557600080fd5b506101c561101e565b34801561035a57600080fd5b506001546040516001600160a01b03909116815260200161017c565b34801561038257600080fd5b50610170610391366004611c8e565b600091825260036020526040909120600701546001600160a01b0390811691161490565b3480156103c157600080fd5b506101706103d0366004611ba3565b611084565b3480156103e157600080fd5b506101c56103f0366004611b8b565b6110ad565b34801561040157600080fd5b506101f7600081565b34801561041657600080fd5b506101f7610425366004611c8e565b60008281526003602090815260408083206001600160a01b0385168452600a0190915290205492915050565b34801561045d57600080fd5b5061047161046c366004611b8b565b6111d3565b60405161017c99989796959493929190611fd5565b34801561049257600080fd5b506101706104a1366004611c8e565b611350565b3480156104b257600080fd5b506101c56104c1366004611ba3565b6113e0565b3480156104d257600080fd5b506101706104e1366004611c8e565b611406565b3480156104f257600080fd5b506101c5610501366004611b71565b611490565b60006001600160e01b03198216637965db0b60e01b148061053757506301ffc9a760e01b6001600160e01b03198316145b92915050565b60008281526003602090815260408083206001600160a01b03851684526009018252808320805482518185028101850190935280835260609492939192909184015b8282101561062b57838290600052602060002001805461059e906121b7565b80601f01602080910402602001604051908101604052809291908181526020018280546105ca906121b7565b80156106175780601f106105ec57610100808354040283529160200191610617565b820191906000526020600020905b8154815290600101906020018083116105fa57829003601f168201915b50505050508152602001906001019061057f565b50505050905092915050565b826106627f16f50c1fe196fa8f2d59c3eca367f2f7bf83b35c12ed36436b26d5af3695f5c433611084565b6106875760405162461bcd60e51b815260040161067e906120ad565b60405180910390fd5b6000818152600360205260409020600701546001600160a01b031633146106c05760405162461bcd60e51b815260040161067e906120ad565b60008481526003602052604090206001015460ff161561071b5760405162461bcd60e51b8152602060048201526016602482015275456c656374696f6e205374696c6c204163746976652160501b604482015260640161067e565b6000805b600086815260036020819052604090912001548110156108485784818151811061075957634e487b7160e01b600052603260045260246000fd5b60200260200101516001600160a01b031660036000888152602001908152602001600020600301828154811061079f57634e487b7160e01b600052603260045260246000fd5b6000918252602090912001546001600160a01b0316146108015760405162461bcd60e51b815260206004820152601a60248201527f456c656374696f6e2d41646472657373204d69736d6174636821000000000000604482015260640161067e565b83818151811061082157634e487b7160e01b600052603260045260246000fd5b6020026020010151826108349190612139565b915080610840816121ec565b91505061071f565b5060005b83518110156108f85784818151811061087557634e487b7160e01b600052603260045260246000fd5b60200260200101516001600160a01b03166108fc8583815181106108a957634e487b7160e01b600052603260045260246000fd5b602002602001015160016108bd9190612151565b6040518115909202916000818181858888f193505050501580156108e5573d6000803e3d6000fd5b50806108f0816121ec565b91505061084c565b5060008581526003602052604090819020600101805461ff001916610100179055517fb27761a3b9064636a27795816e4f8a8e5cadd6ac8b1e3a553bd47bf414c2b402906109499087815260200190565b60405180910390a15050505050565b600082815260208190526040902060010154610974813361155b565b61097e83836115bf565b505050565b6002805460009182610994836121ec565b9091555060008181526003602090815260409091208851929350916109be918391908a0190611986565b506004810186905584516109db9060058301906020880190611986565b506006810184905582516109f89060038301906020860190611a0a565b504260028201556001808201805460ff191690911790556007810180546001600160a01b03191633179055610a2c83611643565b610a35336116b2565b60408051338152602081018490527fc91fe4766a7a928d6625f66818425dc115b03c854a8ed8d28de2f34a684e0f1a910160405180910390a15095945050505050565b6001600160a01b0381163314610ae85760405162461bcd60e51b815260206004820152602f60248201527f416363657373436f6e74726f6c3a2063616e206f6e6c792072656e6f756e636560448201526e103937b632b9903337b91039b2b63360891b606482015260840161067e565b610af282826116dc565b5050565b82610b217f9096faa56698daa37ec8d3542ff829c66d5e81213bd6faab8ba4e9ce824a5def33611084565b610b6d5760405162461bcd60e51b815260206004820152601e60248201527f53656e646572206e6f7420456c656374696f6e2043616e646964617465210000604482015260640161067e565b610b778133611406565b610bc35760405162461bcd60e51b815260206004820152601e60248201527f53656e646572206e6f7420456c656374696f6e2043616e646964617465210000604482015260640161067e565b60008481526003602052604090206001015484908490849060ff16610c215760405162461bcd60e51b8152602060048201526014602482015273456c656374696f6e204e6f74204163746976652160601b604482015260640161067e565b600083815260036020908152604080832033845260080190915290205460ff1615610c865760405162461bcd60e51b815260206004820152601560248201527453656e64657220616c726561647920766f7465642160581b604482015260640161067e565b8151815114610cd75760405162461bcd60e51b815260206004820181905260248201527f53636f7265732043616e64696461746520436f756e74204d69736d6174636821604482015260640161067e565b6000878152600360205260408120905b8751811015610da357816009016000898381518110610d1657634e487b7160e01b600052603260045260246000fd5b60200260200101516001600160a01b03166001600160a01b03168152602001908152602001600020878281518110610d5e57634e487b7160e01b600052603260045260246000fd5b60209081029190910181015182546001810184556000938452928290208151610d909491909101929190910190611986565b5080610d9b816121ec565b915050610ce7565b5033600081815260088301602052604090819020805460ff19166001179055517faaf8175507b94c84621088891ecf31ca1c2548c0aeab2f2f21d3459515f9c4ed91610df4918b908b908b90611f6b565b60405180910390a15050505050505050565b6000805b60008381526003602081905260409091200154811015610eb4576000838152600360208190526040822001805483908110610e5557634e487b7160e01b600052603260045260246000fd5b60009182526020808320909101548683526003825260408084206001600160a01b03909216808552600890920190925291205490915060ff1615610ea15782610e9d816121ec565b9350505b5080610eac816121ec565b915050610e0a565b50919050565b600360205260009081526040902080548190610ed5906121b7565b80601f0160208091040260200160405190810160405280929190818152602001828054610f01906121b7565b8015610f4e5780601f10610f2357610100808354040283529160200191610f4e565b820191906000526020600020905b815481529060010190602001808311610f3157829003601f168201915b505050600184015460028501546004860154600587018054969760ff808616986101009096041696509294509092610f85906121b7565b80601f0160208091040260200160405190810160405280929190818152602001828054610fb1906121b7565b8015610ffe5780601f10610fd357610100808354040283529160200191610ffe565b820191906000526020600020905b815481529060010190602001808311610fe157829003601f168201915b5050505060068301546007909301549192916001600160a01b0316905088565b6001546001600160a01b031633146110785760405162461bcd60e51b815260206004820181905260248201527f4f776e61626c653a2063616c6c6572206973206e6f7420746865206f776e6572604482015260640161067e565b6110826000611741565b565b6000918252602082815260408084206001600160a01b0393909316845291905290205460ff1690565b806110d87f16f50c1fe196fa8f2d59c3eca367f2f7bf83b35c12ed36436b26d5af3695f5c433611084565b6110f45760405162461bcd60e51b815260040161067e906120ad565b6000818152600360205260409020600701546001600160a01b0316331461112d5760405162461bcd60e51b815260040161067e906120ad565b6000828152600360205260409020600181015460ff1661118f5760405162461bcd60e51b815260206004820152601760248201527f456c656374696f6e20416c726561647920456e64656421000000000000000000604482015260640161067e565b60018101805460ff191690556040518381527f562cd572b2ba3b666cd989fc4ca98419ec81e75f04528df9d9d76fdb7807ee719060200160405180910390a1505050565b6060806000806000806000806000600360008b81526020019081526020016000206000018054611202906121b7565b80601f016020809104026020016040519081016040528092919081815260200182805461122e906121b7565b801561127b5780601f106112505761010080835404028352916020019161127b565b820191906000526020600020905b81548152906001019060200180831161125e57829003601f168201915b50505050509850600360008b81526020019081526020016000206003018054806020026020016040519081016040528092919081815260200182805480156112ec57602002820191906000526020600020905b81546001600160a01b031681526001909101906020018083116112ce575b50505060009c8d525050600360208190526040909b209a8b015460028c015460048d015460068e015460078f01546001909f01549d9f949e939d929c50909a5098506001600160a01b03909116965060ff8082169650610100909104169350915050565b6000805b600084815260036020819052604090912001548110156113d957600084815260036020819052604082200180548390811061139f57634e487b7160e01b600052603260045260246000fd5b6000918252602090912001546001600160a01b03908116915084168114156113c657600192505b50806113d1816121ec565b915050611354565b5092915050565b6000828152602081905260409020600101546113fc813361155b565b61097e83836116dc565b6000805b600084815260036020819052604090912001548110156113d95760008481526003602081905260409091200180548290811061145657634e487b7160e01b600052603260045260246000fd5b6000918252602090912001546001600160a01b038481169116141561147e57600191506113d9565b80611488816121ec565b91505061140a565b6001546001600160a01b031633146114ea5760405162461bcd60e51b815260206004820181905260248201527f4f776e61626c653a2063616c6c6572206973206e6f7420746865206f776e6572604482015260640161067e565b6001600160a01b03811661154f5760405162461bcd60e51b815260206004820152602660248201527f4f776e61626c653a206e6577206f776e657220697320746865207a65726f206160448201526564647265737360d01b606482015260840161067e565b61155881611741565b50565b6115658282611084565b610af25761157d816001600160a01b03166014611793565b611588836020611793565b604051602001611599929190611ef6565b60408051601f198184030181529082905262461bcd60e51b825261067e91600401611fc2565b6115c98282611084565b610af2576000828152602081815260408083206001600160a01b03851684529091529020805460ff191660011790556115ff3390565b6001600160a01b0316816001600160a01b0316837f2f8788117e7eff1d82e926ec794901d17c78024a50270940304540a733656f0d60405160405180910390a45050565b60005b8151811015610af2576116a07f9096faa56698daa37ec8d3542ff829c66d5e81213bd6faab8ba4e9ce824a5def83838151811061169357634e487b7160e01b600052603260045260246000fd5b602002602001015161197c565b806116aa816121ec565b915050611646565b6115587f16f50c1fe196fa8f2d59c3eca367f2f7bf83b35c12ed36436b26d5af3695f5c48261197c565b6116e68282611084565b15610af2576000828152602081815260408083206001600160a01b0385168085529252808320805460ff1916905551339285917ff6391f5c32d9c69d2a47ea670b442974b53935d1edc7fd64eb21e047a839171b9190a45050565b600180546001600160a01b038381166001600160a01b0319831681179093556040519116919082907f8be0079c531659141344cd1fd0a4f28419497f9722a3daafe3b4186f6b6457e090600090a35050565b606060006117a2836002612151565b6117ad906002612139565b67ffffffffffffffff8111156117d357634e487b7160e01b600052604160045260246000fd5b6040519080825280601f01601f1916602001820160405280156117fd576020820181803683370190505b509050600360fc1b8160008151811061182657634e487b7160e01b600052603260045260246000fd5b60200101906001600160f81b031916908160001a905350600f60fb1b8160018151811061186357634e487b7160e01b600052603260045260246000fd5b60200101906001600160f81b031916908160001a9053506000611887846002612151565b611892906001612139565b90505b6001811115611926576f181899199a1a9b1b9c1cb0b131b232b360811b85600f16601081106118d457634e487b7160e01b600052603260045260246000fd5b1a60f81b8282815181106118f857634e487b7160e01b600052603260045260246000fd5b60200101906001600160f81b031916908160001a90535060049490941c9361191f816121a0565b9050611895565b5083156119755760405162461bcd60e51b815260206004820181905260248201527f537472696e67733a20686578206c656e67746820696e73756666696369656e74604482015260640161067e565b9392505050565b610af282826115bf565b828054611992906121b7565b90600052602060002090601f0160209004810192826119b457600085556119fa565b82601f106119cd57805160ff19168380011785556119fa565b828001600101855582156119fa579182015b828111156119fa5782518255916020019190600101906119df565b50611a06929150611a5f565b5090565b8280548282559060005260206000209081019282156119fa579160200282015b828111156119fa57825182546001600160a01b0319166001600160a01b03909116178255602090920191600190910190611a2a565b5b80821115611a065760008155600101611a60565b80356001600160a01b0381168114611a8b57600080fd5b919050565b600082601f830112611aa0578081fd5b81356020611ab5611ab083612115565b6120e4565b80838252828201915082860187848660051b8901011115611ad4578586fd5b855b85811015611af957611ae782611a74565b84529284019290840190600101611ad6565b5090979650505050505050565b600082601f830112611b16578081fd5b813567ffffffffffffffff811115611b3057611b3061221d565b611b43601f8201601f19166020016120e4565b818152846020838601011115611b57578283fd5b816020850160208301379081016020019190915292915050565b600060208284031215611b82578081fd5b61197582611a74565b600060208284031215611b9c578081fd5b5035919050565b60008060408385031215611bb5578081fd5b82359150611bc560208401611a74565b90509250929050565b600060208284031215611bdf578081fd5b81356001600160e01b031981168114611975578182fd5b600080600080600060a08688031215611c0d578081fd5b853567ffffffffffffffff80821115611c24578283fd5b611c3089838a01611b06565b9650602088013595506040880135915080821115611c4c578283fd5b611c5889838a01611b06565b9450606088013593506080880135915080821115611c74578283fd5b50611c8188828901611a90565b9150509295509295909350565b60008060408385031215611bb5578182fd5b600080600060608486031215611cb4578283fd5b8335925060208085013567ffffffffffffffff80821115611cd3578485fd5b611cdf88838901611a90565b94506040870135915080821115611cf4578384fd5b818701915087601f830112611d07578384fd5b8135611d15611ab082612115565b8082825285820191508585018b878560051b8801011115611d34578788fd5b875b84811015611d6d57813586811115611d4c57898afd5b611d5a8e8a838b0101611b06565b8552509287019290870190600101611d36565b50508096505050505050509250925092565b600080600060608486031215611d93578283fd5b8335925060208085013567ffffffffffffffff80821115611db2578485fd5b611dbe88838901611a90565b94506040870135915080821115611dd3578384fd5b508501601f81018713611de4578283fd5b8035611df2611ab082612115565b8082825284820191508484018a868560051b8701011115611e11578687fd5b8694505b83851015611e33578035835260019490940193918501918501611e15565b5080955050505050509250925092565b6000815180845260208085019450808401835b83811015611e7b5781516001600160a01b031687529582019590820190600101611e56565b509495945050505050565b6000815180845260208085019450848260051b8601828601855b85811015611af9578383038952611eb8838351611eca565b98850198925090840190600101611ea0565b60008151808452611ee2816020860160208601612170565b601f01601f19169290920160200192915050565b7f416363657373436f6e74726f6c3a206163636f756e7420000000000000000000815260008351611f2e816017850160208801612170565b7001034b99036b4b9b9b4b733903937b6329607d1b6017918401918201528351611f5f816028840160208801612170565b01602801949350505050565b60018060a01b0385168152836020820152608060408201526000611f926080830185611e43565b8281036060840152611fa48185611e86565b979650505050505050565b6020815260006119756020830184611e86565b6020815260006119756020830184611eca565b6000610120808352611fe98184018d611eca565b90508281036020840152611ffd818c611e43565b604084019a909a5250506060810196909652608086019490945260a08501929092526001600160a01b031660c0840152151560e083015215156101009091015292915050565b60006101008083526120578184018c611eca565b90508915156020840152881515604084015287606084015286608084015282810360a08401526120878187611eca565b60c084019590955250506001600160a01b039190911660e0909101529695505050505050565b6020808252601a908201527f53656e646572206e6f7420456c656374696f6e2041646d696e21000000000000604082015260600190565b604051601f8201601f1916810167ffffffffffffffff8111828210171561210d5761210d61221d565b604052919050565b600067ffffffffffffffff82111561212f5761212f61221d565b5060051b60200190565b6000821982111561214c5761214c612207565b500190565b600081600019048311821515161561216b5761216b612207565b500290565b60005b8381101561218b578181015183820152602001612173565b8381111561219a576000848401525b50505050565b6000816121af576121af612207565b506000190190565b600181811c908216806121cb57607f821691505b60208210811415610eb457634e487b7160e01b600052602260045260246000fd5b600060001982141561220057612200612207565b5060010190565b634e487b7160e01b600052601160045260246000fd5b634e487b7160e01b600052604160045260246000fdfea26469706673582212206a9b575bb818c727e49177829c2992be66f4a8580501393d11d58b3312cf1a0764736f6c63430008040033",
  "linkReferences": {},
  "deployedLinkReferences": {}
}