{
  "_format": "hh-sol-artifact-1",
  "contractName": "Diplomacy",
  "sourceName": "contracts/Diplomacy.sol",
  "abi": [
    {
      "inputs": [],
      "stateMutability": "nonpayable",
      "type": "constructor"
    },
    {
      "anonymous": false,
      "inputs": [
        {
          "indexed": false,
          "internalType": "address",
          "name": "voter",
          "type": "address"
        },
        {
          "indexed": false,
          "internalType": "uint256",
          "name": "electionId",
          "type": "uint256"
        },
        {
          "indexed": false,
          "internalType": "address[]",
          "name": "adrs",
          "type": "address[]"
        },
        {
          "indexed": false,
          "internalType": "string[]",
          "name": "scores",
          "type": "string[]"
        }
      ],
      "name": "BallotCast",
      "type": "event"
    },
    {
      "anonymous": false,
      "inputs": [
        {
          "indexed": false,
          "internalType": "address",
          "name": "creator",
          "type": "address"
        },
        {
          "indexed": false,
          "internalType": "uint256",
          "name": "electionId",
          "type": "uint256"
        }
      ],
      "name": "ElectionCreated",
      "type": "event"
    },
    {
      "anonymous": false,
      "inputs": [
        {
          "indexed": false,
          "internalType": "uint256",
          "name": "electionId",
          "type": "uint256"
        }
      ],
      "name": "ElectionEnded",
      "type": "event"
    },
    {
      "anonymous": false,
      "inputs": [
        {
          "indexed": false,
          "internalType": "uint256",
          "name": "electionId",
          "type": "uint256"
        }
      ],
      "name": "ElectionPaid",
      "type": "event"
    },
    {
      "anonymous": false,
      "inputs": [
        {
          "indexed": true,
          "internalType": "address",
          "name": "previousOwner",
          "type": "address"
        },
        {
          "indexed": true,
          "internalType": "address",
          "name": "newOwner",
          "type": "address"
        }
      ],
      "name": "OwnershipTransferred",
      "type": "event"
    },
    {
      "anonymous": false,
      "inputs": [
        {
          "indexed": true,
          "internalType": "bytes32",
          "name": "role",
          "type": "bytes32"
        },
        {
          "indexed": true,
          "internalType": "bytes32",
          "name": "previousAdminRole",
          "type": "bytes32"
        },
        {
          "indexed": true,
          "internalType": "bytes32",
          "name": "newAdminRole",
          "type": "bytes32"
        }
      ],
      "name": "RoleAdminChanged",
      "type": "event"
    },
    {
      "anonymous": false,
      "inputs": [
        {
          "indexed": true,
          "internalType": "bytes32",
          "name": "role",
          "type": "bytes32"
        },
        {
          "indexed": true,
          "internalType": "address",
          "name": "account",
          "type": "address"
        },
        {
          "indexed": true,
          "internalType": "address",
          "name": "sender",
          "type": "address"
        }
      ],
      "name": "RoleGranted",
      "type": "event"
    },
    {
      "anonymous": false,
      "inputs": [
        {
          "indexed": true,
          "internalType": "bytes32",
          "name": "role",
          "type": "bytes32"
        },
        {
          "indexed": true,
          "internalType": "address",
          "name": "account",
          "type": "address"
        },
        {
          "indexed": true,
          "internalType": "address",
          "name": "sender",
          "type": "address"
        }
      ],
      "name": "RoleRevoked",
      "type": "event"
    },
    {
      "stateMutability": "payable",
      "type": "fallback"
    },
    {
      "inputs": [],
      "name": "DEFAULT_ADMIN_ROLE",
      "outputs": [
        {
          "internalType": "bytes32",
          "name": "",
          "type": "bytes32"
        }
      ],
      "stateMutability": "view",
      "type": "function"
    },
    {
      "inputs": [
        {
          "internalType": "uint256",
          "name": "electionId",
          "type": "uint256"
        }
      ],
      "name": "approveToken",
      "outputs": [],
      "stateMutability": "nonpayable",
      "type": "function"
    },
    {
      "inputs": [
        {
          "internalType": "uint256",
          "name": "electionId",
          "type": "uint256"
        },
        {
          "internalType": "address",
          "name": "_sender",
          "type": "address"
        }
      ],
      "name": "canVote",
      "outputs": [
        {
          "internalType": "bool",
          "name": "status",
          "type": "bool"
        }
      ],
      "stateMutability": "view",
      "type": "function"
    },
    {
      "inputs": [
        {
          "internalType": "uint256",
          "name": "electionId",
          "type": "uint256"
        },
        {
          "internalType": "address[]",
          "name": "_adrs",
          "type": "address[]"
        },
        {
          "internalType": "string[]",
          "name": "_scores",
          "type": "string[]"
        }
      ],
      "name": "castBallot",
      "outputs": [],
      "stateMutability": "nonpayable",
      "type": "function"
    },
    {
      "inputs": [
        {
          "internalType": "uint256",
          "name": "",
          "type": "uint256"
        }
      ],
      "name": "elections",
      "outputs": [
        {
          "internalType": "string",
          "name": "name",
          "type": "string"
        },
        {
          "internalType": "bool",
          "name": "active",
          "type": "bool"
        },
        {
          "internalType": "bool",
          "name": "paid",
          "type": "bool"
        },
        {
          "internalType": "uint32",
          "name": "createdAt",
          "type": "uint32"
        },
        {
          "internalType": "uint32",
          "name": "funds",
          "type": "uint32"
        },
        {
          "internalType": "address",
          "name": "token",
          "type": "address"
        },
        {
          "internalType": "int8",
          "name": "votes",
          "type": "int8"
        },
        {
          "internalType": "address",
          "name": "admin",
          "type": "address"
        }
      ],
      "stateMutability": "view",
      "type": "function"
    },
    {
      "inputs": [
        {
          "internalType": "uint256",
          "name": "electionId",
          "type": "uint256"
        }
      ],
      "name": "endElection",
      "outputs": [],
      "stateMutability": "nonpayable",
      "type": "function"
    },
    {
      "inputs": [
        {
          "internalType": "uint256",
          "name": "electionId",
          "type": "uint256"
        }
      ],
      "name": "getElectionById",
      "outputs": [
        {
          "internalType": "string",
          "name": "name",
          "type": "string"
        },
        {
          "internalType": "address[]",
          "name": "candidates",
          "type": "address[]"
        },
        {
          "internalType": "uint256",
          "name": "n_addr",
          "type": "uint256"
        },
        {
          "internalType": "uint256",
          "name": "createdAt",
          "type": "uint256"
        },
        {
          "internalType": "uint256",
          "name": "funds",
          "type": "uint256"
        },
        {
          "internalType": "address",
          "name": "token",
          "type": "address"
        },
        {
          "internalType": "int8",
          "name": "votes",
          "type": "int8"
        },
        {
          "internalType": "address",
          "name": "admin",
          "type": "address"
        },
        {
          "internalType": "bool",
          "name": "isActive",
          "type": "bool"
        },
        {
          "internalType": "bool",
          "name": "paid",
          "type": "bool"
        }
      ],
      "stateMutability": "view",
      "type": "function"
    },
    {
      "inputs": [
        {
          "internalType": "uint256",
          "name": "electionId",
          "type": "uint256"
        },
        {
          "internalType": "address",
          "name": "_adr",
          "type": "address"
        }
      ],
      "name": "getElectionScores",
      "outputs": [
        {
          "internalType": "string[]",
          "name": "",
          "type": "string[]"
        }
      ],
      "stateMutability": "view",
      "type": "function"
    },
    {
      "inputs": [
        {
          "internalType": "uint256",
          "name": "electionId",
          "type": "uint256"
        }
      ],
      "name": "getElectionVoted",
      "outputs": [
        {
          "internalType": "uint256",
          "name": "count",
          "type": "uint256"
        }
      ],
      "stateMutability": "view",
      "type": "function"
    },
    {
      "inputs": [
        {
          "internalType": "bytes32",
          "name": "role",
          "type": "bytes32"
        }
      ],
      "name": "getRoleAdmin",
      "outputs": [
        {
          "internalType": "bytes32",
          "name": "",
          "type": "bytes32"
        }
      ],
      "stateMutability": "view",
      "type": "function"
    },
    {
      "inputs": [
        {
          "internalType": "bytes32",
          "name": "role",
          "type": "bytes32"
        },
        {
          "internalType": "address",
          "name": "account",
          "type": "address"
        }
      ],
      "name": "grantRole",
      "outputs": [],
      "stateMutability": "nonpayable",
      "type": "function"
    },
    {
      "inputs": [
        {
          "internalType": "bytes32",
          "name": "role",
          "type": "bytes32"
        },
        {
          "internalType": "address",
          "name": "account",
          "type": "address"
        }
      ],
      "name": "hasRole",
      "outputs": [
        {
          "internalType": "bool",
          "name": "",
          "type": "bool"
        }
      ],
      "stateMutability": "view",
      "type": "function"
    },
    {
      "inputs": [
        {
          "internalType": "uint256",
          "name": "electionId",
          "type": "uint256"
        },
        {
          "internalType": "address",
          "name": "_sender",
          "type": "address"
        }
      ],
      "name": "hasVoted",
      "outputs": [
        {
          "internalType": "bool",
          "name": "",
          "type": "bool"
        }
      ],
      "stateMutability": "view",
      "type": "function"
    },
    {
      "inputs": [
        {
          "internalType": "uint256",
          "name": "electionId",
          "type": "uint256"
        },
        {
          "internalType": "address",
          "name": "_sender",
          "type": "address"
        }
      ],
      "name": "isElectionAdmin",
      "outputs": [
        {
          "internalType": "bool",
          "name": "",
          "type": "bool"
        }
      ],
      "stateMutability": "view",
      "type": "function"
    },
    {
      "inputs": [
        {
          "internalType": "uint256",
          "name": "electionId",
          "type": "uint256"
        },
        {
          "internalType": "address",
          "name": "_sender",
          "type": "address"
        }
      ],
      "name": "isElectionCandidate",
      "outputs": [
        {
          "internalType": "bool",
          "name": "status",
          "type": "bool"
        }
      ],
      "stateMutability": "view",
      "type": "function"
    },
    {
      "inputs": [
        {
          "internalType": "string",
          "name": "_name",
          "type": "string"
        },
        {
          "internalType": "uint32",
          "name": "_funds",
          "type": "uint32"
        },
        {
          "internalType": "address",
          "name": "_token",
          "type": "address"
        },
        {
          "internalType": "int8",
          "name": "_votes",
          "type": "int8"
        },
        {
          "internalType": "address[]",
          "name": "_adrs",
          "type": "address[]"
        }
      ],
      "name": "newElection",
      "outputs": [
        {
          "internalType": "uint256",
          "name": "electionId",
          "type": "uint256"
        }
      ],
      "stateMutability": "nonpayable",
      "type": "function"
    },
    {
      "inputs": [],
      "name": "numElections",
      "outputs": [
        {
          "internalType": "uint256",
          "name": "",
          "type": "uint256"
        }
      ],
      "stateMutability": "view",
      "type": "function"
    },
    {
      "inputs": [],
      "name": "owner",
      "outputs": [
        {
          "internalType": "address",
          "name": "",
          "type": "address"
        }
      ],
      "stateMutability": "view",
      "type": "function"
    },
    {
      "inputs": [
        {
          "internalType": "uint256",
          "name": "electionId",
          "type": "uint256"
        },
        {
          "internalType": "address[]",
          "name": "_adrs",
          "type": "address[]"
        },
        {
          "internalType": "uint256[]",
          "name": "_pay",
          "type": "uint256[]"
        }
      ],
      "name": "payoutElection",
      "outputs": [],
      "stateMutability": "payable",
      "type": "function"
    },
    {
      "inputs": [],
      "name": "renounceOwnership",
      "outputs": [],
      "stateMutability": "nonpayable",
      "type": "function"
    },
    {
      "inputs": [
        {
          "internalType": "bytes32",
          "name": "role",
          "type": "bytes32"
        },
        {
          "internalType": "address",
          "name": "account",
          "type": "address"
        }
      ],
      "name": "renounceRole",
      "outputs": [],
      "stateMutability": "nonpayable",
      "type": "function"
    },
    {
      "inputs": [
        {
          "internalType": "bytes32",
          "name": "role",
          "type": "bytes32"
        },
        {
          "internalType": "address",
          "name": "account",
          "type": "address"
        }
      ],
      "name": "revokeRole",
      "outputs": [],
      "stateMutability": "nonpayable",
      "type": "function"
    },
    {
      "inputs": [
        {
          "internalType": "uint256",
          "name": "",
          "type": "uint256"
        },
        {
          "internalType": "address",
          "name": "",
          "type": "address"
        },
        {
          "internalType": "uint256",
          "name": "",
          "type": "uint256"
        }
      ],
      "name": "scores",
      "outputs": [
        {
          "internalType": "string",
          "name": "",
          "type": "string"
        }
      ],
      "stateMutability": "view",
      "type": "function"
    },
    {
      "inputs": [
        {
          "internalType": "bytes4",
          "name": "interfaceId",
          "type": "bytes4"
        }
      ],
      "name": "supportsInterface",
      "outputs": [
        {
          "internalType": "bool",
          "name": "",
          "type": "bool"
        }
      ],
      "stateMutability": "view",
      "type": "function"
    },
    {
      "inputs": [
        {
          "internalType": "address",
          "name": "newOwner",
          "type": "address"
        }
      ],
      "name": "transferOwnership",
      "outputs": [],
      "stateMutability": "nonpayable",
      "type": "function"
    },
    {
      "inputs": [
        {
          "internalType": "uint256",
          "name": "",
          "type": "uint256"
        },
        {
          "internalType": "address",
          "name": "",
          "type": "address"
        }
      ],
      "name": "voted",
      "outputs": [
        {
          "internalType": "bool",
          "name": "",
          "type": "bool"
        }
      ],
      "stateMutability": "view",
      "type": "function"
    },
    {
      "stateMutability": "payable",
      "type": "receive"
    }
  ],
  "bytecode": "0x60806040523480156200001157600080fd5b506200001d3362000035565b60016002556200002f60003362000087565b62000137565b600180546001600160a01b038381166001600160a01b0319831681179093556040519116919082907f8be0079c531659141344cd1fd0a4f28419497f9722a3daafe3b4186f6b6457e090600090a35050565b62000093828262000097565b5050565b6000828152602081815260408083206001600160a01b038516845290915290205460ff1662000093576000828152602081815260408083206001600160a01b03851684529091529020805460ff19166001179055620000f33390565b6001600160a01b0316816001600160a01b0316837f2f8788117e7eff1d82e926ec794901d17c78024a50270940304540a733656f0d60405160405180910390a45050565b612c6c80620001476000396000f3fe6080604052600436106101735760003560e01c8063715018a6116100c8578063b082c38511610084578063cdb2867b11610061578063cdb2867b146104ee578063d547741f1461050e578063ea3c6cde1461052e578063f2fde38b1461054e57005b8063b082c3851461046b578063ba0242b514610498578063c6958b12146104b857005b8063715018a61461039a5780638da5cb5b146103af57806391b84f16146103d757806391d14854146104165780639c98bcbb14610436578063a217fddf1461045657005b80633ac9fc111161012f5780635277b4ae1161010c5780635277b4ae146102f557806352e968ad146103305780635e6fef01146103505780636e38d9bd1461038457005b80633ac9fc111461026f578063438596321461028f5780634548e52b146102d557005b806301ffc9a71461017c57806308108288146101b15780630ece86d0146101de578063248a9ca3146101f15780632f2ff15d1461022f57806336568abe1461024f57005b3661017a57005b005b34801561018857600080fd5b5061019c610197366004612549565b61056e565b60405190151581526020015b60405180910390f35b3480156101bd57600080fd5b506101d16101cc366004612619565b6105a5565b6040516101a8919061298f565b61017a6101ec36600461273e565b61069c565b3480156101fd57600080fd5b5061022161020c366004612506565b60009081526020819052604090206001015490565b6040519081526020016101a8565b34801561023b57600080fd5b5061017a61024a36600461251e565b6108d4565b34801561025b57600080fd5b5061017a61026a36600461251e565b6108ff565b34801561027b57600080fd5b5061017a61028a366004612506565b61097d565b34801561029b57600080fd5b5061019c6102aa366004612619565b60009182526003602090815260408084206001600160a01b0393909316845291905290205460ff1690565b3480156102e157600080fd5b5061017a6102f036600461265f565b610a1d565b34801561030157600080fd5b5061019c610310366004612619565b600360209081526000928352604080842090915290825290205460ff1681565b34801561033c57600080fd5b5061022161034b366004612506565b610dfc565b34801561035c57600080fd5b5061037061036b366004612506565b610eab565b6040516101a8989796959493929190612a31565b34801561039057600080fd5b5061022160065481565b3480156103a657600080fd5b5061017a610f9a565b3480156103bb57600080fd5b506001546040516001600160a01b0390911681526020016101a8565b3480156103e357600080fd5b5061019c6103f2366004612619565b600091825260056020526040909120600401546001600160a01b0390811691161490565b34801561042257600080fd5b5061019c61043136600461251e565b611000565b34801561044257600080fd5b5061017a610451366004612506565b611029565b34801561046257600080fd5b50610221600081565b34801561047757600080fd5b5061048b61048636600461262b565b6111c2565b6040516101a891906129a2565b3480156104a457600080fd5b506102216104b3366004612571565b611288565b3480156104c457600080fd5b506104d86104d3366004612506565b61130f565b6040516101a89a999897969594939291906129b5565b3480156104fa57600080fd5b5061019c610509366004612619565b6114a4565b34801561051a57600080fd5b5061017a61052936600461251e565b611533565b34801561053a57600080fd5b5061019c610549366004612619565b611559565b34801561055a57600080fd5b5061017a6105693660046124cc565b6115e1565b60006001600160e01b03198216637965db0b60e01b148061059f57506301ffc9a760e01b6001600160e01b03198316145b92915050565b60008281526004602090815260408083206001600160a01b03851684528252808320805482518185028101850190935280835260609492939192909184015b8282101561069057838290600052602060002001805461060390612b9a565b80601f016020809104026020016040519081016040528092919081815260200182805461062f90612b9a565b801561067c5780601f106106515761010080835404028352916020019161067c565b820191906000526020600020905b81548152906001019060200180831161065f57829003601f168201915b5050505050815260200190600101906105e4565b50505050905092915050565b826106b5600080516020612c1783398151915233611000565b6106da5760405162461bcd60e51b81526004016106d190612a94565b60405180910390fd5b6000818152600560205260409020600401546001600160a01b031633146107135760405162461bcd60e51b81526004016106d190612a94565b6002805414156107655760405162461bcd60e51b815260206004820152601f60248201527f5265656e7472616e637947756172643a207265656e7472616e742063616c6c0060448201526064016106d1565b6002805560008481526005602052604090206001015460ff16156107c45760405162461bcd60e51b8152602060048201526016602482015275456c656374696f6e205374696c6c204163746976652160501b60448201526064016106d1565b600084815260056020526040902060010154610100900460ff161561082b5760405162461bcd60e51b815260206004820152601a60248201527f456c656374696f6e20416c726561647920506169642d6f75742100000000000060448201526064016106d1565b60008481526005602052604081206003015464010000000090046001600160a01b03166108645761085d8585856116ac565b9050610872565b61086f8585856119a6565b90505b600085815260056020908152604091829020600101805461ff0019166101008515150217905590518681527fb27761a3b9064636a27795816e4f8a8e5cadd6ac8b1e3a553bd47bf414c2b402910160405180910390a150506001600255505050565b6000828152602081905260409020600101546108f08133611a66565b6108fa8383611aca565b505050565b6001600160a01b038116331461096f5760405162461bcd60e51b815260206004820152602f60248201527f416363657373436f6e74726f6c3a2063616e206f6e6c792072656e6f756e636560448201526e103937b632b9903337b91039b2b63360891b60648201526084016106d1565b6109798282611b4e565b5050565b6000818152600560205260409081902060030154905163095ea7b360e01b815230600482015263ffffffff821660248201526401000000009091046001600160a01b03169063095ea7b390604401602060405180830381600087803b1580156109e557600080fd5b505af11580156109f9573d6000803e3d6000fd5b505050506040513d601f19601f8201168201806040525081019061097991906124e6565b82610a487f9096faa56698daa37ec8d3542ff829c66d5e81213bd6faab8ba4e9ce824a5def33611000565b610a945760405162461bcd60e51b815260206004820152601e60248201527f53656e646572206e6f7420456c656374696f6e2043616e64696461746521000060448201526064016106d1565b610a9e8133611559565b610aea5760405162461bcd60e51b815260206004820152601e60248201527f53656e646572206e6f7420456c656374696f6e2043616e64696461746521000060448201526064016106d1565b60008481526005602052604090206001015484908490849060ff16610b485760405162461bcd60e51b8152602060048201526014602482015273456c656374696f6e204e6f74204163746976652160601b60448201526064016106d1565b600083815260056020526040902060010154610100900460ff1615610baf5760405162461bcd60e51b815260206004820152601d60248201527f456c656374696f6e20697320616c726561647920706169642d6f75742100000060448201526064016106d1565b600083815260036020908152604080832033845290915290205460ff1615610c115760405162461bcd60e51b815260206004820152601560248201527453656e64657220616c726561647920766f7465642160581b60448201526064016106d1565b8151815114610c625760405162461bcd60e51b815260206004820152601a60248201527f53636f726573202d2041646472657373204d69736d617463682100000000000060448201526064016106d1565b600083815260056020526040902060020154825114610cc35760405162461bcd60e51b815260206004820152601d60248201527f41646472657373202d2043616e646964617465204d69736d617463682100000060448201526064016106d1565b60005b8651811015610d9157600460008981526020019081526020016000206000888381518110610d0457634e487b7160e01b600052603260045260246000fd5b60200260200101516001600160a01b03166001600160a01b03168152602001908152602001600020868281518110610d4c57634e487b7160e01b600052603260045260246000fd5b60209081029190910181015182546001810184556000938452928290208151610d7e94919091019291909101906122e1565b5080610d8981612bcf565b915050610cc6565b50600087815260036020908152604080832033808552925291829020805460ff1916600117905590517faaf8175507b94c84621088891ecf31ca1c2548c0aeab2f2f21d3459515f9c4ed91610deb918a908a908a90612956565b60405180910390a150505050505050565b6000805b600083815260056020526040902060020154811015610ea5576000838152600560205260408120600201805483908110610e4a57634e487b7160e01b600052603260045260246000fd5b60009182526020808320909101548683526003825260408084206001600160a01b039092168085529190925291205490915060ff1615610e925782610e8e81612bcf565b9350505b5080610e9d81612bcf565b915050610e00565b50919050565b600560205260009081526040902080548190610ec690612b9a565b80601f0160208091040260200160405190810160405280929190818152602001828054610ef290612b9a565b8015610f3f5780601f10610f1457610100808354040283529160200191610f3f565b820191906000526020600020905b815481529060010190602001808311610f2257829003601f168201915b50505060018401546003850154600490950154939460ff808316956101008404909116945063ffffffff6201000090930483169350918116916001600160a01b036401000000008304811692600160c01b900460000b911688565b6001546001600160a01b03163314610ff45760405162461bcd60e51b815260206004820181905260248201527f4f776e61626c653a2063616c6c6572206973206e6f7420746865206f776e657260448201526064016106d1565b610ffe6000611bb3565b565b6000918252602082815260408084206001600160a01b0393909316845291905290205460ff1690565b80611042600080516020612c1783398151915233611000565b61105e5760405162461bcd60e51b81526004016106d190612a94565b6000818152600560205260409020600401546001600160a01b031633146110975760405162461bcd60e51b81526004016106d190612a94565b60008281526005602052604090206001015460ff166110f85760405162461bcd60e51b815260206004820152601760248201527f456c656374696f6e20416c726561647920456e6465642100000000000000000060448201526064016106d1565b600082815260056020526040902060010154610100900460ff161561116b5760405162461bcd60e51b815260206004820152602360248201527f456c656374696f6e2068617320616c7265616479206265656e2070616964206f60448201526275742160e81b60648201526084016106d1565b60008281526005602052604090819020600101805460ff19169055517f562cd572b2ba3b666cd989fc4ca98419ec81e75f04528df9d9d76fdb7807ee71906111b69084815260200190565b60405180910390a15050565b600460205282600052604060002060205281600052604060002081815481106111ea57600080fd5b906000526020600020016000925092505050805461120790612b9a565b80601f016020809104026020016040519081016040528092919081815260200182805461123390612b9a565b80156112805780601f1061125557610100808354040283529160200191611280565b820191906000526020600020905b81548152906001019060200180831161126357829003601f168201915b505050505081565b60006001600160a01b0384166112ab576112a486868585611c05565b90506112bb565b6112b88686868686611cc8565b90505b6112c482611dc4565b6112cd33611e33565b60408051338152602081018390527fc91fe4766a7a928d6625f66818425dc115b03c854a8ed8d28de2f34a684e0f1a910160405180910390a195945050505050565b606080600080600080600080600080600560008c8152602001908152602001600020600001805461133f90612b9a565b80601f016020809104026020016040519081016040528092919081815260200182805461136b90612b9a565b80156113b85780601f1061138d576101008083540402835291602001916113b8565b820191906000526020600020905b81548152906001019060200180831161139b57829003601f168201915b50505050509950600560008c815260200190815260200160002060020180548060200260200160405190810160405280929190818152602001828054801561142957602002820191906000526020600020905b81546001600160a01b0316815260019091019060200180831161140b575b50505060009d8e525050600560205260408c206002810154600182015460038301546004909301549d9f939e919d63ffffffff62010000830481169e5084169c506001600160a01b03640100000000850481169c50600160c01b90940490920b99509116965060ff8082169650610100909104169350915050565b6000805b60008481526005602052604090206002015481101561152c5760008481526005602052604081206002018054839081106114f257634e487b7160e01b600052603260045260246000fd5b6000918252602090912001546001600160a01b039081169150841681141561151957600192505b508061152481612bcf565b9150506114a8565b5092915050565b60008281526020819052604090206001015461154f8133611a66565b6108fa8383611b4e565b6000805b60008481526005602052604090206002015481101561152c5760008481526005602052604090206002018054829081106115a757634e487b7160e01b600052603260045260246000fd5b6000918252602090912001546001600160a01b03848116911614156115cf576001915061152c565b806115d981612bcf565b91505061155d565b6001546001600160a01b0316331461163b5760405162461bcd60e51b815260206004820181905260248201527f4f776e61626c653a2063616c6c6572206973206e6f7420746865206f776e657260448201526064016106d1565b6001600160a01b0381166116a05760405162461bcd60e51b815260206004820152602660248201527f4f776e61626c653a206e6577206f776e657220697320746865207a65726f206160448201526564647265737360d01b60648201526084016106d1565b6116a981611bb3565b50565b6000836116c7600080516020612c1783398151915233611000565b6116e35760405162461bcd60e51b81526004016106d190612a94565b6000818152600560205260409020600401546001600160a01b0316331461171c5760405162461bcd60e51b81526004016106d190612a94565b6000805b6000878152600560205260409020600201548110156118485785818151811061175957634e487b7160e01b600052603260045260246000fd5b60200260200101516001600160a01b031660056000898152602001908152602001600020600201828154811061179f57634e487b7160e01b600052603260045260246000fd5b6000918252602090912001546001600160a01b0316146118015760405162461bcd60e51b815260206004820152601a60248201527f456c656374696f6e2d41646472657373204d69736d617463682100000000000060448201526064016106d1565b84818151811061182157634e487b7160e01b600052603260045260246000fd5b6020026020010151826118349190612b20565b91508061184081612bcf565b915050611720565b50803410156118925760405162461bcd60e51b81526020600482015260166024820152754e6f7420656e6f7567682076616c75652073656e742160501b60448201526064016106d1565b60005b84518110156119995760008682815181106118c057634e487b7160e01b600052603260045260246000fd5b60200260200101516001600160a01b03168683815181106118f157634e487b7160e01b600052603260045260246000fd5b602002602001015160405160006040518083038185875af1925050503d8060008114611939576040519150601f19603f3d011682016040523d82523d6000602084013e61193e565b606091505b50509050806119865760405162461bcd60e51b81526020600482015260146024820152732330b4b632b2103a379039b2b7321022ba3432b960611b60448201526064016106d1565b508061199181612bcf565b915050611895565b5060019695505050505050565b6000805b600085815260056020526040902060020154811015611a5957611a47338583815181106119e757634e487b7160e01b600052603260045260246000fd5b6020026020010151858481518110611a0f57634e487b7160e01b600052603260045260246000fd5b60209081029190910181015160008a8152600590925260409091206003015464010000000090046001600160a01b0316929190611e4b565b80611a5181612bcf565b9150506119aa565b50600190505b9392505050565b611a708282611000565b61097957611a88816001600160a01b03166014611eab565b611a93836020611eab565b604051602001611aa49291906128e1565b60408051601f198184030181529082905262461bcd60e51b82526106d1916004016129a2565b611ad48282611000565b610979576000828152602081815260408083206001600160a01b03851684529091529020805460ff19166001179055611b0a3390565b6001600160a01b0316816001600160a01b0316837f2f8788117e7eff1d82e926ec794901d17c78024a50270940304540a733656f0d60405160405180910390a45050565b611b588282611000565b15610979576000828152602081815260408083206001600160a01b0385168085529252808320805460ff1916905551339285917ff6391f5c32d9c69d2a47ea670b442974b53935d1edc7fd64eb21e047a839171b9190a45050565b600180546001600160a01b038381166001600160a01b0319831681179093556040519116919082907f8be0079c531659141344cd1fd0a4f28419497f9722a3daafe3b4186f6b6457e090600090a35050565b6006805460009182611c1683612bcf565b909155506000818152600560209081526040909120875192935091611c40918391908901906122e1565b50600381018054600086900b60ff16600160c01b0263ffffffff60ff60c01b011990911663ffffffff8816171790558251611c849060028301906020860190612365565b506001808201805460ff1963ffffffff421662010000021665ffffffff00ff1990911617909117905560040180546001600160a01b03191633179055949350505050565b6006805460009182611cd983612bcf565b9091555060008181526005602090815260409091208851929350611d019290918901906122e1565b50600081815260056020908152604082206003810180549387900b60ff16600160c01b0260ff60c01b196001600160a01b038a16640100000000026001600160c01b031990961663ffffffff8c16179590951794909416939093179092558351611d719260020191850190612365565b5060008181526005602052604090206001808201805460ff1963ffffffff421662010000021665ffffffff00ff1990911617909117905560040180546001600160a01b0319163317905595945050505050565b60005b815181101561097957611e217f9096faa56698daa37ec8d3542ff829c66d5e81213bd6faab8ba4e9ce824a5def838381518110611e1457634e487b7160e01b600052603260045260246000fd5b602002602001015161208d565b80611e2b81612bcf565b915050611dc7565b6116a9600080516020612c178339815191528261208d565b604080516001600160a01b0385811660248301528416604482015260648082018490528251808303909101815260849091019091526020810180516001600160e01b03166323b872dd60e01b179052611ea5908590612097565b50505050565b60606000611eba836002612b38565b611ec5906002612b20565b67ffffffffffffffff811115611eeb57634e487b7160e01b600052604160045260246000fd5b6040519080825280601f01601f191660200182016040528015611f15576020820181803683370190505b509050600360fc1b81600081518110611f3e57634e487b7160e01b600052603260045260246000fd5b60200101906001600160f81b031916908160001a905350600f60fb1b81600181518110611f7b57634e487b7160e01b600052603260045260246000fd5b60200101906001600160f81b031916908160001a9053506000611f9f846002612b38565b611faa906001612b20565b90505b600181111561203e576f181899199a1a9b1b9c1cb0b131b232b360811b85600f1660108110611fec57634e487b7160e01b600052603260045260246000fd5b1a60f81b82828151811061201057634e487b7160e01b600052603260045260246000fd5b60200101906001600160f81b031916908160001a90535060049490941c9361203781612b83565b9050611fad565b508315611a5f5760405162461bcd60e51b815260206004820181905260248201527f537472696e67733a20686578206c656e67746820696e73756666696369656e7460448201526064016106d1565b6109798282611aca565b60006120ec826040518060400160405280602081526020017f5361666545524332303a206c6f772d6c6576656c2063616c6c206661696c6564815250856001600160a01b03166121699092919063ffffffff16565b8051909150156108fa578080602001905181019061210a91906124e6565b6108fa5760405162461bcd60e51b815260206004820152602a60248201527f5361666545524332303a204552433230206f7065726174696f6e20646964206e6044820152691bdd081cdd58d8d9595960b21b60648201526084016106d1565b60606121788484600085612180565b949350505050565b6060824710156121e15760405162461bcd60e51b815260206004820152602660248201527f416464726573733a20696e73756666696369656e742062616c616e636520666f6044820152651c8818d85b1b60d21b60648201526084016106d1565b843b61222f5760405162461bcd60e51b815260206004820152601d60248201527f416464726573733a2063616c6c20746f206e6f6e2d636f6e747261637400000060448201526064016106d1565b600080866001600160a01b0316858760405161224b91906128c5565b60006040518083038185875af1925050503d8060008114612288576040519150601f19603f3d011682016040523d82523d6000602084013e61228d565b606091505b509150915061229d8282866122a8565b979650505050505050565b606083156122b7575081611a5f565b8251156122c75782518084602001fd5b8160405162461bcd60e51b81526004016106d191906129a2565b8280546122ed90612b9a565b90600052602060002090601f01602090048101928261230f5760008555612355565b82601f1061232857805160ff1916838001178555612355565b82800160010185558215612355579182015b8281111561235557825182559160200191906001019061233a565b506123619291506123ba565b5090565b828054828255906000526020600020908101928215612355579160200282015b8281111561235557825182546001600160a01b0319166001600160a01b03909116178255602090920191600190910190612385565b5b8082111561236157600081556001016123bb565b80356001600160a01b03811681146123e657600080fd5b919050565b600082601f8301126123fb578081fd5b8135602061241061240b83612afc565b612acb565b80838252828201915082860187848660051b890101111561242f578586fd5b855b8581101561245457612442826123cf565b84529284019290840190600101612431565b5090979650505050505050565b600082601f830112612471578081fd5b813567ffffffffffffffff81111561248b5761248b612c00565b61249e601f8201601f1916602001612acb565b8181528460208386010111156124b2578283fd5b816020850160208301379081016020019190915292915050565b6000602082840312156124dd578081fd5b611a5f826123cf565b6000602082840312156124f7578081fd5b81518015158114611a5f578182fd5b600060208284031215612517578081fd5b5035919050565b60008060408385031215612530578081fd5b82359150612540602084016123cf565b90509250929050565b60006020828403121561255a578081fd5b81356001600160e01b031981168114611a5f578182fd5b600080600080600060a08688031215612588578081fd5b853567ffffffffffffffff8082111561259f578283fd5b6125ab89838a01612461565b96506020880135915063ffffffff821682146125c5578283fd5b8195506125d4604089016123cf565b94506060880135915081830b82146125ea578283fd5b909250608087013590808211156125ff578283fd5b5061260c888289016123eb565b9150509295509295909350565b60008060408385031215612530578182fd5b60008060006060848603121561263f578283fd5b8335925061264f602085016123cf565b9150604084013590509250925092565b600080600060608486031215612673578081fd5b8335925060208085013567ffffffffffffffff80821115612692578384fd5b61269e888389016123eb565b945060408701359150808211156126b3578384fd5b818701915087601f8301126126c6578384fd5b81356126d461240b82612afc565b8082825285820191508585018b878560051b88010111156126f3578788fd5b875b8481101561272c5781358681111561270b57898afd5b6127198e8a838b0101612461565b85525092870192908701906001016126f5565b50508096505050505050509250925092565b600080600060608486031215612752578081fd5b8335925060208085013567ffffffffffffffff80821115612771578384fd5b61277d888389016123eb565b94506040870135915080821115612792578384fd5b508501601f810187136127a3578283fd5b80356127b161240b82612afc565b8082825284820191508484018a868560051b87010111156127d0578687fd5b8694505b838510156127f25780358352600194909401939185019185016127d4565b5080955050505050509250925092565b6000815180845260208085019450808401835b8381101561283a5781516001600160a01b031687529582019590820190600101612815565b509495945050505050565b600081518084526020808501808196508360051b81019150828601855b8581101561288c57828403895261287a848351612899565b98850198935090840190600101612862565b5091979650505050505050565b600081518084526128b1816020860160208601612b57565b601f01601f19169290920160200192915050565b600082516128d7818460208701612b57565b9190910192915050565b7f416363657373436f6e74726f6c3a206163636f756e7420000000000000000000815260008351612919816017850160208801612b57565b7001034b99036b4b9b9b4b733903937b6329607d1b601791840191820152835161294a816028840160208801612b57565b01602801949350505050565b60018060a01b038516815283602082015260806040820152600061297d6080830185612802565b828103606084015261229d8185612845565b602081526000611a5f6020830184612845565b602081526000611a5f6020830184612899565b60006101408083526129c98184018e612899565b905082810360208401526129dd818d612802565b604084019b909b525050606081019790975260808701959095526001600160a01b0393841660a087015260009290920b60c086015290911660e0840152151561010083015215156101209091015292915050565b6000610100808352612a458184018c612899565b99151560208401525050951515604087015263ffffffff94851660608701529290931660808501526001600160a01b0390811660a085015260009290920b60c08401521660e090910152919050565b6020808252601a908201527f53656e646572206e6f7420456c656374696f6e2041646d696e21000000000000604082015260600190565b604051601f8201601f1916810167ffffffffffffffff81118282101715612af457612af4612c00565b604052919050565b600067ffffffffffffffff821115612b1657612b16612c00565b5060051b60200190565b60008219821115612b3357612b33612bea565b500190565b6000816000190483118215151615612b5257612b52612bea565b500290565b60005b83811015612b72578181015183820152602001612b5a565b83811115611ea55750506000910152565b600081612b9257612b92612bea565b506000190190565b600181811c90821680612bae57607f821691505b60208210811415610ea557634e487b7160e01b600052602260045260246000fd5b6000600019821415612be357612be3612bea565b5060010190565b634e487b7160e01b600052601160045260246000fd5b634e487b7160e01b600052604160045260246000fdfe16f50c1fe196fa8f2d59c3eca367f2f7bf83b35c12ed36436b26d5af3695f5c4a2646970667358221220be9859dae5f624233877c2c9e923410a70abaff29267ab900ca1d712cc3cca2064736f6c63430008040033",
  "linkReferences": {},
  "deployedLinkReferences": {}
}