{
  "_format": "hh-sol-artifact-1",
  "contractName": "Diplomacy",
  "sourceName": "contracts/Diplomacy.sol",
  "abi": [
    {
      "inputs": [],
      "stateMutability": "nonpayable",
      "type": "constructor"
    },
    {
      "anonymous": false,
      "inputs": [
        {
          "indexed": false,
          "internalType": "address",
          "name": "voter",
          "type": "address"
        },
        {
          "indexed": false,
          "internalType": "uint256",
          "name": "electionId",
          "type": "uint256"
        },
        {
          "indexed": false,
          "internalType": "address[]",
          "name": "adrs",
          "type": "address[]"
        },
        {
          "indexed": false,
          "internalType": "string[]",
          "name": "scores",
          "type": "string[]"
        }
      ],
      "name": "BallotCast",
      "type": "event"
    },
    {
      "anonymous": false,
      "inputs": [
        {
          "indexed": false,
          "internalType": "address",
          "name": "creator",
          "type": "address"
        },
        {
          "indexed": false,
          "internalType": "uint256",
          "name": "electionId",
          "type": "uint256"
        }
      ],
      "name": "ElectionCreated",
      "type": "event"
    },
    {
      "anonymous": false,
      "inputs": [
        {
          "indexed": false,
          "internalType": "uint256",
          "name": "electionId",
          "type": "uint256"
        }
      ],
      "name": "ElectionEnded",
      "type": "event"
    },
    {
      "anonymous": false,
      "inputs": [
        {
          "indexed": false,
          "internalType": "uint256",
          "name": "electionId",
          "type": "uint256"
        }
      ],
      "name": "ElectionPaid",
      "type": "event"
    },
    {
      "anonymous": false,
      "inputs": [
        {
          "indexed": true,
          "internalType": "address",
          "name": "previousOwner",
          "type": "address"
        },
        {
          "indexed": true,
          "internalType": "address",
          "name": "newOwner",
          "type": "address"
        }
      ],
      "name": "OwnershipTransferred",
      "type": "event"
    },
    {
      "anonymous": false,
      "inputs": [
        {
          "indexed": true,
          "internalType": "bytes32",
          "name": "role",
          "type": "bytes32"
        },
        {
          "indexed": true,
          "internalType": "bytes32",
          "name": "previousAdminRole",
          "type": "bytes32"
        },
        {
          "indexed": true,
          "internalType": "bytes32",
          "name": "newAdminRole",
          "type": "bytes32"
        }
      ],
      "name": "RoleAdminChanged",
      "type": "event"
    },
    {
      "anonymous": false,
      "inputs": [
        {
          "indexed": true,
          "internalType": "bytes32",
          "name": "role",
          "type": "bytes32"
        },
        {
          "indexed": true,
          "internalType": "address",
          "name": "account",
          "type": "address"
        },
        {
          "indexed": true,
          "internalType": "address",
          "name": "sender",
          "type": "address"
        }
      ],
      "name": "RoleGranted",
      "type": "event"
    },
    {
      "anonymous": false,
      "inputs": [
        {
          "indexed": true,
          "internalType": "bytes32",
          "name": "role",
          "type": "bytes32"
        },
        {
          "indexed": true,
          "internalType": "address",
          "name": "account",
          "type": "address"
        },
        {
          "indexed": true,
          "internalType": "address",
          "name": "sender",
          "type": "address"
        }
      ],
      "name": "RoleRevoked",
      "type": "event"
    },
    {
      "inputs": [],
      "name": "DEFAULT_ADMIN_ROLE",
      "outputs": [
        {
          "internalType": "bytes32",
          "name": "",
          "type": "bytes32"
        }
      ],
      "stateMutability": "view",
      "type": "function"
    },
    {
      "inputs": [
        {
          "internalType": "uint256",
          "name": "electionId",
          "type": "uint256"
        },
        {
          "internalType": "address[]",
          "name": "_adrs",
          "type": "address[]"
        },
        {
          "internalType": "uint256[]",
          "name": "_pay",
          "type": "uint256[]"
        }
      ],
      "name": "_ethPayout",
      "outputs": [
        {
          "internalType": "bool",
          "name": "",
          "type": "bool"
        }
      ],
      "stateMutability": "payable",
      "type": "function"
    },
    {
      "inputs": [],
      "name": "_tokenPayout",
      "outputs": [
        {
          "internalType": "bool",
          "name": "",
          "type": "bool"
        }
      ],
      "stateMutability": "payable",
      "type": "function"
    },
    {
      "inputs": [],
      "name": "approveToken",
      "outputs": [],
      "stateMutability": "nonpayable",
      "type": "function"
    },
    {
      "inputs": [
        {
          "internalType": "uint256",
          "name": "electionId",
          "type": "uint256"
        },
        {
          "internalType": "address",
          "name": "_sender",
          "type": "address"
        }
      ],
      "name": "canVote",
      "outputs": [
        {
          "internalType": "bool",
          "name": "status",
          "type": "bool"
        }
      ],
      "stateMutability": "view",
      "type": "function"
    },
    {
      "inputs": [
        {
          "internalType": "uint256",
          "name": "electionId",
          "type": "uint256"
        },
        {
          "internalType": "address[]",
          "name": "_adrs",
          "type": "address[]"
        },
        {
          "internalType": "string[]",
          "name": "_scores",
          "type": "string[]"
        }
      ],
      "name": "castBallot",
      "outputs": [],
      "stateMutability": "nonpayable",
      "type": "function"
    },
    {
      "inputs": [
        {
          "internalType": "uint256",
          "name": "",
          "type": "uint256"
        }
      ],
      "name": "elections",
      "outputs": [
        {
          "internalType": "string",
          "name": "name",
          "type": "string"
        },
        {
          "internalType": "bool",
          "name": "active",
          "type": "bool"
        },
        {
          "internalType": "bool",
          "name": "paid",
          "type": "bool"
        },
        {
          "internalType": "uint256",
          "name": "createdAt",
          "type": "uint256"
        },
        {
          "internalType": "uint256",
          "name": "funds",
          "type": "uint256"
        },
        {
          "internalType": "string",
          "name": "fundingType",
          "type": "string"
        },
        {
          "internalType": "uint256",
          "name": "votes",
          "type": "uint256"
        },
        {
          "internalType": "address",
          "name": "admin",
          "type": "address"
        }
      ],
      "stateMutability": "view",
      "type": "function"
    },
    {
      "inputs": [
        {
          "internalType": "uint256",
          "name": "electionId",
          "type": "uint256"
        }
      ],
      "name": "endElection",
      "outputs": [],
      "stateMutability": "nonpayable",
      "type": "function"
    },
    {
      "inputs": [
        {
          "internalType": "uint256",
          "name": "electionId",
          "type": "uint256"
        }
      ],
      "name": "getElectionById",
      "outputs": [
        {
          "internalType": "string",
          "name": "name",
          "type": "string"
        },
        {
          "internalType": "address[]",
          "name": "candidates",
          "type": "address[]"
        },
        {
          "internalType": "uint256",
          "name": "n_addr",
          "type": "uint256"
        },
        {
          "internalType": "uint256",
          "name": "createdAt",
          "type": "uint256"
        },
        {
          "internalType": "uint256",
          "name": "funds",
          "type": "uint256"
        },
        {
          "internalType": "string",
          "name": "fundingType",
          "type": "string"
        },
        {
          "internalType": "uint256",
          "name": "votes",
          "type": "uint256"
        },
        {
          "internalType": "address",
          "name": "admin",
          "type": "address"
        },
        {
          "internalType": "bool",
          "name": "isActive",
          "type": "bool"
        },
        {
          "internalType": "bool",
          "name": "paid",
          "type": "bool"
        }
      ],
      "stateMutability": "view",
      "type": "function"
    },
    {
      "inputs": [
        {
          "internalType": "uint256",
          "name": "electionId",
          "type": "uint256"
        },
        {
          "internalType": "address",
          "name": "_adr",
          "type": "address"
        }
      ],
      "name": "getElectionResults",
      "outputs": [
        {
          "internalType": "int256",
          "name": "",
          "type": "int256"
        }
      ],
      "stateMutability": "view",
      "type": "function"
    },
    {
      "inputs": [
        {
          "internalType": "uint256",
          "name": "electionId",
          "type": "uint256"
        },
        {
          "internalType": "address",
          "name": "_adr",
          "type": "address"
        }
      ],
      "name": "getElectionScores",
      "outputs": [
        {
          "internalType": "string[]",
          "name": "",
          "type": "string[]"
        }
      ],
      "stateMutability": "view",
      "type": "function"
    },
    {
      "inputs": [
        {
          "internalType": "uint256",
          "name": "electionId",
          "type": "uint256"
        }
      ],
      "name": "getElectionVoted",
      "outputs": [
        {
          "internalType": "uint256",
          "name": "count",
          "type": "uint256"
        }
      ],
      "stateMutability": "view",
      "type": "function"
    },
    {
      "inputs": [
        {
          "internalType": "bytes32",
          "name": "role",
          "type": "bytes32"
        }
      ],
      "name": "getRoleAdmin",
      "outputs": [
        {
          "internalType": "bytes32",
          "name": "",
          "type": "bytes32"
        }
      ],
      "stateMutability": "view",
      "type": "function"
    },
    {
      "inputs": [
        {
          "internalType": "bytes32",
          "name": "role",
          "type": "bytes32"
        },
        {
          "internalType": "address",
          "name": "account",
          "type": "address"
        }
      ],
      "name": "grantRole",
      "outputs": [],
      "stateMutability": "nonpayable",
      "type": "function"
    },
    {
      "inputs": [
        {
          "internalType": "bytes32",
          "name": "role",
          "type": "bytes32"
        },
        {
          "internalType": "address",
          "name": "account",
          "type": "address"
        }
      ],
      "name": "hasRole",
      "outputs": [
        {
          "internalType": "bool",
          "name": "",
          "type": "bool"
        }
      ],
      "stateMutability": "view",
      "type": "function"
    },
    {
      "inputs": [
        {
          "internalType": "uint256",
          "name": "electionId",
          "type": "uint256"
        },
        {
          "internalType": "address",
          "name": "_sender",
          "type": "address"
        }
      ],
      "name": "hasVoted",
      "outputs": [
        {
          "internalType": "bool",
          "name": "",
          "type": "bool"
        }
      ],
      "stateMutability": "view",
      "type": "function"
    },
    {
      "inputs": [
        {
          "internalType": "uint256",
          "name": "electionId",
          "type": "uint256"
        },
        {
          "internalType": "address",
          "name": "_sender",
          "type": "address"
        }
      ],
      "name": "isElectionAdmin",
      "outputs": [
        {
          "internalType": "bool",
          "name": "",
          "type": "bool"
        }
      ],
      "stateMutability": "view",
      "type": "function"
    },
    {
      "inputs": [
        {
          "internalType": "uint256",
          "name": "electionId",
          "type": "uint256"
        },
        {
          "internalType": "address",
          "name": "_sender",
          "type": "address"
        }
      ],
      "name": "isElectionCandidate",
      "outputs": [
        {
          "internalType": "bool",
          "name": "status",
          "type": "bool"
        }
      ],
      "stateMutability": "view",
      "type": "function"
    },
    {
      "inputs": [
        {
          "internalType": "string",
          "name": "_name",
          "type": "string"
        },
        {
          "internalType": "uint256",
          "name": "_funds",
          "type": "uint256"
        },
        {
          "internalType": "string",
          "name": "_type",
          "type": "string"
        },
        {
          "internalType": "uint256",
          "name": "_votes",
          "type": "uint256"
        },
        {
          "internalType": "address[]",
          "name": "_adrs",
          "type": "address[]"
        }
      ],
      "name": "newElection",
      "outputs": [
        {
          "internalType": "uint256",
          "name": "electionId",
          "type": "uint256"
        }
      ],
      "stateMutability": "nonpayable",
      "type": "function"
    },
    {
      "inputs": [],
      "name": "numElections",
      "outputs": [
        {
          "internalType": "uint256",
          "name": "",
          "type": "uint256"
        }
      ],
      "stateMutability": "view",
      "type": "function"
    },
    {
      "inputs": [],
      "name": "owner",
      "outputs": [
        {
          "internalType": "address",
          "name": "",
          "type": "address"
        }
      ],
      "stateMutability": "view",
      "type": "function"
    },
    {
      "inputs": [
        {
          "internalType": "uint256",
          "name": "electionId",
          "type": "uint256"
        },
        {
          "internalType": "address[]",
          "name": "_adrs",
          "type": "address[]"
        },
        {
          "internalType": "uint256[]",
          "name": "_pay",
          "type": "uint256[]"
        }
      ],
      "name": "payoutElection",
      "outputs": [],
      "stateMutability": "nonpayable",
      "type": "function"
    },
    {
      "inputs": [],
      "name": "renounceOwnership",
      "outputs": [],
      "stateMutability": "nonpayable",
      "type": "function"
    },
    {
      "inputs": [
        {
          "internalType": "bytes32",
          "name": "role",
          "type": "bytes32"
        },
        {
          "internalType": "address",
          "name": "account",
          "type": "address"
        }
      ],
      "name": "renounceRole",
      "outputs": [],
      "stateMutability": "nonpayable",
      "type": "function"
    },
    {
      "inputs": [
        {
          "internalType": "bytes32",
          "name": "role",
          "type": "bytes32"
        },
        {
          "internalType": "address",
          "name": "account",
          "type": "address"
        }
      ],
      "name": "revokeRole",
      "outputs": [],
      "stateMutability": "nonpayable",
      "type": "function"
    },
    {
      "inputs": [
        {
          "internalType": "bytes4",
          "name": "interfaceId",
          "type": "bytes4"
        }
      ],
      "name": "supportsInterface",
      "outputs": [
        {
          "internalType": "bool",
          "name": "",
          "type": "bool"
        }
      ],
      "stateMutability": "view",
      "type": "function"
    },
    {
      "inputs": [],
      "name": "token",
      "outputs": [
        {
          "internalType": "address",
          "name": "",
          "type": "address"
        }
      ],
      "stateMutability": "view",
      "type": "function"
    },
    {
      "inputs": [
        {
          "internalType": "address",
          "name": "newOwner",
          "type": "address"
        }
      ],
      "name": "transferOwnership",
      "outputs": [],
      "stateMutability": "nonpayable",
      "type": "function"
    }
  ],
  "bytecode": "0x6080604052600280546001600160a01b0319167301be23585060835e02b77ef475b0cc51aa1e07091790553480156200003757600080fd5b50620000433362000056565b62000050600033620000a8565b62000158565b600180546001600160a01b038381166001600160a01b0319831681179093556040519116919082907f8be0079c531659141344cd1fd0a4f28419497f9722a3daafe3b4186f6b6457e090600090a35050565b620000b48282620000b8565b5050565b6000828152602081815260408083206001600160a01b038516845290915290205460ff16620000b4576000828152602081815260408083206001600160a01b03851684529091529020805460ff19166001179055620001143390565b6001600160a01b0316816001600160a01b0316837f2f8788117e7eff1d82e926ec794901d17c78024a50270940304540a733656f0d60405160405180910390a45050565b6126bd80620001686000396000f3fe6080604052600436106101b75760003560e01c80638da5cb5b116100ec578063be70a0091161008a578063d547741f11610064578063d547741f1461055a578063ea3c6cde1461057a578063f2fde38b1461059a578063fc0c546a146105ba57600080fd5b8063be70a009146104bd578063c6958b1214610504578063cdb2867b1461053a57600080fd5b806399b71d5c116100c657806399b71d5c1461046b5780639c98bcbb14610480578063a217fddf146104a0578063ba7b89a9146104b557600080fd5b80638da5cb5b146103da57806391b84f161461040c57806391d148541461044b57600080fd5b806343859632116101595780635726cb5d116101335780635726cb5d146103685780635e6fef011461037b5780636e38d9bd146103af578063715018a6146103c557600080fd5b806343859632146102de5780634548e52b1461032857806352e968ad1461034857600080fd5b8063248a9ca311610195578063248a9ca3146102405780632f2ff15d1461027e57806334a22bc91461029e57806336568abe146102be57600080fd5b806301ffc9a7146101bc57806308108288146101f15780630ece86d01461021e575b600080fd5b3480156101c857600080fd5b506101dc6101d7366004611f60565b6105da565b60405190151581526020015b60405180910390f35b3480156101fd57600080fd5b5061021161020c366004612020565b610611565b6040516101e891906123ec565b34801561022a57600080fd5b5061023e610239366004612111565b61070b565b005b34801561024c57600080fd5b5061027061025b366004611f1d565b60009081526020819052604090206001015490565b6040519081526020016101e8565b34801561028a57600080fd5b5061023e610299366004611f35565b610923565b3480156102aa57600080fd5b506102706102b9366004611f88565b61094e565b3480156102ca57600080fd5b5061023e6102d9366004611f35565b610a43565b3480156102ea57600080fd5b506101dc6102f9366004612020565b60008281526004602090815260408083206001600160a01b038516845260080190915290205460ff1692915050565b34801561033457600080fd5b5061023e610343366004612032565b610ac1565b34801561035457600080fd5b50610270610363366004611f1d565b610dd1565b6101dc610376366004612111565b610e84565b34801561038757600080fd5b5061039b610396366004611f1d565b61106e565b6040516101e8989796959493929190612497565b3480156103bb57600080fd5b5061027060035481565b3480156103d157600080fd5b5061023e6111d2565b3480156103e657600080fd5b506001546001600160a01b03165b6040516001600160a01b0390911681526020016101e8565b34801561041857600080fd5b506101dc610427366004612020565b600091825260046020526040909120600701546001600160a01b0390811691161490565b34801561045757600080fd5b506101dc610466366004611f35565b611238565b34801561047757600080fd5b5061023e611261565b34801561048c57600080fd5b5061023e61049b366004611f1d565b6112e9565b3480156104ac57600080fd5b50610270600081565b6101dc61140f565b3480156104c957600080fd5b506102706104d8366004612020565b60008281526004602090815260408083206001600160a01b0385168452600a0190915290205492915050565b34801561051057600080fd5b5061052461051f366004611f1d565b6114a0565b6040516101e89a99989796959493929190612412565b34801561054657600080fd5b506101dc610555366004612020565b6116c8565b34801561056657600080fd5b5061023e610575366004611f35565b611757565b34801561058657600080fd5b506101dc610595366004612020565b61177d565b3480156105a657600080fd5b5061023e6105b5366004611ee3565b611805565b3480156105c657600080fd5b506002546103f4906001600160a01b031681565b60006001600160e01b03198216637965db0b60e01b148061060b57506301ffc9a760e01b6001600160e01b03198316145b92915050565b60008281526004602090815260408083206001600160a01b03851684526009018252808320805482518185028101850190935280835260609492939192909184015b828210156106ff5783829060005260206000200180546106729061260b565b80601f016020809104026020016040519081016040528092919081815260200182805461069e9061260b565b80156106eb5780601f106106c0576101008083540402835291602001916106eb565b820191906000526020600020905b8154815290600101906020018083116106ce57829003601f168201915b505050505081526020019060010190610653565b50505050905092915050565b826107367f16f50c1fe196fa8f2d59c3eca367f2f7bf83b35c12ed36436b26d5af3695f5c433611238565b61075b5760405162461bcd60e51b815260040161075290612501565b60405180910390fd5b6000818152600460205260409020600701546001600160a01b031633146107945760405162461bcd60e51b815260040161075290612501565b60008481526004602052604090206001015460ff16156107ef5760405162461bcd60e51b8152602060048201526016602482015275456c656374696f6e205374696c6c204163746976652160501b6044820152606401610752565b604080518082018252600381526208aa8960eb1b60209182015260008681526004909152818120915190917faaaebeba3810b1e6b70781f14b2d72c1cb89c0b2b320c43bb67ff79f562f5ff4916108499160050190612298565b6040518091039020141561086957610862858585610e84565b90506108c6565b604080518082018252600381526247544360e81b6020918201526000878152600490915281902090517f7438d7d73ec9e46da3d0aa51b56d02f7e7bc34bd8939d3f4c05474ab1961f8e5916108c391600590910190612298565b50505b600085815260046020908152604091829020600101805461ff0019166101008515150217905590518681527fb27761a3b9064636a27795816e4f8a8e5cadd6ac8b1e3a553bd47bf414c2b402910160405180910390a15050505050565b60008281526020819052604090206001015461093f81336118cd565b6109498383611931565b505050565b600380546000918261095f83612640565b909155506000818152600460209081526040909120885192935091610989918391908a0190611cf8565b506004810186905584516109a69060058301906020880190611cf8565b506006810184905582516109c39060038301906020860190611d7c565b504260028201556001808201805460ff191690911790556007810180546001600160a01b031916331790556109f7836119b5565b610a0033611a24565b60408051338152602081018490527fc91fe4766a7a928d6625f66818425dc115b03c854a8ed8d28de2f34a684e0f1a910160405180910390a15095945050505050565b6001600160a01b0381163314610ab35760405162461bcd60e51b815260206004820152602f60248201527f416363657373436f6e74726f6c3a2063616e206f6e6c792072656e6f756e636560448201526e103937b632b9903337b91039b2b63360891b6064820152608401610752565b610abd8282611a4e565b5050565b82610aec7f9096faa56698daa37ec8d3542ff829c66d5e81213bd6faab8ba4e9ce824a5def33611238565b610b385760405162461bcd60e51b815260206004820152601e60248201527f53656e646572206e6f7420456c656374696f6e2043616e6469646174652100006044820152606401610752565b610b42813361177d565b610b8e5760405162461bcd60e51b815260206004820152601e60248201527f53656e646572206e6f7420456c656374696f6e2043616e6469646174652100006044820152606401610752565b60008481526004602052604090206001015484908490849060ff16610bec5760405162461bcd60e51b8152602060048201526014602482015273456c656374696f6e204e6f74204163746976652160601b6044820152606401610752565b600083815260046020908152604080832033845260080190915290205460ff1615610c515760405162461bcd60e51b815260206004820152601560248201527453656e64657220616c726561647920766f7465642160581b6044820152606401610752565b8151815114610ca25760405162461bcd60e51b815260206004820181905260248201527f53636f7265732043616e64696461746520436f756e74204d69736d61746368216044820152606401610752565b6000878152600460205260408120905b8751811015610d6e57816009016000898381518110610ce157634e487b7160e01b600052603260045260246000fd5b60200260200101516001600160a01b03166001600160a01b03168152602001908152602001600020878281518110610d2957634e487b7160e01b600052603260045260246000fd5b60209081029190910181015182546001810184556000938452928290208151610d5b9491909101929190910190611cf8565b5080610d6681612640565b915050610cb2565b5033600081815260088301602052604090819020805460ff19166001179055517faaf8175507b94c84621088891ecf31ca1c2548c0aeab2f2f21d3459515f9c4ed91610dbf918b908b908b906123a8565b60405180910390a15050505050505050565b6000805b600083815260046020526040902060030154811015610e7e576000838152600460205260408120600301805483908110610e1f57634e487b7160e01b600052603260045260246000fd5b60009182526020808320909101548683526004825260408084206001600160a01b03909216808552600890920190925291205490915060ff1615610e6b5782610e6781612640565b9350505b5080610e7681612640565b915050610dd5565b50919050565b60008060005b600086815260046020526040902060030154811015610fb257848181518110610ec357634e487b7160e01b600052603260045260246000fd5b60200260200101516001600160a01b0316600460008881526020019081526020016000206003018281548110610f0957634e487b7160e01b600052603260045260246000fd5b6000918252602090912001546001600160a01b031614610f6b5760405162461bcd60e51b815260206004820152601a60248201527f456c656374696f6e2d41646472657373204d69736d61746368210000000000006044820152606401610752565b838181518110610f8b57634e487b7160e01b600052603260045260246000fd5b602002602001015182610f9e919061258d565b915080610faa81612640565b915050610e8a565b5060005b835181101561106257848181518110610fdf57634e487b7160e01b600052603260045260246000fd5b60200260200101516001600160a01b03166108fc85838151811061101357634e487b7160e01b600052603260045260246000fd5b6020026020010151600161102791906125a5565b6040518115909202916000818181858888f1935050505015801561104f573d6000803e3d6000fd5b508061105a81612640565b915050610fb6565b50600195945050505050565b6004602052600090815260409020805481906110899061260b565b80601f01602080910402602001604051908101604052809291908181526020018280546110b59061260b565b80156111025780601f106110d757610100808354040283529160200191611102565b820191906000526020600020905b8154815290600101906020018083116110e557829003601f168201915b505050600184015460028501546004860154600587018054969760ff8086169861010090960416965092945090926111399061260b565b80601f01602080910402602001604051908101604052809291908181526020018280546111659061260b565b80156111b25780601f10611187576101008083540402835291602001916111b2565b820191906000526020600020905b81548152906001019060200180831161119557829003601f168201915b5050505060068301546007909301549192916001600160a01b0316905088565b6001546001600160a01b0316331461122c5760405162461bcd60e51b815260206004820181905260248201527f4f776e61626c653a2063616c6c6572206973206e6f7420746865206f776e65726044820152606401610752565b6112366000611ab3565b565b6000918252602082815260408084206001600160a01b0393909316845291905290205460ff1690565b60025460405163095ea7b360e01b81523060048201526103e860248201526001600160a01b039091169063095ea7b390604401602060405180830381600087803b1580156112ae57600080fd5b505af11580156112c2573d6000803e3d6000fd5b505050506040513d601f19601f820116820180604052508101906112e69190611efd565b50565b806113147f16f50c1fe196fa8f2d59c3eca367f2f7bf83b35c12ed36436b26d5af3695f5c433611238565b6113305760405162461bcd60e51b815260040161075290612501565b6000818152600460205260409020600701546001600160a01b031633146113695760405162461bcd60e51b815260040161075290612501565b6000828152600460205260409020600181015460ff166113cb5760405162461bcd60e51b815260206004820152601760248201527f456c656374696f6e20416c726561647920456e646564210000000000000000006044820152606401610752565b60018101805460ff191690556040518381527f562cd572b2ba3b666cd989fc4ca98419ec81e75f04528df9d9d76fdb7807ee719060200160405180910390a1505050565b6002546040516323b872dd60e01b81523360048201523060248201526103e860448201526000916001600160a01b0316906323b872dd90606401602060405180830381600087803b15801561146357600080fd5b505af1158015611477573d6000803e3d6000fd5b505050506040513d601f19601f8201168201806040525081019061149b9190611efd565b905090565b60608060008060006060600080600080600460008c815260200190815260200160002060000180546114d19061260b565b80601f01602080910402602001604051908101604052809291908181526020018280546114fd9061260b565b801561154a5780601f1061151f5761010080835404028352916020019161154a565b820191906000526020600020905b81548152906001019060200180831161152d57829003601f168201915b50505050509950600460008c81526020019081526020016000206003018054806020026020016040519081016040528092919081815260200182805480156115bb57602002820191906000526020600020905b81546001600160a01b0316815260019091019060200180831161159d575b50505060008e8152600460208190526040909120600381015460028201549282015460059092018054969f50909d50919b509950926115fc9250905061260b565b80601f01602080910402602001604051908101604052809291908181526020018280546116289061260b565b80156116755780601f1061164a57610100808354040283529160200191611675565b820191906000526020600020905b81548152906001019060200180831161165857829003601f168201915b50505060009d8e52505060046020526040909b20600681015460078201546001909201549b9d9a9c999b989a97999890976001600160a01b03909216965060ff8082169650610100909104169350915050565b6000805b60008481526004602052604090206003015481101561175057600084815260046020526040812060030180548390811061171657634e487b7160e01b600052603260045260246000fd5b6000918252602090912001546001600160a01b039081169150841681141561173d57600192505b508061174881612640565b9150506116cc565b5092915050565b60008281526020819052604090206001015461177381336118cd565b6109498383611a4e565b6000805b6000848152600460205260409020600301548110156117505760008481526004602052604090206003018054829081106117cb57634e487b7160e01b600052603260045260246000fd5b6000918252602090912001546001600160a01b03848116911614156117f35760019150611750565b806117fd81612640565b915050611781565b6001546001600160a01b0316331461185f5760405162461bcd60e51b815260206004820181905260248201527f4f776e61626c653a2063616c6c6572206973206e6f7420746865206f776e65726044820152606401610752565b6001600160a01b0381166118c45760405162461bcd60e51b815260206004820152602660248201527f4f776e61626c653a206e6577206f776e657220697320746865207a65726f206160448201526564647265737360d01b6064820152608401610752565b6112e681611ab3565b6118d78282611238565b610abd576118ef816001600160a01b03166014611b05565b6118fa836020611b05565b60405160200161190b929190612333565b60408051601f198184030181529082905262461bcd60e51b8252610752916004016123ff565b61193b8282611238565b610abd576000828152602081815260408083206001600160a01b03851684529091529020805460ff191660011790556119713390565b6001600160a01b0316816001600160a01b0316837f2f8788117e7eff1d82e926ec794901d17c78024a50270940304540a733656f0d60405160405180910390a45050565b60005b8151811015610abd57611a127f9096faa56698daa37ec8d3542ff829c66d5e81213bd6faab8ba4e9ce824a5def838381518110611a0557634e487b7160e01b600052603260045260246000fd5b6020026020010151611cee565b80611a1c81612640565b9150506119b8565b6112e67f16f50c1fe196fa8f2d59c3eca367f2f7bf83b35c12ed36436b26d5af3695f5c482611cee565b611a588282611238565b15610abd576000828152602081815260408083206001600160a01b0385168085529252808320805460ff1916905551339285917ff6391f5c32d9c69d2a47ea670b442974b53935d1edc7fd64eb21e047a839171b9190a45050565b600180546001600160a01b038381166001600160a01b0319831681179093556040519116919082907f8be0079c531659141344cd1fd0a4f28419497f9722a3daafe3b4186f6b6457e090600090a35050565b60606000611b148360026125a5565b611b1f90600261258d565b67ffffffffffffffff811115611b4557634e487b7160e01b600052604160045260246000fd5b6040519080825280601f01601f191660200182016040528015611b6f576020820181803683370190505b509050600360fc1b81600081518110611b9857634e487b7160e01b600052603260045260246000fd5b60200101906001600160f81b031916908160001a905350600f60fb1b81600181518110611bd557634e487b7160e01b600052603260045260246000fd5b60200101906001600160f81b031916908160001a9053506000611bf98460026125a5565b611c0490600161258d565b90505b6001811115611c98576f181899199a1a9b1b9c1cb0b131b232b360811b85600f1660108110611c4657634e487b7160e01b600052603260045260246000fd5b1a60f81b828281518110611c6a57634e487b7160e01b600052603260045260246000fd5b60200101906001600160f81b031916908160001a90535060049490941c93611c91816125f4565b9050611c07565b508315611ce75760405162461bcd60e51b815260206004820181905260248201527f537472696e67733a20686578206c656e67746820696e73756666696369656e746044820152606401610752565b9392505050565b610abd8282611931565b828054611d049061260b565b90600052602060002090601f016020900481019282611d265760008555611d6c565b82601f10611d3f57805160ff1916838001178555611d6c565b82800160010185558215611d6c579182015b82811115611d6c578251825591602001919060010190611d51565b50611d78929150611dd1565b5090565b828054828255906000526020600020908101928215611d6c579160200282015b82811115611d6c57825182546001600160a01b0319166001600160a01b03909116178255602090920191600190910190611d9c565b5b80821115611d785760008155600101611dd2565b80356001600160a01b0381168114611dfd57600080fd5b919050565b600082601f830112611e12578081fd5b81356020611e27611e2283612569565b612538565b80838252828201915082860187848660051b8901011115611e46578586fd5b855b85811015611e6b57611e5982611de6565b84529284019290840190600101611e48565b5090979650505050505050565b600082601f830112611e88578081fd5b813567ffffffffffffffff811115611ea257611ea2612671565b611eb5601f8201601f1916602001612538565b818152846020838601011115611ec9578283fd5b816020850160208301379081016020019190915292915050565b600060208284031215611ef4578081fd5b611ce782611de6565b600060208284031215611f0e578081fd5b81518015158114611ce7578182fd5b600060208284031215611f2e578081fd5b5035919050565b60008060408385031215611f47578081fd5b82359150611f5760208401611de6565b90509250929050565b600060208284031215611f71578081fd5b81356001600160e01b031981168114611ce7578182fd5b600080600080600060a08688031215611f9f578081fd5b853567ffffffffffffffff80821115611fb6578283fd5b611fc289838a01611e78565b9650602088013595506040880135915080821115611fde578283fd5b611fea89838a01611e78565b9450606088013593506080880135915080821115612006578283fd5b5061201388828901611e02565b9150509295509295909350565b60008060408385031215611f47578182fd5b600080600060608486031215612046578283fd5b8335925060208085013567ffffffffffffffff80821115612065578485fd5b61207188838901611e02565b94506040870135915080821115612086578384fd5b818701915087601f830112612099578384fd5b81356120a7611e2282612569565b8082825285820191508585018b878560051b88010111156120c6578788fd5b875b848110156120ff578135868111156120de57898afd5b6120ec8e8a838b0101611e78565b85525092870192908701906001016120c8565b50508096505050505050509250925092565b600080600060608486031215612125578081fd5b8335925060208085013567ffffffffffffffff80821115612144578384fd5b61215088838901611e02565b94506040870135915080821115612165578384fd5b508501601f81018713612176578283fd5b8035612184611e2282612569565b8082825284820191508484018a868560051b87010111156121a3578687fd5b8694505b838510156121c55780358352600194909401939185019185016121a7565b5080955050505050509250925092565b6000815180845260208085019450808401835b8381101561220d5781516001600160a01b0316875295820195908201906001016121e8565b509495945050505050565b600081518084526020808501808196508360051b81019150828601855b8581101561225f57828403895261224d84835161226c565b98850198935090840190600101612235565b5091979650505050505050565b600081518084526122848160208601602086016125c4565b601f01601f19169290920160200192915050565b600080835482600182811c9150808316806122b457607f831692505b60208084108214156122d457634e487b7160e01b87526022600452602487fd5b8180156122e857600181146122f957612325565b60ff19861689528489019650612325565b60008a815260209020885b8681101561231d5781548b820152908501908301612304565b505084890196505b509498975050505050505050565b7f416363657373436f6e74726f6c3a206163636f756e742000000000000000000081526000835161236b8160178501602088016125c4565b7001034b99036b4b9b9b4b733903937b6329607d1b601791840191820152835161239c8160288401602088016125c4565b01602801949350505050565b60018060a01b03851681528360208201526080604082015260006123cf60808301856121d5565b82810360608401526123e18185612218565b979650505050505050565b602081526000611ce76020830184612218565b602081526000611ce7602083018461226c565b60006101408083526124268184018e61226c565b9050828103602084015261243a818d6121d5565b90508a604084015289606084015288608084015282810360a0840152612460818961226c565b60c084019790975250506001600160a01b039390931660e08401529015156101008301521515610120909101529695505050505050565b60006101008083526124ab8184018c61226c565b90508915156020840152881515604084015287606084015286608084015282810360a08401526124db818761226c565b60c084019590955250506001600160a01b039190911660e0909101529695505050505050565b6020808252601a908201527f53656e646572206e6f7420456c656374696f6e2041646d696e21000000000000604082015260600190565b604051601f8201601f1916810167ffffffffffffffff8111828210171561256157612561612671565b604052919050565b600067ffffffffffffffff82111561258357612583612671565b5060051b60200190565b600082198211156125a0576125a061265b565b500190565b60008160001904831182151516156125bf576125bf61265b565b500290565b60005b838110156125df5781810151838201526020016125c7565b838111156125ee576000848401525b50505050565b6000816126035761260361265b565b506000190190565b600181811c9082168061261f57607f821691505b60208210811415610e7e57634e487b7160e01b600052602260045260246000fd5b60006000198214156126545761265461265b565b5060010190565b634e487b7160e01b600052601160045260246000fd5b634e487b7160e01b600052604160045260246000fdfea26469706673582212208ae9cedbb57393755d9431d72f6f405acf686246bd48a1e53b533bc70ffb6dd964736f6c63430008040033",
  "linkReferences": {},
  "deployedLinkReferences": {}
}