{
  "_format": "hh-sol-artifact-1",
  "contractName": "Diplomacy",
  "sourceName": "contracts/Diplomacy.sol",
  "abi": [
    {
      "inputs": [],
      "stateMutability": "nonpayable",
      "type": "constructor"
    },
    {
      "anonymous": false,
      "inputs": [
        {
          "indexed": false,
          "internalType": "address",
          "name": "voter",
          "type": "address"
        },
        {
          "indexed": false,
          "internalType": "uint256",
          "name": "electionId",
          "type": "uint256"
        },
        {
          "indexed": false,
          "internalType": "address[]",
          "name": "adrs",
          "type": "address[]"
        },
        {
          "indexed": false,
          "internalType": "uint256[]",
          "name": "score",
          "type": "uint256[]"
        }
      ],
      "name": "BallotCast",
      "type": "event"
    },
    {
      "anonymous": false,
      "inputs": [
        {
          "indexed": false,
          "internalType": "address",
          "name": "creator",
          "type": "address"
        },
        {
          "indexed": false,
          "internalType": "uint256",
          "name": "electionId",
          "type": "uint256"
        }
      ],
      "name": "ElectionCreated",
      "type": "event"
    },
    {
      "anonymous": false,
      "inputs": [
        {
          "indexed": false,
          "internalType": "uint256",
          "name": "electionId",
          "type": "uint256"
        }
      ],
      "name": "ElectionEnded",
      "type": "event"
    },
    {
      "anonymous": false,
      "inputs": [
        {
          "indexed": false,
          "internalType": "uint256",
          "name": "electionId",
          "type": "uint256"
        }
      ],
      "name": "ElectionPaid",
      "type": "event"
    },
    {
      "anonymous": false,
      "inputs": [
        {
          "indexed": true,
          "internalType": "address",
          "name": "previousOwner",
          "type": "address"
        },
        {
          "indexed": true,
          "internalType": "address",
          "name": "newOwner",
          "type": "address"
        }
      ],
      "name": "OwnershipTransferred",
      "type": "event"
    },
    {
      "anonymous": false,
      "inputs": [
        {
          "indexed": true,
          "internalType": "bytes32",
          "name": "role",
          "type": "bytes32"
        },
        {
          "indexed": true,
          "internalType": "bytes32",
          "name": "previousAdminRole",
          "type": "bytes32"
        },
        {
          "indexed": true,
          "internalType": "bytes32",
          "name": "newAdminRole",
          "type": "bytes32"
        }
      ],
      "name": "RoleAdminChanged",
      "type": "event"
    },
    {
      "anonymous": false,
      "inputs": [
        {
          "indexed": true,
          "internalType": "bytes32",
          "name": "role",
          "type": "bytes32"
        },
        {
          "indexed": true,
          "internalType": "address",
          "name": "account",
          "type": "address"
        },
        {
          "indexed": true,
          "internalType": "address",
          "name": "sender",
          "type": "address"
        }
      ],
      "name": "RoleGranted",
      "type": "event"
    },
    {
      "anonymous": false,
      "inputs": [
        {
          "indexed": true,
          "internalType": "bytes32",
          "name": "role",
          "type": "bytes32"
        },
        {
          "indexed": true,
          "internalType": "address",
          "name": "account",
          "type": "address"
        },
        {
          "indexed": true,
          "internalType": "address",
          "name": "sender",
          "type": "address"
        }
      ],
      "name": "RoleRevoked",
      "type": "event"
    },
    {
      "stateMutability": "payable",
      "type": "fallback"
    },
    {
      "inputs": [],
      "name": "DEFAULT_ADMIN_ROLE",
      "outputs": [
        {
          "internalType": "bytes32",
          "name": "",
          "type": "bytes32"
        }
      ],
      "stateMutability": "view",
      "type": "function"
    },
    {
      "inputs": [
        {
          "internalType": "uint256",
          "name": "electionId",
          "type": "uint256"
        }
      ],
      "name": "approveToken",
      "outputs": [],
      "stateMutability": "nonpayable",
      "type": "function"
    },
    {
      "inputs": [
        {
          "internalType": "uint256",
          "name": "electionId",
          "type": "uint256"
        },
        {
          "internalType": "address",
          "name": "_sender",
          "type": "address"
        }
      ],
      "name": "canVote",
      "outputs": [
        {
          "internalType": "bool",
          "name": "status",
          "type": "bool"
        }
      ],
      "stateMutability": "view",
      "type": "function"
    },
    {
      "inputs": [
        {
          "internalType": "uint256",
          "name": "electionId",
          "type": "uint256"
        },
        {
          "internalType": "address[]",
          "name": "_adrs",
          "type": "address[]"
        },
        {
          "internalType": "uint256[]",
          "name": "_scores",
          "type": "uint256[]"
        }
      ],
      "name": "castBallot",
      "outputs": [],
      "stateMutability": "nonpayable",
      "type": "function"
    },
    {
      "inputs": [],
      "name": "electionScoreFactor",
      "outputs": [
        {
          "internalType": "uint256",
          "name": "",
          "type": "uint256"
        }
      ],
      "stateMutability": "view",
      "type": "function"
    },
    {
      "inputs": [
        {
          "internalType": "uint256",
          "name": "",
          "type": "uint256"
        }
      ],
      "name": "electionScoreSum",
      "outputs": [
        {
          "internalType": "uint256",
          "name": "",
          "type": "uint256"
        }
      ],
      "stateMutability": "view",
      "type": "function"
    },
    {
      "inputs": [
        {
          "internalType": "uint256",
          "name": "",
          "type": "uint256"
        }
      ],
      "name": "elections",
      "outputs": [
        {
          "internalType": "string",
          "name": "name",
          "type": "string"
        },
        {
          "internalType": "bool",
          "name": "active",
          "type": "bool"
        },
        {
          "internalType": "bool",
          "name": "paid",
          "type": "bool"
        },
        {
          "internalType": "uint32",
          "name": "createdAt",
          "type": "uint32"
        },
        {
          "internalType": "uint256",
          "name": "funds",
          "type": "uint256"
        },
        {
          "internalType": "address",
          "name": "token",
          "type": "address"
        },
        {
          "internalType": "int8",
          "name": "votes",
          "type": "int8"
        },
        {
          "internalType": "address",
          "name": "admin",
          "type": "address"
        }
      ],
      "stateMutability": "view",
      "type": "function"
    },
    {
      "inputs": [
        {
          "internalType": "uint256",
          "name": "electionId",
          "type": "uint256"
        }
      ],
      "name": "endElection",
      "outputs": [],
      "stateMutability": "nonpayable",
      "type": "function"
    },
    {
      "inputs": [
        {
          "internalType": "uint256",
          "name": "electionId",
          "type": "uint256"
        }
      ],
      "name": "getElectionById",
      "outputs": [
        {
          "internalType": "string",
          "name": "name",
          "type": "string"
        },
        {
          "internalType": "address[]",
          "name": "candidates",
          "type": "address[]"
        },
        {
          "internalType": "uint256",
          "name": "n_addr",
          "type": "uint256"
        },
        {
          "internalType": "uint256",
          "name": "createdAt",
          "type": "uint256"
        },
        {
          "internalType": "uint256",
          "name": "funds",
          "type": "uint256"
        },
        {
          "internalType": "address",
          "name": "token",
          "type": "address"
        },
        {
          "internalType": "int8",
          "name": "votes",
          "type": "int8"
        },
        {
          "internalType": "address",
          "name": "admin",
          "type": "address"
        },
        {
          "internalType": "bool",
          "name": "isActive",
          "type": "bool"
        },
        {
          "internalType": "bool",
          "name": "paid",
          "type": "bool"
        }
      ],
      "stateMutability": "view",
      "type": "function"
    },
    {
      "inputs": [
        {
          "internalType": "uint256",
          "name": "electionId",
          "type": "uint256"
        },
        {
          "internalType": "address",
          "name": "_adr",
          "type": "address"
        }
      ],
      "name": "getElectionScore",
      "outputs": [
        {
          "internalType": "uint256",
          "name": "",
          "type": "uint256"
        }
      ],
      "stateMutability": "view",
      "type": "function"
    },
    {
      "inputs": [
        {
          "internalType": "uint256",
          "name": "electionId",
          "type": "uint256"
        }
      ],
      "name": "getElectionVoted",
      "outputs": [
        {
          "internalType": "uint256",
          "name": "count",
          "type": "uint256"
        }
      ],
      "stateMutability": "view",
      "type": "function"
    },
    {
      "inputs": [
        {
          "internalType": "bytes32",
          "name": "role",
          "type": "bytes32"
        }
      ],
      "name": "getRoleAdmin",
      "outputs": [
        {
          "internalType": "bytes32",
          "name": "",
          "type": "bytes32"
        }
      ],
      "stateMutability": "view",
      "type": "function"
    },
    {
      "inputs": [
        {
          "internalType": "bytes32",
          "name": "role",
          "type": "bytes32"
        },
        {
          "internalType": "address",
          "name": "account",
          "type": "address"
        }
      ],
      "name": "grantRole",
      "outputs": [],
      "stateMutability": "nonpayable",
      "type": "function"
    },
    {
      "inputs": [
        {
          "internalType": "bytes32",
          "name": "role",
          "type": "bytes32"
        },
        {
          "internalType": "address",
          "name": "account",
          "type": "address"
        }
      ],
      "name": "hasRole",
      "outputs": [
        {
          "internalType": "bool",
          "name": "",
          "type": "bool"
        }
      ],
      "stateMutability": "view",
      "type": "function"
    },
    {
      "inputs": [
        {
          "internalType": "uint256",
          "name": "electionId",
          "type": "uint256"
        },
        {
          "internalType": "address",
          "name": "_sender",
          "type": "address"
        }
      ],
      "name": "hasVoted",
      "outputs": [
        {
          "internalType": "bool",
          "name": "",
          "type": "bool"
        }
      ],
      "stateMutability": "view",
      "type": "function"
    },
    {
      "inputs": [
        {
          "internalType": "uint256",
          "name": "electionId",
          "type": "uint256"
        },
        {
          "internalType": "address",
          "name": "_sender",
          "type": "address"
        }
      ],
      "name": "isElectionAdmin",
      "outputs": [
        {
          "internalType": "bool",
          "name": "",
          "type": "bool"
        }
      ],
      "stateMutability": "view",
      "type": "function"
    },
    {
      "inputs": [
        {
          "internalType": "uint256",
          "name": "electionId",
          "type": "uint256"
        },
        {
          "internalType": "address",
          "name": "_sender",
          "type": "address"
        }
      ],
      "name": "isElectionCandidate",
      "outputs": [
        {
          "internalType": "bool",
          "name": "status",
          "type": "bool"
        }
      ],
      "stateMutability": "view",
      "type": "function"
    },
    {
      "inputs": [
        {
          "internalType": "string",
          "name": "_name",
          "type": "string"
        },
        {
          "internalType": "uint256",
          "name": "_funds",
          "type": "uint256"
        },
        {
          "internalType": "address",
          "name": "_token",
          "type": "address"
        },
        {
          "internalType": "int8",
          "name": "_votes",
          "type": "int8"
        },
        {
          "internalType": "address[]",
          "name": "_adrs",
          "type": "address[]"
        }
      ],
      "name": "newElection",
      "outputs": [
        {
          "internalType": "uint256",
          "name": "electionId",
          "type": "uint256"
        }
      ],
      "stateMutability": "nonpayable",
      "type": "function"
    },
    {
      "inputs": [],
      "name": "numElections",
      "outputs": [
        {
          "internalType": "uint256",
          "name": "",
          "type": "uint256"
        }
      ],
      "stateMutability": "view",
      "type": "function"
    },
    {
      "inputs": [],
      "name": "owner",
      "outputs": [
        {
          "internalType": "address",
          "name": "",
          "type": "address"
        }
      ],
      "stateMutability": "view",
      "type": "function"
    },
    {
      "inputs": [
        {
          "internalType": "uint256",
          "name": "electionId",
          "type": "uint256"
        },
        {
          "internalType": "address[]",
          "name": "_adrs",
          "type": "address[]"
        },
        {
          "internalType": "uint256[]",
          "name": "_pay",
          "type": "uint256[]"
        }
      ],
      "name": "payoutElection",
      "outputs": [],
      "stateMutability": "payable",
      "type": "function"
    },
    {
      "inputs": [],
      "name": "renounceOwnership",
      "outputs": [],
      "stateMutability": "nonpayable",
      "type": "function"
    },
    {
      "inputs": [
        {
          "internalType": "bytes32",
          "name": "role",
          "type": "bytes32"
        },
        {
          "internalType": "address",
          "name": "account",
          "type": "address"
        }
      ],
      "name": "renounceRole",
      "outputs": [],
      "stateMutability": "nonpayable",
      "type": "function"
    },
    {
      "inputs": [
        {
          "internalType": "bytes32",
          "name": "role",
          "type": "bytes32"
        },
        {
          "internalType": "address",
          "name": "account",
          "type": "address"
        }
      ],
      "name": "revokeRole",
      "outputs": [],
      "stateMutability": "nonpayable",
      "type": "function"
    },
    {
      "inputs": [
        {
          "internalType": "uint256",
          "name": "",
          "type": "uint256"
        },
        {
          "internalType": "address",
          "name": "",
          "type": "address"
        }
      ],
      "name": "scores",
      "outputs": [
        {
          "internalType": "uint256",
          "name": "",
          "type": "uint256"
        }
      ],
      "stateMutability": "view",
      "type": "function"
    },
    {
      "inputs": [
        {
          "internalType": "bytes4",
          "name": "interfaceId",
          "type": "bytes4"
        }
      ],
      "name": "supportsInterface",
      "outputs": [
        {
          "internalType": "bool",
          "name": "",
          "type": "bool"
        }
      ],
      "stateMutability": "view",
      "type": "function"
    },
    {
      "inputs": [
        {
          "internalType": "address",
          "name": "newOwner",
          "type": "address"
        }
      ],
      "name": "transferOwnership",
      "outputs": [],
      "stateMutability": "nonpayable",
      "type": "function"
    },
    {
      "inputs": [
        {
          "internalType": "uint256",
          "name": "",
          "type": "uint256"
        },
        {
          "internalType": "address",
          "name": "",
          "type": "address"
        }
      ],
      "name": "voted",
      "outputs": [
        {
          "internalType": "bool",
          "name": "",
          "type": "bool"
        }
      ],
      "stateMutability": "view",
      "type": "function"
    },
    {
      "stateMutability": "payable",
      "type": "receive"
    }
  ],
  "bytecode": "0x608060405260026006553480156200001657600080fd5b5062000022336200003a565b6001600255620000346000336200008c565b6200013c565b600180546001600160a01b038381166001600160a01b0319831681179093556040519116919082907f8be0079c531659141344cd1fd0a4f28419497f9722a3daafe3b4186f6b6457e090600090a35050565b6200009882826200009c565b5050565b6000828152602081815260408083206001600160a01b038516845290915290205460ff1662000098576000828152602081815260408083206001600160a01b03851684529091529020805460ff19166001179055620000f83390565b6001600160a01b0316816001600160a01b0316837f2f8788117e7eff1d82e926ec794901d17c78024a50270940304540a733656f0d60405160405180910390a45050565b6129d9806200014c6000396000f3fe6080604052600436106101a35760003560e01c806376c0e4a1116100e0578063a217fddf11610084578063cdb2867b11610061578063cdb2867b14610582578063d547741f146105a2578063ea3c6cde146105c2578063f2fde38b146105e257005b8063a217fddf14610517578063b8ecddc61461052c578063c6958b121461054c57005b806391b84f16116100bd57806391b84f161461045557806391d14854146104945780639c98bcbb146104b45780639e5d4667146104d457005b806376c0e4a1146103d55780637a07b674146103f55780638da5cb5b1461042d57005b806343859632116101475780635e6fef01116101245780635e6fef01146103605780636e38d9bd14610394578063715018a6146103aa57806374f2ebf3146103bf57005b806343859632146102bf5780635277b4ae1461030557806352e968ad1461034057005b8063248a9ca311610180578063248a9ca31461022f5780632f2ff15d1461025f57806336568abe1461027f5780633ac9fc111461029f57005b806301ffc9a7146101ac5780630ece86d0146101e1578063187c6fba146101f457005b366101aa57005b005b3480156101b857600080fd5b506101cc6101c73660046123cd565b610602565b60405190151581526020015b60405180910390f35b6101aa6101ef3660046124e2565b610639565b34801561020057600080fd5b5061022161020f36600461238a565b60056020526000908152604090205481565b6040519081526020016101d8565b34801561023b57600080fd5b5061022161024a36600461238a565b60009081526020819052604090206001015490565b34801561026b57600080fd5b506101aa61027a3660046123a2565b610869565b34801561028b57600080fd5b506101aa61029a3660046123a2565b610894565b3480156102ab57600080fd5b506101aa6102ba36600461238a565b610912565b3480156102cb57600080fd5b506101cc6102da3660046124d0565b60009182526003602090815260408084206001600160a01b0393909316845291905290205460ff1690565b34801561031157600080fd5b506101cc6103203660046124d0565b600360209081526000928352604080842090915290825290205460ff1681565b34801561034c57600080fd5b5061022161035b36600461238a565b6109af565b34801561036c57600080fd5b5061038061037b36600461238a565b610a5e565b6040516101d898979695949392919061279e565b3480156103a057600080fd5b5061022160085481565b3480156103b657600080fd5b506101aa610b46565b3480156103cb57600080fd5b5061022160065481565b3480156103e157600080fd5b506101aa6103f03660046124e2565b610bac565b34801561040157600080fd5b506102216104103660046124d0565b600460209081526000928352604080842090915290825290205481565b34801561043957600080fd5b506001546040516001600160a01b0390911681526020016101d8565b34801561046157600080fd5b506101cc6104703660046124d0565b600091825260076020526040909120600501546001600160a01b0390811691161490565b3480156104a057600080fd5b506101cc6104af3660046123a2565b610f02565b3480156104c057600080fd5b506101aa6104cf36600461238a565b610f2b565b3480156104e057600080fd5b506102216104ef3660046124d0565b60009182526004602090815260408084206001600160a01b0393909316845291905290205490565b34801561052357600080fd5b50610221600081565b34801561053857600080fd5b506102216105473660046123f5565b6110c4565b34801561055857600080fd5b5061056c61056736600461238a565b61114b565b6040516101d89a99989796959493929190612722565b34801561058e57600080fd5b506101cc61059d3660046124d0565b6113a7565b3480156105ae57600080fd5b506101aa6105bd3660046123a2565b611436565b3480156105ce57600080fd5b506101cc6105dd3660046124d0565b61145c565b3480156105ee57600080fd5b506101aa6105fd366004612350565b6114e4565b60006001600160e01b03198216637965db0b60e01b148061063357506301ffc9a760e01b6001600160e01b03198316145b92915050565b8261065260008051602061298483398151915233610f02565b6106775760405162461bcd60e51b815260040161066e90612801565b60405180910390fd5b6000818152600760205260409020600501546001600160a01b031633146106b05760405162461bcd60e51b815260040161066e90612801565b6002805414156107025760405162461bcd60e51b815260206004820152601f60248201527f5265656e7472616e637947756172643a207265656e7472616e742063616c6c00604482015260640161066e565b6002805560008481526007602052604090206001015460ff16156107615760405162461bcd60e51b8152602060048201526016602482015275456c656374696f6e205374696c6c204163746976652160501b604482015260640161066e565b600084815260076020526040902060010154610100900460ff16156107c85760405162461bcd60e51b815260206004820152601a60248201527f456c656374696f6e20416c726561647920506169642d6f757421000000000000604482015260640161066e565b6000848152600760205260408120600401546001600160a01b03166107f9576107f28585856115af565b9050610807565b6108048585856118a9565b90505b600085815260076020908152604091829020600101805461ff0019166101008515150217905590518681527fb27761a3b9064636a27795816e4f8a8e5cadd6ac8b1e3a553bd47bf414c2b402910160405180910390a150506001600255505050565b6000828152602081905260409020600101546108858133611961565b61088f83836119c5565b505050565b6001600160a01b03811633146109045760405162461bcd60e51b815260206004820152602f60248201527f416363657373436f6e74726f6c3a2063616e206f6e6c792072656e6f756e636560448201526e103937b632b9903337b91039b2b63360891b606482015260840161066e565b61090e8282611a49565b5050565b60008181526007602052604090819020600480820154600390920154925163095ea7b360e01b8152309181019190915260248101929092526001600160a01b03169063095ea7b390604401602060405180830381600087803b15801561097757600080fd5b505af115801561098b573d6000803e3d6000fd5b505050506040513d601f19601f8201168201806040525081019061090e919061236a565b6000805b600083815260076020526040902060020154811015610a585760008381526007602052604081206002018054839081106109fd57634e487b7160e01b600052603260045260246000fd5b60009182526020808320909101548683526003825260408084206001600160a01b039092168085529190925291205490915060ff1615610a455782610a418161293c565b9350505b5080610a508161293c565b9150506109b3565b50919050565b600760205260009081526040902080548190610a7990612907565b80601f0160208091040260200160405190810160405280929190818152602001828054610aa590612907565b8015610af25780601f10610ac757610100808354040283529160200191610af2565b820191906000526020600020905b815481529060010190602001808311610ad557829003601f168201915b50505050600183015460038401546004850154600590950154939460ff80841695610100850490911694506201000090930463ffffffff16926001600160a01b0380831692600160a01b900460000b911688565b6001546001600160a01b03163314610ba05760405162461bcd60e51b815260206004820181905260248201527f4f776e61626c653a2063616c6c6572206973206e6f7420746865206f776e6572604482015260640161066e565b610baa6000611aae565b565b60008381526007602052604090206001015483908390839060ff16610c0a5760405162461bcd60e51b8152602060048201526014602482015273456c656374696f6e204e6f74204163746976652160601b604482015260640161066e565b600083815260076020526040902060010154610100900460ff1615610c715760405162461bcd60e51b815260206004820152601d60248201527f456c656374696f6e20697320616c726561647920706169642d6f757421000000604482015260640161066e565b600083815260036020908152604080832033845290915290205460ff1615610cd35760405162461bcd60e51b815260206004820152601560248201527453656e64657220616c726561647920766f7465642160581b604482015260640161066e565b8151815114610d245760405162461bcd60e51b815260206004820152601a60248201527f53636f726573202d2041646472657373204d69736d6174636821000000000000604482015260640161066e565b600083815260076020526040902060020154825114610d855760405162461bcd60e51b815260206004820152601d60248201527f41646472657373202d2043616e646964617465204d69736d6174636821000000604482015260640161066e565b6000805b8651811015610e7457858181518110610db257634e487b7160e01b600052603260045260246000fd5b6020026020010151600460008a81526020019081526020016000206000898481518110610def57634e487b7160e01b600052603260045260246000fd5b60200260200101516001600160a01b03166001600160a01b031681526020019081526020016000206000828254610e26919061288d565b92505081905550858181518110610e4d57634e487b7160e01b600052603260045260246000fd5b602002602001015182610e60919061288d565b915080610e6c8161293c565b915050610d89565b5060008781526005602052604081208054839290610e9390849061288d565b9091555050600087815260036020908152604080832033808552925291829020805460ff1916600117905590517f7aae6e262f3606494a12d9a1f97ed7ebc5b52e9b0c69ffa356e10974e377e04091610ef1918a908a908a906126a6565b60405180910390a150505050505050565b6000918252602082815260408084206001600160a01b0393909316845291905290205460ff1690565b80610f4460008051602061298483398151915233610f02565b610f605760405162461bcd60e51b815260040161066e90612801565b6000818152600760205260409020600501546001600160a01b03163314610f995760405162461bcd60e51b815260040161066e90612801565b60008281526007602052604090206001015460ff16610ffa5760405162461bcd60e51b815260206004820152601760248201527f456c656374696f6e20416c726561647920456e64656421000000000000000000604482015260640161066e565b600082815260076020526040902060010154610100900460ff161561106d5760405162461bcd60e51b815260206004820152602360248201527f456c656374696f6e2068617320616c7265616479206265656e2070616964206f60448201526275742160e81b606482015260840161066e565b60008281526007602052604090819020600101805460ff19169055517f562cd572b2ba3b666cd989fc4ca98419ec81e75f04528df9d9d76fdb7807ee71906110b89084815260200190565b60405180910390a15050565b60006001600160a01b0384166110e7576110e086868585611b00565b90506110f7565b6110f48686868686611bba565b90505b61110082611ca1565b61110933611d10565b60408051338152602081018390527fc91fe4766a7a928d6625f66818425dc115b03c854a8ed8d28de2f34a684e0f1a910160405180910390a195945050505050565b606080600080600080600080600080600760008c8152602001908152602001600020600001805461117b90612907565b80601f01602080910402602001604051908101604052809291908181526020018280546111a790612907565b80156111f45780601f106111c9576101008083540402835291602001916111f4565b820191906000526020600020905b8154815290600101906020018083116111d757829003601f168201915b50505050509950600760008c815260200190815260200160002060020180548060200260200160405190810160405280929190818152602001828054801561126557602002820191906000526020600020905b81546001600160a01b03168152600190910190602001808311611247575b50505050509850600760008c8152602001908152602001600020600201805490509750600760008c815260200190815260200160002060010160029054906101000a900463ffffffff1663ffffffff169650600760008c8152602001908152602001600020600301549550600760008c815260200190815260200160002060040160009054906101000a90046001600160a01b03169450600760008c815260200190815260200160002060040160149054906101000a900460000b9350600760008c815260200190815260200160002060050160009054906101000a90046001600160a01b03169250600760008c815260200190815260200160002060010160009054906101000a900460ff169150600760008c815260200190815260200160002060010160019054906101000a900460ff1690509193959799509193959799565b6000805b60008481526007602052604090206002015481101561142f5760008481526007602052604081206002018054839081106113f557634e487b7160e01b600052603260045260246000fd5b6000918252602090912001546001600160a01b039081169150841681141561141c57600192505b50806114278161293c565b9150506113ab565b5092915050565b6000828152602081905260409020600101546114528133611961565b61088f8383611a49565b6000805b60008481526007602052604090206002015481101561142f5760008481526007602052604090206002018054829081106114aa57634e487b7160e01b600052603260045260246000fd5b6000918252602090912001546001600160a01b03848116911614156114d2576001915061142f565b806114dc8161293c565b915050611460565b6001546001600160a01b0316331461153e5760405162461bcd60e51b815260206004820181905260248201527f4f776e61626c653a2063616c6c6572206973206e6f7420746865206f776e6572604482015260640161066e565b6001600160a01b0381166115a35760405162461bcd60e51b815260206004820152602660248201527f4f776e61626c653a206e6577206f776e657220697320746865207a65726f206160448201526564647265737360d01b606482015260840161066e565b6115ac81611aae565b50565b6000836115ca60008051602061298483398151915233610f02565b6115e65760405162461bcd60e51b815260040161066e90612801565b6000818152600760205260409020600501546001600160a01b0316331461161f5760405162461bcd60e51b815260040161066e90612801565b6000805b60008781526007602052604090206002015481101561174b5785818151811061165c57634e487b7160e01b600052603260045260246000fd5b60200260200101516001600160a01b03166007600089815260200190815260200160002060020182815481106116a257634e487b7160e01b600052603260045260246000fd5b6000918252602090912001546001600160a01b0316146117045760405162461bcd60e51b815260206004820152601a60248201527f456c656374696f6e2d41646472657373204d69736d6174636821000000000000604482015260640161066e565b84818151811061172457634e487b7160e01b600052603260045260246000fd5b602002602001015182611737919061288d565b9150806117438161293c565b915050611623565b50803410156117955760405162461bcd60e51b81526020600482015260166024820152754e6f7420656e6f7567682076616c75652073656e742160501b604482015260640161066e565b60005b845181101561189c5760008682815181106117c357634e487b7160e01b600052603260045260246000fd5b60200260200101516001600160a01b03168683815181106117f457634e487b7160e01b600052603260045260246000fd5b602002602001015160405160006040518083038185875af1925050503d806000811461183c576040519150601f19603f3d011682016040523d82523d6000602084013e611841565b606091505b50509050806118895760405162461bcd60e51b81526020600482015260146024820152732330b4b632b2103a379039b2b7321022ba3432b960611b604482015260640161066e565b50806118948161293c565b915050611798565b5060019695505050505050565b6000805b60008581526007602052604090206002015481101561195457611942338583815181106118ea57634e487b7160e01b600052603260045260246000fd5b602002602001015185848151811061191257634e487b7160e01b600052603260045260246000fd5b60209081029190910181015160008a815260079092526040909120600401546001600160a01b0316929190611d28565b8061194c8161293c565b9150506118ad565b50600190505b9392505050565b61196b8282610f02565b61090e57611983816001600160a01b03166014611d88565b61198e836020611d88565b60405160200161199f929190612631565b60408051601f198184030181529082905262461bcd60e51b825261066e9160040161270f565b6119cf8282610f02565b61090e576000828152602081815260408083206001600160a01b03851684529091529020805460ff19166001179055611a053390565b6001600160a01b0316816001600160a01b0316837f2f8788117e7eff1d82e926ec794901d17c78024a50270940304540a733656f0d60405160405180910390a45050565b611a538282610f02565b1561090e576000828152602081815260408083206001600160a01b0385168085529252808320805460ff1916905551339285917ff6391f5c32d9c69d2a47ea670b442974b53935d1edc7fd64eb21e047a839171b9190a45050565b600180546001600160a01b038381166001600160a01b0319831681179093556040519116919082907f8be0079c531659141344cd1fd0a4f28419497f9722a3daafe3b4186f6b6457e090600090a35050565b6008805460009182611b118361293c565b909155506000818152600760209081526040909120875192935091611b3b918391908901906121be565b506003810185905560048101805460ff60a01b1916600160a01b60ff600088900b16021790558251611b769060028301906020860190612242565b506001808201805460ff1963ffffffff421662010000021665ffffffff00ff1990911617909117905560050180546001600160a01b03191633179055949350505050565b6008805460009182611bcb8361293c565b9091555060008181526007602090815260409091208851929350611bf39290918901906121be565b5060008181526007602090815260408220600381018890556004810180549387900b60ff16600160a01b026001600160a81b03199094166001600160a01b03891617939093179092558351611c4e9260020191850190612242565b5060008181526007602052604090206001808201805460ff1963ffffffff421662010000021665ffffffff00ff1990911617909117905560050180546001600160a01b0319163317905595945050505050565b60005b815181101561090e57611cfe7f9096faa56698daa37ec8d3542ff829c66d5e81213bd6faab8ba4e9ce824a5def838381518110611cf157634e487b7160e01b600052603260045260246000fd5b6020026020010151611f6a565b80611d088161293c565b915050611ca4565b6115ac60008051602061298483398151915282611f6a565b604080516001600160a01b0385811660248301528416604482015260648082018490528251808303909101815260849091019091526020810180516001600160e01b03166323b872dd60e01b179052611d82908590611f74565b50505050565b60606000611d978360026128a5565b611da290600261288d565b67ffffffffffffffff811115611dc857634e487b7160e01b600052604160045260246000fd5b6040519080825280601f01601f191660200182016040528015611df2576020820181803683370190505b509050600360fc1b81600081518110611e1b57634e487b7160e01b600052603260045260246000fd5b60200101906001600160f81b031916908160001a905350600f60fb1b81600181518110611e5857634e487b7160e01b600052603260045260246000fd5b60200101906001600160f81b031916908160001a9053506000611e7c8460026128a5565b611e8790600161288d565b90505b6001811115611f1b576f181899199a1a9b1b9c1cb0b131b232b360811b85600f1660108110611ec957634e487b7160e01b600052603260045260246000fd5b1a60f81b828281518110611eed57634e487b7160e01b600052603260045260246000fd5b60200101906001600160f81b031916908160001a90535060049490941c93611f14816128f0565b9050611e8a565b50831561195a5760405162461bcd60e51b815260206004820181905260248201527f537472696e67733a20686578206c656e67746820696e73756666696369656e74604482015260640161066e565b61090e82826119c5565b6000611fc9826040518060400160405280602081526020017f5361666545524332303a206c6f772d6c6576656c2063616c6c206661696c6564815250856001600160a01b03166120469092919063ffffffff16565b80519091501561088f5780806020019051810190611fe7919061236a565b61088f5760405162461bcd60e51b815260206004820152602a60248201527f5361666545524332303a204552433230206f7065726174696f6e20646964206e6044820152691bdd081cdd58d8d9595960b21b606482015260840161066e565b6060612055848460008561205d565b949350505050565b6060824710156120be5760405162461bcd60e51b815260206004820152602660248201527f416464726573733a20696e73756666696369656e742062616c616e636520666f6044820152651c8818d85b1b60d21b606482015260840161066e565b843b61210c5760405162461bcd60e51b815260206004820152601d60248201527f416464726573733a2063616c6c20746f206e6f6e2d636f6e7472616374000000604482015260640161066e565b600080866001600160a01b031685876040516121289190612615565b60006040518083038185875af1925050503d8060008114612165576040519150601f19603f3d011682016040523d82523d6000602084013e61216a565b606091505b509150915061217a828286612185565b979650505050505050565b6060831561219457508161195a565b8251156121a45782518084602001fd5b8160405162461bcd60e51b815260040161066e919061270f565b8280546121ca90612907565b90600052602060002090601f0160209004810192826121ec5760008555612232565b82601f1061220557805160ff1916838001178555612232565b82800160010185558215612232579182015b82811115612232578251825591602001919060010190612217565b5061223e929150612297565b5090565b828054828255906000526020600020908101928215612232579160200282015b8281111561223257825182546001600160a01b0319166001600160a01b03909116178255602090920191600190910190612262565b5b8082111561223e5760008155600101612298565b80356001600160a01b03811681146122c357600080fd5b919050565b600082601f8301126122d8578081fd5b813560206122ed6122e883612869565b612838565b80838252828201915082860187848660051b890101111561230c578586fd5b855b858110156123315761231f826122ac565b8452928401929084019060010161230e565b5090979650505050505050565b8035600081900b81146122c357600080fd5b600060208284031215612361578081fd5b61195a826122ac565b60006020828403121561237b578081fd5b8151801515811461195a578182fd5b60006020828403121561239b578081fd5b5035919050565b600080604083850312156123b4578081fd5b823591506123c4602084016122ac565b90509250929050565b6000602082840312156123de578081fd5b81356001600160e01b03198116811461195a578182fd5b600080600080600060a0868803121561240c578081fd5b853567ffffffffffffffff80821115612423578283fd5b818801915088601f830112612436578283fd5b813560208282111561244a5761244a61296d565b61245c601f8301601f19168201612838565b8281528b8284870101111561246f578586fd5b828286018383013791820181018590529097508801359550612493604089016122ac565b94506124a16060890161233e565b935060808801359150808211156124b6578283fd5b506124c3888289016122c8565b9150509295509295909350565b600080604083850312156123b4578182fd5b6000806000606084860312156124f6578283fd5b8335925060208085013567ffffffffffffffff80821115612515578485fd5b612521888389016122c8565b94506040870135915080821115612536578384fd5b508501601f81018713612547578283fd5b80356125556122e882612869565b8082825284820191508484018a868560051b8701011115612574578687fd5b8694505b83851015612596578035835260019490940193918501918501612578565b5080955050505050509250925092565b6000815180845260208085019450808401835b838110156125de5781516001600160a01b0316875295820195908201906001016125b9565b509495945050505050565b600081518084526126018160208601602086016128c4565b601f01601f19169290920160200192915050565b600082516126278184602087016128c4565b9190910192915050565b7f416363657373436f6e74726f6c3a206163636f756e74200000000000000000008152600083516126698160178501602088016128c4565b7001034b99036b4b9b9b4b733903937b6329607d1b601791840191820152835161269a8160288401602088016128c4565b01602801949350505050565b60018060a01b0385168152600060208581840152608060408401526126ce60808401866125a6565b8381036060850152845180825282860191830190845b81811015612700578351835292840192918401916001016126e4565b50909998505050505050505050565b60208152600061195a60208301846125e9565b60006101408083526127368184018e6125e9565b9050828103602084015261274a818d6125a6565b604084019b909b525050606081019790975260808701959095526001600160a01b0393841660a087015260009290920b60c086015290911660e0840152151561010083015215156101209091015292915050565b60006101008083526127b28184018c6125e9565b99151560208401525050951515604087015263ffffffff94909416606086015260808501929092526001600160a01b0390811660a085015260009190910b60c08401521660e090910152919050565b6020808252601a908201527f53656e646572206e6f7420456c656374696f6e2041646d696e21000000000000604082015260600190565b604051601f8201601f1916810167ffffffffffffffff811182821017156128615761286161296d565b604052919050565b600067ffffffffffffffff8211156128835761288361296d565b5060051b60200190565b600082198211156128a0576128a0612957565b500190565b60008160001904831182151516156128bf576128bf612957565b500290565b60005b838110156128df5781810151838201526020016128c7565b83811115611d825750506000910152565b6000816128ff576128ff612957565b506000190190565b600181811c9082168061291b57607f821691505b60208210811415610a5857634e487b7160e01b600052602260045260246000fd5b600060001982141561295057612950612957565b5060010190565b634e487b7160e01b600052601160045260246000fd5b634e487b7160e01b600052604160045260246000fdfe16f50c1fe196fa8f2d59c3eca367f2f7bf83b35c12ed36436b26d5af3695f5c4a264697066735822122009cb09ae7c013c7d083c28677146ae4036c891624f2d07e2deb07af23e91e45764736f6c63430008040033",
  "linkReferences": {},
  "deployedLinkReferences": {}
}