{
  "_format": "hh-sol-artifact-1",
  "contractName": "Diplomacy",
  "sourceName": "contracts/Diplomacy.sol",
  "abi": [
    {
      "inputs": [],
      "stateMutability": "nonpayable",
      "type": "constructor"
    },
    {
      "anonymous": false,
      "inputs": [
        {
          "indexed": false,
          "internalType": "address",
          "name": "voter",
          "type": "address"
        },
        {
          "indexed": false,
          "internalType": "uint256",
          "name": "electionId",
          "type": "uint256"
        },
        {
          "indexed": false,
          "internalType": "address[]",
          "name": "adrs",
          "type": "address[]"
        },
        {
          "indexed": false,
          "internalType": "string[]",
          "name": "scores",
          "type": "string[]"
        }
      ],
      "name": "BallotCast",
      "type": "event"
    },
    {
      "anonymous": false,
      "inputs": [
        {
          "indexed": false,
          "internalType": "address",
          "name": "creator",
          "type": "address"
        },
        {
          "indexed": false,
          "internalType": "uint256",
          "name": "electionId",
          "type": "uint256"
        }
      ],
      "name": "ElectionCreated",
      "type": "event"
    },
    {
      "anonymous": false,
      "inputs": [
        {
          "indexed": false,
          "internalType": "uint256",
          "name": "electionId",
          "type": "uint256"
        }
      ],
      "name": "ElectionEnded",
      "type": "event"
    },
    {
      "anonymous": false,
      "inputs": [
        {
          "indexed": false,
          "internalType": "uint256",
          "name": "electionId",
          "type": "uint256"
        }
      ],
      "name": "ElectionPaid",
      "type": "event"
    },
    {
      "anonymous": false,
      "inputs": [
        {
          "indexed": true,
          "internalType": "address",
          "name": "previousOwner",
          "type": "address"
        },
        {
          "indexed": true,
          "internalType": "address",
          "name": "newOwner",
          "type": "address"
        }
      ],
      "name": "OwnershipTransferred",
      "type": "event"
    },
    {
      "anonymous": false,
      "inputs": [
        {
          "indexed": true,
          "internalType": "bytes32",
          "name": "role",
          "type": "bytes32"
        },
        {
          "indexed": true,
          "internalType": "bytes32",
          "name": "previousAdminRole",
          "type": "bytes32"
        },
        {
          "indexed": true,
          "internalType": "bytes32",
          "name": "newAdminRole",
          "type": "bytes32"
        }
      ],
      "name": "RoleAdminChanged",
      "type": "event"
    },
    {
      "anonymous": false,
      "inputs": [
        {
          "indexed": true,
          "internalType": "bytes32",
          "name": "role",
          "type": "bytes32"
        },
        {
          "indexed": true,
          "internalType": "address",
          "name": "account",
          "type": "address"
        },
        {
          "indexed": true,
          "internalType": "address",
          "name": "sender",
          "type": "address"
        }
      ],
      "name": "RoleGranted",
      "type": "event"
    },
    {
      "anonymous": false,
      "inputs": [
        {
          "indexed": true,
          "internalType": "bytes32",
          "name": "role",
          "type": "bytes32"
        },
        {
          "indexed": true,
          "internalType": "address",
          "name": "account",
          "type": "address"
        },
        {
          "indexed": true,
          "internalType": "address",
          "name": "sender",
          "type": "address"
        }
      ],
      "name": "RoleRevoked",
      "type": "event"
    },
    {
      "inputs": [],
      "name": "DEFAULT_ADMIN_ROLE",
      "outputs": [
        {
          "internalType": "bytes32",
          "name": "",
          "type": "bytes32"
        }
      ],
      "stateMutability": "view",
      "type": "function"
    },
    {
      "inputs": [
        {
          "internalType": "uint256",
          "name": "electionId",
          "type": "uint256"
        }
      ],
      "name": "approveToken",
      "outputs": [],
      "stateMutability": "nonpayable",
      "type": "function"
    },
    {
      "inputs": [
        {
          "internalType": "uint256",
          "name": "electionId",
          "type": "uint256"
        },
        {
          "internalType": "address",
          "name": "_sender",
          "type": "address"
        }
      ],
      "name": "canVote",
      "outputs": [
        {
          "internalType": "bool",
          "name": "status",
          "type": "bool"
        }
      ],
      "stateMutability": "view",
      "type": "function"
    },
    {
      "inputs": [
        {
          "internalType": "uint256",
          "name": "electionId",
          "type": "uint256"
        },
        {
          "internalType": "address[]",
          "name": "_adrs",
          "type": "address[]"
        },
        {
          "internalType": "string[]",
          "name": "_scores",
          "type": "string[]"
        }
      ],
      "name": "castBallot",
      "outputs": [],
      "stateMutability": "nonpayable",
      "type": "function"
    },
    {
      "inputs": [
        {
          "internalType": "uint256",
          "name": "",
          "type": "uint256"
        }
      ],
      "name": "elections",
      "outputs": [
        {
          "internalType": "string",
          "name": "name",
          "type": "string"
        },
        {
          "internalType": "bool",
          "name": "active",
          "type": "bool"
        },
        {
          "internalType": "bool",
          "name": "paid",
          "type": "bool"
        },
        {
          "internalType": "uint256",
          "name": "createdAt",
          "type": "uint256"
        },
        {
          "internalType": "uint256",
          "name": "funds",
          "type": "uint256"
        },
        {
          "internalType": "string",
          "name": "fundingType",
          "type": "string"
        },
        {
          "internalType": "uint256",
          "name": "votes",
          "type": "uint256"
        },
        {
          "internalType": "address",
          "name": "admin",
          "type": "address"
        }
      ],
      "stateMutability": "view",
      "type": "function"
    },
    {
      "inputs": [
        {
          "internalType": "uint256",
          "name": "electionId",
          "type": "uint256"
        }
      ],
      "name": "endElection",
      "outputs": [],
      "stateMutability": "nonpayable",
      "type": "function"
    },
    {
      "inputs": [
        {
          "internalType": "uint256",
          "name": "electionId",
          "type": "uint256"
        }
      ],
      "name": "getElectionById",
      "outputs": [
        {
          "internalType": "string",
          "name": "name",
          "type": "string"
        },
        {
          "internalType": "address[]",
          "name": "candidates",
          "type": "address[]"
        },
        {
          "internalType": "uint256",
          "name": "n_addr",
          "type": "uint256"
        },
        {
          "internalType": "uint256",
          "name": "createdAt",
          "type": "uint256"
        },
        {
          "internalType": "uint256",
          "name": "funds",
          "type": "uint256"
        },
        {
          "internalType": "string",
          "name": "fundingType",
          "type": "string"
        },
        {
          "internalType": "uint256",
          "name": "votes",
          "type": "uint256"
        },
        {
          "internalType": "address",
          "name": "admin",
          "type": "address"
        },
        {
          "internalType": "bool",
          "name": "isActive",
          "type": "bool"
        },
        {
          "internalType": "bool",
          "name": "paid",
          "type": "bool"
        }
      ],
      "stateMutability": "view",
      "type": "function"
    },
    {
      "inputs": [
        {
          "internalType": "uint256",
          "name": "electionId",
          "type": "uint256"
        },
        {
          "internalType": "address",
          "name": "_adr",
          "type": "address"
        }
      ],
      "name": "getElectionResults",
      "outputs": [
        {
          "internalType": "int256",
          "name": "",
          "type": "int256"
        }
      ],
      "stateMutability": "view",
      "type": "function"
    },
    {
      "inputs": [
        {
          "internalType": "uint256",
          "name": "electionId",
          "type": "uint256"
        },
        {
          "internalType": "address",
          "name": "_adr",
          "type": "address"
        }
      ],
      "name": "getElectionScores",
      "outputs": [
        {
          "internalType": "string[]",
          "name": "",
          "type": "string[]"
        }
      ],
      "stateMutability": "view",
      "type": "function"
    },
    {
      "inputs": [
        {
          "internalType": "uint256",
          "name": "electionId",
          "type": "uint256"
        }
      ],
      "name": "getElectionVoted",
      "outputs": [
        {
          "internalType": "uint256",
          "name": "count",
          "type": "uint256"
        }
      ],
      "stateMutability": "view",
      "type": "function"
    },
    {
      "inputs": [
        {
          "internalType": "bytes32",
          "name": "role",
          "type": "bytes32"
        }
      ],
      "name": "getRoleAdmin",
      "outputs": [
        {
          "internalType": "bytes32",
          "name": "",
          "type": "bytes32"
        }
      ],
      "stateMutability": "view",
      "type": "function"
    },
    {
      "inputs": [
        {
          "internalType": "bytes32",
          "name": "role",
          "type": "bytes32"
        },
        {
          "internalType": "address",
          "name": "account",
          "type": "address"
        }
      ],
      "name": "grantRole",
      "outputs": [],
      "stateMutability": "nonpayable",
      "type": "function"
    },
    {
      "inputs": [
        {
          "internalType": "bytes32",
          "name": "role",
          "type": "bytes32"
        },
        {
          "internalType": "address",
          "name": "account",
          "type": "address"
        }
      ],
      "name": "hasRole",
      "outputs": [
        {
          "internalType": "bool",
          "name": "",
          "type": "bool"
        }
      ],
      "stateMutability": "view",
      "type": "function"
    },
    {
      "inputs": [
        {
          "internalType": "uint256",
          "name": "electionId",
          "type": "uint256"
        },
        {
          "internalType": "address",
          "name": "_sender",
          "type": "address"
        }
      ],
      "name": "hasVoted",
      "outputs": [
        {
          "internalType": "bool",
          "name": "",
          "type": "bool"
        }
      ],
      "stateMutability": "view",
      "type": "function"
    },
    {
      "inputs": [
        {
          "internalType": "uint256",
          "name": "electionId",
          "type": "uint256"
        },
        {
          "internalType": "address",
          "name": "_sender",
          "type": "address"
        }
      ],
      "name": "isElectionAdmin",
      "outputs": [
        {
          "internalType": "bool",
          "name": "",
          "type": "bool"
        }
      ],
      "stateMutability": "view",
      "type": "function"
    },
    {
      "inputs": [
        {
          "internalType": "uint256",
          "name": "electionId",
          "type": "uint256"
        },
        {
          "internalType": "address",
          "name": "_sender",
          "type": "address"
        }
      ],
      "name": "isElectionCandidate",
      "outputs": [
        {
          "internalType": "bool",
          "name": "status",
          "type": "bool"
        }
      ],
      "stateMutability": "view",
      "type": "function"
    },
    {
      "inputs": [
        {
          "internalType": "string",
          "name": "_name",
          "type": "string"
        },
        {
          "internalType": "uint256",
          "name": "_funds",
          "type": "uint256"
        },
        {
          "internalType": "string",
          "name": "_type",
          "type": "string"
        },
        {
          "internalType": "uint256",
          "name": "_votes",
          "type": "uint256"
        },
        {
          "internalType": "address[]",
          "name": "_adrs",
          "type": "address[]"
        }
      ],
      "name": "newElection",
      "outputs": [
        {
          "internalType": "uint256",
          "name": "electionId",
          "type": "uint256"
        }
      ],
      "stateMutability": "nonpayable",
      "type": "function"
    },
    {
      "inputs": [],
      "name": "numElections",
      "outputs": [
        {
          "internalType": "uint256",
          "name": "",
          "type": "uint256"
        }
      ],
      "stateMutability": "view",
      "type": "function"
    },
    {
      "inputs": [],
      "name": "owner",
      "outputs": [
        {
          "internalType": "address",
          "name": "",
          "type": "address"
        }
      ],
      "stateMutability": "view",
      "type": "function"
    },
    {
      "inputs": [
        {
          "internalType": "uint256",
          "name": "electionId",
          "type": "uint256"
        },
        {
          "internalType": "address[]",
          "name": "_adrs",
          "type": "address[]"
        },
        {
          "internalType": "uint256[]",
          "name": "_pay",
          "type": "uint256[]"
        }
      ],
      "name": "payoutElection",
      "outputs": [],
      "stateMutability": "payable",
      "type": "function"
    },
    {
      "inputs": [],
      "name": "renounceOwnership",
      "outputs": [],
      "stateMutability": "nonpayable",
      "type": "function"
    },
    {
      "inputs": [
        {
          "internalType": "bytes32",
          "name": "role",
          "type": "bytes32"
        },
        {
          "internalType": "address",
          "name": "account",
          "type": "address"
        }
      ],
      "name": "renounceRole",
      "outputs": [],
      "stateMutability": "nonpayable",
      "type": "function"
    },
    {
      "inputs": [
        {
          "internalType": "bytes32",
          "name": "role",
          "type": "bytes32"
        },
        {
          "internalType": "address",
          "name": "account",
          "type": "address"
        }
      ],
      "name": "revokeRole",
      "outputs": [],
      "stateMutability": "nonpayable",
      "type": "function"
    },
    {
      "inputs": [
        {
          "internalType": "bytes4",
          "name": "interfaceId",
          "type": "bytes4"
        }
      ],
      "name": "supportsInterface",
      "outputs": [
        {
          "internalType": "bool",
          "name": "",
          "type": "bool"
        }
      ],
      "stateMutability": "view",
      "type": "function"
    },
    {
      "inputs": [
        {
          "internalType": "address",
          "name": "newOwner",
          "type": "address"
        }
      ],
      "name": "transferOwnership",
      "outputs": [],
      "stateMutability": "nonpayable",
      "type": "function"
    }
  ],
  "bytecode": "0x608060405260028054731f9840a85d5af5bf1d1762f925bdaddc4201f9846001600160a01b031991821681179092556003805490911690911790553480156200004757600080fd5b50620000533362000066565b62000060600033620000b8565b62000168565b600180546001600160a01b038381166001600160a01b0319831681179093556040519116919082907f8be0079c531659141344cd1fd0a4f28419497f9722a3daafe3b4186f6b6457e090600090a35050565b620000c48282620000c8565b5050565b6000828152602081815260408083206001600160a01b038516845290915290205460ff16620000c4576000828152602081815260408083206001600160a01b03851684529091529020805460ff19166001179055620001243390565b6001600160a01b0316816001600160a01b0316837f2f8788117e7eff1d82e926ec794901d17c78024a50270940304540a733656f0d60405160405180910390a45050565b6127d180620001786000396000f3fe6080604052600436106101665760003560e01c80636e38d9bd116100d1578063a217fddf1161008a578063cdb2867b11610064578063cdb2867b146104c2578063d547741f146104e2578063ea3c6cde14610502578063f2fde38b1461052257600080fd5b8063a217fddf14610430578063be70a00914610445578063c6958b121461048c57600080fd5b80636e38d9bd1461035e578063715018a6146103745780638da5cb5b1461038957806391b84f16146103b157806391d14854146103f05780639c98bcbb1461041057600080fd5b806336568abe1161012357806336568abe146102605780633ac9fc111461028057806343859632146102a05780634548e52b146102ea57806352e968ad1461030a5780635e6fef011461032a57600080fd5b806301ffc9a71461016b57806308108288146101a05780630ece86d0146101cd578063248a9ca3146101e25780632f2ff15d1461022057806334a22bc914610240575b600080fd5b34801561017757600080fd5b5061018b610186366004612054565b610542565b60405190151581526020015b60405180910390f35b3480156101ac57600080fd5b506101c06101bb366004612114565b610579565b60405161019791906124e0565b6101e06101db366004612205565b610673565b005b3480156101ee57600080fd5b506102126101fd366004612011565b60009081526020819052604090206001015490565b604051908152602001610197565b34801561022c57600080fd5b506101e061023b366004612029565b61088f565b34801561024c57600080fd5b5061021261025b36600461207c565b6108ba565b34801561026c57600080fd5b506101e061027b366004612029565b6109af565b34801561028c57600080fd5b506101e061029b366004612011565b610a2d565b3480156102ac57600080fd5b5061018b6102bb366004612114565b60008281526005602090815260408083206001600160a01b038516845260080190915290205460ff1692915050565b3480156102f657600080fd5b506101e0610305366004612126565b610ac9565b34801561031657600080fd5b50610212610325366004612011565b610dd9565b34801561033657600080fd5b5061034a610345366004612011565b610e8c565b60405161019798979695949392919061258b565b34801561036a57600080fd5b5061021260045481565b34801561038057600080fd5b506101e0610ff0565b34801561039557600080fd5b506001546040516001600160a01b039091168152602001610197565b3480156103bd57600080fd5b5061018b6103cc366004612114565b600091825260056020526040909120600701546001600160a01b0390811691161490565b3480156103fc57600080fd5b5061018b61040b366004612029565b611056565b34801561041c57600080fd5b506101e061042b366004612011565b61107f565b34801561043c57600080fd5b50610212600081565b34801561045157600080fd5b50610212610460366004612114565b60008281526005602090815260408083206001600160a01b0385168452600a0190915290205492915050565b34801561049857600080fd5b506104ac6104a7366004612011565b611193565b6040516101979a99989796959493929190612506565b3480156104ce57600080fd5b5061018b6104dd366004612114565b6113bb565b3480156104ee57600080fd5b506101e06104fd366004612029565b61144a565b34801561050e57600080fd5b5061018b61051d366004612114565b611470565b34801561052e57600080fd5b506101e061053d366004611fd7565b6114f8565b60006001600160e01b03198216637965db0b60e01b148061057357506301ffc9a760e01b6001600160e01b03198316145b92915050565b60008281526005602090815260408083206001600160a01b03851684526009018252808320805482518185028101850190935280835260609492939192909184015b828210156106675783829060005260206000200180546105da906126ff565b80601f0160208091040260200160405190810160405280929190818152602001828054610606906126ff565b80156106535780601f1061062857610100808354040283529160200191610653565b820191906000526020600020905b81548152906001019060200180831161063657829003601f168201915b5050505050815260200190600101906105bb565b50505050905092915050565b8261068c60008051602061277c83398151915233611056565b6106b15760405162461bcd60e51b81526004016106a8906125f5565b60405180910390fd5b6000818152600560205260409020600701546001600160a01b031633146106ea5760405162461bcd60e51b81526004016106a8906125f5565b60008481526005602052604090206001015460ff16156107455760405162461bcd60e51b8152602060048201526016602482015275456c656374696f6e205374696c6c204163746976652160501b60448201526064016106a8565b604080518082018252600381526208aa8960eb1b6020918201526000868152600591829052828120925190927faaaebeba3810b1e6b70781f14b2d72c1cb89c0b2b320c43bb67ff79f562f5ff49261079f9291019061238c565b604051809103902014156107bf576107b88585856115c3565b9050610832565b604080518082018252600381526247544360e81b602091820152600087815260059182905282902091517f7438d7d73ec9e46da3d0aa51b56d02f7e7bc34bd8939d3f4c05474ab1961f8e59261081692019061238c565b604051809103902014156108325761082f85858561180d565b90505b600085815260056020908152604091829020600101805461ff0019166101008515150217905590518681527fb27761a3b9064636a27795816e4f8a8e5cadd6ac8b1e3a553bd47bf414c2b402910160405180910390a15050505050565b6000828152602081905260409020600101546108ab81336119d3565b6108b58383611a37565b505050565b60048054600091826108cb83612734565b9091555060008181526005602090815260409091208851929350916108f5918391908a0190611dec565b506004810186905584516109129060058301906020880190611dec565b5060068101849055825161092f9060038301906020860190611e70565b504260028201556001808201805460ff191690911790556007810180546001600160a01b0319163317905561096383611abb565b61096c33611b2a565b60408051338152602081018490527fc91fe4766a7a928d6625f66818425dc115b03c854a8ed8d28de2f34a684e0f1a910160405180910390a15095945050505050565b6001600160a01b0381163314610a1f5760405162461bcd60e51b815260206004820152602f60248201527f416363657373436f6e74726f6c3a2063616e206f6e6c792072656e6f756e636560448201526e103937b632b9903337b91039b2b63360891b60648201526084016106a8565b610a298282611b42565b5050565b60035460008281526005602052604090819020600490810154915163095ea7b360e01b8152309181019190915260248101919091526001600160a01b039091169063095ea7b390604401602060405180830381600087803b158015610a9157600080fd5b505af1158015610aa5573d6000803e3d6000fd5b505050506040513d601f19601f82011682018060405250810190610a299190611ff1565b82610af47f9096faa56698daa37ec8d3542ff829c66d5e81213bd6faab8ba4e9ce824a5def33611056565b610b405760405162461bcd60e51b815260206004820152601e60248201527f53656e646572206e6f7420456c656374696f6e2043616e64696461746521000060448201526064016106a8565b610b4a8133611470565b610b965760405162461bcd60e51b815260206004820152601e60248201527f53656e646572206e6f7420456c656374696f6e2043616e64696461746521000060448201526064016106a8565b60008481526005602052604090206001015484908490849060ff16610bf45760405162461bcd60e51b8152602060048201526014602482015273456c656374696f6e204e6f74204163746976652160601b60448201526064016106a8565b600083815260056020908152604080832033845260080190915290205460ff1615610c595760405162461bcd60e51b815260206004820152601560248201527453656e64657220616c726561647920766f7465642160581b60448201526064016106a8565b8151815114610caa5760405162461bcd60e51b815260206004820181905260248201527f53636f7265732043616e64696461746520436f756e74204d69736d617463682160448201526064016106a8565b6000878152600560205260408120905b8751811015610d7657816009016000898381518110610ce957634e487b7160e01b600052603260045260246000fd5b60200260200101516001600160a01b03166001600160a01b03168152602001908152602001600020878281518110610d3157634e487b7160e01b600052603260045260246000fd5b60209081029190910181015182546001810184556000938452928290208151610d639491909101929190910190611dec565b5080610d6e81612734565b915050610cba565b5033600081815260088301602052604090819020805460ff19166001179055517faaf8175507b94c84621088891ecf31ca1c2548c0aeab2f2f21d3459515f9c4ed91610dc7918b908b908b9061249c565b60405180910390a15050505050505050565b6000805b600083815260056020526040902060030154811015610e86576000838152600560205260408120600301805483908110610e2757634e487b7160e01b600052603260045260246000fd5b60009182526020808320909101548683526005825260408084206001600160a01b03909216808552600890920190925291205490915060ff1615610e735782610e6f81612734565b9350505b5080610e7e81612734565b915050610ddd565b50919050565b600560205260009081526040902080548190610ea7906126ff565b80601f0160208091040260200160405190810160405280929190818152602001828054610ed3906126ff565b8015610f205780601f10610ef557610100808354040283529160200191610f20565b820191906000526020600020905b815481529060010190602001808311610f0357829003601f168201915b505050600184015460028501546004860154600587018054969760ff808616986101009096041696509294509092610f57906126ff565b80601f0160208091040260200160405190810160405280929190818152602001828054610f83906126ff565b8015610fd05780601f10610fa557610100808354040283529160200191610fd0565b820191906000526020600020905b815481529060010190602001808311610fb357829003601f168201915b5050505060068301546007909301549192916001600160a01b0316905088565b6001546001600160a01b0316331461104a5760405162461bcd60e51b815260206004820181905260248201527f4f776e61626c653a2063616c6c6572206973206e6f7420746865206f776e657260448201526064016106a8565b6110546000611ba7565b565b6000918252602082815260408084206001600160a01b0393909316845291905290205460ff1690565b8061109860008051602061277c83398151915233611056565b6110b45760405162461bcd60e51b81526004016106a8906125f5565b6000818152600560205260409020600701546001600160a01b031633146110ed5760405162461bcd60e51b81526004016106a8906125f5565b6000828152600560205260409020600181015460ff1661114f5760405162461bcd60e51b815260206004820152601760248201527f456c656374696f6e20416c726561647920456e6465642100000000000000000060448201526064016106a8565b60018101805460ff191690556040518381527f562cd572b2ba3b666cd989fc4ca98419ec81e75f04528df9d9d76fdb7807ee719060200160405180910390a1505050565b60608060008060006060600080600080600560008c815260200190815260200160002060000180546111c4906126ff565b80601f01602080910402602001604051908101604052809291908181526020018280546111f0906126ff565b801561123d5780601f106112125761010080835404028352916020019161123d565b820191906000526020600020905b81548152906001019060200180831161122057829003601f168201915b50505050509950600560008c81526020019081526020016000206003018054806020026020016040519081016040528092919081815260200182805480156112ae57602002820191906000526020600020905b81546001600160a01b03168152600190910190602001808311611290575b50505060008e8152600560208190526040909120600381015460028201546004830154929093018054969f50909d50919b509950926112ef925090506126ff565b80601f016020809104026020016040519081016040528092919081815260200182805461131b906126ff565b80156113685780601f1061133d57610100808354040283529160200191611368565b820191906000526020600020905b81548152906001019060200180831161134b57829003601f168201915b50505060009d8e52505060056020526040909b20600681015460078201546001909201549b9d9a9c999b989a97999890976001600160a01b03909216965060ff8082169650610100909104169350915050565b6000805b60008481526005602052604090206003015481101561144357600084815260056020526040812060030180548390811061140957634e487b7160e01b600052603260045260246000fd5b6000918252602090912001546001600160a01b039081169150841681141561143057600192505b508061143b81612734565b9150506113bf565b5092915050565b60008281526020819052604090206001015461146681336119d3565b6108b58383611b42565b6000805b6000848152600560205260409020600301548110156114435760008481526005602052604090206003018054829081106114be57634e487b7160e01b600052603260045260246000fd5b6000918252602090912001546001600160a01b03848116911614156114e65760019150611443565b806114f081612734565b915050611474565b6001546001600160a01b031633146115525760405162461bcd60e51b815260206004820181905260248201527f4f776e61626c653a2063616c6c6572206973206e6f7420746865206f776e657260448201526064016106a8565b6001600160a01b0381166115b75760405162461bcd60e51b815260206004820152602660248201527f4f776e61626c653a206e6577206f776e657220697320746865207a65726f206160448201526564647265737360d01b60648201526084016106a8565b6115c081611ba7565b50565b6000836115de60008051602061277c83398151915233611056565b6115fa5760405162461bcd60e51b81526004016106a8906125f5565b6000818152600560205260409020600701546001600160a01b031633146116335760405162461bcd60e51b81526004016106a8906125f5565b60008060005b6000888152600560205260409020600301548110156117615786818151811061167257634e487b7160e01b600052603260045260246000fd5b60200260200101516001600160a01b0316600560008a815260200190815260200160002060030182815481106116b857634e487b7160e01b600052603260045260246000fd5b6000918252602090912001546001600160a01b03161461171a5760405162461bcd60e51b815260206004820152601a60248201527f456c656374696f6e2d41646472657373204d69736d617463682100000000000060448201526064016106a8565b85818151811061173a57634e487b7160e01b600052603260045260246000fd5b60200260200101518361174d9190612681565b92508061175981612734565b915050611639565b5060005b85518110156118025786818151811061178e57634e487b7160e01b600052603260045260246000fd5b60200260200101516001600160a01b03166108fc8783815181106117c257634e487b7160e01b600052603260045260246000fd5b602002602001015160016117d69190612699565b6040518115909202916000818181858888f19350505050915080806117fa90612734565b915050611765565b509695505050505050565b60035460008481526005602052604080822060049081015491516323b872dd60e01b81523391810191909152306024820152604481019190915290916001600160a01b0316906323b872dd90606401602060405180830381600087803b15801561187657600080fd5b505af115801561188a573d6000803e3d6000fd5b505050506040513d601f19601f820116820180604052508101906118ae9190611ff1565b5060005b6000858152600560205260409020600301548110156119c85760035484516001600160a01b039091169063a9059cbb9086908490811061190257634e487b7160e01b600052603260045260246000fd5b602002602001015185848151811061192a57634e487b7160e01b600052603260045260246000fd5b60200260200101516040518363ffffffff1660e01b81526004016119639291906001600160a01b03929092168252602082015260400190565b602060405180830381600087803b15801561197d57600080fd5b505af1158015611991573d6000803e3d6000fd5b505050506040513d601f19601f820116820180604052508101906119b59190611ff1565b50806119c081612734565b9150506118b2565b506001949350505050565b6119dd8282611056565b610a29576119f5816001600160a01b03166014611bf9565b611a00836020611bf9565b604051602001611a11929190612427565b60408051601f198184030181529082905262461bcd60e51b82526106a8916004016124f3565b611a418282611056565b610a29576000828152602081815260408083206001600160a01b03851684529091529020805460ff19166001179055611a773390565b6001600160a01b0316816001600160a01b0316837f2f8788117e7eff1d82e926ec794901d17c78024a50270940304540a733656f0d60405160405180910390a45050565b60005b8151811015610a2957611b187f9096faa56698daa37ec8d3542ff829c66d5e81213bd6faab8ba4e9ce824a5def838381518110611b0b57634e487b7160e01b600052603260045260246000fd5b6020026020010151611de2565b80611b2281612734565b915050611abe565b6115c060008051602061277c83398151915282611de2565b611b4c8282611056565b15610a29576000828152602081815260408083206001600160a01b0385168085529252808320805460ff1916905551339285917ff6391f5c32d9c69d2a47ea670b442974b53935d1edc7fd64eb21e047a839171b9190a45050565b600180546001600160a01b038381166001600160a01b0319831681179093556040519116919082907f8be0079c531659141344cd1fd0a4f28419497f9722a3daafe3b4186f6b6457e090600090a35050565b60606000611c08836002612699565b611c13906002612681565b67ffffffffffffffff811115611c3957634e487b7160e01b600052604160045260246000fd5b6040519080825280601f01601f191660200182016040528015611c63576020820181803683370190505b509050600360fc1b81600081518110611c8c57634e487b7160e01b600052603260045260246000fd5b60200101906001600160f81b031916908160001a905350600f60fb1b81600181518110611cc957634e487b7160e01b600052603260045260246000fd5b60200101906001600160f81b031916908160001a9053506000611ced846002612699565b611cf8906001612681565b90505b6001811115611d8c576f181899199a1a9b1b9c1cb0b131b232b360811b85600f1660108110611d3a57634e487b7160e01b600052603260045260246000fd5b1a60f81b828281518110611d5e57634e487b7160e01b600052603260045260246000fd5b60200101906001600160f81b031916908160001a90535060049490941c93611d85816126e8565b9050611cfb565b508315611ddb5760405162461bcd60e51b815260206004820181905260248201527f537472696e67733a20686578206c656e67746820696e73756666696369656e7460448201526064016106a8565b9392505050565b610a298282611a37565b828054611df8906126ff565b90600052602060002090601f016020900481019282611e1a5760008555611e60565b82601f10611e3357805160ff1916838001178555611e60565b82800160010185558215611e60579182015b82811115611e60578251825591602001919060010190611e45565b50611e6c929150611ec5565b5090565b828054828255906000526020600020908101928215611e60579160200282015b82811115611e6057825182546001600160a01b0319166001600160a01b03909116178255602090920191600190910190611e90565b5b80821115611e6c5760008155600101611ec6565b80356001600160a01b0381168114611ef157600080fd5b919050565b600082601f830112611f06578081fd5b81356020611f1b611f168361265d565b61262c565b80838252828201915082860187848660051b8901011115611f3a578586fd5b855b85811015611f5f57611f4d82611eda565b84529284019290840190600101611f3c565b5090979650505050505050565b600082601f830112611f7c578081fd5b813567ffffffffffffffff811115611f9657611f96612765565b611fa9601f8201601f191660200161262c565b818152846020838601011115611fbd578283fd5b816020850160208301379081016020019190915292915050565b600060208284031215611fe8578081fd5b611ddb82611eda565b600060208284031215612002578081fd5b81518015158114611ddb578182fd5b600060208284031215612022578081fd5b5035919050565b6000806040838503121561203b578081fd5b8235915061204b60208401611eda565b90509250929050565b600060208284031215612065578081fd5b81356001600160e01b031981168114611ddb578182fd5b600080600080600060a08688031215612093578081fd5b853567ffffffffffffffff808211156120aa578283fd5b6120b689838a01611f6c565b96506020880135955060408801359150808211156120d2578283fd5b6120de89838a01611f6c565b94506060880135935060808801359150808211156120fa578283fd5b5061210788828901611ef6565b9150509295509295909350565b6000806040838503121561203b578182fd5b60008060006060848603121561213a578283fd5b8335925060208085013567ffffffffffffffff80821115612159578485fd5b61216588838901611ef6565b9450604087013591508082111561217a578384fd5b818701915087601f83011261218d578384fd5b813561219b611f168261265d565b8082825285820191508585018b878560051b88010111156121ba578788fd5b875b848110156121f3578135868111156121d257898afd5b6121e08e8a838b0101611f6c565b85525092870192908701906001016121bc565b50508096505050505050509250925092565b600080600060608486031215612219578081fd5b8335925060208085013567ffffffffffffffff80821115612238578384fd5b61224488838901611ef6565b94506040870135915080821115612259578384fd5b508501601f8101871361226a578283fd5b8035612278611f168261265d565b8082825284820191508484018a868560051b8701011115612297578687fd5b8694505b838510156122b957803583526001949094019391850191850161229b565b5080955050505050509250925092565b6000815180845260208085019450808401835b838110156123015781516001600160a01b0316875295820195908201906001016122dc565b509495945050505050565b600081518084526020808501808196508360051b81019150828601855b85811015612353578284038952612341848351612360565b98850198935090840190600101612329565b5091979650505050505050565b600081518084526123788160208601602086016126b8565b601f01601f19169290920160200192915050565b600080835482600182811c9150808316806123a857607f831692505b60208084108214156123c857634e487b7160e01b87526022600452602487fd5b8180156123dc57600181146123ed57612419565b60ff19861689528489019650612419565b60008a815260209020885b868110156124115781548b8201529085019083016123f8565b505084890196505b509498975050505050505050565b7f416363657373436f6e74726f6c3a206163636f756e742000000000000000000081526000835161245f8160178501602088016126b8565b7001034b99036b4b9b9b4b733903937b6329607d1b60179184019182015283516124908160288401602088016126b8565b01602801949350505050565b60018060a01b03851681528360208201526080604082015260006124c360808301856122c9565b82810360608401526124d5818561230c565b979650505050505050565b602081526000611ddb602083018461230c565b602081526000611ddb6020830184612360565b600061014080835261251a8184018e612360565b9050828103602084015261252e818d6122c9565b90508a604084015289606084015288608084015282810360a08401526125548189612360565b60c084019790975250506001600160a01b039390931660e08401529015156101008301521515610120909101529695505050505050565b600061010080835261259f8184018c612360565b90508915156020840152881515604084015287606084015286608084015282810360a08401526125cf8187612360565b60c084019590955250506001600160a01b039190911660e0909101529695505050505050565b6020808252601a908201527f53656e646572206e6f7420456c656374696f6e2041646d696e21000000000000604082015260600190565b604051601f8201601f1916810167ffffffffffffffff8111828210171561265557612655612765565b604052919050565b600067ffffffffffffffff82111561267757612677612765565b5060051b60200190565b600082198211156126945761269461274f565b500190565b60008160001904831182151516156126b3576126b361274f565b500290565b60005b838110156126d35781810151838201526020016126bb565b838111156126e2576000848401525b50505050565b6000816126f7576126f761274f565b506000190190565b600181811c9082168061271357607f821691505b60208210811415610e8657634e487b7160e01b600052602260045260246000fd5b60006000198214156127485761274861274f565b5060010190565b634e487b7160e01b600052601160045260246000fd5b634e487b7160e01b600052604160045260246000fdfe16f50c1fe196fa8f2d59c3eca367f2f7bf83b35c12ed36436b26d5af3695f5c4a2646970667358221220cfb2c3c022a94b2d279ac450e2a0d6373ca75a0fe0b7e23155ccd4d3e10a94e564736f6c63430008040033",
  "linkReferences": {},
  "deployedLinkReferences": {}
}