{
  "_format": "hh-sol-artifact-1",
  "contractName": "Diplomacy",
  "sourceName": "contracts/Diplomacy.sol",
  "abi": [
    {
      "inputs": [],
      "stateMutability": "nonpayable",
      "type": "constructor"
    },
    {
      "anonymous": false,
      "inputs": [
        {
          "indexed": false,
          "internalType": "address",
          "name": "voter",
          "type": "address"
        },
        {
          "indexed": false,
          "internalType": "uint256",
          "name": "electionId",
          "type": "uint256"
        },
        {
          "indexed": false,
          "internalType": "address[]",
          "name": "adrs",
          "type": "address[]"
        },
        {
          "indexed": false,
          "internalType": "string[]",
          "name": "scores",
          "type": "string[]"
        }
      ],
      "name": "BallotCast",
      "type": "event"
    },
    {
      "anonymous": false,
      "inputs": [
        {
          "indexed": false,
          "internalType": "address",
          "name": "creator",
          "type": "address"
        },
        {
          "indexed": false,
          "internalType": "uint256",
          "name": "electionId",
          "type": "uint256"
        }
      ],
      "name": "ElectionCreated",
      "type": "event"
    },
    {
      "anonymous": false,
      "inputs": [
        {
          "indexed": false,
          "internalType": "uint256",
          "name": "electionId",
          "type": "uint256"
        }
      ],
      "name": "ElectionEnded",
      "type": "event"
    },
    {
      "anonymous": false,
      "inputs": [
        {
          "indexed": false,
          "internalType": "uint256",
          "name": "electionId",
          "type": "uint256"
        }
      ],
      "name": "ElectionPaid",
      "type": "event"
    },
    {
      "anonymous": false,
      "inputs": [
        {
          "indexed": true,
          "internalType": "address",
          "name": "previousOwner",
          "type": "address"
        },
        {
          "indexed": true,
          "internalType": "address",
          "name": "newOwner",
          "type": "address"
        }
      ],
      "name": "OwnershipTransferred",
      "type": "event"
    },
    {
      "anonymous": false,
      "inputs": [
        {
          "indexed": true,
          "internalType": "bytes32",
          "name": "role",
          "type": "bytes32"
        },
        {
          "indexed": true,
          "internalType": "bytes32",
          "name": "previousAdminRole",
          "type": "bytes32"
        },
        {
          "indexed": true,
          "internalType": "bytes32",
          "name": "newAdminRole",
          "type": "bytes32"
        }
      ],
      "name": "RoleAdminChanged",
      "type": "event"
    },
    {
      "anonymous": false,
      "inputs": [
        {
          "indexed": true,
          "internalType": "bytes32",
          "name": "role",
          "type": "bytes32"
        },
        {
          "indexed": true,
          "internalType": "address",
          "name": "account",
          "type": "address"
        },
        {
          "indexed": true,
          "internalType": "address",
          "name": "sender",
          "type": "address"
        }
      ],
      "name": "RoleGranted",
      "type": "event"
    },
    {
      "anonymous": false,
      "inputs": [
        {
          "indexed": true,
          "internalType": "bytes32",
          "name": "role",
          "type": "bytes32"
        },
        {
          "indexed": true,
          "internalType": "address",
          "name": "account",
          "type": "address"
        },
        {
          "indexed": true,
          "internalType": "address",
          "name": "sender",
          "type": "address"
        }
      ],
      "name": "RoleRevoked",
      "type": "event"
    },
    {
      "inputs": [],
      "name": "DEFAULT_ADMIN_ROLE",
      "outputs": [
        {
          "internalType": "bytes32",
          "name": "",
          "type": "bytes32"
        }
      ],
      "stateMutability": "view",
      "type": "function"
    },
    {
      "inputs": [
        {
          "internalType": "uint256",
          "name": "electionId",
          "type": "uint256"
        },
        {
          "internalType": "address",
          "name": "_sender",
          "type": "address"
        }
      ],
      "name": "canVote",
      "outputs": [
        {
          "internalType": "bool",
          "name": "status",
          "type": "bool"
        }
      ],
      "stateMutability": "view",
      "type": "function"
    },
    {
      "inputs": [
        {
          "internalType": "uint256",
          "name": "electionId",
          "type": "uint256"
        },
        {
          "internalType": "address[]",
          "name": "_adrs",
          "type": "address[]"
        },
        {
          "internalType": "string[]",
          "name": "_scores",
          "type": "string[]"
        }
      ],
      "name": "castBallot",
      "outputs": [],
      "stateMutability": "nonpayable",
      "type": "function"
    },
    {
      "inputs": [
        {
          "internalType": "uint256",
          "name": "",
          "type": "uint256"
        }
      ],
      "name": "elections",
      "outputs": [
        {
          "internalType": "string",
          "name": "name",
          "type": "string"
        },
        {
          "internalType": "bool",
          "name": "active",
          "type": "bool"
        },
        {
          "internalType": "bool",
          "name": "paid",
          "type": "bool"
        },
        {
          "internalType": "uint256",
          "name": "createdAt",
          "type": "uint256"
        },
        {
          "internalType": "uint256",
          "name": "funds",
          "type": "uint256"
        },
        {
          "internalType": "uint256",
          "name": "votes",
          "type": "uint256"
        },
        {
          "internalType": "address",
          "name": "admin",
          "type": "address"
        }
      ],
      "stateMutability": "view",
      "type": "function"
    },
    {
      "inputs": [
        {
          "internalType": "uint256",
          "name": "electionId",
          "type": "uint256"
        }
      ],
      "name": "endElection",
      "outputs": [],
      "stateMutability": "nonpayable",
      "type": "function"
    },
    {
      "inputs": [
        {
          "internalType": "uint256",
          "name": "electionId",
          "type": "uint256"
        }
      ],
      "name": "getElectionById",
      "outputs": [
        {
          "internalType": "string",
          "name": "name",
          "type": "string"
        },
        {
          "internalType": "address[]",
          "name": "candidates",
          "type": "address[]"
        },
        {
          "internalType": "uint256",
          "name": "n_addr",
          "type": "uint256"
        },
        {
          "internalType": "uint256",
          "name": "createdAt",
          "type": "uint256"
        },
        {
          "internalType": "uint256",
          "name": "funds",
          "type": "uint256"
        },
        {
          "internalType": "uint256",
          "name": "votes",
          "type": "uint256"
        },
        {
          "internalType": "address",
          "name": "admin",
          "type": "address"
        },
        {
          "internalType": "bool",
          "name": "isActive",
          "type": "bool"
        },
        {
          "internalType": "bool",
          "name": "paid",
          "type": "bool"
        }
      ],
      "stateMutability": "view",
      "type": "function"
    },
    {
      "inputs": [
        {
          "internalType": "uint256",
          "name": "electionId",
          "type": "uint256"
        },
        {
          "internalType": "address",
          "name": "_adr",
          "type": "address"
        }
      ],
      "name": "getElectionResults",
      "outputs": [
        {
          "internalType": "int256",
          "name": "",
          "type": "int256"
        }
      ],
      "stateMutability": "view",
      "type": "function"
    },
    {
      "inputs": [
        {
          "internalType": "uint256",
          "name": "electionId",
          "type": "uint256"
        },
        {
          "internalType": "address",
          "name": "_adr",
          "type": "address"
        }
      ],
      "name": "getElectionScores",
      "outputs": [
        {
          "internalType": "string[]",
          "name": "",
          "type": "string[]"
        }
      ],
      "stateMutability": "view",
      "type": "function"
    },
    {
      "inputs": [
        {
          "internalType": "uint256",
          "name": "electionId",
          "type": "uint256"
        }
      ],
      "name": "getElectionVoted",
      "outputs": [
        {
          "internalType": "uint256",
          "name": "count",
          "type": "uint256"
        }
      ],
      "stateMutability": "view",
      "type": "function"
    },
    {
      "inputs": [
        {
          "internalType": "bytes32",
          "name": "role",
          "type": "bytes32"
        }
      ],
      "name": "getRoleAdmin",
      "outputs": [
        {
          "internalType": "bytes32",
          "name": "",
          "type": "bytes32"
        }
      ],
      "stateMutability": "view",
      "type": "function"
    },
    {
      "inputs": [
        {
          "internalType": "bytes32",
          "name": "role",
          "type": "bytes32"
        },
        {
          "internalType": "address",
          "name": "account",
          "type": "address"
        }
      ],
      "name": "grantRole",
      "outputs": [],
      "stateMutability": "nonpayable",
      "type": "function"
    },
    {
      "inputs": [
        {
          "internalType": "bytes32",
          "name": "role",
          "type": "bytes32"
        },
        {
          "internalType": "address",
          "name": "account",
          "type": "address"
        }
      ],
      "name": "hasRole",
      "outputs": [
        {
          "internalType": "bool",
          "name": "",
          "type": "bool"
        }
      ],
      "stateMutability": "view",
      "type": "function"
    },
    {
      "inputs": [
        {
          "internalType": "uint256",
          "name": "electionId",
          "type": "uint256"
        },
        {
          "internalType": "address",
          "name": "_sender",
          "type": "address"
        }
      ],
      "name": "hasVoted",
      "outputs": [
        {
          "internalType": "bool",
          "name": "",
          "type": "bool"
        }
      ],
      "stateMutability": "view",
      "type": "function"
    },
    {
      "inputs": [
        {
          "internalType": "uint256",
          "name": "electionId",
          "type": "uint256"
        },
        {
          "internalType": "address",
          "name": "_sender",
          "type": "address"
        }
      ],
      "name": "isElectionAdmin",
      "outputs": [
        {
          "internalType": "bool",
          "name": "",
          "type": "bool"
        }
      ],
      "stateMutability": "view",
      "type": "function"
    },
    {
      "inputs": [
        {
          "internalType": "uint256",
          "name": "electionId",
          "type": "uint256"
        },
        {
          "internalType": "address",
          "name": "_sender",
          "type": "address"
        }
      ],
      "name": "isElectionCandidate",
      "outputs": [
        {
          "internalType": "bool",
          "name": "status",
          "type": "bool"
        }
      ],
      "stateMutability": "view",
      "type": "function"
    },
    {
      "inputs": [
        {
          "internalType": "string",
          "name": "_name",
          "type": "string"
        },
        {
          "internalType": "uint256",
          "name": "_funds",
          "type": "uint256"
        },
        {
          "internalType": "uint256",
          "name": "_votes",
          "type": "uint256"
        },
        {
          "internalType": "address[]",
          "name": "_adrs",
          "type": "address[]"
        }
      ],
      "name": "newElection",
      "outputs": [
        {
          "internalType": "uint256",
          "name": "electionId",
          "type": "uint256"
        }
      ],
      "stateMutability": "nonpayable",
      "type": "function"
    },
    {
      "inputs": [],
      "name": "numElections",
      "outputs": [
        {
          "internalType": "uint256",
          "name": "",
          "type": "uint256"
        }
      ],
      "stateMutability": "view",
      "type": "function"
    },
    {
      "inputs": [],
      "name": "owner",
      "outputs": [
        {
          "internalType": "address",
          "name": "",
          "type": "address"
        }
      ],
      "stateMutability": "view",
      "type": "function"
    },
    {
      "inputs": [
        {
          "internalType": "uint256",
          "name": "electionId",
          "type": "uint256"
        },
        {
          "internalType": "address[]",
          "name": "_adrs",
          "type": "address[]"
        },
        {
          "internalType": "uint256[]",
          "name": "_pay",
          "type": "uint256[]"
        }
      ],
      "name": "payoutElection",
      "outputs": [],
      "stateMutability": "payable",
      "type": "function"
    },
    {
      "inputs": [],
      "name": "renounceOwnership",
      "outputs": [],
      "stateMutability": "nonpayable",
      "type": "function"
    },
    {
      "inputs": [
        {
          "internalType": "bytes32",
          "name": "role",
          "type": "bytes32"
        },
        {
          "internalType": "address",
          "name": "account",
          "type": "address"
        }
      ],
      "name": "renounceRole",
      "outputs": [],
      "stateMutability": "nonpayable",
      "type": "function"
    },
    {
      "inputs": [
        {
          "internalType": "bytes32",
          "name": "role",
          "type": "bytes32"
        },
        {
          "internalType": "address",
          "name": "account",
          "type": "address"
        }
      ],
      "name": "revokeRole",
      "outputs": [],
      "stateMutability": "nonpayable",
      "type": "function"
    },
    {
      "inputs": [
        {
          "internalType": "bytes4",
          "name": "interfaceId",
          "type": "bytes4"
        }
      ],
      "name": "supportsInterface",
      "outputs": [
        {
          "internalType": "bool",
          "name": "",
          "type": "bool"
        }
      ],
      "stateMutability": "view",
      "type": "function"
    },
    {
      "inputs": [
        {
          "internalType": "address",
          "name": "newOwner",
          "type": "address"
        }
      ],
      "name": "transferOwnership",
      "outputs": [],
      "stateMutability": "nonpayable",
      "type": "function"
    }
  ],
  "bytecode": "0x60806040523480156200001157600080fd5b506200001d3362000030565b6200002a60003362000082565b62000132565b600180546001600160a01b038381166001600160a01b0319831681179093556040519116919082907f8be0079c531659141344cd1fd0a4f28419497f9722a3daafe3b4186f6b6457e090600090a35050565b6200008e828262000092565b5050565b6000828152602081815260408083206001600160a01b038516845290915290205460ff166200008e576000828152602081815260408083206001600160a01b03851684529091529020805460ff19166001179055620000ee3390565b6001600160a01b0316816001600160a01b0316837f2f8788117e7eff1d82e926ec794901d17c78024a50270940304540a733656f0d60405160405180910390a45050565b61218e80620001426000396000f3fe60806040526004361061014b5760003560e01c80637521f28c116100b6578063be70a0091161006f578063be70a00914610409578063c6958b1214610450578063cdb2867b14610485578063d547741f146104a5578063ea3c6cde146104c5578063f2fde38b146104e557600080fd5b80637521f28c1461032d5780638da5cb5b1461034d57806391b84f161461037557806391d14854146103b45780639c98bcbb146103d4578063a217fddf146103f457600080fd5b8063438596321161010857806343859632146102455780634548e52b1461028f57806352e968ad146102af5780635e6fef01146102cf5780636e38d9bd14610302578063715018a61461031857600080fd5b806301ffc9a71461015057806308108288146101855780630ece86d0146101b2578063248a9ca3146101c75780632f2ff15d1461020557806336568abe14610225575b600080fd5b34801561015c57600080fd5b5061017061016b366004611b24565b610505565b60405190151581526020015b60405180910390f35b34801561019157600080fd5b506101a56101a0366004611bc0565b61053c565b60405161017c9190611ef1565b6101c56101c0366004611cb1565b610636565b005b3480156101d357600080fd5b506101f76101e2366004611ae1565b60009081526020819052604090206001015490565b60405190815260200161017c565b34801561021157600080fd5b506101c5610220366004611af9565b610957565b34801561023157600080fd5b506101c5610240366004611af9565b610982565b34801561025157600080fd5b50610170610260366004611bc0565b60008281526003602090815260408083206001600160a01b038516845260070190915290205460ff1692915050565b34801561029b57600080fd5b506101c56102aa366004611bd2565b610a00565b3480156102bb57600080fd5b506101f76102ca366004611ae1565b610d10565b3480156102db57600080fd5b506102ef6102ea366004611ae1565b610dc4565b60405161017c9796959493929190611f85565b34801561030e57600080fd5b506101f760025481565b34801561032457600080fd5b506101c5610e96565b34801561033957600080fd5b506101f7610348366004611b4c565b610efc565b34801561035957600080fd5b506001546040516001600160a01b03909116815260200161017c565b34801561038157600080fd5b50610170610390366004611bc0565b600091825260036020526040909120600601546001600160a01b0390811691161490565b3480156103c057600080fd5b506101706103cf366004611af9565b610fda565b3480156103e057600080fd5b506101c56103ef366004611ae1565b611003565b34801561040057600080fd5b506101f7600081565b34801561041557600080fd5b506101f7610424366004611bc0565b60008281526003602090815260408083206001600160a01b038516845260090190915290205492915050565b34801561045c57600080fd5b5061047061046b366004611ae1565b611129565b60405161017c99989796959493929190611f17565b34801561049157600080fd5b506101706104a0366004611bc0565b6112a6565b3480156104b157600080fd5b506101c56104c0366004611af9565b611336565b3480156104d157600080fd5b506101706104e0366004611bc0565b61135c565b3480156104f157600080fd5b506101c5610500366004611ac7565b6113e6565b60006001600160e01b03198216637965db0b60e01b148061053657506301ffc9a760e01b6001600160e01b03198316145b92915050565b60008281526003602090815260408083206001600160a01b03851684526008018252808320805482518185028101850190935280835260609492939192909184015b8282101561062a57838290600052602060002001805461059d906120dc565b80601f01602080910402602001604051908101604052809291908181526020018280546105c9906120dc565b80156106165780601f106105eb57610100808354040283529160200191610616565b820191906000526020600020905b8154815290600101906020018083116105f957829003601f168201915b50505050508152602001906001019061057e565b50505050905092915050565b826106617f16f50c1fe196fa8f2d59c3eca367f2f7bf83b35c12ed36436b26d5af3695f5c433610fda565b6106865760405162461bcd60e51b815260040161067d90611fd2565b60405180910390fd5b6000818152600360205260409020600601546001600160a01b031633146106bf5760405162461bcd60e51b815260040161067d90611fd2565b60008481526003602052604090206001015460ff161561071a5760405162461bcd60e51b8152602060048201526016602482015275456c656374696f6e205374696c6c204163746976652160501b604482015260640161067d565b6000805b600086815260036020819052604090912001548110156108475784818151811061075857634e487b7160e01b600052603260045260246000fd5b60200260200101516001600160a01b031660036000888152602001908152602001600020600301828154811061079e57634e487b7160e01b600052603260045260246000fd5b6000918252602090912001546001600160a01b0316146108005760405162461bcd60e51b815260206004820152601a60248201527f456c656374696f6e2d41646472657373204d69736d6174636821000000000000604482015260640161067d565b83818151811061082057634e487b7160e01b600052603260045260246000fd5b602002602001015182610833919061205e565b91508061083f81612111565b91505061071e565b5060005b83518110156108f75784818151811061087457634e487b7160e01b600052603260045260246000fd5b60200260200101516001600160a01b03166108fc8583815181106108a857634e487b7160e01b600052603260045260246000fd5b602002602001015160016108bc9190612076565b6040518115909202916000818181858888f193505050501580156108e4573d6000803e3d6000fd5b50806108ef81612111565b91505061084b565b5060008581526003602052604090819020600101805461ff001916610100179055517fb27761a3b9064636a27795816e4f8a8e5cadd6ac8b1e3a553bd47bf414c2b402906109489087815260200190565b60405180910390a15050505050565b60008281526020819052604090206001015461097381336114b1565b61097d8383611515565b505050565b6001600160a01b03811633146109f25760405162461bcd60e51b815260206004820152602f60248201527f416363657373436f6e74726f6c3a2063616e206f6e6c792072656e6f756e636560448201526e103937b632b9903337b91039b2b63360891b606482015260840161067d565b6109fc8282611599565b5050565b82610a2b7f9096faa56698daa37ec8d3542ff829c66d5e81213bd6faab8ba4e9ce824a5def33610fda565b610a775760405162461bcd60e51b815260206004820152601e60248201527f53656e646572206e6f7420456c656374696f6e2043616e646964617465210000604482015260640161067d565b610a81813361135c565b610acd5760405162461bcd60e51b815260206004820152601e60248201527f53656e646572206e6f7420456c656374696f6e2043616e646964617465210000604482015260640161067d565b60008481526003602052604090206001015484908490849060ff16610b2b5760405162461bcd60e51b8152602060048201526014602482015273456c656374696f6e204e6f74204163746976652160601b604482015260640161067d565b600083815260036020908152604080832033845260070190915290205460ff1615610b905760405162461bcd60e51b815260206004820152601560248201527453656e64657220616c726561647920766f7465642160581b604482015260640161067d565b8151815114610be15760405162461bcd60e51b815260206004820181905260248201527f53636f7265732043616e64696461746520436f756e74204d69736d6174636821604482015260640161067d565b6000878152600360205260408120905b8751811015610cad57816008016000898381518110610c2057634e487b7160e01b600052603260045260246000fd5b60200260200101516001600160a01b03166001600160a01b03168152602001908152602001600020878281518110610c6857634e487b7160e01b600052603260045260246000fd5b60209081029190910181015182546001810184556000938452928290208151610c9a94919091019291909101906118dc565b5080610ca581612111565b915050610bf1565b5033600081815260078301602052604090819020805460ff19166001179055517faaf8175507b94c84621088891ecf31ca1c2548c0aeab2f2f21d3459515f9c4ed91610cfe918b908b908b90611ead565b60405180910390a15050505050505050565b6000805b60008381526003602081905260409091200154811015610dbe576000838152600360208190526040822001805483908110610d5f57634e487b7160e01b600052603260045260246000fd5b60009182526020808320909101548683526003825260408084206001600160a01b03909216808552600790920190925291205490915060ff1615610dab5782610da781612111565b9350505b5080610db681612111565b915050610d14565b50919050565b600360205260009081526040902080548190610ddf906120dc565b80601f0160208091040260200160405190810160405280929190818152602001828054610e0b906120dc565b8015610e585780601f10610e2d57610100808354040283529160200191610e58565b820191906000526020600020905b815481529060010190602001808311610e3b57829003601f168201915b5050506001840154600285015460048601546005870154600690970154959660ff80851697610100909504169550919350916001600160a01b031687565b6001546001600160a01b03163314610ef05760405162461bcd60e51b815260206004820181905260248201527f4f776e61626c653a2063616c6c6572206973206e6f7420746865206f776e6572604482015260640161067d565b610efa60006115fe565b565b6002805460009182610f0d83612111565b909155506000818152600360209081526040909120875192935091610f37918391908901906118dc565b5060048101859055600581018490558251610f5b9060038301906020860190611960565b504260028201556001808201805460ff191690911790556006810180546001600160a01b03191633179055610f8f83611650565b610f98336116bf565b60408051338152602081018490527fc91fe4766a7a928d6625f66818425dc115b03c854a8ed8d28de2f34a684e0f1a910160405180910390a150949350505050565b6000918252602082815260408084206001600160a01b0393909316845291905290205460ff1690565b8061102e7f16f50c1fe196fa8f2d59c3eca367f2f7bf83b35c12ed36436b26d5af3695f5c433610fda565b61104a5760405162461bcd60e51b815260040161067d90611fd2565b6000818152600360205260409020600601546001600160a01b031633146110835760405162461bcd60e51b815260040161067d90611fd2565b6000828152600360205260409020600181015460ff166110e55760405162461bcd60e51b815260206004820152601760248201527f456c656374696f6e20416c726561647920456e64656421000000000000000000604482015260640161067d565b60018101805460ff191690556040518381527f562cd572b2ba3b666cd989fc4ca98419ec81e75f04528df9d9d76fdb7807ee719060200160405180910390a1505050565b6060806000806000806000806000600360008b81526020019081526020016000206000018054611158906120dc565b80601f0160208091040260200160405190810160405280929190818152602001828054611184906120dc565b80156111d15780601f106111a6576101008083540402835291602001916111d1565b820191906000526020600020905b8154815290600101906020018083116111b457829003601f168201915b50505050509850600360008b815260200190815260200160002060030180548060200260200160405190810160405280929190818152602001828054801561124257602002820191906000526020600020905b81546001600160a01b03168152600190910190602001808311611224575b50505060009c8d525050600360208190526040909b209a8b015460028c015460048d015460058e015460068f01546001909f01549d9f949e939d929c50909a5098506001600160a01b03909116965060ff8082169650610100909104169350915050565b6000805b6000848152600360208190526040909120015481101561132f5760008481526003602081905260408220018054839081106112f557634e487b7160e01b600052603260045260246000fd5b6000918252602090912001546001600160a01b039081169150841681141561131c57600192505b508061132781612111565b9150506112aa565b5092915050565b60008281526020819052604090206001015461135281336114b1565b61097d8383611599565b6000805b6000848152600360208190526040909120015481101561132f576000848152600360208190526040909120018054829081106113ac57634e487b7160e01b600052603260045260246000fd5b6000918252602090912001546001600160a01b03848116911614156113d4576001915061132f565b806113de81612111565b915050611360565b6001546001600160a01b031633146114405760405162461bcd60e51b815260206004820181905260248201527f4f776e61626c653a2063616c6c6572206973206e6f7420746865206f776e6572604482015260640161067d565b6001600160a01b0381166114a55760405162461bcd60e51b815260206004820152602660248201527f4f776e61626c653a206e6577206f776e657220697320746865207a65726f206160448201526564647265737360d01b606482015260840161067d565b6114ae816115fe565b50565b6114bb8282610fda565b6109fc576114d3816001600160a01b031660146116e9565b6114de8360206116e9565b6040516020016114ef929190611e38565b60408051601f198184030181529082905262461bcd60e51b825261067d91600401611f04565b61151f8282610fda565b6109fc576000828152602081815260408083206001600160a01b03851684529091529020805460ff191660011790556115553390565b6001600160a01b0316816001600160a01b0316837f2f8788117e7eff1d82e926ec794901d17c78024a50270940304540a733656f0d60405160405180910390a45050565b6115a38282610fda565b156109fc576000828152602081815260408083206001600160a01b0385168085529252808320805460ff1916905551339285917ff6391f5c32d9c69d2a47ea670b442974b53935d1edc7fd64eb21e047a839171b9190a45050565b600180546001600160a01b038381166001600160a01b0319831681179093556040519116919082907f8be0079c531659141344cd1fd0a4f28419497f9722a3daafe3b4186f6b6457e090600090a35050565b60005b81518110156109fc576116ad7f9096faa56698daa37ec8d3542ff829c66d5e81213bd6faab8ba4e9ce824a5def8383815181106116a057634e487b7160e01b600052603260045260246000fd5b60200260200101516118d2565b806116b781612111565b915050611653565b6114ae7f16f50c1fe196fa8f2d59c3eca367f2f7bf83b35c12ed36436b26d5af3695f5c4826118d2565b606060006116f8836002612076565b61170390600261205e565b67ffffffffffffffff81111561172957634e487b7160e01b600052604160045260246000fd5b6040519080825280601f01601f191660200182016040528015611753576020820181803683370190505b509050600360fc1b8160008151811061177c57634e487b7160e01b600052603260045260246000fd5b60200101906001600160f81b031916908160001a905350600f60fb1b816001815181106117b957634e487b7160e01b600052603260045260246000fd5b60200101906001600160f81b031916908160001a90535060006117dd846002612076565b6117e890600161205e565b90505b600181111561187c576f181899199a1a9b1b9c1cb0b131b232b360811b85600f166010811061182a57634e487b7160e01b600052603260045260246000fd5b1a60f81b82828151811061184e57634e487b7160e01b600052603260045260246000fd5b60200101906001600160f81b031916908160001a90535060049490941c93611875816120c5565b90506117eb565b5083156118cb5760405162461bcd60e51b815260206004820181905260248201527f537472696e67733a20686578206c656e67746820696e73756666696369656e74604482015260640161067d565b9392505050565b6109fc8282611515565b8280546118e8906120dc565b90600052602060002090601f01602090048101928261190a5760008555611950565b82601f1061192357805160ff1916838001178555611950565b82800160010185558215611950579182015b82811115611950578251825591602001919060010190611935565b5061195c9291506119b5565b5090565b828054828255906000526020600020908101928215611950579160200282015b8281111561195057825182546001600160a01b0319166001600160a01b03909116178255602090920191600190910190611980565b5b8082111561195c57600081556001016119b6565b80356001600160a01b03811681146119e157600080fd5b919050565b600082601f8301126119f6578081fd5b81356020611a0b611a068361203a565b612009565b80838252828201915082860187848660051b8901011115611a2a578586fd5b855b85811015611a4f57611a3d826119ca565b84529284019290840190600101611a2c565b5090979650505050505050565b600082601f830112611a6c578081fd5b813567ffffffffffffffff811115611a8657611a86612142565b611a99601f8201601f1916602001612009565b818152846020838601011115611aad578283fd5b816020850160208301379081016020019190915292915050565b600060208284031215611ad8578081fd5b6118cb826119ca565b600060208284031215611af2578081fd5b5035919050565b60008060408385031215611b0b578081fd5b82359150611b1b602084016119ca565b90509250929050565b600060208284031215611b35578081fd5b81356001600160e01b0319811681146118cb578182fd5b60008060008060808587031215611b61578182fd5b843567ffffffffffffffff80821115611b78578384fd5b611b8488838901611a5c565b955060208701359450604087013593506060870135915080821115611ba7578283fd5b50611bb4878288016119e6565b91505092959194509250565b60008060408385031215611b0b578182fd5b600080600060608486031215611be6578283fd5b8335925060208085013567ffffffffffffffff80821115611c05578485fd5b611c11888389016119e6565b94506040870135915080821115611c26578384fd5b818701915087601f830112611c39578384fd5b8135611c47611a068261203a565b8082825285820191508585018b878560051b8801011115611c66578788fd5b875b84811015611c9f57813586811115611c7e57898afd5b611c8c8e8a838b0101611a5c565b8552509287019290870190600101611c68565b50508096505050505050509250925092565b600080600060608486031215611cc5578283fd5b8335925060208085013567ffffffffffffffff80821115611ce4578485fd5b611cf0888389016119e6565b94506040870135915080821115611d05578384fd5b508501601f81018713611d16578283fd5b8035611d24611a068261203a565b8082825284820191508484018a868560051b8701011115611d43578687fd5b8694505b83851015611d65578035835260019490940193918501918501611d47565b5080955050505050509250925092565b6000815180845260208085019450808401835b83811015611dad5781516001600160a01b031687529582019590820190600101611d88565b509495945050505050565b600081518084526020808501808196508360051b81019150828601855b85811015611dff578284038952611ded848351611e0c565b98850198935090840190600101611dd5565b5091979650505050505050565b60008151808452611e24816020860160208601612095565b601f01601f19169290920160200192915050565b7f416363657373436f6e74726f6c3a206163636f756e7420000000000000000000815260008351611e70816017850160208801612095565b7001034b99036b4b9b9b4b733903937b6329607d1b6017918401918201528351611ea1816028840160208801612095565b01602801949350505050565b60018060a01b0385168152836020820152608060408201526000611ed46080830185611d75565b8281036060840152611ee68185611db8565b979650505050505050565b6020815260006118cb6020830184611db8565b6020815260006118cb6020830184611e0c565b6000610120808352611f2b8184018d611e0c565b90508281036020840152611f3f818c611d75565b604084019a909a5250506060810196909652608086019490945260a08501929092526001600160a01b031660c0840152151560e083015215156101009091015292915050565b60e081526000611f9860e083018a611e0c565b97151560208301525094151560408601526060850193909352608084019190915260a08301526001600160a01b031660c090910152919050565b6020808252601a908201527f53656e646572206e6f7420456c656374696f6e2041646d696e21000000000000604082015260600190565b604051601f8201601f1916810167ffffffffffffffff8111828210171561203257612032612142565b604052919050565b600067ffffffffffffffff82111561205457612054612142565b5060051b60200190565b600082198211156120715761207161212c565b500190565b60008160001904831182151516156120905761209061212c565b500290565b60005b838110156120b0578181015183820152602001612098565b838111156120bf576000848401525b50505050565b6000816120d4576120d461212c565b506000190190565b600181811c908216806120f057607f821691505b60208210811415610dbe57634e487b7160e01b600052602260045260246000fd5b60006000198214156121255761212561212c565b5060010190565b634e487b7160e01b600052601160045260246000fd5b634e487b7160e01b600052604160045260246000fdfea264697066735822122016459c03c4c57d4bfa10314d418f638255f8c2ebc4b002b01b352ec6c2bc2d0764736f6c63430008040033",
  "linkReferences": {},
  "deployedLinkReferences": {}
}