{
  "_format": "hh-sol-artifact-1",
  "contractName": "Diplomacy",
  "sourceName": "contracts/Diplomacy.sol",
  "abi": [
    {
      "inputs": [],
      "stateMutability": "nonpayable",
      "type": "constructor"
    },
    {
      "anonymous": false,
      "inputs": [
        {
          "indexed": false,
          "internalType": "address",
          "name": "voter",
          "type": "address"
        },
        {
          "indexed": false,
          "internalType": "uint256",
          "name": "electionId",
          "type": "uint256"
        },
        {
          "indexed": false,
          "internalType": "address[]",
          "name": "adrs",
          "type": "address[]"
        },
        {
          "indexed": false,
          "internalType": "string[]",
          "name": "scores",
          "type": "string[]"
        }
      ],
      "name": "BallotCast",
      "type": "event"
    },
    {
      "anonymous": false,
      "inputs": [
        {
          "indexed": false,
          "internalType": "address",
          "name": "creator",
          "type": "address"
        },
        {
          "indexed": false,
          "internalType": "uint256",
          "name": "electionId",
          "type": "uint256"
        }
      ],
      "name": "ElectionCreated",
      "type": "event"
    },
    {
      "anonymous": false,
      "inputs": [
        {
          "indexed": false,
          "internalType": "uint256",
          "name": "electionId",
          "type": "uint256"
        }
      ],
      "name": "ElectionEnded",
      "type": "event"
    },
    {
      "anonymous": false,
      "inputs": [
        {
          "indexed": false,
          "internalType": "uint256",
          "name": "electionId",
          "type": "uint256"
        }
      ],
      "name": "ElectionPaid",
      "type": "event"
    },
    {
      "anonymous": false,
      "inputs": [
        {
          "indexed": true,
          "internalType": "address",
          "name": "previousOwner",
          "type": "address"
        },
        {
          "indexed": true,
          "internalType": "address",
          "name": "newOwner",
          "type": "address"
        }
      ],
      "name": "OwnershipTransferred",
      "type": "event"
    },
    {
      "anonymous": false,
      "inputs": [
        {
          "indexed": true,
          "internalType": "bytes32",
          "name": "role",
          "type": "bytes32"
        },
        {
          "indexed": true,
          "internalType": "bytes32",
          "name": "previousAdminRole",
          "type": "bytes32"
        },
        {
          "indexed": true,
          "internalType": "bytes32",
          "name": "newAdminRole",
          "type": "bytes32"
        }
      ],
      "name": "RoleAdminChanged",
      "type": "event"
    },
    {
      "anonymous": false,
      "inputs": [
        {
          "indexed": true,
          "internalType": "bytes32",
          "name": "role",
          "type": "bytes32"
        },
        {
          "indexed": true,
          "internalType": "address",
          "name": "account",
          "type": "address"
        },
        {
          "indexed": true,
          "internalType": "address",
          "name": "sender",
          "type": "address"
        }
      ],
      "name": "RoleGranted",
      "type": "event"
    },
    {
      "anonymous": false,
      "inputs": [
        {
          "indexed": true,
          "internalType": "bytes32",
          "name": "role",
          "type": "bytes32"
        },
        {
          "indexed": true,
          "internalType": "address",
          "name": "account",
          "type": "address"
        },
        {
          "indexed": true,
          "internalType": "address",
          "name": "sender",
          "type": "address"
        }
      ],
      "name": "RoleRevoked",
      "type": "event"
    },
    {
      "inputs": [],
      "name": "DEFAULT_ADMIN_ROLE",
      "outputs": [
        {
          "internalType": "bytes32",
          "name": "",
          "type": "bytes32"
        }
      ],
      "stateMutability": "view",
      "type": "function"
    },
    {
      "inputs": [
        {
          "internalType": "uint256",
          "name": "electionId",
          "type": "uint256"
        }
      ],
      "name": "approveToken",
      "outputs": [],
      "stateMutability": "nonpayable",
      "type": "function"
    },
    {
      "inputs": [
        {
          "internalType": "uint256",
          "name": "electionId",
          "type": "uint256"
        },
        {
          "internalType": "address",
          "name": "_sender",
          "type": "address"
        }
      ],
      "name": "canVote",
      "outputs": [
        {
          "internalType": "bool",
          "name": "status",
          "type": "bool"
        }
      ],
      "stateMutability": "view",
      "type": "function"
    },
    {
      "inputs": [
        {
          "internalType": "uint256",
          "name": "electionId",
          "type": "uint256"
        },
        {
          "internalType": "address[]",
          "name": "_adrs",
          "type": "address[]"
        },
        {
          "internalType": "string[]",
          "name": "_scores",
          "type": "string[]"
        }
      ],
      "name": "castBallot",
      "outputs": [],
      "stateMutability": "nonpayable",
      "type": "function"
    },
    {
      "inputs": [
        {
          "internalType": "uint256",
          "name": "",
          "type": "uint256"
        }
      ],
      "name": "elections",
      "outputs": [
        {
          "internalType": "string",
          "name": "name",
          "type": "string"
        },
        {
          "internalType": "bool",
          "name": "active",
          "type": "bool"
        },
        {
          "internalType": "bool",
          "name": "paid",
          "type": "bool"
        },
        {
          "internalType": "uint256",
          "name": "createdAt",
          "type": "uint256"
        },
        {
          "internalType": "uint256",
          "name": "funds",
          "type": "uint256"
        },
        {
          "internalType": "string",
          "name": "fundingType",
          "type": "string"
        },
        {
          "internalType": "uint256",
          "name": "votes",
          "type": "uint256"
        },
        {
          "internalType": "address",
          "name": "admin",
          "type": "address"
        }
      ],
      "stateMutability": "view",
      "type": "function"
    },
    {
      "inputs": [
        {
          "internalType": "uint256",
          "name": "electionId",
          "type": "uint256"
        }
      ],
      "name": "endElection",
      "outputs": [],
      "stateMutability": "nonpayable",
      "type": "function"
    },
    {
      "inputs": [
        {
          "internalType": "uint256",
          "name": "electionId",
          "type": "uint256"
        }
      ],
      "name": "getElectionById",
      "outputs": [
        {
          "internalType": "string",
          "name": "name",
          "type": "string"
        },
        {
          "internalType": "address[]",
          "name": "candidates",
          "type": "address[]"
        },
        {
          "internalType": "uint256",
          "name": "n_addr",
          "type": "uint256"
        },
        {
          "internalType": "uint256",
          "name": "createdAt",
          "type": "uint256"
        },
        {
          "internalType": "uint256",
          "name": "funds",
          "type": "uint256"
        },
        {
          "internalType": "string",
          "name": "fundingType",
          "type": "string"
        },
        {
          "internalType": "uint256",
          "name": "votes",
          "type": "uint256"
        },
        {
          "internalType": "address",
          "name": "admin",
          "type": "address"
        },
        {
          "internalType": "bool",
          "name": "isActive",
          "type": "bool"
        },
        {
          "internalType": "bool",
          "name": "paid",
          "type": "bool"
        }
      ],
      "stateMutability": "view",
      "type": "function"
    },
    {
      "inputs": [
        {
          "internalType": "uint256",
          "name": "electionId",
          "type": "uint256"
        },
        {
          "internalType": "address",
          "name": "_adr",
          "type": "address"
        }
      ],
      "name": "getElectionResults",
      "outputs": [
        {
          "internalType": "int256",
          "name": "",
          "type": "int256"
        }
      ],
      "stateMutability": "view",
      "type": "function"
    },
    {
      "inputs": [
        {
          "internalType": "uint256",
          "name": "electionId",
          "type": "uint256"
        },
        {
          "internalType": "address",
          "name": "_adr",
          "type": "address"
        }
      ],
      "name": "getElectionScores",
      "outputs": [
        {
          "internalType": "string[]",
          "name": "",
          "type": "string[]"
        }
      ],
      "stateMutability": "view",
      "type": "function"
    },
    {
      "inputs": [
        {
          "internalType": "uint256",
          "name": "electionId",
          "type": "uint256"
        }
      ],
      "name": "getElectionVoted",
      "outputs": [
        {
          "internalType": "uint256",
          "name": "count",
          "type": "uint256"
        }
      ],
      "stateMutability": "view",
      "type": "function"
    },
    {
      "inputs": [
        {
          "internalType": "bytes32",
          "name": "role",
          "type": "bytes32"
        }
      ],
      "name": "getRoleAdmin",
      "outputs": [
        {
          "internalType": "bytes32",
          "name": "",
          "type": "bytes32"
        }
      ],
      "stateMutability": "view",
      "type": "function"
    },
    {
      "inputs": [
        {
          "internalType": "bytes32",
          "name": "role",
          "type": "bytes32"
        },
        {
          "internalType": "address",
          "name": "account",
          "type": "address"
        }
      ],
      "name": "grantRole",
      "outputs": [],
      "stateMutability": "nonpayable",
      "type": "function"
    },
    {
      "inputs": [
        {
          "internalType": "bytes32",
          "name": "role",
          "type": "bytes32"
        },
        {
          "internalType": "address",
          "name": "account",
          "type": "address"
        }
      ],
      "name": "hasRole",
      "outputs": [
        {
          "internalType": "bool",
          "name": "",
          "type": "bool"
        }
      ],
      "stateMutability": "view",
      "type": "function"
    },
    {
      "inputs": [
        {
          "internalType": "uint256",
          "name": "electionId",
          "type": "uint256"
        },
        {
          "internalType": "address",
          "name": "_sender",
          "type": "address"
        }
      ],
      "name": "hasVoted",
      "outputs": [
        {
          "internalType": "bool",
          "name": "",
          "type": "bool"
        }
      ],
      "stateMutability": "view",
      "type": "function"
    },
    {
      "inputs": [
        {
          "internalType": "uint256",
          "name": "electionId",
          "type": "uint256"
        },
        {
          "internalType": "address",
          "name": "_sender",
          "type": "address"
        }
      ],
      "name": "isElectionAdmin",
      "outputs": [
        {
          "internalType": "bool",
          "name": "",
          "type": "bool"
        }
      ],
      "stateMutability": "view",
      "type": "function"
    },
    {
      "inputs": [
        {
          "internalType": "uint256",
          "name": "electionId",
          "type": "uint256"
        },
        {
          "internalType": "address",
          "name": "_sender",
          "type": "address"
        }
      ],
      "name": "isElectionCandidate",
      "outputs": [
        {
          "internalType": "bool",
          "name": "status",
          "type": "bool"
        }
      ],
      "stateMutability": "view",
      "type": "function"
    },
    {
      "inputs": [
        {
          "internalType": "string",
          "name": "_name",
          "type": "string"
        },
        {
          "internalType": "uint256",
          "name": "_funds",
          "type": "uint256"
        },
        {
          "internalType": "string",
          "name": "_type",
          "type": "string"
        },
        {
          "internalType": "uint256",
          "name": "_votes",
          "type": "uint256"
        },
        {
          "internalType": "address[]",
          "name": "_adrs",
          "type": "address[]"
        }
      ],
      "name": "newElection",
      "outputs": [
        {
          "internalType": "uint256",
          "name": "electionId",
          "type": "uint256"
        }
      ],
      "stateMutability": "nonpayable",
      "type": "function"
    },
    {
      "inputs": [],
      "name": "numElections",
      "outputs": [
        {
          "internalType": "uint256",
          "name": "",
          "type": "uint256"
        }
      ],
      "stateMutability": "view",
      "type": "function"
    },
    {
      "inputs": [],
      "name": "owner",
      "outputs": [
        {
          "internalType": "address",
          "name": "",
          "type": "address"
        }
      ],
      "stateMutability": "view",
      "type": "function"
    },
    {
      "inputs": [
        {
          "internalType": "uint256",
          "name": "electionId",
          "type": "uint256"
        },
        {
          "internalType": "address[]",
          "name": "_adrs",
          "type": "address[]"
        },
        {
          "internalType": "uint256[]",
          "name": "_pay",
          "type": "uint256[]"
        }
      ],
      "name": "payoutElection",
      "outputs": [],
      "stateMutability": "payable",
      "type": "function"
    },
    {
      "inputs": [],
      "name": "renounceOwnership",
      "outputs": [],
      "stateMutability": "nonpayable",
      "type": "function"
    },
    {
      "inputs": [
        {
          "internalType": "bytes32",
          "name": "role",
          "type": "bytes32"
        },
        {
          "internalType": "address",
          "name": "account",
          "type": "address"
        }
      ],
      "name": "renounceRole",
      "outputs": [],
      "stateMutability": "nonpayable",
      "type": "function"
    },
    {
      "inputs": [
        {
          "internalType": "bytes32",
          "name": "role",
          "type": "bytes32"
        },
        {
          "internalType": "address",
          "name": "account",
          "type": "address"
        }
      ],
      "name": "revokeRole",
      "outputs": [],
      "stateMutability": "nonpayable",
      "type": "function"
    },
    {
      "inputs": [
        {
          "internalType": "bytes4",
          "name": "interfaceId",
          "type": "bytes4"
        }
      ],
      "name": "supportsInterface",
      "outputs": [
        {
          "internalType": "bool",
          "name": "",
          "type": "bool"
        }
      ],
      "stateMutability": "view",
      "type": "function"
    },
    {
      "inputs": [
        {
          "internalType": "address",
          "name": "newOwner",
          "type": "address"
        }
      ],
      "name": "transferOwnership",
      "outputs": [],
      "stateMutability": "nonpayable",
      "type": "function"
    }
  ],
  "bytecode": "0x6080604052600280547301be23585060835e02b77ef475b0cc51aa1e07096001600160a01b031991821681179092556003805490911690911790553480156200004757600080fd5b50620000533362000066565b62000060600033620000b8565b62000168565b600180546001600160a01b038381166001600160a01b0319831681179093556040519116919082907f8be0079c531659141344cd1fd0a4f28419497f9722a3daafe3b4186f6b6457e090600090a35050565b620000c48282620000c8565b5050565b6000828152602081815260408083206001600160a01b038516845290915290205460ff16620000c4576000828152602081815260408083206001600160a01b03851684529091529020805460ff19166001179055620001243390565b6001600160a01b0316816001600160a01b0316837f2f8788117e7eff1d82e926ec794901d17c78024a50270940304540a733656f0d60405160405180910390a45050565b61277680620001786000396000f3fe6080604052600436106101665760003560e01c80636e38d9bd116100d1578063a217fddf1161008a578063cdb2867b11610064578063cdb2867b146104c2578063d547741f146104e2578063ea3c6cde14610502578063f2fde38b1461052257600080fd5b8063a217fddf14610430578063be70a00914610445578063c6958b121461048c57600080fd5b80636e38d9bd1461035e578063715018a6146103745780638da5cb5b1461038957806391b84f16146103b157806391d14854146103f05780639c98bcbb1461041057600080fd5b806336568abe1161012357806336568abe146102605780633ac9fc111461028057806343859632146102a05780634548e52b146102ea57806352e968ad1461030a5780635e6fef011461032a57600080fd5b806301ffc9a71461016b57806308108288146101a05780630ece86d0146101cd578063248a9ca3146101e25780632f2ff15d1461022057806334a22bc914610240575b600080fd5b34801561017757600080fd5b5061018b610186366004612019565b610542565b60405190151581526020015b60405180910390f35b3480156101ac57600080fd5b506101c06101bb3660046120d9565b610579565b60405161019791906124a5565b6101e06101db3660046121ca565b610673565b005b3480156101ee57600080fd5b506102126101fd366004611fd6565b60009081526020819052604090206001015490565b604051908152602001610197565b34801561022c57600080fd5b506101e061023b366004611fee565b6108a1565b34801561024c57600080fd5b5061021261025b366004612041565b6108cc565b34801561026c57600080fd5b506101e061027b366004611fee565b6109c1565b34801561028c57600080fd5b506101e061029b366004611fd6565b610a3f565b3480156102ac57600080fd5b5061018b6102bb3660046120d9565b60008281526005602090815260408083206001600160a01b038516845260080190915290205460ff1692915050565b3480156102f657600080fd5b506101e06103053660046120eb565b610adb565b34801561031657600080fd5b50610212610325366004611fd6565b610deb565b34801561033657600080fd5b5061034a610345366004611fd6565b610e9e565b604051610197989796959493929190612550565b34801561036a57600080fd5b5061021260045481565b34801561038057600080fd5b506101e0611002565b34801561039557600080fd5b506001546040516001600160a01b039091168152602001610197565b3480156103bd57600080fd5b5061018b6103cc3660046120d9565b600091825260056020526040909120600701546001600160a01b0390811691161490565b3480156103fc57600080fd5b5061018b61040b366004611fee565b611068565b34801561041c57600080fd5b506101e061042b366004611fd6565b611091565b34801561043c57600080fd5b50610212600081565b34801561045157600080fd5b506102126104603660046120d9565b60008281526005602090815260408083206001600160a01b0385168452600a0190915290205492915050565b34801561049857600080fd5b506104ac6104a7366004611fd6565b6111b7565b6040516101979a999897969594939291906124cb565b3480156104ce57600080fd5b5061018b6104dd3660046120d9565b6113df565b3480156104ee57600080fd5b506101e06104fd366004611fee565b61146e565b34801561050e57600080fd5b5061018b61051d3660046120d9565b611494565b34801561052e57600080fd5b506101e061053d366004611f9c565b61151c565b60006001600160e01b03198216637965db0b60e01b148061057357506301ffc9a760e01b6001600160e01b03198316145b92915050565b60008281526005602090815260408083206001600160a01b03851684526009018252808320805482518185028101850190935280835260609492939192909184015b828210156106675783829060005260206000200180546105da906126c4565b80601f0160208091040260200160405190810160405280929190818152602001828054610606906126c4565b80156106535780601f1061062857610100808354040283529160200191610653565b820191906000526020600020905b81548152906001019060200180831161063657829003601f168201915b5050505050815260200190600101906105bb565b50505050905092915050565b8261069e7f16f50c1fe196fa8f2d59c3eca367f2f7bf83b35c12ed36436b26d5af3695f5c433611068565b6106c35760405162461bcd60e51b81526004016106ba906125ba565b60405180910390fd5b6000818152600560205260409020600701546001600160a01b031633146106fc5760405162461bcd60e51b81526004016106ba906125ba565b60008481526005602052604090206001015460ff16156107575760405162461bcd60e51b8152602060048201526016602482015275456c656374696f6e205374696c6c204163746976652160501b60448201526064016106ba565b604080518082018252600381526208aa8960eb1b6020918201526000868152600591829052828120925190927faaaebeba3810b1e6b70781f14b2d72c1cb89c0b2b320c43bb67ff79f562f5ff4926107b192910190612351565b604051809103902014156107d1576107ca8585856115e7565b9050610844565b604080518082018252600381526247544360e81b602091820152600087815260059182905282902091517f7438d7d73ec9e46da3d0aa51b56d02f7e7bc34bd8939d3f4c05474ab1961f8e592610828920190612351565b60405180910390201415610844576108418585856117c0565b90505b600085815260056020908152604091829020600101805461ff0019166101008515150217905590518681527fb27761a3b9064636a27795816e4f8a8e5cadd6ac8b1e3a553bd47bf414c2b402910160405180910390a15050505050565b6000828152602081905260409020600101546108bd8133611986565b6108c783836119ea565b505050565b60048054600091826108dd836126f9565b909155506000818152600560209081526040909120885192935091610907918391908a0190611db1565b506004810186905584516109249060058301906020880190611db1565b506006810184905582516109419060038301906020860190611e35565b504260028201556001808201805460ff191690911790556007810180546001600160a01b0319163317905561097583611a6e565b61097e33611add565b60408051338152602081018490527fc91fe4766a7a928d6625f66818425dc115b03c854a8ed8d28de2f34a684e0f1a910160405180910390a15095945050505050565b6001600160a01b0381163314610a315760405162461bcd60e51b815260206004820152602f60248201527f416363657373436f6e74726f6c3a2063616e206f6e6c792072656e6f756e636560448201526e103937b632b9903337b91039b2b63360891b60648201526084016106ba565b610a3b8282611b07565b5050565b60035460008281526005602052604090819020600490810154915163095ea7b360e01b8152309181019190915260248101919091526001600160a01b039091169063095ea7b390604401602060405180830381600087803b158015610aa357600080fd5b505af1158015610ab7573d6000803e3d6000fd5b505050506040513d601f19601f82011682018060405250810190610a3b9190611fb6565b82610b067f9096faa56698daa37ec8d3542ff829c66d5e81213bd6faab8ba4e9ce824a5def33611068565b610b525760405162461bcd60e51b815260206004820152601e60248201527f53656e646572206e6f7420456c656374696f6e2043616e64696461746521000060448201526064016106ba565b610b5c8133611494565b610ba85760405162461bcd60e51b815260206004820152601e60248201527f53656e646572206e6f7420456c656374696f6e2043616e64696461746521000060448201526064016106ba565b60008481526005602052604090206001015484908490849060ff16610c065760405162461bcd60e51b8152602060048201526014602482015273456c656374696f6e204e6f74204163746976652160601b60448201526064016106ba565b600083815260056020908152604080832033845260080190915290205460ff1615610c6b5760405162461bcd60e51b815260206004820152601560248201527453656e64657220616c726561647920766f7465642160581b60448201526064016106ba565b8151815114610cbc5760405162461bcd60e51b815260206004820181905260248201527f53636f7265732043616e64696461746520436f756e74204d69736d617463682160448201526064016106ba565b6000878152600560205260408120905b8751811015610d8857816009016000898381518110610cfb57634e487b7160e01b600052603260045260246000fd5b60200260200101516001600160a01b03166001600160a01b03168152602001908152602001600020878281518110610d4357634e487b7160e01b600052603260045260246000fd5b60209081029190910181015182546001810184556000938452928290208151610d759491909101929190910190611db1565b5080610d80816126f9565b915050610ccc565b5033600081815260088301602052604090819020805460ff19166001179055517faaf8175507b94c84621088891ecf31ca1c2548c0aeab2f2f21d3459515f9c4ed91610dd9918b908b908b90612461565b60405180910390a15050505050505050565b6000805b600083815260056020526040902060030154811015610e98576000838152600560205260408120600301805483908110610e3957634e487b7160e01b600052603260045260246000fd5b60009182526020808320909101548683526005825260408084206001600160a01b03909216808552600890920190925291205490915060ff1615610e855782610e81816126f9565b9350505b5080610e90816126f9565b915050610def565b50919050565b600560205260009081526040902080548190610eb9906126c4565b80601f0160208091040260200160405190810160405280929190818152602001828054610ee5906126c4565b8015610f325780601f10610f0757610100808354040283529160200191610f32565b820191906000526020600020905b815481529060010190602001808311610f1557829003601f168201915b505050600184015460028501546004860154600587018054969760ff808616986101009096041696509294509092610f69906126c4565b80601f0160208091040260200160405190810160405280929190818152602001828054610f95906126c4565b8015610fe25780601f10610fb757610100808354040283529160200191610fe2565b820191906000526020600020905b815481529060010190602001808311610fc557829003601f168201915b5050505060068301546007909301549192916001600160a01b0316905088565b6001546001600160a01b0316331461105c5760405162461bcd60e51b815260206004820181905260248201527f4f776e61626c653a2063616c6c6572206973206e6f7420746865206f776e657260448201526064016106ba565b6110666000611b6c565b565b6000918252602082815260408084206001600160a01b0393909316845291905290205460ff1690565b806110bc7f16f50c1fe196fa8f2d59c3eca367f2f7bf83b35c12ed36436b26d5af3695f5c433611068565b6110d85760405162461bcd60e51b81526004016106ba906125ba565b6000818152600560205260409020600701546001600160a01b031633146111115760405162461bcd60e51b81526004016106ba906125ba565b6000828152600560205260409020600181015460ff166111735760405162461bcd60e51b815260206004820152601760248201527f456c656374696f6e20416c726561647920456e6465642100000000000000000060448201526064016106ba565b60018101805460ff191690556040518381527f562cd572b2ba3b666cd989fc4ca98419ec81e75f04528df9d9d76fdb7807ee719060200160405180910390a1505050565b60608060008060006060600080600080600560008c815260200190815260200160002060000180546111e8906126c4565b80601f0160208091040260200160405190810160405280929190818152602001828054611214906126c4565b80156112615780601f1061123657610100808354040283529160200191611261565b820191906000526020600020905b81548152906001019060200180831161124457829003601f168201915b50505050509950600560008c81526020019081526020016000206003018054806020026020016040519081016040528092919081815260200182805480156112d257602002820191906000526020600020905b81546001600160a01b031681526001909101906020018083116112b4575b50505060008e8152600560208190526040909120600381015460028201546004830154929093018054969f50909d50919b50995092611313925090506126c4565b80601f016020809104026020016040519081016040528092919081815260200182805461133f906126c4565b801561138c5780601f106113615761010080835404028352916020019161138c565b820191906000526020600020905b81548152906001019060200180831161136f57829003601f168201915b50505060009d8e52505060056020526040909b20600681015460078201546001909201549b9d9a9c999b989a97999890976001600160a01b03909216965060ff8082169650610100909104169350915050565b6000805b60008481526005602052604090206003015481101561146757600084815260056020526040812060030180548390811061142d57634e487b7160e01b600052603260045260246000fd5b6000918252602090912001546001600160a01b039081169150841681141561145457600192505b508061145f816126f9565b9150506113e3565b5092915050565b60008281526020819052604090206001015461148a8133611986565b6108c78383611b07565b6000805b6000848152600560205260409020600301548110156114675760008481526005602052604090206003018054829081106114e257634e487b7160e01b600052603260045260246000fd5b6000918252602090912001546001600160a01b038481169116141561150a5760019150611467565b80611514816126f9565b915050611498565b6001546001600160a01b031633146115765760405162461bcd60e51b815260206004820181905260248201527f4f776e61626c653a2063616c6c6572206973206e6f7420746865206f776e657260448201526064016106ba565b6001600160a01b0381166115db5760405162461bcd60e51b815260206004820152602660248201527f4f776e61626c653a206e6577206f776e657220697320746865207a65726f206160448201526564647265737360d01b60648201526084016106ba565b6115e481611b6c565b50565b60008080805b6000878152600560205260409020600301548110156117155785818151811061162657634e487b7160e01b600052603260045260246000fd5b60200260200101516001600160a01b031660056000898152602001908152602001600020600301828154811061166c57634e487b7160e01b600052603260045260246000fd5b6000918252602090912001546001600160a01b0316146116ce5760405162461bcd60e51b815260206004820152601a60248201527f456c656374696f6e2d41646472657373204d69736d617463682100000000000060448201526064016106ba565b8481815181106116ee57634e487b7160e01b600052603260045260246000fd5b6020026020010151836117019190612646565b92508061170d816126f9565b9150506115ed565b5060005b84518110156117b65785818151811061174257634e487b7160e01b600052603260045260246000fd5b60200260200101516001600160a01b03166108fc86838151811061177657634e487b7160e01b600052603260045260246000fd5b6020026020010151600161178a919061265e565b6040518115909202916000818181858888f19350505050915080806117ae906126f9565b915050611719565b5095945050505050565b60035460008481526005602052604080822060049081015491516323b872dd60e01b81523391810191909152306024820152604481019190915290916001600160a01b0316906323b872dd90606401602060405180830381600087803b15801561182957600080fd5b505af115801561183d573d6000803e3d6000fd5b505050506040513d601f19601f820116820180604052508101906118619190611fb6565b5060005b60008581526005602052604090206003015481101561197b5760035484516001600160a01b039091169063a9059cbb908690849081106118b557634e487b7160e01b600052603260045260246000fd5b60200260200101518584815181106118dd57634e487b7160e01b600052603260045260246000fd5b60200260200101516040518363ffffffff1660e01b81526004016119169291906001600160a01b03929092168252602082015260400190565b602060405180830381600087803b15801561193057600080fd5b505af1158015611944573d6000803e3d6000fd5b505050506040513d601f19601f820116820180604052508101906119689190611fb6565b5080611973816126f9565b915050611865565b506001949350505050565b6119908282611068565b610a3b576119a8816001600160a01b03166014611bbe565b6119b3836020611bbe565b6040516020016119c49291906123ec565b60408051601f198184030181529082905262461bcd60e51b82526106ba916004016124b8565b6119f48282611068565b610a3b576000828152602081815260408083206001600160a01b03851684529091529020805460ff19166001179055611a2a3390565b6001600160a01b0316816001600160a01b0316837f2f8788117e7eff1d82e926ec794901d17c78024a50270940304540a733656f0d60405160405180910390a45050565b60005b8151811015610a3b57611acb7f9096faa56698daa37ec8d3542ff829c66d5e81213bd6faab8ba4e9ce824a5def838381518110611abe57634e487b7160e01b600052603260045260246000fd5b6020026020010151611da7565b80611ad5816126f9565b915050611a71565b6115e47f16f50c1fe196fa8f2d59c3eca367f2f7bf83b35c12ed36436b26d5af3695f5c482611da7565b611b118282611068565b15610a3b576000828152602081815260408083206001600160a01b0385168085529252808320805460ff1916905551339285917ff6391f5c32d9c69d2a47ea670b442974b53935d1edc7fd64eb21e047a839171b9190a45050565b600180546001600160a01b038381166001600160a01b0319831681179093556040519116919082907f8be0079c531659141344cd1fd0a4f28419497f9722a3daafe3b4186f6b6457e090600090a35050565b60606000611bcd83600261265e565b611bd8906002612646565b67ffffffffffffffff811115611bfe57634e487b7160e01b600052604160045260246000fd5b6040519080825280601f01601f191660200182016040528015611c28576020820181803683370190505b509050600360fc1b81600081518110611c5157634e487b7160e01b600052603260045260246000fd5b60200101906001600160f81b031916908160001a905350600f60fb1b81600181518110611c8e57634e487b7160e01b600052603260045260246000fd5b60200101906001600160f81b031916908160001a9053506000611cb284600261265e565b611cbd906001612646565b90505b6001811115611d51576f181899199a1a9b1b9c1cb0b131b232b360811b85600f1660108110611cff57634e487b7160e01b600052603260045260246000fd5b1a60f81b828281518110611d2357634e487b7160e01b600052603260045260246000fd5b60200101906001600160f81b031916908160001a90535060049490941c93611d4a816126ad565b9050611cc0565b508315611da05760405162461bcd60e51b815260206004820181905260248201527f537472696e67733a20686578206c656e67746820696e73756666696369656e7460448201526064016106ba565b9392505050565b610a3b82826119ea565b828054611dbd906126c4565b90600052602060002090601f016020900481019282611ddf5760008555611e25565b82601f10611df857805160ff1916838001178555611e25565b82800160010185558215611e25579182015b82811115611e25578251825591602001919060010190611e0a565b50611e31929150611e8a565b5090565b828054828255906000526020600020908101928215611e25579160200282015b82811115611e2557825182546001600160a01b0319166001600160a01b03909116178255602090920191600190910190611e55565b5b80821115611e315760008155600101611e8b565b80356001600160a01b0381168114611eb657600080fd5b919050565b600082601f830112611ecb578081fd5b81356020611ee0611edb83612622565b6125f1565b80838252828201915082860187848660051b8901011115611eff578586fd5b855b85811015611f2457611f1282611e9f565b84529284019290840190600101611f01565b5090979650505050505050565b600082601f830112611f41578081fd5b813567ffffffffffffffff811115611f5b57611f5b61272a565b611f6e601f8201601f19166020016125f1565b818152846020838601011115611f82578283fd5b816020850160208301379081016020019190915292915050565b600060208284031215611fad578081fd5b611da082611e9f565b600060208284031215611fc7578081fd5b81518015158114611da0578182fd5b600060208284031215611fe7578081fd5b5035919050565b60008060408385031215612000578081fd5b8235915061201060208401611e9f565b90509250929050565b60006020828403121561202a578081fd5b81356001600160e01b031981168114611da0578182fd5b600080600080600060a08688031215612058578081fd5b853567ffffffffffffffff8082111561206f578283fd5b61207b89838a01611f31565b9650602088013595506040880135915080821115612097578283fd5b6120a389838a01611f31565b94506060880135935060808801359150808211156120bf578283fd5b506120cc88828901611ebb565b9150509295509295909350565b60008060408385031215612000578182fd5b6000806000606084860312156120ff578283fd5b8335925060208085013567ffffffffffffffff8082111561211e578485fd5b61212a88838901611ebb565b9450604087013591508082111561213f578384fd5b818701915087601f830112612152578384fd5b8135612160611edb82612622565b8082825285820191508585018b878560051b880101111561217f578788fd5b875b848110156121b85781358681111561219757898afd5b6121a58e8a838b0101611f31565b8552509287019290870190600101612181565b50508096505050505050509250925092565b6000806000606084860312156121de578081fd5b8335925060208085013567ffffffffffffffff808211156121fd578384fd5b61220988838901611ebb565b9450604087013591508082111561221e578384fd5b508501601f8101871361222f578283fd5b803561223d611edb82612622565b8082825284820191508484018a868560051b870101111561225c578687fd5b8694505b8385101561227e578035835260019490940193918501918501612260565b5080955050505050509250925092565b6000815180845260208085019450808401835b838110156122c65781516001600160a01b0316875295820195908201906001016122a1565b509495945050505050565b600081518084526020808501808196508360051b81019150828601855b85811015612318578284038952612306848351612325565b988501989350908401906001016122ee565b5091979650505050505050565b6000815180845261233d81602086016020860161267d565b601f01601f19169290920160200192915050565b600080835482600182811c91508083168061236d57607f831692505b602080841082141561238d57634e487b7160e01b87526022600452602487fd5b8180156123a157600181146123b2576123de565b60ff198616895284890196506123de565b60008a815260209020885b868110156123d65781548b8201529085019083016123bd565b505084890196505b509498975050505050505050565b7f416363657373436f6e74726f6c3a206163636f756e742000000000000000000081526000835161242481601785016020880161267d565b7001034b99036b4b9b9b4b733903937b6329607d1b601791840191820152835161245581602884016020880161267d565b01602801949350505050565b60018060a01b0385168152836020820152608060408201526000612488608083018561228e565b828103606084015261249a81856122d1565b979650505050505050565b602081526000611da060208301846122d1565b602081526000611da06020830184612325565b60006101408083526124df8184018e612325565b905082810360208401526124f3818d61228e565b90508a604084015289606084015288608084015282810360a08401526125198189612325565b60c084019790975250506001600160a01b039390931660e08401529015156101008301521515610120909101529695505050505050565b60006101008083526125648184018c612325565b90508915156020840152881515604084015287606084015286608084015282810360a08401526125948187612325565b60c084019590955250506001600160a01b039190911660e0909101529695505050505050565b6020808252601a908201527f53656e646572206e6f7420456c656374696f6e2041646d696e21000000000000604082015260600190565b604051601f8201601f1916810167ffffffffffffffff8111828210171561261a5761261a61272a565b604052919050565b600067ffffffffffffffff82111561263c5761263c61272a565b5060051b60200190565b6000821982111561265957612659612714565b500190565b600081600019048311821515161561267857612678612714565b500290565b60005b83811015612698578181015183820152602001612680565b838111156126a7576000848401525b50505050565b6000816126bc576126bc612714565b506000190190565b600181811c908216806126d857607f821691505b60208210811415610e9857634e487b7160e01b600052602260045260246000fd5b600060001982141561270d5761270d612714565b5060010190565b634e487b7160e01b600052601160045260246000fd5b634e487b7160e01b600052604160045260246000fdfea2646970667358221220473d8a3702ba4d7787c336d38f19f4b03f8d3838e1ce5545c520b7f7edd42eb964736f6c63430008040033",
  "linkReferences": {},
  "deployedLinkReferences": {}
}