{
  "_format": "hh-sol-artifact-1",
  "contractName": "Diplomacy",
  "sourceName": "contracts/Diplomacy.sol",
  "abi": [
    {
      "inputs": [],
      "stateMutability": "nonpayable",
      "type": "constructor"
    },
    {
      "anonymous": false,
      "inputs": [
        {
          "indexed": false,
          "internalType": "address",
          "name": "voter",
          "type": "address"
        },
        {
          "indexed": false,
          "internalType": "uint256",
          "name": "electionId",
          "type": "uint256"
        },
        {
          "indexed": false,
          "internalType": "address[]",
          "name": "adrs",
          "type": "address[]"
        },
        {
          "indexed": false,
          "internalType": "string[]",
          "name": "scores",
          "type": "string[]"
        }
      ],
      "name": "BallotCast",
      "type": "event"
    },
    {
      "anonymous": false,
      "inputs": [
        {
          "indexed": false,
          "internalType": "address",
          "name": "creator",
          "type": "address"
        },
        {
          "indexed": false,
          "internalType": "uint256",
          "name": "electionId",
          "type": "uint256"
        }
      ],
      "name": "ElectionCreated",
      "type": "event"
    },
    {
      "anonymous": false,
      "inputs": [
        {
          "indexed": false,
          "internalType": "uint256",
          "name": "electionId",
          "type": "uint256"
        }
      ],
      "name": "ElectionEnded",
      "type": "event"
    },
    {
      "anonymous": false,
      "inputs": [
        {
          "indexed": false,
          "internalType": "uint256",
          "name": "electionId",
          "type": "uint256"
        }
      ],
      "name": "ElectionPaid",
      "type": "event"
    },
    {
      "anonymous": false,
      "inputs": [
        {
          "indexed": true,
          "internalType": "address",
          "name": "previousOwner",
          "type": "address"
        },
        {
          "indexed": true,
          "internalType": "address",
          "name": "newOwner",
          "type": "address"
        }
      ],
      "name": "OwnershipTransferred",
      "type": "event"
    },
    {
      "anonymous": false,
      "inputs": [
        {
          "indexed": true,
          "internalType": "bytes32",
          "name": "role",
          "type": "bytes32"
        },
        {
          "indexed": true,
          "internalType": "bytes32",
          "name": "previousAdminRole",
          "type": "bytes32"
        },
        {
          "indexed": true,
          "internalType": "bytes32",
          "name": "newAdminRole",
          "type": "bytes32"
        }
      ],
      "name": "RoleAdminChanged",
      "type": "event"
    },
    {
      "anonymous": false,
      "inputs": [
        {
          "indexed": true,
          "internalType": "bytes32",
          "name": "role",
          "type": "bytes32"
        },
        {
          "indexed": true,
          "internalType": "address",
          "name": "account",
          "type": "address"
        },
        {
          "indexed": true,
          "internalType": "address",
          "name": "sender",
          "type": "address"
        }
      ],
      "name": "RoleGranted",
      "type": "event"
    },
    {
      "anonymous": false,
      "inputs": [
        {
          "indexed": true,
          "internalType": "bytes32",
          "name": "role",
          "type": "bytes32"
        },
        {
          "indexed": true,
          "internalType": "address",
          "name": "account",
          "type": "address"
        },
        {
          "indexed": true,
          "internalType": "address",
          "name": "sender",
          "type": "address"
        }
      ],
      "name": "RoleRevoked",
      "type": "event"
    },
    {
      "inputs": [],
      "name": "DEFAULT_ADMIN_ROLE",
      "outputs": [
        {
          "internalType": "bytes32",
          "name": "",
          "type": "bytes32"
        }
      ],
      "stateMutability": "view",
      "type": "function"
    },
    {
      "inputs": [
        {
          "internalType": "uint256",
          "name": "electionId",
          "type": "uint256"
        },
        {
          "internalType": "address[]",
          "name": "_adrs",
          "type": "address[]"
        },
        {
          "internalType": "uint256[]",
          "name": "_pay",
          "type": "uint256[]"
        }
      ],
      "name": "_ethPayout",
      "outputs": [
        {
          "internalType": "bool",
          "name": "",
          "type": "bool"
        }
      ],
      "stateMutability": "payable",
      "type": "function"
    },
    {
      "inputs": [
        {
          "internalType": "uint256",
          "name": "electionId",
          "type": "uint256"
        },
        {
          "internalType": "address[]",
          "name": "_adrs",
          "type": "address[]"
        },
        {
          "internalType": "uint256[]",
          "name": "_pay",
          "type": "uint256[]"
        }
      ],
      "name": "_tokenPayout",
      "outputs": [
        {
          "internalType": "bool",
          "name": "",
          "type": "bool"
        }
      ],
      "stateMutability": "nonpayable",
      "type": "function"
    },
    {
      "inputs": [
        {
          "internalType": "uint256",
          "name": "electionId",
          "type": "uint256"
        }
      ],
      "name": "approveToken",
      "outputs": [],
      "stateMutability": "nonpayable",
      "type": "function"
    },
    {
      "inputs": [
        {
          "internalType": "uint256",
          "name": "electionId",
          "type": "uint256"
        },
        {
          "internalType": "address",
          "name": "_sender",
          "type": "address"
        }
      ],
      "name": "canVote",
      "outputs": [
        {
          "internalType": "bool",
          "name": "status",
          "type": "bool"
        }
      ],
      "stateMutability": "view",
      "type": "function"
    },
    {
      "inputs": [
        {
          "internalType": "uint256",
          "name": "electionId",
          "type": "uint256"
        },
        {
          "internalType": "address[]",
          "name": "_adrs",
          "type": "address[]"
        },
        {
          "internalType": "string[]",
          "name": "_scores",
          "type": "string[]"
        }
      ],
      "name": "castBallot",
      "outputs": [],
      "stateMutability": "nonpayable",
      "type": "function"
    },
    {
      "inputs": [
        {
          "internalType": "uint256",
          "name": "",
          "type": "uint256"
        }
      ],
      "name": "elections",
      "outputs": [
        {
          "internalType": "string",
          "name": "name",
          "type": "string"
        },
        {
          "internalType": "bool",
          "name": "active",
          "type": "bool"
        },
        {
          "internalType": "bool",
          "name": "paid",
          "type": "bool"
        },
        {
          "internalType": "uint256",
          "name": "createdAt",
          "type": "uint256"
        },
        {
          "internalType": "uint256",
          "name": "funds",
          "type": "uint256"
        },
        {
          "internalType": "string",
          "name": "fundingType",
          "type": "string"
        },
        {
          "internalType": "uint256",
          "name": "votes",
          "type": "uint256"
        },
        {
          "internalType": "address",
          "name": "admin",
          "type": "address"
        }
      ],
      "stateMutability": "view",
      "type": "function"
    },
    {
      "inputs": [
        {
          "internalType": "uint256",
          "name": "electionId",
          "type": "uint256"
        }
      ],
      "name": "endElection",
      "outputs": [],
      "stateMutability": "nonpayable",
      "type": "function"
    },
    {
      "inputs": [
        {
          "internalType": "uint256",
          "name": "electionId",
          "type": "uint256"
        }
      ],
      "name": "getElectionById",
      "outputs": [
        {
          "internalType": "string",
          "name": "name",
          "type": "string"
        },
        {
          "internalType": "address[]",
          "name": "candidates",
          "type": "address[]"
        },
        {
          "internalType": "uint256",
          "name": "n_addr",
          "type": "uint256"
        },
        {
          "internalType": "uint256",
          "name": "createdAt",
          "type": "uint256"
        },
        {
          "internalType": "uint256",
          "name": "funds",
          "type": "uint256"
        },
        {
          "internalType": "string",
          "name": "fundingType",
          "type": "string"
        },
        {
          "internalType": "uint256",
          "name": "votes",
          "type": "uint256"
        },
        {
          "internalType": "address",
          "name": "admin",
          "type": "address"
        },
        {
          "internalType": "bool",
          "name": "isActive",
          "type": "bool"
        },
        {
          "internalType": "bool",
          "name": "paid",
          "type": "bool"
        }
      ],
      "stateMutability": "view",
      "type": "function"
    },
    {
      "inputs": [
        {
          "internalType": "uint256",
          "name": "electionId",
          "type": "uint256"
        },
        {
          "internalType": "address",
          "name": "_adr",
          "type": "address"
        }
      ],
      "name": "getElectionResults",
      "outputs": [
        {
          "internalType": "int256",
          "name": "",
          "type": "int256"
        }
      ],
      "stateMutability": "view",
      "type": "function"
    },
    {
      "inputs": [
        {
          "internalType": "uint256",
          "name": "electionId",
          "type": "uint256"
        },
        {
          "internalType": "address",
          "name": "_adr",
          "type": "address"
        }
      ],
      "name": "getElectionScores",
      "outputs": [
        {
          "internalType": "string[]",
          "name": "",
          "type": "string[]"
        }
      ],
      "stateMutability": "view",
      "type": "function"
    },
    {
      "inputs": [
        {
          "internalType": "uint256",
          "name": "electionId",
          "type": "uint256"
        }
      ],
      "name": "getElectionVoted",
      "outputs": [
        {
          "internalType": "uint256",
          "name": "count",
          "type": "uint256"
        }
      ],
      "stateMutability": "view",
      "type": "function"
    },
    {
      "inputs": [
        {
          "internalType": "bytes32",
          "name": "role",
          "type": "bytes32"
        }
      ],
      "name": "getRoleAdmin",
      "outputs": [
        {
          "internalType": "bytes32",
          "name": "",
          "type": "bytes32"
        }
      ],
      "stateMutability": "view",
      "type": "function"
    },
    {
      "inputs": [
        {
          "internalType": "bytes32",
          "name": "role",
          "type": "bytes32"
        },
        {
          "internalType": "address",
          "name": "account",
          "type": "address"
        }
      ],
      "name": "grantRole",
      "outputs": [],
      "stateMutability": "nonpayable",
      "type": "function"
    },
    {
      "inputs": [
        {
          "internalType": "bytes32",
          "name": "role",
          "type": "bytes32"
        },
        {
          "internalType": "address",
          "name": "account",
          "type": "address"
        }
      ],
      "name": "hasRole",
      "outputs": [
        {
          "internalType": "bool",
          "name": "",
          "type": "bool"
        }
      ],
      "stateMutability": "view",
      "type": "function"
    },
    {
      "inputs": [
        {
          "internalType": "uint256",
          "name": "electionId",
          "type": "uint256"
        },
        {
          "internalType": "address",
          "name": "_sender",
          "type": "address"
        }
      ],
      "name": "hasVoted",
      "outputs": [
        {
          "internalType": "bool",
          "name": "",
          "type": "bool"
        }
      ],
      "stateMutability": "view",
      "type": "function"
    },
    {
      "inputs": [
        {
          "internalType": "uint256",
          "name": "electionId",
          "type": "uint256"
        },
        {
          "internalType": "address",
          "name": "_sender",
          "type": "address"
        }
      ],
      "name": "isElectionAdmin",
      "outputs": [
        {
          "internalType": "bool",
          "name": "",
          "type": "bool"
        }
      ],
      "stateMutability": "view",
      "type": "function"
    },
    {
      "inputs": [
        {
          "internalType": "uint256",
          "name": "electionId",
          "type": "uint256"
        },
        {
          "internalType": "address",
          "name": "_sender",
          "type": "address"
        }
      ],
      "name": "isElectionCandidate",
      "outputs": [
        {
          "internalType": "bool",
          "name": "status",
          "type": "bool"
        }
      ],
      "stateMutability": "view",
      "type": "function"
    },
    {
      "inputs": [
        {
          "internalType": "string",
          "name": "_name",
          "type": "string"
        },
        {
          "internalType": "uint256",
          "name": "_funds",
          "type": "uint256"
        },
        {
          "internalType": "string",
          "name": "_type",
          "type": "string"
        },
        {
          "internalType": "uint256",
          "name": "_votes",
          "type": "uint256"
        },
        {
          "internalType": "address[]",
          "name": "_adrs",
          "type": "address[]"
        }
      ],
      "name": "newElection",
      "outputs": [
        {
          "internalType": "uint256",
          "name": "electionId",
          "type": "uint256"
        }
      ],
      "stateMutability": "nonpayable",
      "type": "function"
    },
    {
      "inputs": [],
      "name": "numElections",
      "outputs": [
        {
          "internalType": "uint256",
          "name": "",
          "type": "uint256"
        }
      ],
      "stateMutability": "view",
      "type": "function"
    },
    {
      "inputs": [],
      "name": "owner",
      "outputs": [
        {
          "internalType": "address",
          "name": "",
          "type": "address"
        }
      ],
      "stateMutability": "view",
      "type": "function"
    },
    {
      "inputs": [
        {
          "internalType": "uint256",
          "name": "electionId",
          "type": "uint256"
        },
        {
          "internalType": "address[]",
          "name": "_adrs",
          "type": "address[]"
        },
        {
          "internalType": "uint256[]",
          "name": "_pay",
          "type": "uint256[]"
        }
      ],
      "name": "payoutElection",
      "outputs": [],
      "stateMutability": "payable",
      "type": "function"
    },
    {
      "inputs": [],
      "name": "renounceOwnership",
      "outputs": [],
      "stateMutability": "nonpayable",
      "type": "function"
    },
    {
      "inputs": [
        {
          "internalType": "bytes32",
          "name": "role",
          "type": "bytes32"
        },
        {
          "internalType": "address",
          "name": "account",
          "type": "address"
        }
      ],
      "name": "renounceRole",
      "outputs": [],
      "stateMutability": "nonpayable",
      "type": "function"
    },
    {
      "inputs": [
        {
          "internalType": "bytes32",
          "name": "role",
          "type": "bytes32"
        },
        {
          "internalType": "address",
          "name": "account",
          "type": "address"
        }
      ],
      "name": "revokeRole",
      "outputs": [],
      "stateMutability": "nonpayable",
      "type": "function"
    },
    {
      "inputs": [
        {
          "internalType": "bytes4",
          "name": "interfaceId",
          "type": "bytes4"
        }
      ],
      "name": "supportsInterface",
      "outputs": [
        {
          "internalType": "bool",
          "name": "",
          "type": "bool"
        }
      ],
      "stateMutability": "view",
      "type": "function"
    },
    {
      "inputs": [
        {
          "internalType": "address",
          "name": "newOwner",
          "type": "address"
        }
      ],
      "name": "transferOwnership",
      "outputs": [],
      "stateMutability": "nonpayable",
      "type": "function"
    }
  ],
  "bytecode": "0x6080604052600280546001600160a01b031916731f9840a85d5af5bf1d1762f925bdaddc4201f9841790553480156200003757600080fd5b50620000433362000056565b62000050600033620000a8565b62000158565b600180546001600160a01b038381166001600160a01b0319831681179093556040519116919082907f8be0079c531659141344cd1fd0a4f28419497f9722a3daafe3b4186f6b6457e090600090a35050565b620000b48282620000b8565b5050565b6000828152602081815260408083206001600160a01b038516845290915290205460ff16620000b4576000828152602081815260408083206001600160a01b03851684529091529020805460ff19166001179055620001143390565b6001600160a01b0316816001600160a01b0316837f2f8788117e7eff1d82e926ec794901d17c78024a50270940304540a733656f0d60405160405180910390a45050565b6127ea80620001686000396000f3fe60806040526004361061019c5760003560e01c80636e38d9bd116100ec578063be70a0091161008a578063d547741f11610064578063d547741f1461052b578063e0c446291461054b578063ea3c6cde1461056b578063f2fde38b1461058b57600080fd5b8063be70a0091461048e578063c6958b12146104d5578063cdb2867b1461050b57600080fd5b806391b84f16116100c657806391b84f16146103fa57806391d14854146104395780639c98bcbb14610459578063a217fddf1461047957600080fd5b80636e38d9bd146103a7578063715018a6146103bd5780638da5cb5b146103d257600080fd5b806336568abe116101595780634548e52b116101335780634548e52b1461032057806352e968ad146103405780635726cb5d146103605780635e6fef011461037357600080fd5b806336568abe146102965780633ac9fc11146102b657806343859632146102d657600080fd5b806301ffc9a7146101a157806308108288146101d65780630ece86d014610203578063248a9ca3146102185780632f2ff15d1461025657806334a22bc914610276575b600080fd5b3480156101ad57600080fd5b506101c16101bc36600461208d565b6105ab565b60405190151581526020015b60405180910390f35b3480156101e257600080fd5b506101f66101f136600461214d565b6105e2565b6040516101cd9190612519565b61021661021136600461223e565b6106dc565b005b34801561022457600080fd5b5061024861023336600461204a565b60009081526020819052604090206001015490565b6040519081526020016101cd565b34801561026257600080fd5b50610216610271366004612062565b61090d565b34801561028257600080fd5b506102486102913660046120b5565b610938565b3480156102a257600080fd5b506102166102b1366004612062565b610a2d565b3480156102c257600080fd5b506102166102d136600461204a565b610aab565b3480156102e257600080fd5b506101c16102f136600461214d565b60008281526004602090815260408083206001600160a01b038516845260080190915290205460ff1692915050565b34801561032c57600080fd5b5061021661033b36600461215f565b610b42565b34801561034c57600080fd5b5061024861035b36600461204a565b610e52565b6101c161036e36600461223e565b610f05565b34801561037f57600080fd5b5061039361038e36600461204a565b6110ef565b6040516101cd9897969594939291906125c4565b3480156103b357600080fd5b5061024860035481565b3480156103c957600080fd5b50610216611253565b3480156103de57600080fd5b506001546040516001600160a01b0390911681526020016101cd565b34801561040657600080fd5b506101c161041536600461214d565b600091825260046020526040909120600701546001600160a01b0390811691161490565b34801561044557600080fd5b506101c1610454366004612062565b6112b9565b34801561046557600080fd5b5061021661047436600461204a565b6112e2565b34801561048557600080fd5b50610248600081565b34801561049a57600080fd5b506102486104a936600461214d565b60008281526004602090815260408083206001600160a01b0385168452600a0190915290205492915050565b3480156104e157600080fd5b506104f56104f036600461204a565b611408565b6040516101cd9a9998979695949392919061253f565b34801561051757600080fd5b506101c161052636600461214d565b611630565b34801561053757600080fd5b50610216610546366004612062565b6116bf565b34801561055757600080fd5b506101c161056636600461223e565b6116e5565b34801561057757600080fd5b506101c161058636600461214d565b6118a7565b34801561059757600080fd5b506102166105a6366004612010565b61192f565b60006001600160e01b03198216637965db0b60e01b14806105dc57506301ffc9a760e01b6001600160e01b03198316145b92915050565b60008281526004602090815260408083206001600160a01b03851684526009018252808320805482518185028101850190935280835260609492939192909184015b828210156106d057838290600052602060002001805461064390612738565b80601f016020809104026020016040519081016040528092919081815260200182805461066f90612738565b80156106bc5780601f10610691576101008083540402835291602001916106bc565b820191906000526020600020905b81548152906001019060200180831161069f57829003601f168201915b505050505081526020019060010190610624565b50505050905092915050565b826107077f16f50c1fe196fa8f2d59c3eca367f2f7bf83b35c12ed36436b26d5af3695f5c4336112b9565b61072c5760405162461bcd60e51b81526004016107239061262e565b60405180910390fd5b6000818152600460205260409020600701546001600160a01b031633146107655760405162461bcd60e51b81526004016107239061262e565b60008481526004602052604090206001015460ff16156107c05760405162461bcd60e51b8152602060048201526016602482015275456c656374696f6e205374696c6c204163746976652160501b6044820152606401610723565b604080518082018252600381526208aa8960eb1b60209182015260008681526004909152818120915190917faaaebeba3810b1e6b70781f14b2d72c1cb89c0b2b320c43bb67ff79f562f5ff49161081a91600501906123c5565b6040518091039020141561083a57610833858585610f05565b90506108b0565b604080518082018252600381526247544360e81b6020918201526000878152600490915281902090517f7438d7d73ec9e46da3d0aa51b56d02f7e7bc34bd8939d3f4c05474ab1961f8e591610894916005909101906123c5565b604051809103902014156108b0576108ad8585856116e5565b90505b600085815260046020908152604091829020600101805461ff0019166101008515150217905590518681527fb27761a3b9064636a27795816e4f8a8e5cadd6ac8b1e3a553bd47bf414c2b402910160405180910390a15050505050565b60008281526020819052604090206001015461092981336119fa565b6109338383611a5e565b505050565b60038054600091826109498361276d565b909155506000818152600460209081526040909120885192935091610973918391908a0190611e25565b506004810186905584516109909060058301906020880190611e25565b506006810184905582516109ad9060038301906020860190611ea9565b504260028201556001808201805460ff191690911790556007810180546001600160a01b031916331790556109e183611ae2565b6109ea33611b51565b60408051338152602081018490527fc91fe4766a7a928d6625f66818425dc115b03c854a8ed8d28de2f34a684e0f1a910160405180910390a15095945050505050565b6001600160a01b0381163314610a9d5760405162461bcd60e51b815260206004820152602f60248201527f416363657373436f6e74726f6c3a2063616e206f6e6c792072656e6f756e636560448201526e103937b632b9903337b91039b2b63360891b6064820152608401610723565b610aa78282611b7b565b5050565b6002546000828152600460208181526040808420830154815163095ea7b360e01b815230948101949094526024840152516001600160a01b039094169363095ea7b3936044808501948390030190829087803b158015610b0a57600080fd5b505af1158015610b1e573d6000803e3d6000fd5b505050506040513d601f19601f82011682018060405250810190610aa7919061202a565b82610b6d7f9096faa56698daa37ec8d3542ff829c66d5e81213bd6faab8ba4e9ce824a5def336112b9565b610bb95760405162461bcd60e51b815260206004820152601e60248201527f53656e646572206e6f7420456c656374696f6e2043616e6469646174652100006044820152606401610723565b610bc381336118a7565b610c0f5760405162461bcd60e51b815260206004820152601e60248201527f53656e646572206e6f7420456c656374696f6e2043616e6469646174652100006044820152606401610723565b60008481526004602052604090206001015484908490849060ff16610c6d5760405162461bcd60e51b8152602060048201526014602482015273456c656374696f6e204e6f74204163746976652160601b6044820152606401610723565b600083815260046020908152604080832033845260080190915290205460ff1615610cd25760405162461bcd60e51b815260206004820152601560248201527453656e64657220616c726561647920766f7465642160581b6044820152606401610723565b8151815114610d235760405162461bcd60e51b815260206004820181905260248201527f53636f7265732043616e64696461746520436f756e74204d69736d61746368216044820152606401610723565b6000878152600460205260408120905b8751811015610def57816009016000898381518110610d6257634e487b7160e01b600052603260045260246000fd5b60200260200101516001600160a01b03166001600160a01b03168152602001908152602001600020878281518110610daa57634e487b7160e01b600052603260045260246000fd5b60209081029190910181015182546001810184556000938452928290208151610ddc9491909101929190910190611e25565b5080610de78161276d565b915050610d33565b5033600081815260088301602052604090819020805460ff19166001179055517faaf8175507b94c84621088891ecf31ca1c2548c0aeab2f2f21d3459515f9c4ed91610e40918b908b908b906124d5565b60405180910390a15050505050505050565b6000805b600083815260046020526040902060030154811015610eff576000838152600460205260408120600301805483908110610ea057634e487b7160e01b600052603260045260246000fd5b60009182526020808320909101548683526004825260408084206001600160a01b03909216808552600890920190925291205490915060ff1615610eec5782610ee88161276d565b9350505b5080610ef78161276d565b915050610e56565b50919050565b60008060005b60008681526004602052604090206003015481101561103357848181518110610f4457634e487b7160e01b600052603260045260246000fd5b60200260200101516001600160a01b0316600460008881526020019081526020016000206003018281548110610f8a57634e487b7160e01b600052603260045260246000fd5b6000918252602090912001546001600160a01b031614610fec5760405162461bcd60e51b815260206004820152601a60248201527f456c656374696f6e2d41646472657373204d69736d61746368210000000000006044820152606401610723565b83818151811061100c57634e487b7160e01b600052603260045260246000fd5b60200260200101518261101f91906126ba565b91508061102b8161276d565b915050610f0b565b5060005b83518110156110e35784818151811061106057634e487b7160e01b600052603260045260246000fd5b60200260200101516001600160a01b03166108fc85838151811061109457634e487b7160e01b600052603260045260246000fd5b602002602001015160016110a891906126d2565b6040518115909202916000818181858888f193505050501580156110d0573d6000803e3d6000fd5b50806110db8161276d565b915050611037565b50600195945050505050565b60046020526000908152604090208054819061110a90612738565b80601f016020809104026020016040519081016040528092919081815260200182805461113690612738565b80156111835780601f1061115857610100808354040283529160200191611183565b820191906000526020600020905b81548152906001019060200180831161116657829003601f168201915b505050600184015460028501546004860154600587018054969760ff8086169861010090960416965092945090926111ba90612738565b80601f01602080910402602001604051908101604052809291908181526020018280546111e690612738565b80156112335780601f1061120857610100808354040283529160200191611233565b820191906000526020600020905b81548152906001019060200180831161121657829003601f168201915b5050505060068301546007909301549192916001600160a01b0316905088565b6001546001600160a01b031633146112ad5760405162461bcd60e51b815260206004820181905260248201527f4f776e61626c653a2063616c6c6572206973206e6f7420746865206f776e65726044820152606401610723565b6112b76000611be0565b565b6000918252602082815260408084206001600160a01b0393909316845291905290205460ff1690565b8061130d7f16f50c1fe196fa8f2d59c3eca367f2f7bf83b35c12ed36436b26d5af3695f5c4336112b9565b6113295760405162461bcd60e51b81526004016107239061262e565b6000818152600460205260409020600701546001600160a01b031633146113625760405162461bcd60e51b81526004016107239061262e565b6000828152600460205260409020600181015460ff166113c45760405162461bcd60e51b815260206004820152601760248201527f456c656374696f6e20416c726561647920456e646564210000000000000000006044820152606401610723565b60018101805460ff191690556040518381527f562cd572b2ba3b666cd989fc4ca98419ec81e75f04528df9d9d76fdb7807ee719060200160405180910390a1505050565b60608060008060006060600080600080600460008c8152602001908152602001600020600001805461143990612738565b80601f016020809104026020016040519081016040528092919081815260200182805461146590612738565b80156114b25780601f10611487576101008083540402835291602001916114b2565b820191906000526020600020905b81548152906001019060200180831161149557829003601f168201915b50505050509950600460008c815260200190815260200160002060030180548060200260200160405190810160405280929190818152602001828054801561152357602002820191906000526020600020905b81546001600160a01b03168152600190910190602001808311611505575b50505060008e8152600460208190526040909120600381015460028201549282015460059092018054969f50909d50919b5099509261156492509050612738565b80601f016020809104026020016040519081016040528092919081815260200182805461159090612738565b80156115dd5780601f106115b2576101008083540402835291602001916115dd565b820191906000526020600020905b8154815290600101906020018083116115c057829003601f168201915b50505060009d8e52505060046020526040909b20600681015460078201546001909201549b9d9a9c999b989a97999890976001600160a01b03909216965060ff8082169650610100909104169350915050565b6000805b6000848152600460205260409020600301548110156116b857600084815260046020526040812060030180548390811061167e57634e487b7160e01b600052603260045260246000fd5b6000918252602090912001546001600160a01b03908116915084168114156116a557600192505b50806116b08161276d565b915050611634565b5092915050565b6000828152602081905260409020600101546116db81336119fa565b6109338383611b7b565b600254600084815260046020819052604080832082015490516323b872dd60e01b81523392810192909252306024830152604482015290916001600160a01b0316906323b872dd90606401602060405180830381600087803b15801561174a57600080fd5b505af115801561175e573d6000803e3d6000fd5b505050506040513d601f19601f82011682018060405250810190611782919061202a565b5060005b60008581526004602052604090206003015481101561189c5760025484516001600160a01b039091169063a9059cbb908690849081106117d657634e487b7160e01b600052603260045260246000fd5b60200260200101518584815181106117fe57634e487b7160e01b600052603260045260246000fd5b60200260200101516040518363ffffffff1660e01b81526004016118379291906001600160a01b03929092168252602082015260400190565b602060405180830381600087803b15801561185157600080fd5b505af1158015611865573d6000803e3d6000fd5b505050506040513d601f19601f82011682018060405250810190611889919061202a565b50806118948161276d565b915050611786565b506001949350505050565b6000805b6000848152600460205260409020600301548110156116b85760008481526004602052604090206003018054829081106118f557634e487b7160e01b600052603260045260246000fd5b6000918252602090912001546001600160a01b038481169116141561191d57600191506116b8565b806119278161276d565b9150506118ab565b6001546001600160a01b031633146119895760405162461bcd60e51b815260206004820181905260248201527f4f776e61626c653a2063616c6c6572206973206e6f7420746865206f776e65726044820152606401610723565b6001600160a01b0381166119ee5760405162461bcd60e51b815260206004820152602660248201527f4f776e61626c653a206e6577206f776e657220697320746865207a65726f206160448201526564647265737360d01b6064820152608401610723565b6119f781611be0565b50565b611a0482826112b9565b610aa757611a1c816001600160a01b03166014611c32565b611a27836020611c32565b604051602001611a38929190612460565b60408051601f198184030181529082905262461bcd60e51b82526107239160040161252c565b611a6882826112b9565b610aa7576000828152602081815260408083206001600160a01b03851684529091529020805460ff19166001179055611a9e3390565b6001600160a01b0316816001600160a01b0316837f2f8788117e7eff1d82e926ec794901d17c78024a50270940304540a733656f0d60405160405180910390a45050565b60005b8151811015610aa757611b3f7f9096faa56698daa37ec8d3542ff829c66d5e81213bd6faab8ba4e9ce824a5def838381518110611b3257634e487b7160e01b600052603260045260246000fd5b6020026020010151611e1b565b80611b498161276d565b915050611ae5565b6119f77f16f50c1fe196fa8f2d59c3eca367f2f7bf83b35c12ed36436b26d5af3695f5c482611e1b565b611b8582826112b9565b15610aa7576000828152602081815260408083206001600160a01b0385168085529252808320805460ff1916905551339285917ff6391f5c32d9c69d2a47ea670b442974b53935d1edc7fd64eb21e047a839171b9190a45050565b600180546001600160a01b038381166001600160a01b0319831681179093556040519116919082907f8be0079c531659141344cd1fd0a4f28419497f9722a3daafe3b4186f6b6457e090600090a35050565b60606000611c418360026126d2565b611c4c9060026126ba565b67ffffffffffffffff811115611c7257634e487b7160e01b600052604160045260246000fd5b6040519080825280601f01601f191660200182016040528015611c9c576020820181803683370190505b509050600360fc1b81600081518110611cc557634e487b7160e01b600052603260045260246000fd5b60200101906001600160f81b031916908160001a905350600f60fb1b81600181518110611d0257634e487b7160e01b600052603260045260246000fd5b60200101906001600160f81b031916908160001a9053506000611d268460026126d2565b611d319060016126ba565b90505b6001811115611dc5576f181899199a1a9b1b9c1cb0b131b232b360811b85600f1660108110611d7357634e487b7160e01b600052603260045260246000fd5b1a60f81b828281518110611d9757634e487b7160e01b600052603260045260246000fd5b60200101906001600160f81b031916908160001a90535060049490941c93611dbe81612721565b9050611d34565b508315611e145760405162461bcd60e51b815260206004820181905260248201527f537472696e67733a20686578206c656e67746820696e73756666696369656e746044820152606401610723565b9392505050565b610aa78282611a5e565b828054611e3190612738565b90600052602060002090601f016020900481019282611e535760008555611e99565b82601f10611e6c57805160ff1916838001178555611e99565b82800160010185558215611e99579182015b82811115611e99578251825591602001919060010190611e7e565b50611ea5929150611efe565b5090565b828054828255906000526020600020908101928215611e99579160200282015b82811115611e9957825182546001600160a01b0319166001600160a01b03909116178255602090920191600190910190611ec9565b5b80821115611ea55760008155600101611eff565b80356001600160a01b0381168114611f2a57600080fd5b919050565b600082601f830112611f3f578081fd5b81356020611f54611f4f83612696565b612665565b80838252828201915082860187848660051b8901011115611f73578586fd5b855b85811015611f9857611f8682611f13565b84529284019290840190600101611f75565b5090979650505050505050565b600082601f830112611fb5578081fd5b813567ffffffffffffffff811115611fcf57611fcf61279e565b611fe2601f8201601f1916602001612665565b818152846020838601011115611ff6578283fd5b816020850160208301379081016020019190915292915050565b600060208284031215612021578081fd5b611e1482611f13565b60006020828403121561203b578081fd5b81518015158114611e14578182fd5b60006020828403121561205b578081fd5b5035919050565b60008060408385031215612074578081fd5b8235915061208460208401611f13565b90509250929050565b60006020828403121561209e578081fd5b81356001600160e01b031981168114611e14578182fd5b600080600080600060a086880312156120cc578081fd5b853567ffffffffffffffff808211156120e3578283fd5b6120ef89838a01611fa5565b965060208801359550604088013591508082111561210b578283fd5b61211789838a01611fa5565b9450606088013593506080880135915080821115612133578283fd5b5061214088828901611f2f565b9150509295509295909350565b60008060408385031215612074578182fd5b600080600060608486031215612173578283fd5b8335925060208085013567ffffffffffffffff80821115612192578485fd5b61219e88838901611f2f565b945060408701359150808211156121b3578384fd5b818701915087601f8301126121c6578384fd5b81356121d4611f4f82612696565b8082825285820191508585018b878560051b88010111156121f3578788fd5b875b8481101561222c5781358681111561220b57898afd5b6122198e8a838b0101611fa5565b85525092870192908701906001016121f5565b50508096505050505050509250925092565b600080600060608486031215612252578081fd5b8335925060208085013567ffffffffffffffff80821115612271578384fd5b61227d88838901611f2f565b94506040870135915080821115612292578384fd5b508501601f810187136122a3578283fd5b80356122b1611f4f82612696565b8082825284820191508484018a868560051b87010111156122d0578687fd5b8694505b838510156122f25780358352600194909401939185019185016122d4565b5080955050505050509250925092565b6000815180845260208085019450808401835b8381101561233a5781516001600160a01b031687529582019590820190600101612315565b509495945050505050565b600081518084526020808501808196508360051b81019150828601855b8581101561238c57828403895261237a848351612399565b98850198935090840190600101612362565b5091979650505050505050565b600081518084526123b18160208601602086016126f1565b601f01601f19169290920160200192915050565b600080835482600182811c9150808316806123e157607f831692505b602080841082141561240157634e487b7160e01b87526022600452602487fd5b818015612415576001811461242657612452565b60ff19861689528489019650612452565b60008a815260209020885b8681101561244a5781548b820152908501908301612431565b505084890196505b509498975050505050505050565b7f416363657373436f6e74726f6c3a206163636f756e74200000000000000000008152600083516124988160178501602088016126f1565b7001034b99036b4b9b9b4b733903937b6329607d1b60179184019182015283516124c98160288401602088016126f1565b01602801949350505050565b60018060a01b03851681528360208201526080604082015260006124fc6080830185612302565b828103606084015261250e8185612345565b979650505050505050565b602081526000611e146020830184612345565b602081526000611e146020830184612399565b60006101408083526125538184018e612399565b90508281036020840152612567818d612302565b90508a604084015289606084015288608084015282810360a084015261258d8189612399565b60c084019790975250506001600160a01b039390931660e08401529015156101008301521515610120909101529695505050505050565b60006101008083526125d88184018c612399565b90508915156020840152881515604084015287606084015286608084015282810360a08401526126088187612399565b60c084019590955250506001600160a01b039190911660e0909101529695505050505050565b6020808252601a908201527f53656e646572206e6f7420456c656374696f6e2041646d696e21000000000000604082015260600190565b604051601f8201601f1916810167ffffffffffffffff8111828210171561268e5761268e61279e565b604052919050565b600067ffffffffffffffff8211156126b0576126b061279e565b5060051b60200190565b600082198211156126cd576126cd612788565b500190565b60008160001904831182151516156126ec576126ec612788565b500290565b60005b8381101561270c5781810151838201526020016126f4565b8381111561271b576000848401525b50505050565b60008161273057612730612788565b506000190190565b600181811c9082168061274c57607f821691505b60208210811415610eff57634e487b7160e01b600052602260045260246000fd5b600060001982141561278157612781612788565b5060010190565b634e487b7160e01b600052601160045260246000fd5b634e487b7160e01b600052604160045260246000fdfea2646970667358221220a5906077422f3779b79eec93dfe55cf0c565dc8619f10ee12a10c9a9e987fa6d64736f6c63430008040033",
  "linkReferences": {},
  "deployedLinkReferences": {}
}