{
  "_format": "hh-sol-artifact-1",
  "contractName": "Diplomacy",
  "sourceName": "contracts/Diplomacy.sol",
  "abi": [
    {
      "inputs": [],
      "stateMutability": "nonpayable",
      "type": "constructor"
    },
    {
      "anonymous": false,
      "inputs": [
        {
          "indexed": false,
          "internalType": "address",
          "name": "voter",
          "type": "address"
        },
        {
          "indexed": false,
          "internalType": "uint256",
          "name": "electionId",
          "type": "uint256"
        },
        {
          "indexed": false,
          "internalType": "address[]",
          "name": "adrs",
          "type": "address[]"
        },
        {
          "indexed": false,
          "internalType": "string[]",
          "name": "scores",
          "type": "string[]"
        }
      ],
      "name": "BallotCast",
      "type": "event"
    },
    {
      "anonymous": false,
      "inputs": [
        {
          "indexed": false,
          "internalType": "address",
          "name": "creator",
          "type": "address"
        },
        {
          "indexed": false,
          "internalType": "uint256",
          "name": "electionId",
          "type": "uint256"
        }
      ],
      "name": "ElectionCreated",
      "type": "event"
    },
    {
      "anonymous": false,
      "inputs": [
        {
          "indexed": false,
          "internalType": "uint256",
          "name": "electionId",
          "type": "uint256"
        }
      ],
      "name": "ElectionEnded",
      "type": "event"
    },
    {
      "anonymous": false,
      "inputs": [
        {
          "indexed": false,
          "internalType": "uint256",
          "name": "electionId",
          "type": "uint256"
        }
      ],
      "name": "ElectionPaid",
      "type": "event"
    },
    {
      "anonymous": false,
      "inputs": [
        {
          "indexed": true,
          "internalType": "address",
          "name": "previousOwner",
          "type": "address"
        },
        {
          "indexed": true,
          "internalType": "address",
          "name": "newOwner",
          "type": "address"
        }
      ],
      "name": "OwnershipTransferred",
      "type": "event"
    },
    {
      "anonymous": false,
      "inputs": [
        {
          "indexed": true,
          "internalType": "bytes32",
          "name": "role",
          "type": "bytes32"
        },
        {
          "indexed": true,
          "internalType": "bytes32",
          "name": "previousAdminRole",
          "type": "bytes32"
        },
        {
          "indexed": true,
          "internalType": "bytes32",
          "name": "newAdminRole",
          "type": "bytes32"
        }
      ],
      "name": "RoleAdminChanged",
      "type": "event"
    },
    {
      "anonymous": false,
      "inputs": [
        {
          "indexed": true,
          "internalType": "bytes32",
          "name": "role",
          "type": "bytes32"
        },
        {
          "indexed": true,
          "internalType": "address",
          "name": "account",
          "type": "address"
        },
        {
          "indexed": true,
          "internalType": "address",
          "name": "sender",
          "type": "address"
        }
      ],
      "name": "RoleGranted",
      "type": "event"
    },
    {
      "anonymous": false,
      "inputs": [
        {
          "indexed": true,
          "internalType": "bytes32",
          "name": "role",
          "type": "bytes32"
        },
        {
          "indexed": true,
          "internalType": "address",
          "name": "account",
          "type": "address"
        },
        {
          "indexed": true,
          "internalType": "address",
          "name": "sender",
          "type": "address"
        }
      ],
      "name": "RoleRevoked",
      "type": "event"
    },
    {
      "inputs": [],
      "name": "DEFAULT_ADMIN_ROLE",
      "outputs": [
        {
          "internalType": "bytes32",
          "name": "",
          "type": "bytes32"
        }
      ],
      "stateMutability": "view",
      "type": "function"
    },
    {
      "inputs": [
        {
          "internalType": "uint256",
          "name": "electionId",
          "type": "uint256"
        }
      ],
      "name": "approveToken",
      "outputs": [],
      "stateMutability": "nonpayable",
      "type": "function"
    },
    {
      "inputs": [
        {
          "internalType": "uint256",
          "name": "electionId",
          "type": "uint256"
        },
        {
          "internalType": "address",
          "name": "_sender",
          "type": "address"
        }
      ],
      "name": "canVote",
      "outputs": [
        {
          "internalType": "bool",
          "name": "status",
          "type": "bool"
        }
      ],
      "stateMutability": "view",
      "type": "function"
    },
    {
      "inputs": [
        {
          "internalType": "uint256",
          "name": "electionId",
          "type": "uint256"
        },
        {
          "internalType": "address[]",
          "name": "_adrs",
          "type": "address[]"
        },
        {
          "internalType": "string[]",
          "name": "_scores",
          "type": "string[]"
        }
      ],
      "name": "castBallot",
      "outputs": [],
      "stateMutability": "nonpayable",
      "type": "function"
    },
    {
      "inputs": [
        {
          "internalType": "uint256",
          "name": "",
          "type": "uint256"
        }
      ],
      "name": "elections",
      "outputs": [
        {
          "internalType": "string",
          "name": "name",
          "type": "string"
        },
        {
          "internalType": "bool",
          "name": "active",
          "type": "bool"
        },
        {
          "internalType": "bool",
          "name": "paid",
          "type": "bool"
        },
        {
          "internalType": "uint256",
          "name": "createdAt",
          "type": "uint256"
        },
        {
          "internalType": "uint256",
          "name": "funds",
          "type": "uint256"
        },
        {
          "internalType": "address",
          "name": "token",
          "type": "address"
        },
        {
          "internalType": "uint256",
          "name": "votes",
          "type": "uint256"
        },
        {
          "internalType": "address",
          "name": "admin",
          "type": "address"
        }
      ],
      "stateMutability": "view",
      "type": "function"
    },
    {
      "inputs": [
        {
          "internalType": "uint256",
          "name": "electionId",
          "type": "uint256"
        }
      ],
      "name": "endElection",
      "outputs": [],
      "stateMutability": "nonpayable",
      "type": "function"
    },
    {
      "inputs": [
        {
          "internalType": "uint256",
          "name": "electionId",
          "type": "uint256"
        }
      ],
      "name": "getElectionById",
      "outputs": [
        {
          "internalType": "string",
          "name": "name",
          "type": "string"
        },
        {
          "internalType": "address[]",
          "name": "candidates",
          "type": "address[]"
        },
        {
          "internalType": "uint256",
          "name": "n_addr",
          "type": "uint256"
        },
        {
          "internalType": "uint256",
          "name": "createdAt",
          "type": "uint256"
        },
        {
          "internalType": "uint256",
          "name": "funds",
          "type": "uint256"
        },
        {
          "internalType": "address",
          "name": "token",
          "type": "address"
        },
        {
          "internalType": "uint256",
          "name": "votes",
          "type": "uint256"
        },
        {
          "internalType": "address",
          "name": "admin",
          "type": "address"
        },
        {
          "internalType": "bool",
          "name": "isActive",
          "type": "bool"
        },
        {
          "internalType": "bool",
          "name": "paid",
          "type": "bool"
        }
      ],
      "stateMutability": "view",
      "type": "function"
    },
    {
      "inputs": [
        {
          "internalType": "uint256",
          "name": "electionId",
          "type": "uint256"
        },
        {
          "internalType": "address",
          "name": "_adr",
          "type": "address"
        }
      ],
      "name": "getElectionScores",
      "outputs": [
        {
          "internalType": "string[]",
          "name": "",
          "type": "string[]"
        }
      ],
      "stateMutability": "view",
      "type": "function"
    },
    {
      "inputs": [
        {
          "internalType": "uint256",
          "name": "electionId",
          "type": "uint256"
        }
      ],
      "name": "getElectionVoted",
      "outputs": [
        {
          "internalType": "uint256",
          "name": "count",
          "type": "uint256"
        }
      ],
      "stateMutability": "view",
      "type": "function"
    },
    {
      "inputs": [
        {
          "internalType": "bytes32",
          "name": "role",
          "type": "bytes32"
        }
      ],
      "name": "getRoleAdmin",
      "outputs": [
        {
          "internalType": "bytes32",
          "name": "",
          "type": "bytes32"
        }
      ],
      "stateMutability": "view",
      "type": "function"
    },
    {
      "inputs": [
        {
          "internalType": "bytes32",
          "name": "role",
          "type": "bytes32"
        },
        {
          "internalType": "address",
          "name": "account",
          "type": "address"
        }
      ],
      "name": "grantRole",
      "outputs": [],
      "stateMutability": "nonpayable",
      "type": "function"
    },
    {
      "inputs": [
        {
          "internalType": "bytes32",
          "name": "role",
          "type": "bytes32"
        },
        {
          "internalType": "address",
          "name": "account",
          "type": "address"
        }
      ],
      "name": "hasRole",
      "outputs": [
        {
          "internalType": "bool",
          "name": "",
          "type": "bool"
        }
      ],
      "stateMutability": "view",
      "type": "function"
    },
    {
      "inputs": [
        {
          "internalType": "uint256",
          "name": "electionId",
          "type": "uint256"
        },
        {
          "internalType": "address",
          "name": "_sender",
          "type": "address"
        }
      ],
      "name": "hasVoted",
      "outputs": [
        {
          "internalType": "bool",
          "name": "",
          "type": "bool"
        }
      ],
      "stateMutability": "view",
      "type": "function"
    },
    {
      "inputs": [
        {
          "internalType": "uint256",
          "name": "electionId",
          "type": "uint256"
        },
        {
          "internalType": "address",
          "name": "_sender",
          "type": "address"
        }
      ],
      "name": "isElectionAdmin",
      "outputs": [
        {
          "internalType": "bool",
          "name": "",
          "type": "bool"
        }
      ],
      "stateMutability": "view",
      "type": "function"
    },
    {
      "inputs": [
        {
          "internalType": "uint256",
          "name": "electionId",
          "type": "uint256"
        },
        {
          "internalType": "address",
          "name": "_sender",
          "type": "address"
        }
      ],
      "name": "isElectionCandidate",
      "outputs": [
        {
          "internalType": "bool",
          "name": "status",
          "type": "bool"
        }
      ],
      "stateMutability": "view",
      "type": "function"
    },
    {
      "inputs": [
        {
          "internalType": "string",
          "name": "_name",
          "type": "string"
        },
        {
          "internalType": "uint256",
          "name": "_funds",
          "type": "uint256"
        },
        {
          "internalType": "address",
          "name": "_token",
          "type": "address"
        },
        {
          "internalType": "uint256",
          "name": "_votes",
          "type": "uint256"
        },
        {
          "internalType": "address[]",
          "name": "_adrs",
          "type": "address[]"
        }
      ],
      "name": "newElection",
      "outputs": [
        {
          "internalType": "uint256",
          "name": "electionId",
          "type": "uint256"
        }
      ],
      "stateMutability": "nonpayable",
      "type": "function"
    },
    {
      "inputs": [],
      "name": "numElections",
      "outputs": [
        {
          "internalType": "uint256",
          "name": "",
          "type": "uint256"
        }
      ],
      "stateMutability": "view",
      "type": "function"
    },
    {
      "inputs": [],
      "name": "owner",
      "outputs": [
        {
          "internalType": "address",
          "name": "",
          "type": "address"
        }
      ],
      "stateMutability": "view",
      "type": "function"
    },
    {
      "inputs": [
        {
          "internalType": "uint256",
          "name": "electionId",
          "type": "uint256"
        },
        {
          "internalType": "address[]",
          "name": "_adrs",
          "type": "address[]"
        },
        {
          "internalType": "uint256[]",
          "name": "_pay",
          "type": "uint256[]"
        }
      ],
      "name": "payoutElection",
      "outputs": [],
      "stateMutability": "payable",
      "type": "function"
    },
    {
      "inputs": [],
      "name": "renounceOwnership",
      "outputs": [],
      "stateMutability": "nonpayable",
      "type": "function"
    },
    {
      "inputs": [
        {
          "internalType": "bytes32",
          "name": "role",
          "type": "bytes32"
        },
        {
          "internalType": "address",
          "name": "account",
          "type": "address"
        }
      ],
      "name": "renounceRole",
      "outputs": [],
      "stateMutability": "nonpayable",
      "type": "function"
    },
    {
      "inputs": [
        {
          "internalType": "bytes32",
          "name": "role",
          "type": "bytes32"
        },
        {
          "internalType": "address",
          "name": "account",
          "type": "address"
        }
      ],
      "name": "revokeRole",
      "outputs": [],
      "stateMutability": "nonpayable",
      "type": "function"
    },
    {
      "inputs": [
        {
          "internalType": "uint256",
          "name": "",
          "type": "uint256"
        },
        {
          "internalType": "address",
          "name": "",
          "type": "address"
        },
        {
          "internalType": "uint256",
          "name": "",
          "type": "uint256"
        }
      ],
      "name": "scores",
      "outputs": [
        {
          "internalType": "string",
          "name": "",
          "type": "string"
        }
      ],
      "stateMutability": "view",
      "type": "function"
    },
    {
      "inputs": [
        {
          "internalType": "bytes4",
          "name": "interfaceId",
          "type": "bytes4"
        }
      ],
      "name": "supportsInterface",
      "outputs": [
        {
          "internalType": "bool",
          "name": "",
          "type": "bool"
        }
      ],
      "stateMutability": "view",
      "type": "function"
    },
    {
      "inputs": [
        {
          "internalType": "address",
          "name": "newOwner",
          "type": "address"
        }
      ],
      "name": "transferOwnership",
      "outputs": [],
      "stateMutability": "nonpayable",
      "type": "function"
    },
    {
      "inputs": [
        {
          "internalType": "uint256",
          "name": "",
          "type": "uint256"
        },
        {
          "internalType": "address",
          "name": "",
          "type": "address"
        }
      ],
      "name": "voted",
      "outputs": [
        {
          "internalType": "bool",
          "name": "",
          "type": "bool"
        }
      ],
      "stateMutability": "view",
      "type": "function"
    }
  ],
  "bytecode": "0x60806040523480156200001157600080fd5b506200001d3362000035565b60016002556200002f60003362000087565b62000137565b600180546001600160a01b038381166001600160a01b0319831681179093556040519116919082907f8be0079c531659141344cd1fd0a4f28419497f9722a3daafe3b4186f6b6457e090600090a35050565b62000093828262000097565b5050565b6000828152602081815260408083206001600160a01b038516845290915290205460ff1662000093576000828152602081815260408083206001600160a01b03851684529091529020805460ff19166001179055620000f33390565b6001600160a01b0316816001600160a01b0316837f2f8788117e7eff1d82e926ec794901d17c78024a50270940304540a733656f0d60405160405180910390a45050565b612a5e80620001476000396000f3fe6080604052600436106101815760003560e01c80636e38d9bd116100d1578063a217fddf1161008a578063cdb2867b11610064578063cdb2867b146104fe578063d547741f1461051e578063ea3c6cde1461053e578063f2fde38b1461055e57600080fd5b8063a217fddf14610486578063b082c3851461049b578063c6958b12146104c857600080fd5b80636e38d9bd146103b4578063715018a6146103ca5780638da5cb5b146103df57806391b84f161461040757806391d14854146104465780639c98bcbb1461046657600080fd5b80633ac9fc111161013e5780634b8b477e116101185780634b8b477e146103055780635277b4ae1461032557806352e968ad146103605780635e6fef011461038057600080fd5b80633ac9fc111461027b578063438596321461029b5780634548e52b146102e557600080fd5b806301ffc9a71461018657806308108288146101bb5780630ece86d0146101e8578063248a9ca3146101fd5780632f2ff15d1461023b57806336568abe1461025b575b600080fd5b34801561019257600080fd5b506101a66101a136600461236a565b61057e565b60405190151581526020015b60405180910390f35b3480156101c757600080fd5b506101db6101d6366004612417565b6105b5565b6040516101b2919061278d565b6101fb6101f636600461253c565b6106af565b005b34801561020957600080fd5b5061022d610218366004612327565b60009081526020819052604090206001015490565b6040519081526020016101b2565b34801561024757600080fd5b506101fb61025636600461233f565b610878565b34801561026757600080fd5b506101fb61027636600461233f565b6108a3565b34801561028757600080fd5b506101fb610296366004612327565b610921565b3480156102a757600080fd5b506101a66102b6366004612417565b60008281526005602090815260408083206001600160a01b038516845260080190915290205460ff1692915050565b3480156102f157600080fd5b506101fb61030036600461245d565b6109c0565b34801561031157600080fd5b5061022d610320366004612392565b610cd0565b34801561033157600080fd5b506101a6610340366004612417565b600360209081526000928352604080842090915290825290205460ff1681565b34801561036c57600080fd5b5061022d61037b366004612327565b610d57565b34801561038c57600080fd5b506103a061039b366004612327565b610e0a565b6040516101b298979695949392919061282c565b3480156103c057600080fd5b5061022d60065481565b3480156103d657600080fd5b506101fb610ee7565b3480156103eb57600080fd5b506001546040516001600160a01b0390911681526020016101b2565b34801561041357600080fd5b506101a6610422366004612417565b600091825260056020526040909120600701546001600160a01b0390811691161490565b34801561045257600080fd5b506101a661046136600461233f565b610f4d565b34801561047257600080fd5b506101fb610481366004612327565b610f76565b34801561049257600080fd5b5061022d600081565b3480156104a757600080fd5b506104bb6104b6366004612429565b61108a565b6040516101b291906127a0565b3480156104d457600080fd5b506104e86104e3366004612327565b611150565b6040516101b29a999897969594939291906127b3565b34801561050a57600080fd5b506101a6610519366004612417565b611389565b34801561052a57600080fd5b506101fb61053936600461233f565b611418565b34801561054a57600080fd5b506101a6610559366004612417565b61143e565b34801561056a57600080fd5b506101fb6105793660046122ed565b6114c6565b60006001600160e01b03198216637965db0b60e01b14806105af57506301ffc9a760e01b6001600160e01b03198316145b92915050565b60008281526005602090815260408083206001600160a01b03851684526009018252808320805482518185028101850190935280835260609492939192909184015b828210156106a35783829060005260206000200180546106169061298c565b80601f01602080910402602001604051908101604052809291908181526020018280546106429061298c565b801561068f5780601f106106645761010080835404028352916020019161068f565b820191906000526020600020905b81548152906001019060200180831161067257829003601f168201915b5050505050815260200190600101906105f7565b50505050905092915050565b826106c8600080516020612a0983398151915233610f4d565b6106ed5760405162461bcd60e51b81526004016106e490612886565b60405180910390fd5b6000818152600560205260409020600701546001600160a01b031633146107265760405162461bcd60e51b81526004016106e490612886565b6002805414156107785760405162461bcd60e51b815260206004820152601f60248201527f5265656e7472616e637947756172643a207265656e7472616e742063616c6c0060448201526064016106e4565b6002805560008481526005602052604090206001015460ff16156107d75760405162461bcd60e51b8152602060048201526016602482015275456c656374696f6e205374696c6c204163746976652160501b60448201526064016106e4565b6000848152600560208190526040822001546001600160a01b031661080857610801858585611591565b9050610816565b610813858585611846565b90505b600085815260056020908152604091829020600101805461ff0019166101008515150217905590518681527fb27761a3b9064636a27795816e4f8a8e5cadd6ac8b1e3a553bd47bf414c2b402910160405180910390a150506001600255505050565b60008281526020819052604090206001015461089481336118fe565b61089e8383611962565b505050565b6001600160a01b03811633146109135760405162461bcd60e51b815260206004820152602f60248201527f416363657373436f6e74726f6c3a2063616e206f6e6c792072656e6f756e636560448201526e103937b632b9903337b91039b2b63360891b60648201526084016106e4565b61091d82826119e6565b5050565b60008181526005602081905260409182902090810154600491820154925163095ea7b360e01b8152309281019290925260248201929092526001600160a01b039091169063095ea7b390604401602060405180830381600087803b15801561098857600080fd5b505af115801561099c573d6000803e3d6000fd5b505050506040513d601f19601f8201168201806040525081019061091d9190612307565b826109eb7f9096faa56698daa37ec8d3542ff829c66d5e81213bd6faab8ba4e9ce824a5def33610f4d565b610a375760405162461bcd60e51b815260206004820152601e60248201527f53656e646572206e6f7420456c656374696f6e2043616e64696461746521000060448201526064016106e4565b610a41813361143e565b610a8d5760405162461bcd60e51b815260206004820152601e60248201527f53656e646572206e6f7420456c656374696f6e2043616e64696461746521000060448201526064016106e4565b60008481526005602052604090206001015484908490849060ff16610aeb5760405162461bcd60e51b8152602060048201526014602482015273456c656374696f6e204e6f74204163746976652160601b60448201526064016106e4565b600083815260056020908152604080832033845260080190915290205460ff1615610b505760405162461bcd60e51b815260206004820152601560248201527453656e64657220616c726561647920766f7465642160581b60448201526064016106e4565b8151815114610ba15760405162461bcd60e51b815260206004820152601a60248201527f53636f726573202d2041646472657373204d69736d617463682100000000000060448201526064016106e4565b6000878152600560205260408120905b8751811015610c6d57816009016000898381518110610be057634e487b7160e01b600052603260045260246000fd5b60200260200101516001600160a01b03166001600160a01b03168152602001908152602001600020878281518110610c2857634e487b7160e01b600052603260045260246000fd5b60209081029190910181015182546001810184556000938452928290208151610c5a9491909101929190910190612102565b5080610c65816129c1565b915050610bb1565b5033600081815260088301602052604090819020805460ff19166001179055517faaf8175507b94c84621088891ecf31ca1c2548c0aeab2f2f21d3459515f9c4ed91610cbe918b908b908b90612754565b60405180910390a15050505050505050565b60006001600160a01b038416610cf357610cec86868585611a4b565b9050610d03565b610d008686868686611ad8565b90505b610d0c82611b87565b610d1533611bf6565b60408051338152602081018390527fc91fe4766a7a928d6625f66818425dc115b03c854a8ed8d28de2f34a684e0f1a910160405180910390a195945050505050565b6000805b600083815260056020526040902060030154811015610e04576000838152600560205260408120600301805483908110610da557634e487b7160e01b600052603260045260246000fd5b60009182526020808320909101548683526005825260408084206001600160a01b03909216808552600890920190925291205490915060ff1615610df15782610ded816129c1565b9350505b5080610dfc816129c1565b915050610d5b565b50919050565b600560205260009081526040902080548190610e259061298c565b80601f0160208091040260200160405190810160405280929190818152602001828054610e519061298c565b8015610e9e5780601f10610e7357610100808354040283529160200191610e9e565b820191906000526020600020905b815481529060010190602001808311610e8157829003601f168201915b50505060018401546002850154600486015460058701546006880154600790980154969760ff8086169861010090960416965092945090926001600160a01b0391821692911688565b6001546001600160a01b03163314610f415760405162461bcd60e51b815260206004820181905260248201527f4f776e61626c653a2063616c6c6572206973206e6f7420746865206f776e657260448201526064016106e4565b610f4b6000611c0e565b565b6000918252602082815260408084206001600160a01b0393909316845291905290205460ff1690565b80610f8f600080516020612a0983398151915233610f4d565b610fab5760405162461bcd60e51b81526004016106e490612886565b6000818152600560205260409020600701546001600160a01b03163314610fe45760405162461bcd60e51b81526004016106e490612886565b6000828152600560205260409020600181015460ff166110465760405162461bcd60e51b815260206004820152601760248201527f456c656374696f6e20416c726561647920456e6465642100000000000000000060448201526064016106e4565b60018101805460ff191690556040518381527f562cd572b2ba3b666cd989fc4ca98419ec81e75f04528df9d9d76fdb7807ee719060200160405180910390a1505050565b600460205282600052604060002060205281600052604060002081815481106110b257600080fd5b90600052602060002001600092509250505080546110cf9061298c565b80601f01602080910402602001604051908101604052809291908181526020018280546110fb9061298c565b80156111485780601f1061111d57610100808354040283529160200191611148565b820191906000526020600020905b81548152906001019060200180831161112b57829003601f168201915b505050505081565b606080600080600080600080600080600560008c815260200190815260200160002060000180546111809061298c565b80601f01602080910402602001604051908101604052809291908181526020018280546111ac9061298c565b80156111f95780601f106111ce576101008083540402835291602001916111f9565b820191906000526020600020905b8154815290600101906020018083116111dc57829003601f168201915b50505050509950600560008c815260200190815260200160002060030180548060200260200160405190810160405280929190818152602001828054801561126a57602002820191906000526020600020905b81546001600160a01b0316815260019091019060200180831161124c575b50505050509850600560008c8152602001908152602001600020600301805490509750600560008c8152602001908152602001600020600201549650600560008c8152602001908152602001600020600401549550600560008c815260200190815260200160002060050160009054906101000a90046001600160a01b03169450600560008c8152602001908152602001600020600601549350600560008c815260200190815260200160002060070160009054906101000a90046001600160a01b03169250600560008c815260200190815260200160002060010160009054906101000a900460ff169150600560008c815260200190815260200160002060010160019054906101000a900460ff1690509193959799509193959799565b6000805b6000848152600560205260409020600301548110156114115760008481526005602052604081206003018054839081106113d757634e487b7160e01b600052603260045260246000fd5b6000918252602090912001546001600160a01b03908116915084168114156113fe57600192505b5080611409816129c1565b91505061138d565b5092915050565b60008281526020819052604090206001015461143481336118fe565b61089e83836119e6565b6000805b60008481526005602052604090206003015481101561141157600084815260056020526040902060030180548290811061148c57634e487b7160e01b600052603260045260246000fd5b6000918252602090912001546001600160a01b03848116911614156114b45760019150611411565b806114be816129c1565b915050611442565b6001546001600160a01b031633146115205760405162461bcd60e51b815260206004820181905260248201527f4f776e61626c653a2063616c6c6572206973206e6f7420746865206f776e657260448201526064016106e4565b6001600160a01b0381166115855760405162461bcd60e51b815260206004820152602660248201527f4f776e61626c653a206e6577206f776e657220697320746865207a65726f206160448201526564647265737360d01b60648201526084016106e4565b61158e81611c0e565b50565b6000836115ac600080516020612a0983398151915233610f4d565b6115c85760405162461bcd60e51b81526004016106e490612886565b6000818152600560205260409020600701546001600160a01b031633146116015760405162461bcd60e51b81526004016106e490612886565b6000805b60008781526005602052604090206003015481101561172d5785818151811061163e57634e487b7160e01b600052603260045260246000fd5b60200260200101516001600160a01b031660056000898152602001908152602001600020600301828154811061168457634e487b7160e01b600052603260045260246000fd5b6000918252602090912001546001600160a01b0316146116e65760405162461bcd60e51b815260206004820152601a60248201527f456c656374696f6e2d41646472657373204d69736d617463682100000000000060448201526064016106e4565b84818151811061170657634e487b7160e01b600052603260045260246000fd5b6020026020010151826117199190612912565b915080611725816129c1565b915050611605565b5060005b84518110156118395760008087838151811061175d57634e487b7160e01b600052603260045260246000fd5b60200260200101516001600160a01b031687848151811061178e57634e487b7160e01b600052603260045260246000fd5b602002602001015160405160006040518083038185875af1925050503d80600081146117d6576040519150601f19603f3d011682016040523d82523d6000602084013e6117db565b606091505b5091509150816118245760405162461bcd60e51b81526020600482015260146024820152732330b4b632b2103a379039b2b7321022ba3432b960611b60448201526064016106e4565b50508080611831906129c1565b915050611731565b5060019695505050505050565b6000805b6000858152600560205260409020600301548110156118f1576118df3385838151811061188757634e487b7160e01b600052603260045260246000fd5b60200260200101518584815181106118af57634e487b7160e01b600052603260045260246000fd5b60209081029190910181015160008a815260059283905260409020909101546001600160a01b0316929190611c60565b806118e9816129c1565b91505061184a565b50600190505b9392505050565b6119088282610f4d565b61091d57611920816001600160a01b03166014611cc0565b61192b836020611cc0565b60405160200161193c9291906126df565b60408051601f198184030181529082905262461bcd60e51b82526106e4916004016127a0565b61196c8282610f4d565b61091d576000828152602081815260408083206001600160a01b03851684529091529020805460ff191660011790556119a23390565b6001600160a01b0316816001600160a01b0316837f2f8788117e7eff1d82e926ec794901d17c78024a50270940304540a733656f0d60405160405180910390a45050565b6119f08282610f4d565b1561091d576000828152602081815260408083206001600160a01b0385168085529252808320805460ff1916905551339285917ff6391f5c32d9c69d2a47ea670b442974b53935d1edc7fd64eb21e047a839171b9190a45050565b600654600090611a5c906001611ea2565b6000818152600560209081526040909120875192935091611a8291839190890190612102565b5060048101859055600681018490558251611aa69060038301906020860190612186565b504260028201556001808201805460ff1916909117905560070180546001600160a01b03191633179055949350505050565b6006805460009182611ae9836129c1565b909155506000818152600560209081526040909120885192935091611b13918391908a0190612102565b50600481018690556005810180546001600160a01b0319166001600160a01b038716179055600681018490558251611b549060038301906020860190612186565b504260028201556001808201805460ff1916909117905560070180546001600160a01b0319163317905595945050505050565b60005b815181101561091d57611be47f9096faa56698daa37ec8d3542ff829c66d5e81213bd6faab8ba4e9ce824a5def838381518110611bd757634e487b7160e01b600052603260045260246000fd5b6020026020010151611eae565b80611bee816129c1565b915050611b8a565b61158e600080516020612a0983398151915282611eae565b600180546001600160a01b038381166001600160a01b0319831681179093556040519116919082907f8be0079c531659141344cd1fd0a4f28419497f9722a3daafe3b4186f6b6457e090600090a35050565b604080516001600160a01b0385811660248301528416604482015260648082018490528251808303909101815260849091019091526020810180516001600160e01b03166323b872dd60e01b179052611cba908590611eb8565b50505050565b60606000611ccf83600261292a565b611cda906002612912565b67ffffffffffffffff811115611d0057634e487b7160e01b600052604160045260246000fd5b6040519080825280601f01601f191660200182016040528015611d2a576020820181803683370190505b509050600360fc1b81600081518110611d5357634e487b7160e01b600052603260045260246000fd5b60200101906001600160f81b031916908160001a905350600f60fb1b81600181518110611d9057634e487b7160e01b600052603260045260246000fd5b60200101906001600160f81b031916908160001a9053506000611db484600261292a565b611dbf906001612912565b90505b6001811115611e53576f181899199a1a9b1b9c1cb0b131b232b360811b85600f1660108110611e0157634e487b7160e01b600052603260045260246000fd5b1a60f81b828281518110611e2557634e487b7160e01b600052603260045260246000fd5b60200101906001600160f81b031916908160001a90535060049490941c93611e4c81612975565b9050611dc2565b5083156118f75760405162461bcd60e51b815260206004820181905260248201527f537472696e67733a20686578206c656e67746820696e73756666696369656e7460448201526064016106e4565b60006118f78284612912565b61091d8282611962565b6000611f0d826040518060400160405280602081526020017f5361666545524332303a206c6f772d6c6576656c2063616c6c206661696c6564815250856001600160a01b0316611f8a9092919063ffffffff16565b80519091501561089e5780806020019051810190611f2b9190612307565b61089e5760405162461bcd60e51b815260206004820152602a60248201527f5361666545524332303a204552433230206f7065726174696f6e20646964206e6044820152691bdd081cdd58d8d9595960b21b60648201526084016106e4565b6060611f998484600085611fa1565b949350505050565b6060824710156120025760405162461bcd60e51b815260206004820152602660248201527f416464726573733a20696e73756666696369656e742062616c616e636520666f6044820152651c8818d85b1b60d21b60648201526084016106e4565b843b6120505760405162461bcd60e51b815260206004820152601d60248201527f416464726573733a2063616c6c20746f206e6f6e2d636f6e747261637400000060448201526064016106e4565b600080866001600160a01b0316858760405161206c91906126c3565b60006040518083038185875af1925050503d80600081146120a9576040519150601f19603f3d011682016040523d82523d6000602084013e6120ae565b606091505b50915091506120be8282866120c9565b979650505050505050565b606083156120d85750816118f7565b8251156120e85782518084602001fd5b8160405162461bcd60e51b81526004016106e491906127a0565b82805461210e9061298c565b90600052602060002090601f0160209004810192826121305760008555612176565b82601f1061214957805160ff1916838001178555612176565b82800160010185558215612176579182015b8281111561217657825182559160200191906001019061215b565b506121829291506121db565b5090565b828054828255906000526020600020908101928215612176579160200282015b8281111561217657825182546001600160a01b0319166001600160a01b039091161782556020909201916001909101906121a6565b5b8082111561218257600081556001016121dc565b80356001600160a01b038116811461220757600080fd5b919050565b600082601f83011261221c578081fd5b8135602061223161222c836128ee565b6128bd565b80838252828201915082860187848660051b8901011115612250578586fd5b855b8581101561227557612263826121f0565b84529284019290840190600101612252565b5090979650505050505050565b600082601f830112612292578081fd5b813567ffffffffffffffff8111156122ac576122ac6129f2565b6122bf601f8201601f19166020016128bd565b8181528460208386010111156122d3578283fd5b816020850160208301379081016020019190915292915050565b6000602082840312156122fe578081fd5b6118f7826121f0565b600060208284031215612318578081fd5b815180151581146118f7578182fd5b600060208284031215612338578081fd5b5035919050565b60008060408385031215612351578081fd5b82359150612361602084016121f0565b90509250929050565b60006020828403121561237b578081fd5b81356001600160e01b0319811681146118f7578182fd5b600080600080600060a086880312156123a9578081fd5b853567ffffffffffffffff808211156123c0578283fd5b6123cc89838a01612282565b9650602088013595506123e1604089016121f0565b94506060880135935060808801359150808211156123fd578283fd5b5061240a8882890161220c565b9150509295509295909350565b60008060408385031215612351578182fd5b60008060006060848603121561243d578283fd5b8335925061244d602085016121f0565b9150604084013590509250925092565b600080600060608486031215612471578081fd5b8335925060208085013567ffffffffffffffff80821115612490578384fd5b61249c8883890161220c565b945060408701359150808211156124b1578384fd5b818701915087601f8301126124c4578384fd5b81356124d261222c826128ee565b8082825285820191508585018b878560051b88010111156124f1578788fd5b875b8481101561252a5781358681111561250957898afd5b6125178e8a838b0101612282565b85525092870192908701906001016124f3565b50508096505050505050509250925092565b600080600060608486031215612550578081fd5b8335925060208085013567ffffffffffffffff8082111561256f578384fd5b61257b8883890161220c565b94506040870135915080821115612590578384fd5b508501601f810187136125a1578283fd5b80356125af61222c826128ee565b8082825284820191508484018a868560051b87010111156125ce578687fd5b8694505b838510156125f05780358352600194909401939185019185016125d2565b5080955050505050509250925092565b6000815180845260208085019450808401835b838110156126385781516001600160a01b031687529582019590820190600101612613565b509495945050505050565b600081518084526020808501808196508360051b81019150828601855b8581101561268a578284038952612678848351612697565b98850198935090840190600101612660565b5091979650505050505050565b600081518084526126af816020860160208601612949565b601f01601f19169290920160200192915050565b600082516126d5818460208701612949565b9190910192915050565b7f416363657373436f6e74726f6c3a206163636f756e7420000000000000000000815260008351612717816017850160208801612949565b7001034b99036b4b9b9b4b733903937b6329607d1b6017918401918201528351612748816028840160208801612949565b01602801949350505050565b60018060a01b038516815283602082015260806040820152600061277b6080830185612600565b82810360608401526120be8185612643565b6020815260006118f76020830184612643565b6020815260006118f76020830184612697565b60006101408083526127c78184018e612697565b905082810360208401526127db818d612600565b604084019b909b525050606081019790975260808701959095526001600160a01b0393841660a087015260c086019290925290911660e0840152151561010083015215156101209091015292915050565b60006101008083526128408184018c612697565b991515602084015250509515156040870152606086019490945260808501929092526001600160a01b0390811660a085015260c08401919091521660e090910152919050565b6020808252601a908201527f53656e646572206e6f7420456c656374696f6e2041646d696e21000000000000604082015260600190565b604051601f8201601f1916810167ffffffffffffffff811182821017156128e6576128e66129f2565b604052919050565b600067ffffffffffffffff821115612908576129086129f2565b5060051b60200190565b60008219821115612925576129256129dc565b500190565b6000816000190483118215151615612944576129446129dc565b500290565b60005b8381101561296457818101518382015260200161294c565b83811115611cba5750506000910152565b600081612984576129846129dc565b506000190190565b600181811c908216806129a057607f821691505b60208210811415610e0457634e487b7160e01b600052602260045260246000fd5b60006000198214156129d5576129d56129dc565b5060010190565b634e487b7160e01b600052601160045260246000fd5b634e487b7160e01b600052604160045260246000fdfe16f50c1fe196fa8f2d59c3eca367f2f7bf83b35c12ed36436b26d5af3695f5c4a2646970667358221220dd693aa67e361c4ab2580d528aeaba3ca5a1e49a4dd1121555a0a4eaa5004d4d64736f6c63430008040033",
  "linkReferences": {},
  "deployedLinkReferences": {}
}