{
  "_format": "hh-sol-artifact-1",
  "contractName": "Diplomacy",
  "sourceName": "contracts/Diplomacy.sol",
  "abi": [
    {
      "inputs": [],
      "stateMutability": "nonpayable",
      "type": "constructor"
    },
    {
      "anonymous": false,
      "inputs": [
        {
          "indexed": false,
          "internalType": "address",
          "name": "voter",
          "type": "address"
        },
        {
          "indexed": false,
          "internalType": "uint256",
          "name": "electionId",
          "type": "uint256"
        },
        {
          "indexed": false,
          "internalType": "address[]",
          "name": "adrs",
          "type": "address[]"
        },
        {
          "indexed": false,
          "internalType": "string[]",
          "name": "scores",
          "type": "string[]"
        }
      ],
      "name": "BallotCast",
      "type": "event"
    },
    {
      "anonymous": false,
      "inputs": [
        {
          "indexed": false,
          "internalType": "address",
          "name": "creator",
          "type": "address"
        },
        {
          "indexed": false,
          "internalType": "uint256",
          "name": "electionId",
          "type": "uint256"
        }
      ],
      "name": "ElectionCreated",
      "type": "event"
    },
    {
      "anonymous": false,
      "inputs": [
        {
          "indexed": false,
          "internalType": "uint256",
          "name": "electionId",
          "type": "uint256"
        }
      ],
      "name": "ElectionEnded",
      "type": "event"
    },
    {
      "anonymous": false,
      "inputs": [
        {
          "indexed": false,
          "internalType": "uint256",
          "name": "electionId",
          "type": "uint256"
        }
      ],
      "name": "ElectionPaid",
      "type": "event"
    },
    {
      "anonymous": false,
      "inputs": [
        {
          "indexed": true,
          "internalType": "address",
          "name": "previousOwner",
          "type": "address"
        },
        {
          "indexed": true,
          "internalType": "address",
          "name": "newOwner",
          "type": "address"
        }
      ],
      "name": "OwnershipTransferred",
      "type": "event"
    },
    {
      "anonymous": false,
      "inputs": [
        {
          "indexed": true,
          "internalType": "bytes32",
          "name": "role",
          "type": "bytes32"
        },
        {
          "indexed": true,
          "internalType": "bytes32",
          "name": "previousAdminRole",
          "type": "bytes32"
        },
        {
          "indexed": true,
          "internalType": "bytes32",
          "name": "newAdminRole",
          "type": "bytes32"
        }
      ],
      "name": "RoleAdminChanged",
      "type": "event"
    },
    {
      "anonymous": false,
      "inputs": [
        {
          "indexed": true,
          "internalType": "bytes32",
          "name": "role",
          "type": "bytes32"
        },
        {
          "indexed": true,
          "internalType": "address",
          "name": "account",
          "type": "address"
        },
        {
          "indexed": true,
          "internalType": "address",
          "name": "sender",
          "type": "address"
        }
      ],
      "name": "RoleGranted",
      "type": "event"
    },
    {
      "anonymous": false,
      "inputs": [
        {
          "indexed": true,
          "internalType": "bytes32",
          "name": "role",
          "type": "bytes32"
        },
        {
          "indexed": true,
          "internalType": "address",
          "name": "account",
          "type": "address"
        },
        {
          "indexed": true,
          "internalType": "address",
          "name": "sender",
          "type": "address"
        }
      ],
      "name": "RoleRevoked",
      "type": "event"
    },
    {
      "stateMutability": "payable",
      "type": "fallback"
    },
    {
      "inputs": [],
      "name": "DEFAULT_ADMIN_ROLE",
      "outputs": [
        {
          "internalType": "bytes32",
          "name": "",
          "type": "bytes32"
        }
      ],
      "stateMutability": "view",
      "type": "function"
    },
    {
      "inputs": [
        {
          "internalType": "uint256",
          "name": "electionId",
          "type": "uint256"
        }
      ],
      "name": "approveToken",
      "outputs": [],
      "stateMutability": "nonpayable",
      "type": "function"
    },
    {
      "inputs": [
        {
          "internalType": "uint256",
          "name": "electionId",
          "type": "uint256"
        },
        {
          "internalType": "address",
          "name": "_sender",
          "type": "address"
        }
      ],
      "name": "canVote",
      "outputs": [
        {
          "internalType": "bool",
          "name": "status",
          "type": "bool"
        }
      ],
      "stateMutability": "view",
      "type": "function"
    },
    {
      "inputs": [
        {
          "internalType": "uint256",
          "name": "electionId",
          "type": "uint256"
        },
        {
          "internalType": "address[]",
          "name": "_adrs",
          "type": "address[]"
        },
        {
          "internalType": "string[]",
          "name": "_scores",
          "type": "string[]"
        }
      ],
      "name": "castBallot",
      "outputs": [],
      "stateMutability": "nonpayable",
      "type": "function"
    },
    {
      "inputs": [
        {
          "internalType": "uint256",
          "name": "",
          "type": "uint256"
        }
      ],
      "name": "elections",
      "outputs": [
        {
          "internalType": "string",
          "name": "name",
          "type": "string"
        },
        {
          "internalType": "bool",
          "name": "active",
          "type": "bool"
        },
        {
          "internalType": "bool",
          "name": "paid",
          "type": "bool"
        },
        {
          "internalType": "uint32",
          "name": "createdAt",
          "type": "uint32"
        },
        {
          "internalType": "uint256",
          "name": "funds",
          "type": "uint256"
        },
        {
          "internalType": "address",
          "name": "token",
          "type": "address"
        },
        {
          "internalType": "int8",
          "name": "votes",
          "type": "int8"
        },
        {
          "internalType": "address",
          "name": "admin",
          "type": "address"
        }
      ],
      "stateMutability": "view",
      "type": "function"
    },
    {
      "inputs": [
        {
          "internalType": "uint256",
          "name": "electionId",
          "type": "uint256"
        }
      ],
      "name": "endElection",
      "outputs": [],
      "stateMutability": "nonpayable",
      "type": "function"
    },
    {
      "inputs": [
        {
          "internalType": "uint256",
          "name": "electionId",
          "type": "uint256"
        }
      ],
      "name": "getElectionById",
      "outputs": [
        {
          "internalType": "string",
          "name": "name",
          "type": "string"
        },
        {
          "internalType": "address[]",
          "name": "candidates",
          "type": "address[]"
        },
        {
          "internalType": "uint256",
          "name": "n_addr",
          "type": "uint256"
        },
        {
          "internalType": "uint256",
          "name": "createdAt",
          "type": "uint256"
        },
        {
          "internalType": "uint256",
          "name": "funds",
          "type": "uint256"
        },
        {
          "internalType": "address",
          "name": "token",
          "type": "address"
        },
        {
          "internalType": "int8",
          "name": "votes",
          "type": "int8"
        },
        {
          "internalType": "address",
          "name": "admin",
          "type": "address"
        },
        {
          "internalType": "bool",
          "name": "isActive",
          "type": "bool"
        },
        {
          "internalType": "bool",
          "name": "paid",
          "type": "bool"
        }
      ],
      "stateMutability": "view",
      "type": "function"
    },
    {
      "inputs": [
        {
          "internalType": "uint256",
          "name": "electionId",
          "type": "uint256"
        },
        {
          "internalType": "address",
          "name": "_adr",
          "type": "address"
        }
      ],
      "name": "getElectionScores",
      "outputs": [
        {
          "internalType": "string[]",
          "name": "",
          "type": "string[]"
        }
      ],
      "stateMutability": "view",
      "type": "function"
    },
    {
      "inputs": [
        {
          "internalType": "uint256",
          "name": "electionId",
          "type": "uint256"
        }
      ],
      "name": "getElectionVoted",
      "outputs": [
        {
          "internalType": "uint256",
          "name": "count",
          "type": "uint256"
        }
      ],
      "stateMutability": "view",
      "type": "function"
    },
    {
      "inputs": [
        {
          "internalType": "bytes32",
          "name": "role",
          "type": "bytes32"
        }
      ],
      "name": "getRoleAdmin",
      "outputs": [
        {
          "internalType": "bytes32",
          "name": "",
          "type": "bytes32"
        }
      ],
      "stateMutability": "view",
      "type": "function"
    },
    {
      "inputs": [
        {
          "internalType": "bytes32",
          "name": "role",
          "type": "bytes32"
        },
        {
          "internalType": "address",
          "name": "account",
          "type": "address"
        }
      ],
      "name": "grantRole",
      "outputs": [],
      "stateMutability": "nonpayable",
      "type": "function"
    },
    {
      "inputs": [
        {
          "internalType": "bytes32",
          "name": "role",
          "type": "bytes32"
        },
        {
          "internalType": "address",
          "name": "account",
          "type": "address"
        }
      ],
      "name": "hasRole",
      "outputs": [
        {
          "internalType": "bool",
          "name": "",
          "type": "bool"
        }
      ],
      "stateMutability": "view",
      "type": "function"
    },
    {
      "inputs": [
        {
          "internalType": "uint256",
          "name": "electionId",
          "type": "uint256"
        },
        {
          "internalType": "address",
          "name": "_sender",
          "type": "address"
        }
      ],
      "name": "hasVoted",
      "outputs": [
        {
          "internalType": "bool",
          "name": "",
          "type": "bool"
        }
      ],
      "stateMutability": "view",
      "type": "function"
    },
    {
      "inputs": [
        {
          "internalType": "uint256",
          "name": "electionId",
          "type": "uint256"
        },
        {
          "internalType": "address",
          "name": "_sender",
          "type": "address"
        }
      ],
      "name": "isElectionAdmin",
      "outputs": [
        {
          "internalType": "bool",
          "name": "",
          "type": "bool"
        }
      ],
      "stateMutability": "view",
      "type": "function"
    },
    {
      "inputs": [
        {
          "internalType": "uint256",
          "name": "electionId",
          "type": "uint256"
        },
        {
          "internalType": "address",
          "name": "_sender",
          "type": "address"
        }
      ],
      "name": "isElectionCandidate",
      "outputs": [
        {
          "internalType": "bool",
          "name": "status",
          "type": "bool"
        }
      ],
      "stateMutability": "view",
      "type": "function"
    },
    {
      "inputs": [
        {
          "internalType": "string",
          "name": "_name",
          "type": "string"
        },
        {
          "internalType": "uint256",
          "name": "_funds",
          "type": "uint256"
        },
        {
          "internalType": "address",
          "name": "_token",
          "type": "address"
        },
        {
          "internalType": "int8",
          "name": "_votes",
          "type": "int8"
        },
        {
          "internalType": "address[]",
          "name": "_adrs",
          "type": "address[]"
        }
      ],
      "name": "newElection",
      "outputs": [
        {
          "internalType": "uint256",
          "name": "electionId",
          "type": "uint256"
        }
      ],
      "stateMutability": "nonpayable",
      "type": "function"
    },
    {
      "inputs": [],
      "name": "numElections",
      "outputs": [
        {
          "internalType": "uint256",
          "name": "",
          "type": "uint256"
        }
      ],
      "stateMutability": "view",
      "type": "function"
    },
    {
      "inputs": [],
      "name": "owner",
      "outputs": [
        {
          "internalType": "address",
          "name": "",
          "type": "address"
        }
      ],
      "stateMutability": "view",
      "type": "function"
    },
    {
      "inputs": [
        {
          "internalType": "uint256",
          "name": "electionId",
          "type": "uint256"
        },
        {
          "internalType": "address[]",
          "name": "_adrs",
          "type": "address[]"
        },
        {
          "internalType": "uint256[]",
          "name": "_pay",
          "type": "uint256[]"
        }
      ],
      "name": "payoutElection",
      "outputs": [],
      "stateMutability": "payable",
      "type": "function"
    },
    {
      "inputs": [],
      "name": "renounceOwnership",
      "outputs": [],
      "stateMutability": "nonpayable",
      "type": "function"
    },
    {
      "inputs": [
        {
          "internalType": "bytes32",
          "name": "role",
          "type": "bytes32"
        },
        {
          "internalType": "address",
          "name": "account",
          "type": "address"
        }
      ],
      "name": "renounceRole",
      "outputs": [],
      "stateMutability": "nonpayable",
      "type": "function"
    },
    {
      "inputs": [
        {
          "internalType": "bytes32",
          "name": "role",
          "type": "bytes32"
        },
        {
          "internalType": "address",
          "name": "account",
          "type": "address"
        }
      ],
      "name": "revokeRole",
      "outputs": [],
      "stateMutability": "nonpayable",
      "type": "function"
    },
    {
      "inputs": [
        {
          "internalType": "uint256",
          "name": "",
          "type": "uint256"
        },
        {
          "internalType": "address",
          "name": "",
          "type": "address"
        },
        {
          "internalType": "uint256",
          "name": "",
          "type": "uint256"
        }
      ],
      "name": "scores",
      "outputs": [
        {
          "internalType": "string",
          "name": "",
          "type": "string"
        }
      ],
      "stateMutability": "view",
      "type": "function"
    },
    {
      "inputs": [
        {
          "internalType": "bytes4",
          "name": "interfaceId",
          "type": "bytes4"
        }
      ],
      "name": "supportsInterface",
      "outputs": [
        {
          "internalType": "bool",
          "name": "",
          "type": "bool"
        }
      ],
      "stateMutability": "view",
      "type": "function"
    },
    {
      "inputs": [
        {
          "internalType": "address",
          "name": "newOwner",
          "type": "address"
        }
      ],
      "name": "transferOwnership",
      "outputs": [],
      "stateMutability": "nonpayable",
      "type": "function"
    },
    {
      "inputs": [
        {
          "internalType": "uint256",
          "name": "",
          "type": "uint256"
        },
        {
          "internalType": "address",
          "name": "",
          "type": "address"
        }
      ],
      "name": "voted",
      "outputs": [
        {
          "internalType": "bool",
          "name": "",
          "type": "bool"
        }
      ],
      "stateMutability": "view",
      "type": "function"
    },
    {
      "stateMutability": "payable",
      "type": "receive"
    }
  ],
  "bytecode": "0x60806040523480156200001157600080fd5b506200001d3362000035565b60016002556200002f60003362000087565b62000137565b600180546001600160a01b038381166001600160a01b0319831681179093556040519116919082907f8be0079c531659141344cd1fd0a4f28419497f9722a3daafe3b4186f6b6457e090600090a35050565b62000093828262000097565b5050565b6000828152602081815260408083206001600160a01b038516845290915290205460ff1662000093576000828152602081815260408083206001600160a01b03851684529091529020805460ff19166001179055620000f33390565b6001600160a01b0316816001600160a01b0316837f2f8788117e7eff1d82e926ec794901d17c78024a50270940304540a733656f0d60405160405180910390a45050565b612a4380620001476000396000f3fe6080604052600436106101735760003560e01c8063715018a6116100c8578063b082c38511610084578063cdb2867b11610061578063cdb2867b146104f0578063d547741f14610510578063ea3c6cde14610530578063f2fde38b1461055057005b8063b082c3851461046d578063b8ecddc61461049a578063c6958b12146104ba57005b8063715018a61461039a5780638da5cb5b146103af57806391b84f16146103d757806391d14854146104185780639c98bcbb14610438578063a217fddf1461045857005b80633ac9fc111161012f5780635277b4ae1161010c5780635277b4ae146102f557806352e968ad146103305780635e6fef01146103505780636e38d9bd1461038457005b80633ac9fc111461026f578063438596321461028f5780634548e52b146102d557005b806301ffc9a71461017c57806308108288146101b15780630ece86d0146101de578063248a9ca3146101f15780632f2ff15d1461022f57806336568abe1461024f57005b3661017a57005b005b34801561018857600080fd5b5061019c610197366004612334565b610570565b60405190151581526020015b60405180910390f35b3480156101bd57600080fd5b506101d16101cc3660046123f0565b6105a7565b6040516101a89190612766565b61017a6101ec366004612515565b61069e565b3480156101fd57600080fd5b5061022161020c3660046122f1565b60009081526020819052604090206001015490565b6040519081526020016101a8565b34801561023b57600080fd5b5061017a61024a366004612309565b6108cf565b34801561025b57600080fd5b5061017a61026a366004612309565b6108fa565b34801561027b57600080fd5b5061017a61028a3660046122f1565b610978565b34801561029b57600080fd5b5061019c6102aa3660046123f0565b60009182526003602090815260408084206001600160a01b0393909316845291905290205460ff1690565b3480156102e157600080fd5b5061017a6102f0366004612436565b610a15565b34801561030157600080fd5b5061019c6103103660046123f0565b600360209081526000928352604080842090915290825290205460ff1681565b34801561033c57600080fd5b5061022161034b3660046122f1565b610b4a565b34801561035c57600080fd5b5061037061036b3660046122f1565b610bf9565b6040516101a8989796959493929190612808565b34801561039057600080fd5b5061022160065481565b3480156103a657600080fd5b5061017a610ce1565b3480156103bb57600080fd5b506001546040516001600160a01b0390911681526020016101a8565b3480156103e357600080fd5b5061019c6103f23660046123f0565b6000918252600560208190526040909220909101546001600160a01b0390811691161490565b34801561042457600080fd5b5061019c610433366004612309565b610d47565b34801561044457600080fd5b5061017a6104533660046122f1565b610d70565b34801561046457600080fd5b50610221600081565b34801561047957600080fd5b5061048d610488366004612402565b610f0a565b6040516101a89190612779565b3480156104a657600080fd5b506102216104b536600461235c565b610fd0565b3480156104c657600080fd5b506104da6104d53660046122f1565b611057565b6040516101a89a9998979695949392919061278c565b3480156104fc57600080fd5b5061019c61050b3660046123f0565b6112b3565b34801561051c57600080fd5b5061017a61052b366004612309565b611342565b34801561053c57600080fd5b5061019c61054b3660046123f0565b611368565b34801561055c57600080fd5b5061017a61056b3660046122b7565b6113f0565b60006001600160e01b03198216637965db0b60e01b14806105a157506301ffc9a760e01b6001600160e01b03198316145b92915050565b60008281526004602090815260408083206001600160a01b03851684528252808320805482518185028101850190935280835260609492939192909184015b8282101561069257838290600052602060002001805461060590612971565b80601f016020809104026020016040519081016040528092919081815260200182805461063190612971565b801561067e5780601f106106535761010080835404028352916020019161067e565b820191906000526020600020905b81548152906001019060200180831161066157829003601f168201915b5050505050815260200190600101906105e6565b50505050905092915050565b826106b76000805160206129ee83398151915233610d47565b6106dc5760405162461bcd60e51b81526004016106d39061286b565b60405180910390fd5b600081815260056020819052604090912001546001600160a01b031633146107165760405162461bcd60e51b81526004016106d39061286b565b6002805414156107685760405162461bcd60e51b815260206004820152601f60248201527f5265656e7472616e637947756172643a207265656e7472616e742063616c6c0060448201526064016106d3565b6002805560008481526005602052604090206001015460ff16156107c75760405162461bcd60e51b8152602060048201526016602482015275456c656374696f6e205374696c6c204163746976652160501b60448201526064016106d3565b600084815260056020526040902060010154610100900460ff161561082e5760405162461bcd60e51b815260206004820152601a60248201527f456c656374696f6e20416c726561647920506169642d6f75742100000000000060448201526064016106d3565b6000848152600560205260408120600401546001600160a01b031661085f576108588585856114bb565b905061086d565b61086a8585856117b6565b90505b600085815260056020908152604091829020600101805461ff0019166101008515150217905590518681527fb27761a3b9064636a27795816e4f8a8e5cadd6ac8b1e3a553bd47bf414c2b402910160405180910390a150506001600255505050565b6000828152602081905260409020600101546108eb813361186e565b6108f583836118d2565b505050565b6001600160a01b038116331461096a5760405162461bcd60e51b815260206004820152602f60248201527f416363657373436f6e74726f6c3a2063616e206f6e6c792072656e6f756e636560448201526e103937b632b9903337b91039b2b63360891b60648201526084016106d3565b6109748282611956565b5050565b60008181526005602052604090819020600480820154600390920154925163095ea7b360e01b8152309181019190915260248101929092526001600160a01b03169063095ea7b390604401602060405180830381600087803b1580156109dd57600080fd5b505af11580156109f1573d6000803e3d6000fd5b505050506040513d601f19601f8201168201806040525081019061097491906122d1565b60005b8251811015610ae357600460008581526020019081526020016000206000848381518110610a5657634e487b7160e01b600052603260045260246000fd5b60200260200101516001600160a01b03166001600160a01b03168152602001908152602001600020828281518110610a9e57634e487b7160e01b600052603260045260246000fd5b60209081029190910181015182546001810184556000938452928290208151610ad094919091019291909101906120cc565b5080610adb816129a6565b915050610a18565b50600083815260036020908152604080832033808552925291829020805460ff1916600117905590517faaf8175507b94c84621088891ecf31ca1c2548c0aeab2f2f21d3459515f9c4ed91610b3d9186908690869061272d565b60405180910390a1505050565b6000805b600083815260056020526040902060020154811015610bf3576000838152600560205260408120600201805483908110610b9857634e487b7160e01b600052603260045260246000fd5b60009182526020808320909101548683526003825260408084206001600160a01b039092168085529190925291205490915060ff1615610be05782610bdc816129a6565b9350505b5080610beb816129a6565b915050610b4e565b50919050565b600560205260009081526040902080548190610c1490612971565b80601f0160208091040260200160405190810160405280929190818152602001828054610c4090612971565b8015610c8d5780601f10610c6257610100808354040283529160200191610c8d565b820191906000526020600020905b815481529060010190602001808311610c7057829003601f168201915b50505050600183015460038401546004850154600590950154939460ff80841695610100850490911694506201000090930463ffffffff16926001600160a01b0380831692600160a01b900460000b911688565b6001546001600160a01b03163314610d3b5760405162461bcd60e51b815260206004820181905260248201527f4f776e61626c653a2063616c6c6572206973206e6f7420746865206f776e657260448201526064016106d3565b610d4560006119bb565b565b6000918252602082815260408084206001600160a01b0393909316845291905290205460ff1690565b80610d896000805160206129ee83398151915233610d47565b610da55760405162461bcd60e51b81526004016106d39061286b565b600081815260056020819052604090912001546001600160a01b03163314610ddf5760405162461bcd60e51b81526004016106d39061286b565b60008281526005602052604090206001015460ff16610e405760405162461bcd60e51b815260206004820152601760248201527f456c656374696f6e20416c726561647920456e6465642100000000000000000060448201526064016106d3565b600082815260056020526040902060010154610100900460ff1615610eb35760405162461bcd60e51b815260206004820152602360248201527f456c656374696f6e2068617320616c7265616479206265656e2070616964206f60448201526275742160e81b60648201526084016106d3565b60008281526005602052604090819020600101805460ff19169055517f562cd572b2ba3b666cd989fc4ca98419ec81e75f04528df9d9d76fdb7807ee7190610efe9084815260200190565b60405180910390a15050565b60046020528260005260406000206020528160005260406000208181548110610f3257600080fd5b9060005260206000200160009250925050508054610f4f90612971565b80601f0160208091040260200160405190810160405280929190818152602001828054610f7b90612971565b8015610fc85780601f10610f9d57610100808354040283529160200191610fc8565b820191906000526020600020905b815481529060010190602001808311610fab57829003601f168201915b505050505081565b60006001600160a01b038416610ff357610fec86868585611a0d565b9050611003565b6110008686868686611ac7565b90505b61100c82611baf565b61101533611c1e565b60408051338152602081018390527fc91fe4766a7a928d6625f66818425dc115b03c854a8ed8d28de2f34a684e0f1a910160405180910390a195945050505050565b606080600080600080600080600080600560008c8152602001908152602001600020600001805461108790612971565b80601f01602080910402602001604051908101604052809291908181526020018280546110b390612971565b80156111005780601f106110d557610100808354040283529160200191611100565b820191906000526020600020905b8154815290600101906020018083116110e357829003601f168201915b50505050509950600560008c815260200190815260200160002060020180548060200260200160405190810160405280929190818152602001828054801561117157602002820191906000526020600020905b81546001600160a01b03168152600190910190602001808311611153575b50505050509850600560008c8152602001908152602001600020600201805490509750600560008c815260200190815260200160002060010160029054906101000a900463ffffffff1663ffffffff169650600560008c8152602001908152602001600020600301549550600560008c815260200190815260200160002060040160009054906101000a90046001600160a01b03169450600560008c815260200190815260200160002060040160149054906101000a900460000b9350600560008c815260200190815260200160002060050160009054906101000a90046001600160a01b03169250600560008c815260200190815260200160002060010160009054906101000a900460ff169150600560008c815260200190815260200160002060010160019054906101000a900460ff1690509193959799509193959799565b6000805b60008481526005602052604090206002015481101561133b57600084815260056020526040812060020180548390811061130157634e487b7160e01b600052603260045260246000fd5b6000918252602090912001546001600160a01b039081169150841681141561132857600192505b5080611333816129a6565b9150506112b7565b5092915050565b60008281526020819052604090206001015461135e813361186e565b6108f58383611956565b6000805b60008481526005602052604090206002015481101561133b5760008481526005602052604090206002018054829081106113b657634e487b7160e01b600052603260045260246000fd5b6000918252602090912001546001600160a01b03848116911614156113de576001915061133b565b806113e8816129a6565b91505061136c565b6001546001600160a01b0316331461144a5760405162461bcd60e51b815260206004820181905260248201527f4f776e61626c653a2063616c6c6572206973206e6f7420746865206f776e657260448201526064016106d3565b6001600160a01b0381166114af5760405162461bcd60e51b815260206004820152602660248201527f4f776e61626c653a206e6577206f776e657220697320746865207a65726f206160448201526564647265737360d01b60648201526084016106d3565b6114b8816119bb565b50565b6000836114d66000805160206129ee83398151915233610d47565b6114f25760405162461bcd60e51b81526004016106d39061286b565b600081815260056020819052604090912001546001600160a01b0316331461152c5760405162461bcd60e51b81526004016106d39061286b565b6000805b6000878152600560205260409020600201548110156116585785818151811061156957634e487b7160e01b600052603260045260246000fd5b60200260200101516001600160a01b03166005600089815260200190815260200160002060020182815481106115af57634e487b7160e01b600052603260045260246000fd5b6000918252602090912001546001600160a01b0316146116115760405162461bcd60e51b815260206004820152601a60248201527f456c656374696f6e2d41646472657373204d69736d617463682100000000000060448201526064016106d3565b84818151811061163157634e487b7160e01b600052603260045260246000fd5b60200260200101518261164491906128f7565b915080611650816129a6565b915050611530565b50803410156116a25760405162461bcd60e51b81526020600482015260166024820152754e6f7420656e6f7567682076616c75652073656e742160501b60448201526064016106d3565b60005b84518110156117a95760008682815181106116d057634e487b7160e01b600052603260045260246000fd5b60200260200101516001600160a01b031686838151811061170157634e487b7160e01b600052603260045260246000fd5b602002602001015160405160006040518083038185875af1925050503d8060008114611749576040519150601f19603f3d011682016040523d82523d6000602084013e61174e565b606091505b50509050806117965760405162461bcd60e51b81526020600482015260146024820152732330b4b632b2103a379039b2b7321022ba3432b960611b60448201526064016106d3565b50806117a1816129a6565b9150506116a5565b5060019695505050505050565b6000805b6000858152600560205260409020600201548110156118615761184f338583815181106117f757634e487b7160e01b600052603260045260246000fd5b602002602001015185848151811061181f57634e487b7160e01b600052603260045260246000fd5b60209081029190910181015160008a815260059092526040909120600401546001600160a01b0316929190611c36565b80611859816129a6565b9150506117ba565b50600190505b9392505050565b6118788282610d47565b61097457611890816001600160a01b03166014611c96565b61189b836020611c96565b6040516020016118ac9291906126b8565b60408051601f198184030181529082905262461bcd60e51b82526106d391600401612779565b6118dc8282610d47565b610974576000828152602081815260408083206001600160a01b03851684529091529020805460ff191660011790556119123390565b6001600160a01b0316816001600160a01b0316837f2f8788117e7eff1d82e926ec794901d17c78024a50270940304540a733656f0d60405160405180910390a45050565b6119608282610d47565b15610974576000828152602081815260408083206001600160a01b0385168085529252808320805460ff1916905551339285917ff6391f5c32d9c69d2a47ea670b442974b53935d1edc7fd64eb21e047a839171b9190a45050565b600180546001600160a01b038381166001600160a01b0319831681179093556040519116919082907f8be0079c531659141344cd1fd0a4f28419497f9722a3daafe3b4186f6b6457e090600090a35050565b6006805460009182611a1e836129a6565b909155506000818152600560209081526040909120875192935091611a48918391908901906120cc565b506003810185905560048101805460ff60a01b1916600160a01b60ff600088900b16021790558251611a839060028301906020860190612150565b506001808201805460ff1963ffffffff421662010000021665ffffffff00ff1990911617909117905560050180546001600160a01b03191633179055949350505050565b6006805460009182611ad8836129a6565b9091555060008181526005602090815260409091208851929350611b009290918901906120cc565b5060008181526005602090815260408220600381018890556004810180549387900b60ff16600160a01b026001600160a81b03199094166001600160a01b03891617939093179092558351611b5b9260020191850190612150565b5060008181526005602081905260409091206001808201805460ff1963ffffffff421662010000021665ffffffff00ff199091161790911790550180546001600160a01b0319163317905595945050505050565b60005b815181101561097457611c0c7f9096faa56698daa37ec8d3542ff829c66d5e81213bd6faab8ba4e9ce824a5def838381518110611bff57634e487b7160e01b600052603260045260246000fd5b6020026020010151611e78565b80611c16816129a6565b915050611bb2565b6114b86000805160206129ee83398151915282611e78565b604080516001600160a01b0385811660248301528416604482015260648082018490528251808303909101815260849091019091526020810180516001600160e01b03166323b872dd60e01b179052611c90908590611e82565b50505050565b60606000611ca583600261290f565b611cb09060026128f7565b67ffffffffffffffff811115611cd657634e487b7160e01b600052604160045260246000fd5b6040519080825280601f01601f191660200182016040528015611d00576020820181803683370190505b509050600360fc1b81600081518110611d2957634e487b7160e01b600052603260045260246000fd5b60200101906001600160f81b031916908160001a905350600f60fb1b81600181518110611d6657634e487b7160e01b600052603260045260246000fd5b60200101906001600160f81b031916908160001a9053506000611d8a84600261290f565b611d959060016128f7565b90505b6001811115611e29576f181899199a1a9b1b9c1cb0b131b232b360811b85600f1660108110611dd757634e487b7160e01b600052603260045260246000fd5b1a60f81b828281518110611dfb57634e487b7160e01b600052603260045260246000fd5b60200101906001600160f81b031916908160001a90535060049490941c93611e228161295a565b9050611d98565b5083156118675760405162461bcd60e51b815260206004820181905260248201527f537472696e67733a20686578206c656e67746820696e73756666696369656e7460448201526064016106d3565b61097482826118d2565b6000611ed7826040518060400160405280602081526020017f5361666545524332303a206c6f772d6c6576656c2063616c6c206661696c6564815250856001600160a01b0316611f549092919063ffffffff16565b8051909150156108f55780806020019051810190611ef591906122d1565b6108f55760405162461bcd60e51b815260206004820152602a60248201527f5361666545524332303a204552433230206f7065726174696f6e20646964206e6044820152691bdd081cdd58d8d9595960b21b60648201526084016106d3565b6060611f638484600085611f6b565b949350505050565b606082471015611fcc5760405162461bcd60e51b815260206004820152602660248201527f416464726573733a20696e73756666696369656e742062616c616e636520666f6044820152651c8818d85b1b60d21b60648201526084016106d3565b843b61201a5760405162461bcd60e51b815260206004820152601d60248201527f416464726573733a2063616c6c20746f206e6f6e2d636f6e747261637400000060448201526064016106d3565b600080866001600160a01b03168587604051612036919061269c565b60006040518083038185875af1925050503d8060008114612073576040519150601f19603f3d011682016040523d82523d6000602084013e612078565b606091505b5091509150612088828286612093565b979650505050505050565b606083156120a2575081611867565b8251156120b25782518084602001fd5b8160405162461bcd60e51b81526004016106d39190612779565b8280546120d890612971565b90600052602060002090601f0160209004810192826120fa5760008555612140565b82601f1061211357805160ff1916838001178555612140565b82800160010185558215612140579182015b82811115612140578251825591602001919060010190612125565b5061214c9291506121a5565b5090565b828054828255906000526020600020908101928215612140579160200282015b8281111561214057825182546001600160a01b0319166001600160a01b03909116178255602090920191600190910190612170565b5b8082111561214c57600081556001016121a6565b80356001600160a01b03811681146121d157600080fd5b919050565b600082601f8301126121e6578081fd5b813560206121fb6121f6836128d3565b6128a2565b80838252828201915082860187848660051b890101111561221a578586fd5b855b8581101561223f5761222d826121ba565b8452928401929084019060010161221c565b5090979650505050505050565b600082601f83011261225c578081fd5b813567ffffffffffffffff811115612276576122766129d7565b612289601f8201601f19166020016128a2565b81815284602083860101111561229d578283fd5b816020850160208301379081016020019190915292915050565b6000602082840312156122c8578081fd5b611867826121ba565b6000602082840312156122e2578081fd5b81518015158114611867578182fd5b600060208284031215612302578081fd5b5035919050565b6000806040838503121561231b578081fd5b8235915061232b602084016121ba565b90509250929050565b600060208284031215612345578081fd5b81356001600160e01b031981168114611867578182fd5b600080600080600060a08688031215612373578081fd5b853567ffffffffffffffff8082111561238a578283fd5b61239689838a0161224c565b9650602088013595506123ab604089016121ba565b94506060880135915081830b82146123c1578283fd5b909250608087013590808211156123d6578283fd5b506123e3888289016121d6565b9150509295509295909350565b6000806040838503121561231b578182fd5b600080600060608486031215612416578283fd5b83359250612426602085016121ba565b9150604084013590509250925092565b60008060006060848603121561244a578081fd5b8335925060208085013567ffffffffffffffff80821115612469578384fd5b612475888389016121d6565b9450604087013591508082111561248a578384fd5b818701915087601f83011261249d578384fd5b81356124ab6121f6826128d3565b8082825285820191508585018b878560051b88010111156124ca578788fd5b875b84811015612503578135868111156124e257898afd5b6124f08e8a838b010161224c565b85525092870192908701906001016124cc565b50508096505050505050509250925092565b600080600060608486031215612529578081fd5b8335925060208085013567ffffffffffffffff80821115612548578384fd5b612554888389016121d6565b94506040870135915080821115612569578384fd5b508501601f8101871361257a578283fd5b80356125886121f6826128d3565b8082825284820191508484018a868560051b87010111156125a7578687fd5b8694505b838510156125c95780358352600194909401939185019185016125ab565b5080955050505050509250925092565b6000815180845260208085019450808401835b838110156126115781516001600160a01b0316875295820195908201906001016125ec565b509495945050505050565b600081518084526020808501808196508360051b81019150828601855b85811015612663578284038952612651848351612670565b98850198935090840190600101612639565b5091979650505050505050565b6000815180845261268881602086016020860161292e565b601f01601f19169290920160200192915050565b600082516126ae81846020870161292e565b9190910192915050565b7f416363657373436f6e74726f6c3a206163636f756e74200000000000000000008152600083516126f081601785016020880161292e565b7001034b99036b4b9b9b4b733903937b6329607d1b601791840191820152835161272181602884016020880161292e565b01602801949350505050565b60018060a01b038516815283602082015260806040820152600061275460808301856125d9565b8281036060840152612088818561261c565b602081526000611867602083018461261c565b6020815260006118676020830184612670565b60006101408083526127a08184018e612670565b905082810360208401526127b4818d6125d9565b604084019b909b525050606081019790975260808701959095526001600160a01b0393841660a087015260009290920b60c086015290911660e0840152151561010083015215156101209091015292915050565b600061010080835261281c8184018c612670565b99151560208401525050951515604087015263ffffffff94909416606086015260808501929092526001600160a01b0390811660a085015260009190910b60c08401521660e090910152919050565b6020808252601a908201527f53656e646572206e6f7420456c656374696f6e2041646d696e21000000000000604082015260600190565b604051601f8201601f1916810167ffffffffffffffff811182821017156128cb576128cb6129d7565b604052919050565b600067ffffffffffffffff8211156128ed576128ed6129d7565b5060051b60200190565b6000821982111561290a5761290a6129c1565b500190565b6000816000190483118215151615612929576129296129c1565b500290565b60005b83811015612949578181015183820152602001612931565b83811115611c905750506000910152565b600081612969576129696129c1565b506000190190565b600181811c9082168061298557607f821691505b60208210811415610bf357634e487b7160e01b600052602260045260246000fd5b60006000198214156129ba576129ba6129c1565b5060010190565b634e487b7160e01b600052601160045260246000fd5b634e487b7160e01b600052604160045260246000fdfe16f50c1fe196fa8f2d59c3eca367f2f7bf83b35c12ed36436b26d5af3695f5c4a264697066735822122061a3e5199990c8094587f01c11675ab252b0d9758e931475b285697d23455ef064736f6c63430008040033",
  "linkReferences": {},
  "deployedLinkReferences": {}
}