{
  "_format": "hh-sol-artifact-1",
  "contractName": "Diplomacy",
  "sourceName": "contracts/Diplomacy.sol",
  "abi": [
    {
      "inputs": [],
      "stateMutability": "nonpayable",
      "type": "constructor"
    },
    {
      "anonymous": false,
      "inputs": [
        {
          "indexed": false,
          "internalType": "address",
          "name": "voter",
          "type": "address"
        },
        {
          "indexed": false,
          "internalType": "uint256",
          "name": "electionId",
          "type": "uint256"
        },
        {
          "indexed": false,
          "internalType": "address[]",
          "name": "adrs",
          "type": "address[]"
        },
        {
          "indexed": false,
          "internalType": "string[]",
          "name": "scores",
          "type": "string[]"
        }
      ],
      "name": "BallotCast",
      "type": "event"
    },
    {
      "anonymous": false,
      "inputs": [
        {
          "indexed": false,
          "internalType": "address",
          "name": "creator",
          "type": "address"
        },
        {
          "indexed": false,
          "internalType": "uint256",
          "name": "electionId",
          "type": "uint256"
        }
      ],
      "name": "ElectionCreated",
      "type": "event"
    },
    {
      "anonymous": false,
      "inputs": [
        {
          "indexed": false,
          "internalType": "uint256",
          "name": "electionId",
          "type": "uint256"
        }
      ],
      "name": "ElectionEnded",
      "type": "event"
    },
    {
      "anonymous": false,
      "inputs": [
        {
          "indexed": false,
          "internalType": "uint256",
          "name": "electionId",
          "type": "uint256"
        }
      ],
      "name": "ElectionPaid",
      "type": "event"
    },
    {
      "anonymous": false,
      "inputs": [
        {
          "indexed": true,
          "internalType": "address",
          "name": "previousOwner",
          "type": "address"
        },
        {
          "indexed": true,
          "internalType": "address",
          "name": "newOwner",
          "type": "address"
        }
      ],
      "name": "OwnershipTransferred",
      "type": "event"
    },
    {
      "anonymous": false,
      "inputs": [
        {
          "indexed": true,
          "internalType": "bytes32",
          "name": "role",
          "type": "bytes32"
        },
        {
          "indexed": true,
          "internalType": "bytes32",
          "name": "previousAdminRole",
          "type": "bytes32"
        },
        {
          "indexed": true,
          "internalType": "bytes32",
          "name": "newAdminRole",
          "type": "bytes32"
        }
      ],
      "name": "RoleAdminChanged",
      "type": "event"
    },
    {
      "anonymous": false,
      "inputs": [
        {
          "indexed": true,
          "internalType": "bytes32",
          "name": "role",
          "type": "bytes32"
        },
        {
          "indexed": true,
          "internalType": "address",
          "name": "account",
          "type": "address"
        },
        {
          "indexed": true,
          "internalType": "address",
          "name": "sender",
          "type": "address"
        }
      ],
      "name": "RoleGranted",
      "type": "event"
    },
    {
      "anonymous": false,
      "inputs": [
        {
          "indexed": true,
          "internalType": "bytes32",
          "name": "role",
          "type": "bytes32"
        },
        {
          "indexed": true,
          "internalType": "address",
          "name": "account",
          "type": "address"
        },
        {
          "indexed": true,
          "internalType": "address",
          "name": "sender",
          "type": "address"
        }
      ],
      "name": "RoleRevoked",
      "type": "event"
    },
    {
      "inputs": [],
      "name": "DEFAULT_ADMIN_ROLE",
      "outputs": [
        {
          "internalType": "bytes32",
          "name": "",
          "type": "bytes32"
        }
      ],
      "stateMutability": "view",
      "type": "function"
    },
    {
      "inputs": [
        {
          "internalType": "uint256",
          "name": "electionId",
          "type": "uint256"
        },
        {
          "internalType": "address[]",
          "name": "_adrs",
          "type": "address[]"
        },
        {
          "internalType": "uint256[]",
          "name": "_pay",
          "type": "uint256[]"
        }
      ],
      "name": "_ethPayout",
      "outputs": [
        {
          "internalType": "bool",
          "name": "",
          "type": "bool"
        }
      ],
      "stateMutability": "payable",
      "type": "function"
    },
    {
      "inputs": [],
      "name": "_tokenPayout",
      "outputs": [
        {
          "internalType": "bool",
          "name": "",
          "type": "bool"
        }
      ],
      "stateMutability": "nonpayable",
      "type": "function"
    },
    {
      "inputs": [],
      "name": "approveToken",
      "outputs": [],
      "stateMutability": "nonpayable",
      "type": "function"
    },
    {
      "inputs": [
        {
          "internalType": "uint256",
          "name": "electionId",
          "type": "uint256"
        },
        {
          "internalType": "address",
          "name": "_sender",
          "type": "address"
        }
      ],
      "name": "canVote",
      "outputs": [
        {
          "internalType": "bool",
          "name": "status",
          "type": "bool"
        }
      ],
      "stateMutability": "view",
      "type": "function"
    },
    {
      "inputs": [
        {
          "internalType": "uint256",
          "name": "electionId",
          "type": "uint256"
        },
        {
          "internalType": "address[]",
          "name": "_adrs",
          "type": "address[]"
        },
        {
          "internalType": "string[]",
          "name": "_scores",
          "type": "string[]"
        }
      ],
      "name": "castBallot",
      "outputs": [],
      "stateMutability": "nonpayable",
      "type": "function"
    },
    {
      "inputs": [
        {
          "internalType": "uint256",
          "name": "",
          "type": "uint256"
        }
      ],
      "name": "elections",
      "outputs": [
        {
          "internalType": "string",
          "name": "name",
          "type": "string"
        },
        {
          "internalType": "bool",
          "name": "active",
          "type": "bool"
        },
        {
          "internalType": "bool",
          "name": "paid",
          "type": "bool"
        },
        {
          "internalType": "uint256",
          "name": "createdAt",
          "type": "uint256"
        },
        {
          "internalType": "uint256",
          "name": "funds",
          "type": "uint256"
        },
        {
          "internalType": "string",
          "name": "fundingType",
          "type": "string"
        },
        {
          "internalType": "uint256",
          "name": "votes",
          "type": "uint256"
        },
        {
          "internalType": "address",
          "name": "admin",
          "type": "address"
        }
      ],
      "stateMutability": "view",
      "type": "function"
    },
    {
      "inputs": [
        {
          "internalType": "uint256",
          "name": "electionId",
          "type": "uint256"
        }
      ],
      "name": "endElection",
      "outputs": [],
      "stateMutability": "nonpayable",
      "type": "function"
    },
    {
      "inputs": [
        {
          "internalType": "uint256",
          "name": "electionId",
          "type": "uint256"
        }
      ],
      "name": "getElectionById",
      "outputs": [
        {
          "internalType": "string",
          "name": "name",
          "type": "string"
        },
        {
          "internalType": "address[]",
          "name": "candidates",
          "type": "address[]"
        },
        {
          "internalType": "uint256",
          "name": "n_addr",
          "type": "uint256"
        },
        {
          "internalType": "uint256",
          "name": "createdAt",
          "type": "uint256"
        },
        {
          "internalType": "uint256",
          "name": "funds",
          "type": "uint256"
        },
        {
          "internalType": "string",
          "name": "fundingType",
          "type": "string"
        },
        {
          "internalType": "uint256",
          "name": "votes",
          "type": "uint256"
        },
        {
          "internalType": "address",
          "name": "admin",
          "type": "address"
        },
        {
          "internalType": "bool",
          "name": "isActive",
          "type": "bool"
        },
        {
          "internalType": "bool",
          "name": "paid",
          "type": "bool"
        }
      ],
      "stateMutability": "view",
      "type": "function"
    },
    {
      "inputs": [
        {
          "internalType": "uint256",
          "name": "electionId",
          "type": "uint256"
        },
        {
          "internalType": "address",
          "name": "_adr",
          "type": "address"
        }
      ],
      "name": "getElectionResults",
      "outputs": [
        {
          "internalType": "int256",
          "name": "",
          "type": "int256"
        }
      ],
      "stateMutability": "view",
      "type": "function"
    },
    {
      "inputs": [
        {
          "internalType": "uint256",
          "name": "electionId",
          "type": "uint256"
        },
        {
          "internalType": "address",
          "name": "_adr",
          "type": "address"
        }
      ],
      "name": "getElectionScores",
      "outputs": [
        {
          "internalType": "string[]",
          "name": "",
          "type": "string[]"
        }
      ],
      "stateMutability": "view",
      "type": "function"
    },
    {
      "inputs": [
        {
          "internalType": "uint256",
          "name": "electionId",
          "type": "uint256"
        }
      ],
      "name": "getElectionVoted",
      "outputs": [
        {
          "internalType": "uint256",
          "name": "count",
          "type": "uint256"
        }
      ],
      "stateMutability": "view",
      "type": "function"
    },
    {
      "inputs": [
        {
          "internalType": "bytes32",
          "name": "role",
          "type": "bytes32"
        }
      ],
      "name": "getRoleAdmin",
      "outputs": [
        {
          "internalType": "bytes32",
          "name": "",
          "type": "bytes32"
        }
      ],
      "stateMutability": "view",
      "type": "function"
    },
    {
      "inputs": [
        {
          "internalType": "bytes32",
          "name": "role",
          "type": "bytes32"
        },
        {
          "internalType": "address",
          "name": "account",
          "type": "address"
        }
      ],
      "name": "grantRole",
      "outputs": [],
      "stateMutability": "nonpayable",
      "type": "function"
    },
    {
      "inputs": [
        {
          "internalType": "bytes32",
          "name": "role",
          "type": "bytes32"
        },
        {
          "internalType": "address",
          "name": "account",
          "type": "address"
        }
      ],
      "name": "hasRole",
      "outputs": [
        {
          "internalType": "bool",
          "name": "",
          "type": "bool"
        }
      ],
      "stateMutability": "view",
      "type": "function"
    },
    {
      "inputs": [
        {
          "internalType": "uint256",
          "name": "electionId",
          "type": "uint256"
        },
        {
          "internalType": "address",
          "name": "_sender",
          "type": "address"
        }
      ],
      "name": "hasVoted",
      "outputs": [
        {
          "internalType": "bool",
          "name": "",
          "type": "bool"
        }
      ],
      "stateMutability": "view",
      "type": "function"
    },
    {
      "inputs": [
        {
          "internalType": "uint256",
          "name": "electionId",
          "type": "uint256"
        },
        {
          "internalType": "address",
          "name": "_sender",
          "type": "address"
        }
      ],
      "name": "isElectionAdmin",
      "outputs": [
        {
          "internalType": "bool",
          "name": "",
          "type": "bool"
        }
      ],
      "stateMutability": "view",
      "type": "function"
    },
    {
      "inputs": [
        {
          "internalType": "uint256",
          "name": "electionId",
          "type": "uint256"
        },
        {
          "internalType": "address",
          "name": "_sender",
          "type": "address"
        }
      ],
      "name": "isElectionCandidate",
      "outputs": [
        {
          "internalType": "bool",
          "name": "status",
          "type": "bool"
        }
      ],
      "stateMutability": "view",
      "type": "function"
    },
    {
      "inputs": [
        {
          "internalType": "string",
          "name": "_name",
          "type": "string"
        },
        {
          "internalType": "uint256",
          "name": "_funds",
          "type": "uint256"
        },
        {
          "internalType": "string",
          "name": "_type",
          "type": "string"
        },
        {
          "internalType": "uint256",
          "name": "_votes",
          "type": "uint256"
        },
        {
          "internalType": "address[]",
          "name": "_adrs",
          "type": "address[]"
        }
      ],
      "name": "newElection",
      "outputs": [
        {
          "internalType": "uint256",
          "name": "electionId",
          "type": "uint256"
        }
      ],
      "stateMutability": "nonpayable",
      "type": "function"
    },
    {
      "inputs": [],
      "name": "numElections",
      "outputs": [
        {
          "internalType": "uint256",
          "name": "",
          "type": "uint256"
        }
      ],
      "stateMutability": "view",
      "type": "function"
    },
    {
      "inputs": [],
      "name": "owner",
      "outputs": [
        {
          "internalType": "address",
          "name": "",
          "type": "address"
        }
      ],
      "stateMutability": "view",
      "type": "function"
    },
    {
      "inputs": [
        {
          "internalType": "uint256",
          "name": "electionId",
          "type": "uint256"
        },
        {
          "internalType": "address[]",
          "name": "_adrs",
          "type": "address[]"
        },
        {
          "internalType": "uint256[]",
          "name": "_pay",
          "type": "uint256[]"
        }
      ],
      "name": "payoutElection",
      "outputs": [],
      "stateMutability": "payable",
      "type": "function"
    },
    {
      "inputs": [],
      "name": "renounceOwnership",
      "outputs": [],
      "stateMutability": "nonpayable",
      "type": "function"
    },
    {
      "inputs": [
        {
          "internalType": "bytes32",
          "name": "role",
          "type": "bytes32"
        },
        {
          "internalType": "address",
          "name": "account",
          "type": "address"
        }
      ],
      "name": "renounceRole",
      "outputs": [],
      "stateMutability": "nonpayable",
      "type": "function"
    },
    {
      "inputs": [
        {
          "internalType": "bytes32",
          "name": "role",
          "type": "bytes32"
        },
        {
          "internalType": "address",
          "name": "account",
          "type": "address"
        }
      ],
      "name": "revokeRole",
      "outputs": [],
      "stateMutability": "nonpayable",
      "type": "function"
    },
    {
      "inputs": [
        {
          "internalType": "bytes4",
          "name": "interfaceId",
          "type": "bytes4"
        }
      ],
      "name": "supportsInterface",
      "outputs": [
        {
          "internalType": "bool",
          "name": "",
          "type": "bool"
        }
      ],
      "stateMutability": "view",
      "type": "function"
    },
    {
      "inputs": [
        {
          "internalType": "address",
          "name": "newOwner",
          "type": "address"
        }
      ],
      "name": "transferOwnership",
      "outputs": [],
      "stateMutability": "nonpayable",
      "type": "function"
    }
  ],
  "bytecode": "0x6080604052600280546001600160a01b031916731f9840a85d5af5bf1d1762f925bdaddc4201f9841790553480156200003757600080fd5b50620000433362000056565b62000050600033620000a8565b62000158565b600180546001600160a01b038381166001600160a01b0319831681179093556040519116919082907f8be0079c531659141344cd1fd0a4f28419497f9722a3daafe3b4186f6b6457e090600090a35050565b620000b48282620000b8565b5050565b6000828152602081815260408083206001600160a01b038516845290915290205460ff16620000b4576000828152602081815260408083206001600160a01b03851684529091529020805460ff19166001179055620001143390565b6001600160a01b0316816001600160a01b0316837f2f8788117e7eff1d82e926ec794901d17c78024a50270940304540a733656f0d60405160405180910390a45050565b61267880620001686000396000f3fe60806040526004361061019c5760003560e01c8063715018a6116100ec578063ba7b89a91161008a578063cdb2867b11610064578063cdb2867b14610515578063d547741f14610535578063ea3c6cde14610555578063f2fde38b1461057557600080fd5b8063ba7b89a914610483578063be70a00914610498578063c6958b12146104df57600080fd5b806391d14854116100c657806391d148541461041957806399b71d5c146104395780639c98bcbb1461044e578063a217fddf1461046e57600080fd5b8063715018a61461039d5780638da5cb5b146103b257806391b84f16146103da57600080fd5b806336568abe1161015957806352e968ad1161013357806352e968ad146103205780635726cb5d146103405780635e6fef01146103535780636e38d9bd1461038757600080fd5b806336568abe1461029657806343859632146102b65780634548e52b1461030057600080fd5b806301ffc9a7146101a157806308108288146101d65780630ece86d014610203578063248a9ca3146102185780632f2ff15d1461025657806334a22bc914610276575b600080fd5b3480156101ad57600080fd5b506101c16101bc366004611f1b565b610595565b60405190151581526020015b60405180910390f35b3480156101e257600080fd5b506101f66101f1366004611fdb565b6105cc565b6040516101cd91906123a7565b6102166102113660046120cc565b6106c6565b005b34801561022457600080fd5b50610248610233366004611ed8565b60009081526020819052604090206001015490565b6040519081526020016101cd565b34801561026257600080fd5b50610216610271366004611ef0565b6108de565b34801561028257600080fd5b50610248610291366004611f43565b610909565b3480156102a257600080fd5b506102166102b1366004611ef0565b6109fe565b3480156102c257600080fd5b506101c16102d1366004611fdb565b60008281526004602090815260408083206001600160a01b038516845260080190915290205460ff1692915050565b34801561030c57600080fd5b5061021661031b366004611fed565b610a7c565b34801561032c57600080fd5b5061024861033b366004611ed8565b610d8c565b6101c161034e3660046120cc565b610e3f565b34801561035f57600080fd5b5061037361036e366004611ed8565b611029565b6040516101cd989796959493929190612452565b34801561039357600080fd5b5061024860035481565b3480156103a957600080fd5b5061021661118d565b3480156103be57600080fd5b506001546040516001600160a01b0390911681526020016101cd565b3480156103e657600080fd5b506101c16103f5366004611fdb565b600091825260046020526040909120600701546001600160a01b0390811691161490565b34801561042557600080fd5b506101c1610434366004611ef0565b6111f3565b34801561044557600080fd5b5061021661121c565b34801561045a57600080fd5b50610216610469366004611ed8565b6112a4565b34801561047a57600080fd5b50610248600081565b34801561048f57600080fd5b506101c16113ca565b3480156104a457600080fd5b506102486104b3366004611fdb565b60008281526004602090815260408083206001600160a01b0385168452600a0190915290205492915050565b3480156104eb57600080fd5b506104ff6104fa366004611ed8565b61145b565b6040516101cd9a999897969594939291906123cd565b34801561052157600080fd5b506101c1610530366004611fdb565b611683565b34801561054157600080fd5b50610216610550366004611ef0565b611712565b34801561056157600080fd5b506101c1610570366004611fdb565b611738565b34801561058157600080fd5b50610216610590366004611e9e565b6117c0565b60006001600160e01b03198216637965db0b60e01b14806105c657506301ffc9a760e01b6001600160e01b03198316145b92915050565b60008281526004602090815260408083206001600160a01b03851684526009018252808320805482518185028101850190935280835260609492939192909184015b828210156106ba57838290600052602060002001805461062d906125c6565b80601f0160208091040260200160405190810160405280929190818152602001828054610659906125c6565b80156106a65780601f1061067b576101008083540402835291602001916106a6565b820191906000526020600020905b81548152906001019060200180831161068957829003601f168201915b50505050508152602001906001019061060e565b50505050905092915050565b826106f17f16f50c1fe196fa8f2d59c3eca367f2f7bf83b35c12ed36436b26d5af3695f5c4336111f3565b6107165760405162461bcd60e51b815260040161070d906124bc565b60405180910390fd5b6000818152600460205260409020600701546001600160a01b0316331461074f5760405162461bcd60e51b815260040161070d906124bc565b60008481526004602052604090206001015460ff16156107aa5760405162461bcd60e51b8152602060048201526016602482015275456c656374696f6e205374696c6c204163746976652160501b604482015260640161070d565b604080518082018252600381526208aa8960eb1b60209182015260008681526004909152818120915190917faaaebeba3810b1e6b70781f14b2d72c1cb89c0b2b320c43bb67ff79f562f5ff4916108049160050190612253565b604051809103902014156108245761081d858585610e3f565b9050610881565b604080518082018252600381526247544360e81b6020918201526000878152600490915281902090517f7438d7d73ec9e46da3d0aa51b56d02f7e7bc34bd8939d3f4c05474ab1961f8e59161087e91600590910190612253565b50505b600085815260046020908152604091829020600101805461ff0019166101008515150217905590518681527fb27761a3b9064636a27795816e4f8a8e5cadd6ac8b1e3a553bd47bf414c2b402910160405180910390a15050505050565b6000828152602081905260409020600101546108fa8133611888565b61090483836118ec565b505050565b600380546000918261091a836125fb565b909155506000818152600460209081526040909120885192935091610944918391908a0190611cb3565b506004810186905584516109619060058301906020880190611cb3565b5060068101849055825161097e9060038301906020860190611d37565b504260028201556001808201805460ff191690911790556007810180546001600160a01b031916331790556109b283611970565b6109bb336119df565b60408051338152602081018490527fc91fe4766a7a928d6625f66818425dc115b03c854a8ed8d28de2f34a684e0f1a910160405180910390a15095945050505050565b6001600160a01b0381163314610a6e5760405162461bcd60e51b815260206004820152602f60248201527f416363657373436f6e74726f6c3a2063616e206f6e6c792072656e6f756e636560448201526e103937b632b9903337b91039b2b63360891b606482015260840161070d565b610a788282611a09565b5050565b82610aa77f9096faa56698daa37ec8d3542ff829c66d5e81213bd6faab8ba4e9ce824a5def336111f3565b610af35760405162461bcd60e51b815260206004820152601e60248201527f53656e646572206e6f7420456c656374696f6e2043616e646964617465210000604482015260640161070d565b610afd8133611738565b610b495760405162461bcd60e51b815260206004820152601e60248201527f53656e646572206e6f7420456c656374696f6e2043616e646964617465210000604482015260640161070d565b60008481526004602052604090206001015484908490849060ff16610ba75760405162461bcd60e51b8152602060048201526014602482015273456c656374696f6e204e6f74204163746976652160601b604482015260640161070d565b600083815260046020908152604080832033845260080190915290205460ff1615610c0c5760405162461bcd60e51b815260206004820152601560248201527453656e64657220616c726561647920766f7465642160581b604482015260640161070d565b8151815114610c5d5760405162461bcd60e51b815260206004820181905260248201527f53636f7265732043616e64696461746520436f756e74204d69736d6174636821604482015260640161070d565b6000878152600460205260408120905b8751811015610d2957816009016000898381518110610c9c57634e487b7160e01b600052603260045260246000fd5b60200260200101516001600160a01b03166001600160a01b03168152602001908152602001600020878281518110610ce457634e487b7160e01b600052603260045260246000fd5b60209081029190910181015182546001810184556000938452928290208151610d169491909101929190910190611cb3565b5080610d21816125fb565b915050610c6d565b5033600081815260088301602052604090819020805460ff19166001179055517faaf8175507b94c84621088891ecf31ca1c2548c0aeab2f2f21d3459515f9c4ed91610d7a918b908b908b90612363565b60405180910390a15050505050505050565b6000805b600083815260046020526040902060030154811015610e39576000838152600460205260408120600301805483908110610dda57634e487b7160e01b600052603260045260246000fd5b60009182526020808320909101548683526004825260408084206001600160a01b03909216808552600890920190925291205490915060ff1615610e265782610e22816125fb565b9350505b5080610e31816125fb565b915050610d90565b50919050565b60008060005b600086815260046020526040902060030154811015610f6d57848181518110610e7e57634e487b7160e01b600052603260045260246000fd5b60200260200101516001600160a01b0316600460008881526020019081526020016000206003018281548110610ec457634e487b7160e01b600052603260045260246000fd5b6000918252602090912001546001600160a01b031614610f265760405162461bcd60e51b815260206004820152601a60248201527f456c656374696f6e2d41646472657373204d69736d6174636821000000000000604482015260640161070d565b838181518110610f4657634e487b7160e01b600052603260045260246000fd5b602002602001015182610f599190612548565b915080610f65816125fb565b915050610e45565b5060005b835181101561101d57848181518110610f9a57634e487b7160e01b600052603260045260246000fd5b60200260200101516001600160a01b03166108fc858381518110610fce57634e487b7160e01b600052603260045260246000fd5b60200260200101516001610fe29190612560565b6040518115909202916000818181858888f1935050505015801561100a573d6000803e3d6000fd5b5080611015816125fb565b915050610f71565b50600195945050505050565b600460205260009081526040902080548190611044906125c6565b80601f0160208091040260200160405190810160405280929190818152602001828054611070906125c6565b80156110bd5780601f10611092576101008083540402835291602001916110bd565b820191906000526020600020905b8154815290600101906020018083116110a057829003601f168201915b505050600184015460028501546004860154600587018054969760ff8086169861010090960416965092945090926110f4906125c6565b80601f0160208091040260200160405190810160405280929190818152602001828054611120906125c6565b801561116d5780601f106111425761010080835404028352916020019161116d565b820191906000526020600020905b81548152906001019060200180831161115057829003601f168201915b5050505060068301546007909301549192916001600160a01b0316905088565b6001546001600160a01b031633146111e75760405162461bcd60e51b815260206004820181905260248201527f4f776e61626c653a2063616c6c6572206973206e6f7420746865206f776e6572604482015260640161070d565b6111f16000611a6e565b565b6000918252602082815260408084206001600160a01b0393909316845291905290205460ff1690565b60025460405163095ea7b360e01b81523060048201526103e860248201526001600160a01b039091169063095ea7b390604401602060405180830381600087803b15801561126957600080fd5b505af115801561127d573d6000803e3d6000fd5b505050506040513d601f19601f820116820180604052508101906112a19190611eb8565b50565b806112cf7f16f50c1fe196fa8f2d59c3eca367f2f7bf83b35c12ed36436b26d5af3695f5c4336111f3565b6112eb5760405162461bcd60e51b815260040161070d906124bc565b6000818152600460205260409020600701546001600160a01b031633146113245760405162461bcd60e51b815260040161070d906124bc565b6000828152600460205260409020600181015460ff166113865760405162461bcd60e51b815260206004820152601760248201527f456c656374696f6e20416c726561647920456e64656421000000000000000000604482015260640161070d565b60018101805460ff191690556040518381527f562cd572b2ba3b666cd989fc4ca98419ec81e75f04528df9d9d76fdb7807ee719060200160405180910390a1505050565b6002546040516323b872dd60e01b81523360048201523060248201526103e860448201526000916001600160a01b0316906323b872dd90606401602060405180830381600087803b15801561141e57600080fd5b505af1158015611432573d6000803e3d6000fd5b505050506040513d601f19601f820116820180604052508101906114569190611eb8565b905090565b60608060008060006060600080600080600460008c8152602001908152602001600020600001805461148c906125c6565b80601f01602080910402602001604051908101604052809291908181526020018280546114b8906125c6565b80156115055780601f106114da57610100808354040283529160200191611505565b820191906000526020600020905b8154815290600101906020018083116114e857829003601f168201915b50505050509950600460008c815260200190815260200160002060030180548060200260200160405190810160405280929190818152602001828054801561157657602002820191906000526020600020905b81546001600160a01b03168152600190910190602001808311611558575b50505060008e8152600460208190526040909120600381015460028201549282015460059092018054969f50909d50919b509950926115b7925090506125c6565b80601f01602080910402602001604051908101604052809291908181526020018280546115e3906125c6565b80156116305780601f1061160557610100808354040283529160200191611630565b820191906000526020600020905b81548152906001019060200180831161161357829003601f168201915b50505060009d8e52505060046020526040909b20600681015460078201546001909201549b9d9a9c999b989a97999890976001600160a01b03909216965060ff8082169650610100909104169350915050565b6000805b60008481526004602052604090206003015481101561170b5760008481526004602052604081206003018054839081106116d157634e487b7160e01b600052603260045260246000fd5b6000918252602090912001546001600160a01b03908116915084168114156116f857600192505b5080611703816125fb565b915050611687565b5092915050565b60008281526020819052604090206001015461172e8133611888565b6109048383611a09565b6000805b60008481526004602052604090206003015481101561170b57600084815260046020526040902060030180548290811061178657634e487b7160e01b600052603260045260246000fd5b6000918252602090912001546001600160a01b03848116911614156117ae576001915061170b565b806117b8816125fb565b91505061173c565b6001546001600160a01b0316331461181a5760405162461bcd60e51b815260206004820181905260248201527f4f776e61626c653a2063616c6c6572206973206e6f7420746865206f776e6572604482015260640161070d565b6001600160a01b03811661187f5760405162461bcd60e51b815260206004820152602660248201527f4f776e61626c653a206e6577206f776e657220697320746865207a65726f206160448201526564647265737360d01b606482015260840161070d565b6112a181611a6e565b61189282826111f3565b610a78576118aa816001600160a01b03166014611ac0565b6118b5836020611ac0565b6040516020016118c69291906122ee565b60408051601f198184030181529082905262461bcd60e51b825261070d916004016123ba565b6118f682826111f3565b610a78576000828152602081815260408083206001600160a01b03851684529091529020805460ff1916600117905561192c3390565b6001600160a01b0316816001600160a01b0316837f2f8788117e7eff1d82e926ec794901d17c78024a50270940304540a733656f0d60405160405180910390a45050565b60005b8151811015610a78576119cd7f9096faa56698daa37ec8d3542ff829c66d5e81213bd6faab8ba4e9ce824a5def8383815181106119c057634e487b7160e01b600052603260045260246000fd5b6020026020010151611ca9565b806119d7816125fb565b915050611973565b6112a17f16f50c1fe196fa8f2d59c3eca367f2f7bf83b35c12ed36436b26d5af3695f5c482611ca9565b611a1382826111f3565b15610a78576000828152602081815260408083206001600160a01b0385168085529252808320805460ff1916905551339285917ff6391f5c32d9c69d2a47ea670b442974b53935d1edc7fd64eb21e047a839171b9190a45050565b600180546001600160a01b038381166001600160a01b0319831681179093556040519116919082907f8be0079c531659141344cd1fd0a4f28419497f9722a3daafe3b4186f6b6457e090600090a35050565b60606000611acf836002612560565b611ada906002612548565b67ffffffffffffffff811115611b0057634e487b7160e01b600052604160045260246000fd5b6040519080825280601f01601f191660200182016040528015611b2a576020820181803683370190505b509050600360fc1b81600081518110611b5357634e487b7160e01b600052603260045260246000fd5b60200101906001600160f81b031916908160001a905350600f60fb1b81600181518110611b9057634e487b7160e01b600052603260045260246000fd5b60200101906001600160f81b031916908160001a9053506000611bb4846002612560565b611bbf906001612548565b90505b6001811115611c53576f181899199a1a9b1b9c1cb0b131b232b360811b85600f1660108110611c0157634e487b7160e01b600052603260045260246000fd5b1a60f81b828281518110611c2557634e487b7160e01b600052603260045260246000fd5b60200101906001600160f81b031916908160001a90535060049490941c93611c4c816125af565b9050611bc2565b508315611ca25760405162461bcd60e51b815260206004820181905260248201527f537472696e67733a20686578206c656e67746820696e73756666696369656e74604482015260640161070d565b9392505050565b610a7882826118ec565b828054611cbf906125c6565b90600052602060002090601f016020900481019282611ce15760008555611d27565b82601f10611cfa57805160ff1916838001178555611d27565b82800160010185558215611d27579182015b82811115611d27578251825591602001919060010190611d0c565b50611d33929150611d8c565b5090565b828054828255906000526020600020908101928215611d27579160200282015b82811115611d2757825182546001600160a01b0319166001600160a01b03909116178255602090920191600190910190611d57565b5b80821115611d335760008155600101611d8d565b80356001600160a01b0381168114611db857600080fd5b919050565b600082601f830112611dcd578081fd5b81356020611de2611ddd83612524565b6124f3565b80838252828201915082860187848660051b8901011115611e01578586fd5b855b85811015611e2657611e1482611da1565b84529284019290840190600101611e03565b5090979650505050505050565b600082601f830112611e43578081fd5b813567ffffffffffffffff811115611e5d57611e5d61262c565b611e70601f8201601f19166020016124f3565b818152846020838601011115611e84578283fd5b816020850160208301379081016020019190915292915050565b600060208284031215611eaf578081fd5b611ca282611da1565b600060208284031215611ec9578081fd5b81518015158114611ca2578182fd5b600060208284031215611ee9578081fd5b5035919050565b60008060408385031215611f02578081fd5b82359150611f1260208401611da1565b90509250929050565b600060208284031215611f2c578081fd5b81356001600160e01b031981168114611ca2578182fd5b600080600080600060a08688031215611f5a578081fd5b853567ffffffffffffffff80821115611f71578283fd5b611f7d89838a01611e33565b9650602088013595506040880135915080821115611f99578283fd5b611fa589838a01611e33565b9450606088013593506080880135915080821115611fc1578283fd5b50611fce88828901611dbd565b9150509295509295909350565b60008060408385031215611f02578182fd5b600080600060608486031215612001578283fd5b8335925060208085013567ffffffffffffffff80821115612020578485fd5b61202c88838901611dbd565b94506040870135915080821115612041578384fd5b818701915087601f830112612054578384fd5b8135612062611ddd82612524565b8082825285820191508585018b878560051b8801011115612081578788fd5b875b848110156120ba5781358681111561209957898afd5b6120a78e8a838b0101611e33565b8552509287019290870190600101612083565b50508096505050505050509250925092565b6000806000606084860312156120e0578081fd5b8335925060208085013567ffffffffffffffff808211156120ff578384fd5b61210b88838901611dbd565b94506040870135915080821115612120578384fd5b508501601f81018713612131578283fd5b803561213f611ddd82612524565b8082825284820191508484018a868560051b870101111561215e578687fd5b8694505b83851015612180578035835260019490940193918501918501612162565b5080955050505050509250925092565b6000815180845260208085019450808401835b838110156121c85781516001600160a01b0316875295820195908201906001016121a3565b509495945050505050565b600081518084526020808501808196508360051b81019150828601855b8581101561221a578284038952612208848351612227565b988501989350908401906001016121f0565b5091979650505050505050565b6000815180845261223f81602086016020860161257f565b601f01601f19169290920160200192915050565b600080835482600182811c91508083168061226f57607f831692505b602080841082141561228f57634e487b7160e01b87526022600452602487fd5b8180156122a357600181146122b4576122e0565b60ff198616895284890196506122e0565b60008a815260209020885b868110156122d85781548b8201529085019083016122bf565b505084890196505b509498975050505050505050565b7f416363657373436f6e74726f6c3a206163636f756e742000000000000000000081526000835161232681601785016020880161257f565b7001034b99036b4b9b9b4b733903937b6329607d1b601791840191820152835161235781602884016020880161257f565b01602801949350505050565b60018060a01b038516815283602082015260806040820152600061238a6080830185612190565b828103606084015261239c81856121d3565b979650505050505050565b602081526000611ca260208301846121d3565b602081526000611ca26020830184612227565b60006101408083526123e18184018e612227565b905082810360208401526123f5818d612190565b90508a604084015289606084015288608084015282810360a084015261241b8189612227565b60c084019790975250506001600160a01b039390931660e08401529015156101008301521515610120909101529695505050505050565b60006101008083526124668184018c612227565b90508915156020840152881515604084015287606084015286608084015282810360a08401526124968187612227565b60c084019590955250506001600160a01b039190911660e0909101529695505050505050565b6020808252601a908201527f53656e646572206e6f7420456c656374696f6e2041646d696e21000000000000604082015260600190565b604051601f8201601f1916810167ffffffffffffffff8111828210171561251c5761251c61262c565b604052919050565b600067ffffffffffffffff82111561253e5761253e61262c565b5060051b60200190565b6000821982111561255b5761255b612616565b500190565b600081600019048311821515161561257a5761257a612616565b500290565b60005b8381101561259a578181015183820152602001612582565b838111156125a9576000848401525b50505050565b6000816125be576125be612616565b506000190190565b600181811c908216806125da57607f821691505b60208210811415610e3957634e487b7160e01b600052602260045260246000fd5b600060001982141561260f5761260f612616565b5060010190565b634e487b7160e01b600052601160045260246000fd5b634e487b7160e01b600052604160045260246000fdfea264697066735822122092ef826a7da215d8c48cb5783ff9f6021c82ed39f77453e8cc6e357065fd930a64736f6c63430008040033",
  "linkReferences": {},
  "deployedLinkReferences": {}
}