{
  "_format": "hh-sol-artifact-1",
  "contractName": "Diplomacy",
  "sourceName": "contracts/Diplomacy.sol",
  "abi": [
    {
      "inputs": [],
      "stateMutability": "nonpayable",
      "type": "constructor"
    },
    {
      "anonymous": false,
      "inputs": [
        {
          "indexed": false,
          "internalType": "address",
          "name": "voter",
          "type": "address"
        },
        {
          "indexed": false,
          "internalType": "uint256",
          "name": "electionId",
          "type": "uint256"
        },
        {
          "indexed": false,
          "internalType": "address[]",
          "name": "adrs",
          "type": "address[]"
        },
        {
          "indexed": false,
          "internalType": "string[]",
          "name": "scores",
          "type": "string[]"
        }
      ],
      "name": "BallotCast",
      "type": "event"
    },
    {
      "anonymous": false,
      "inputs": [
        {
          "indexed": false,
          "internalType": "address",
          "name": "creator",
          "type": "address"
        },
        {
          "indexed": false,
          "internalType": "uint256",
          "name": "electionId",
          "type": "uint256"
        }
      ],
      "name": "ElectionCreated",
      "type": "event"
    },
    {
      "anonymous": false,
      "inputs": [
        {
          "indexed": false,
          "internalType": "uint256",
          "name": "electionId",
          "type": "uint256"
        }
      ],
      "name": "ElectionEnded",
      "type": "event"
    },
    {
      "anonymous": false,
      "inputs": [
        {
          "indexed": false,
          "internalType": "uint256",
          "name": "electionId",
          "type": "uint256"
        }
      ],
      "name": "ElectionPaid",
      "type": "event"
    },
    {
      "anonymous": false,
      "inputs": [
        {
          "indexed": true,
          "internalType": "address",
          "name": "previousOwner",
          "type": "address"
        },
        {
          "indexed": true,
          "internalType": "address",
          "name": "newOwner",
          "type": "address"
        }
      ],
      "name": "OwnershipTransferred",
      "type": "event"
    },
    {
      "anonymous": false,
      "inputs": [
        {
          "indexed": true,
          "internalType": "bytes32",
          "name": "role",
          "type": "bytes32"
        },
        {
          "indexed": true,
          "internalType": "bytes32",
          "name": "previousAdminRole",
          "type": "bytes32"
        },
        {
          "indexed": true,
          "internalType": "bytes32",
          "name": "newAdminRole",
          "type": "bytes32"
        }
      ],
      "name": "RoleAdminChanged",
      "type": "event"
    },
    {
      "anonymous": false,
      "inputs": [
        {
          "indexed": true,
          "internalType": "bytes32",
          "name": "role",
          "type": "bytes32"
        },
        {
          "indexed": true,
          "internalType": "address",
          "name": "account",
          "type": "address"
        },
        {
          "indexed": true,
          "internalType": "address",
          "name": "sender",
          "type": "address"
        }
      ],
      "name": "RoleGranted",
      "type": "event"
    },
    {
      "anonymous": false,
      "inputs": [
        {
          "indexed": true,
          "internalType": "bytes32",
          "name": "role",
          "type": "bytes32"
        },
        {
          "indexed": true,
          "internalType": "address",
          "name": "account",
          "type": "address"
        },
        {
          "indexed": true,
          "internalType": "address",
          "name": "sender",
          "type": "address"
        }
      ],
      "name": "RoleRevoked",
      "type": "event"
    },
    {
      "inputs": [],
      "name": "DEFAULT_ADMIN_ROLE",
      "outputs": [
        {
          "internalType": "bytes32",
          "name": "",
          "type": "bytes32"
        }
      ],
      "stateMutability": "view",
      "type": "function"
    },
    {
      "inputs": [
        {
          "internalType": "uint256",
          "name": "electionId",
          "type": "uint256"
        },
        {
          "internalType": "address[]",
          "name": "_adrs",
          "type": "address[]"
        },
        {
          "internalType": "uint256[]",
          "name": "_pay",
          "type": "uint256[]"
        }
      ],
      "name": "_tokenPayout",
      "outputs": [
        {
          "internalType": "bool",
          "name": "",
          "type": "bool"
        }
      ],
      "stateMutability": "nonpayable",
      "type": "function"
    },
    {
      "inputs": [
        {
          "internalType": "uint256",
          "name": "electionId",
          "type": "uint256"
        },
        {
          "internalType": "address",
          "name": "_sender",
          "type": "address"
        }
      ],
      "name": "canVote",
      "outputs": [
        {
          "internalType": "bool",
          "name": "status",
          "type": "bool"
        }
      ],
      "stateMutability": "view",
      "type": "function"
    },
    {
      "inputs": [
        {
          "internalType": "uint256",
          "name": "electionId",
          "type": "uint256"
        },
        {
          "internalType": "address[]",
          "name": "_adrs",
          "type": "address[]"
        },
        {
          "internalType": "string[]",
          "name": "_scores",
          "type": "string[]"
        }
      ],
      "name": "castBallot",
      "outputs": [],
      "stateMutability": "nonpayable",
      "type": "function"
    },
    {
      "inputs": [
        {
          "internalType": "uint256",
          "name": "",
          "type": "uint256"
        }
      ],
      "name": "elections",
      "outputs": [
        {
          "internalType": "string",
          "name": "name",
          "type": "string"
        },
        {
          "internalType": "bool",
          "name": "active",
          "type": "bool"
        },
        {
          "internalType": "bool",
          "name": "paid",
          "type": "bool"
        },
        {
          "internalType": "uint256",
          "name": "createdAt",
          "type": "uint256"
        },
        {
          "internalType": "uint256",
          "name": "funds",
          "type": "uint256"
        },
        {
          "internalType": "string",
          "name": "fundingType",
          "type": "string"
        },
        {
          "internalType": "uint256",
          "name": "votes",
          "type": "uint256"
        },
        {
          "internalType": "address",
          "name": "admin",
          "type": "address"
        }
      ],
      "stateMutability": "view",
      "type": "function"
    },
    {
      "inputs": [
        {
          "internalType": "uint256",
          "name": "electionId",
          "type": "uint256"
        }
      ],
      "name": "endElection",
      "outputs": [],
      "stateMutability": "nonpayable",
      "type": "function"
    },
    {
      "inputs": [
        {
          "internalType": "uint256",
          "name": "electionId",
          "type": "uint256"
        }
      ],
      "name": "getElectionById",
      "outputs": [
        {
          "internalType": "string",
          "name": "name",
          "type": "string"
        },
        {
          "internalType": "address[]",
          "name": "candidates",
          "type": "address[]"
        },
        {
          "internalType": "uint256",
          "name": "n_addr",
          "type": "uint256"
        },
        {
          "internalType": "uint256",
          "name": "createdAt",
          "type": "uint256"
        },
        {
          "internalType": "uint256",
          "name": "funds",
          "type": "uint256"
        },
        {
          "internalType": "string",
          "name": "fundingType",
          "type": "string"
        },
        {
          "internalType": "uint256",
          "name": "votes",
          "type": "uint256"
        },
        {
          "internalType": "address",
          "name": "admin",
          "type": "address"
        },
        {
          "internalType": "bool",
          "name": "isActive",
          "type": "bool"
        },
        {
          "internalType": "bool",
          "name": "paid",
          "type": "bool"
        }
      ],
      "stateMutability": "view",
      "type": "function"
    },
    {
      "inputs": [
        {
          "internalType": "uint256",
          "name": "electionId",
          "type": "uint256"
        },
        {
          "internalType": "address",
          "name": "_adr",
          "type": "address"
        }
      ],
      "name": "getElectionResults",
      "outputs": [
        {
          "internalType": "int256",
          "name": "",
          "type": "int256"
        }
      ],
      "stateMutability": "view",
      "type": "function"
    },
    {
      "inputs": [
        {
          "internalType": "uint256",
          "name": "electionId",
          "type": "uint256"
        },
        {
          "internalType": "address",
          "name": "_adr",
          "type": "address"
        }
      ],
      "name": "getElectionScores",
      "outputs": [
        {
          "internalType": "string[]",
          "name": "",
          "type": "string[]"
        }
      ],
      "stateMutability": "view",
      "type": "function"
    },
    {
      "inputs": [
        {
          "internalType": "uint256",
          "name": "electionId",
          "type": "uint256"
        }
      ],
      "name": "getElectionVoted",
      "outputs": [
        {
          "internalType": "uint256",
          "name": "count",
          "type": "uint256"
        }
      ],
      "stateMutability": "view",
      "type": "function"
    },
    {
      "inputs": [
        {
          "internalType": "bytes32",
          "name": "role",
          "type": "bytes32"
        }
      ],
      "name": "getRoleAdmin",
      "outputs": [
        {
          "internalType": "bytes32",
          "name": "",
          "type": "bytes32"
        }
      ],
      "stateMutability": "view",
      "type": "function"
    },
    {
      "inputs": [
        {
          "internalType": "bytes32",
          "name": "role",
          "type": "bytes32"
        },
        {
          "internalType": "address",
          "name": "account",
          "type": "address"
        }
      ],
      "name": "grantRole",
      "outputs": [],
      "stateMutability": "nonpayable",
      "type": "function"
    },
    {
      "inputs": [
        {
          "internalType": "bytes32",
          "name": "role",
          "type": "bytes32"
        },
        {
          "internalType": "address",
          "name": "account",
          "type": "address"
        }
      ],
      "name": "hasRole",
      "outputs": [
        {
          "internalType": "bool",
          "name": "",
          "type": "bool"
        }
      ],
      "stateMutability": "view",
      "type": "function"
    },
    {
      "inputs": [
        {
          "internalType": "uint256",
          "name": "electionId",
          "type": "uint256"
        },
        {
          "internalType": "address",
          "name": "_sender",
          "type": "address"
        }
      ],
      "name": "hasVoted",
      "outputs": [
        {
          "internalType": "bool",
          "name": "",
          "type": "bool"
        }
      ],
      "stateMutability": "view",
      "type": "function"
    },
    {
      "inputs": [
        {
          "internalType": "uint256",
          "name": "electionId",
          "type": "uint256"
        },
        {
          "internalType": "address",
          "name": "_sender",
          "type": "address"
        }
      ],
      "name": "isElectionAdmin",
      "outputs": [
        {
          "internalType": "bool",
          "name": "",
          "type": "bool"
        }
      ],
      "stateMutability": "view",
      "type": "function"
    },
    {
      "inputs": [
        {
          "internalType": "uint256",
          "name": "electionId",
          "type": "uint256"
        },
        {
          "internalType": "address",
          "name": "_sender",
          "type": "address"
        }
      ],
      "name": "isElectionCandidate",
      "outputs": [
        {
          "internalType": "bool",
          "name": "status",
          "type": "bool"
        }
      ],
      "stateMutability": "view",
      "type": "function"
    },
    {
      "inputs": [
        {
          "internalType": "string",
          "name": "_name",
          "type": "string"
        },
        {
          "internalType": "uint256",
          "name": "_funds",
          "type": "uint256"
        },
        {
          "internalType": "string",
          "name": "_type",
          "type": "string"
        },
        {
          "internalType": "uint256",
          "name": "_votes",
          "type": "uint256"
        },
        {
          "internalType": "address[]",
          "name": "_adrs",
          "type": "address[]"
        }
      ],
      "name": "newElection",
      "outputs": [
        {
          "internalType": "uint256",
          "name": "electionId",
          "type": "uint256"
        }
      ],
      "stateMutability": "nonpayable",
      "type": "function"
    },
    {
      "inputs": [],
      "name": "numElections",
      "outputs": [
        {
          "internalType": "uint256",
          "name": "",
          "type": "uint256"
        }
      ],
      "stateMutability": "view",
      "type": "function"
    },
    {
      "inputs": [],
      "name": "owner",
      "outputs": [
        {
          "internalType": "address",
          "name": "",
          "type": "address"
        }
      ],
      "stateMutability": "view",
      "type": "function"
    },
    {
      "inputs": [
        {
          "internalType": "uint256",
          "name": "electionId",
          "type": "uint256"
        },
        {
          "internalType": "address[]",
          "name": "_adrs",
          "type": "address[]"
        },
        {
          "internalType": "uint256[]",
          "name": "_pay",
          "type": "uint256[]"
        }
      ],
      "name": "payoutElection",
      "outputs": [],
      "stateMutability": "payable",
      "type": "function"
    },
    {
      "inputs": [],
      "name": "renounceOwnership",
      "outputs": [],
      "stateMutability": "nonpayable",
      "type": "function"
    },
    {
      "inputs": [
        {
          "internalType": "bytes32",
          "name": "role",
          "type": "bytes32"
        },
        {
          "internalType": "address",
          "name": "account",
          "type": "address"
        }
      ],
      "name": "renounceRole",
      "outputs": [],
      "stateMutability": "nonpayable",
      "type": "function"
    },
    {
      "inputs": [
        {
          "internalType": "bytes32",
          "name": "role",
          "type": "bytes32"
        },
        {
          "internalType": "address",
          "name": "account",
          "type": "address"
        }
      ],
      "name": "revokeRole",
      "outputs": [],
      "stateMutability": "nonpayable",
      "type": "function"
    },
    {
      "inputs": [
        {
          "internalType": "bytes4",
          "name": "interfaceId",
          "type": "bytes4"
        }
      ],
      "name": "supportsInterface",
      "outputs": [
        {
          "internalType": "bool",
          "name": "",
          "type": "bool"
        }
      ],
      "stateMutability": "view",
      "type": "function"
    },
    {
      "inputs": [],
      "name": "token",
      "outputs": [
        {
          "internalType": "address",
          "name": "",
          "type": "address"
        }
      ],
      "stateMutability": "view",
      "type": "function"
    },
    {
      "inputs": [
        {
          "internalType": "address",
          "name": "newOwner",
          "type": "address"
        }
      ],
      "name": "transferOwnership",
      "outputs": [],
      "stateMutability": "nonpayable",
      "type": "function"
    }
  ],
  "bytecode": "0x6080604052600280546001600160a01b0319167301be23585060835e02b77ef475b0cc51aa1e07091790553480156200003757600080fd5b50620000433362000056565b62000050600033620000a8565b62000158565b600180546001600160a01b038381166001600160a01b0319831681179093556040519116919082907f8be0079c531659141344cd1fd0a4f28419497f9722a3daafe3b4186f6b6457e090600090a35050565b620000b48282620000b8565b5050565b6000828152602081815260408083206001600160a01b038516845290915290205460ff16620000b4576000828152602081815260408083206001600160a01b03851684529091529020805460ff19166001179055620001143390565b6001600160a01b0316816001600160a01b0316837f2f8788117e7eff1d82e926ec794901d17c78024a50270940304540a733656f0d60405160405180910390a45050565b61269b80620001686000396000f3fe6080604052600436106101815760003560e01c80638da5cb5b116100d1578063c6958b121161008a578063e0c4462911610064578063e0c4462914610507578063ea3c6cde14610527578063f2fde38b14610547578063fc0c546a1461056757600080fd5b8063c6958b1214610491578063cdb2867b146104c7578063d547741f146104e757600080fd5b80638da5cb5b1461038457806391b84f16146103b657806391d14854146103f55780639c98bcbb14610415578063a217fddf14610435578063be70a0091461044a57600080fd5b806336568abe1161013e57806352e968ad1161011857806352e968ad146103055780635e6fef01146103255780636e38d9bd14610359578063715018a61461036f57600080fd5b806336568abe1461027b578063438596321461029b5780634548e52b146102e557600080fd5b806301ffc9a71461018657806308108288146101bb5780630ece86d0146101e8578063248a9ca3146101fd5780632f2ff15d1461023b57806334a22bc91461025b575b600080fd5b34801561019257600080fd5b506101a66101a1366004611f3e565b610587565b60405190151581526020015b60405180910390f35b3480156101c757600080fd5b506101db6101d6366004611ffe565b6105be565b6040516101b291906123ca565b6101fb6101f63660046120ef565b6106b8565b005b34801561020957600080fd5b5061022d610218366004611efb565b60009081526020819052604090206001015490565b6040519081526020016101b2565b34801561024757600080fd5b506101fb610256366004611f13565b6108e9565b34801561026757600080fd5b5061022d610276366004611f66565b610914565b34801561028757600080fd5b506101fb610296366004611f13565b610a09565b3480156102a757600080fd5b506101a66102b6366004611ffe565b60008281526004602090815260408083206001600160a01b038516845260080190915290205460ff1692915050565b3480156102f157600080fd5b506101fb610300366004612010565b610a87565b34801561031157600080fd5b5061022d610320366004611efb565b610d97565b34801561033157600080fd5b50610345610340366004611efb565b610e4a565b6040516101b2989796959493929190612475565b34801561036557600080fd5b5061022d60035481565b34801561037b57600080fd5b506101fb610fae565b34801561039057600080fd5b506001546001600160a01b03165b6040516001600160a01b0390911681526020016101b2565b3480156103c257600080fd5b506101a66103d1366004611ffe565b600091825260046020526040909120600701546001600160a01b0390811691161490565b34801561040157600080fd5b506101a6610410366004611f13565b611014565b34801561042157600080fd5b506101fb610430366004611efb565b61103d565b34801561044157600080fd5b5061022d600081565b34801561045657600080fd5b5061022d610465366004611ffe565b60008281526004602090815260408083206001600160a01b0385168452600a0190915290205492915050565b34801561049d57600080fd5b506104b16104ac366004611efb565b611163565b6040516101b29a999897969594939291906123f0565b3480156104d357600080fd5b506101a66104e2366004611ffe565b61138b565b3480156104f357600080fd5b506101fb610502366004611f13565b61141a565b34801561051357600080fd5b506101a66105223660046120ef565b611440565b34801561053357600080fd5b506101a6610542366004611ffe565b61156e565b34801561055357600080fd5b506101fb610562366004611ec1565b6115f6565b34801561057357600080fd5b5060025461039e906001600160a01b031681565b60006001600160e01b03198216637965db0b60e01b14806105b857506301ffc9a760e01b6001600160e01b03198316145b92915050565b60008281526004602090815260408083206001600160a01b03851684526009018252808320805482518185028101850190935280835260609492939192909184015b828210156106ac57838290600052602060002001805461061f906125e9565b80601f016020809104026020016040519081016040528092919081815260200182805461064b906125e9565b80156106985780601f1061066d57610100808354040283529160200191610698565b820191906000526020600020905b81548152906001019060200180831161067b57829003601f168201915b505050505081526020019060010190610600565b50505050905092915050565b826106e37f16f50c1fe196fa8f2d59c3eca367f2f7bf83b35c12ed36436b26d5af3695f5c433611014565b6107085760405162461bcd60e51b81526004016106ff906124df565b60405180910390fd5b6000818152600460205260409020600701546001600160a01b031633146107415760405162461bcd60e51b81526004016106ff906124df565b60008481526004602052604090206001015460ff161561079c5760405162461bcd60e51b8152602060048201526016602482015275456c656374696f6e205374696c6c204163746976652160501b60448201526064016106ff565b604080518082018252600381526208aa8960eb1b60209182015260008681526004909152818120915190917faaaebeba3810b1e6b70781f14b2d72c1cb89c0b2b320c43bb67ff79f562f5ff4916107f69160050190612276565b604051809103902014156108165761080f8585856116c1565b905061088c565b604080518082018252600381526247544360e81b6020918201526000878152600490915281902090517f7438d7d73ec9e46da3d0aa51b56d02f7e7bc34bd8939d3f4c05474ab1961f8e59161087091600590910190612276565b6040518091039020141561088c57610889858585611440565b90505b600085815260046020908152604091829020600101805461ff0019166101008515150217905590518681527fb27761a3b9064636a27795816e4f8a8e5cadd6ac8b1e3a553bd47bf414c2b402910160405180910390a15050505050565b60008281526020819052604090206001015461090581336118ab565b61090f838361190f565b505050565b60038054600091826109258361261e565b90915550600081815260046020908152604090912088519293509161094f918391908a0190611cd6565b5060048101869055845161096c9060058301906020880190611cd6565b506006810184905582516109899060038301906020860190611d5a565b504260028201556001808201805460ff191690911790556007810180546001600160a01b031916331790556109bd83611993565b6109c633611a02565b60408051338152602081018490527fc91fe4766a7a928d6625f66818425dc115b03c854a8ed8d28de2f34a684e0f1a910160405180910390a15095945050505050565b6001600160a01b0381163314610a795760405162461bcd60e51b815260206004820152602f60248201527f416363657373436f6e74726f6c3a2063616e206f6e6c792072656e6f756e636560448201526e103937b632b9903337b91039b2b63360891b60648201526084016106ff565b610a838282611a2c565b5050565b82610ab27f9096faa56698daa37ec8d3542ff829c66d5e81213bd6faab8ba4e9ce824a5def33611014565b610afe5760405162461bcd60e51b815260206004820152601e60248201527f53656e646572206e6f7420456c656374696f6e2043616e64696461746521000060448201526064016106ff565b610b08813361156e565b610b545760405162461bcd60e51b815260206004820152601e60248201527f53656e646572206e6f7420456c656374696f6e2043616e64696461746521000060448201526064016106ff565b60008481526004602052604090206001015484908490849060ff16610bb25760405162461bcd60e51b8152602060048201526014602482015273456c656374696f6e204e6f74204163746976652160601b60448201526064016106ff565b600083815260046020908152604080832033845260080190915290205460ff1615610c175760405162461bcd60e51b815260206004820152601560248201527453656e64657220616c726561647920766f7465642160581b60448201526064016106ff565b8151815114610c685760405162461bcd60e51b815260206004820181905260248201527f53636f7265732043616e64696461746520436f756e74204d69736d617463682160448201526064016106ff565b6000878152600460205260408120905b8751811015610d3457816009016000898381518110610ca757634e487b7160e01b600052603260045260246000fd5b60200260200101516001600160a01b03166001600160a01b03168152602001908152602001600020878281518110610cef57634e487b7160e01b600052603260045260246000fd5b60209081029190910181015182546001810184556000938452928290208151610d219491909101929190910190611cd6565b5080610d2c8161261e565b915050610c78565b5033600081815260088301602052604090819020805460ff19166001179055517faaf8175507b94c84621088891ecf31ca1c2548c0aeab2f2f21d3459515f9c4ed91610d85918b908b908b90612386565b60405180910390a15050505050505050565b6000805b600083815260046020526040902060030154811015610e44576000838152600460205260408120600301805483908110610de557634e487b7160e01b600052603260045260246000fd5b60009182526020808320909101548683526004825260408084206001600160a01b03909216808552600890920190925291205490915060ff1615610e315782610e2d8161261e565b9350505b5080610e3c8161261e565b915050610d9b565b50919050565b600460205260009081526040902080548190610e65906125e9565b80601f0160208091040260200160405190810160405280929190818152602001828054610e91906125e9565b8015610ede5780601f10610eb357610100808354040283529160200191610ede565b820191906000526020600020905b815481529060010190602001808311610ec157829003601f168201915b505050600184015460028501546004860154600587018054969760ff808616986101009096041696509294509092610f15906125e9565b80601f0160208091040260200160405190810160405280929190818152602001828054610f41906125e9565b8015610f8e5780601f10610f6357610100808354040283529160200191610f8e565b820191906000526020600020905b815481529060010190602001808311610f7157829003601f168201915b5050505060068301546007909301549192916001600160a01b0316905088565b6001546001600160a01b031633146110085760405162461bcd60e51b815260206004820181905260248201527f4f776e61626c653a2063616c6c6572206973206e6f7420746865206f776e657260448201526064016106ff565b6110126000611a91565b565b6000918252602082815260408084206001600160a01b0393909316845291905290205460ff1690565b806110687f16f50c1fe196fa8f2d59c3eca367f2f7bf83b35c12ed36436b26d5af3695f5c433611014565b6110845760405162461bcd60e51b81526004016106ff906124df565b6000818152600460205260409020600701546001600160a01b031633146110bd5760405162461bcd60e51b81526004016106ff906124df565b6000828152600460205260409020600181015460ff1661111f5760405162461bcd60e51b815260206004820152601760248201527f456c656374696f6e20416c726561647920456e6465642100000000000000000060448201526064016106ff565b60018101805460ff191690556040518381527f562cd572b2ba3b666cd989fc4ca98419ec81e75f04528df9d9d76fdb7807ee719060200160405180910390a1505050565b60608060008060006060600080600080600460008c81526020019081526020016000206000018054611194906125e9565b80601f01602080910402602001604051908101604052809291908181526020018280546111c0906125e9565b801561120d5780601f106111e25761010080835404028352916020019161120d565b820191906000526020600020905b8154815290600101906020018083116111f057829003601f168201915b50505050509950600460008c815260200190815260200160002060030180548060200260200160405190810160405280929190818152602001828054801561127e57602002820191906000526020600020905b81546001600160a01b03168152600190910190602001808311611260575b50505060008e8152600460208190526040909120600381015460028201549282015460059092018054969f50909d50919b509950926112bf925090506125e9565b80601f01602080910402602001604051908101604052809291908181526020018280546112eb906125e9565b80156113385780601f1061130d57610100808354040283529160200191611338565b820191906000526020600020905b81548152906001019060200180831161131b57829003601f168201915b50505060009d8e52505060046020526040909b20600681015460078201546001909201549b9d9a9c999b989a97999890976001600160a01b03909216965060ff8082169650610100909104169350915050565b6000805b6000848152600460205260409020600301548110156114135760008481526004602052604081206003018054839081106113d957634e487b7160e01b600052603260045260246000fd5b6000918252602090912001546001600160a01b039081169150841681141561140057600192505b508061140b8161261e565b91505061138f565b5092915050565b60008281526020819052604090206001015461143681336118ab565b61090f8383611a2c565b6000805b6000858152600460205260409020600301548110156115635760025484516001600160a01b03909116906323b872dd90339087908590811061149657634e487b7160e01b600052603260045260246000fd5b60200260200101518685815181106114be57634e487b7160e01b600052603260045260246000fd5b60209081029190910101516040516001600160e01b031960e086901b1681526001600160a01b0393841660048201529290911660248301526044820152606401602060405180830381600087803b15801561151857600080fd5b505af115801561152c573d6000803e3d6000fd5b505050506040513d601f19601f820116820180604052508101906115509190611edb565b508061155b8161261e565b915050611444565b506001949350505050565b6000805b6000848152600460205260409020600301548110156114135760008481526004602052604090206003018054829081106115bc57634e487b7160e01b600052603260045260246000fd5b6000918252602090912001546001600160a01b03848116911614156115e45760019150611413565b806115ee8161261e565b915050611572565b6001546001600160a01b031633146116505760405162461bcd60e51b815260206004820181905260248201527f4f776e61626c653a2063616c6c6572206973206e6f7420746865206f776e657260448201526064016106ff565b6001600160a01b0381166116b55760405162461bcd60e51b815260206004820152602660248201527f4f776e61626c653a206e6577206f776e657220697320746865207a65726f206160448201526564647265737360d01b60648201526084016106ff565b6116be81611a91565b50565b60008060005b6000868152600460205260409020600301548110156117ef5784818151811061170057634e487b7160e01b600052603260045260246000fd5b60200260200101516001600160a01b031660046000888152602001908152602001600020600301828154811061174657634e487b7160e01b600052603260045260246000fd5b6000918252602090912001546001600160a01b0316146117a85760405162461bcd60e51b815260206004820152601a60248201527f456c656374696f6e2d41646472657373204d69736d617463682100000000000060448201526064016106ff565b8381815181106117c857634e487b7160e01b600052603260045260246000fd5b6020026020010151826117db919061256b565b9150806117e78161261e565b9150506116c7565b5060005b835181101561189f5784818151811061181c57634e487b7160e01b600052603260045260246000fd5b60200260200101516001600160a01b03166108fc85838151811061185057634e487b7160e01b600052603260045260246000fd5b602002602001015160016118649190612583565b6040518115909202916000818181858888f1935050505015801561188c573d6000803e3d6000fd5b50806118978161261e565b9150506117f3565b50600195945050505050565b6118b58282611014565b610a83576118cd816001600160a01b03166014611ae3565b6118d8836020611ae3565b6040516020016118e9929190612311565b60408051601f198184030181529082905262461bcd60e51b82526106ff916004016123dd565b6119198282611014565b610a83576000828152602081815260408083206001600160a01b03851684529091529020805460ff1916600117905561194f3390565b6001600160a01b0316816001600160a01b0316837f2f8788117e7eff1d82e926ec794901d17c78024a50270940304540a733656f0d60405160405180910390a45050565b60005b8151811015610a83576119f07f9096faa56698daa37ec8d3542ff829c66d5e81213bd6faab8ba4e9ce824a5def8383815181106119e357634e487b7160e01b600052603260045260246000fd5b6020026020010151611ccc565b806119fa8161261e565b915050611996565b6116be7f16f50c1fe196fa8f2d59c3eca367f2f7bf83b35c12ed36436b26d5af3695f5c482611ccc565b611a368282611014565b15610a83576000828152602081815260408083206001600160a01b0385168085529252808320805460ff1916905551339285917ff6391f5c32d9c69d2a47ea670b442974b53935d1edc7fd64eb21e047a839171b9190a45050565b600180546001600160a01b038381166001600160a01b0319831681179093556040519116919082907f8be0079c531659141344cd1fd0a4f28419497f9722a3daafe3b4186f6b6457e090600090a35050565b60606000611af2836002612583565b611afd90600261256b565b67ffffffffffffffff811115611b2357634e487b7160e01b600052604160045260246000fd5b6040519080825280601f01601f191660200182016040528015611b4d576020820181803683370190505b509050600360fc1b81600081518110611b7657634e487b7160e01b600052603260045260246000fd5b60200101906001600160f81b031916908160001a905350600f60fb1b81600181518110611bb357634e487b7160e01b600052603260045260246000fd5b60200101906001600160f81b031916908160001a9053506000611bd7846002612583565b611be290600161256b565b90505b6001811115611c76576f181899199a1a9b1b9c1cb0b131b232b360811b85600f1660108110611c2457634e487b7160e01b600052603260045260246000fd5b1a60f81b828281518110611c4857634e487b7160e01b600052603260045260246000fd5b60200101906001600160f81b031916908160001a90535060049490941c93611c6f816125d2565b9050611be5565b508315611cc55760405162461bcd60e51b815260206004820181905260248201527f537472696e67733a20686578206c656e67746820696e73756666696369656e7460448201526064016106ff565b9392505050565b610a83828261190f565b828054611ce2906125e9565b90600052602060002090601f016020900481019282611d045760008555611d4a565b82601f10611d1d57805160ff1916838001178555611d4a565b82800160010185558215611d4a579182015b82811115611d4a578251825591602001919060010190611d2f565b50611d56929150611daf565b5090565b828054828255906000526020600020908101928215611d4a579160200282015b82811115611d4a57825182546001600160a01b0319166001600160a01b03909116178255602090920191600190910190611d7a565b5b80821115611d565760008155600101611db0565b80356001600160a01b0381168114611ddb57600080fd5b919050565b600082601f830112611df0578081fd5b81356020611e05611e0083612547565b612516565b80838252828201915082860187848660051b8901011115611e24578586fd5b855b85811015611e4957611e3782611dc4565b84529284019290840190600101611e26565b5090979650505050505050565b600082601f830112611e66578081fd5b813567ffffffffffffffff811115611e8057611e8061264f565b611e93601f8201601f1916602001612516565b818152846020838601011115611ea7578283fd5b816020850160208301379081016020019190915292915050565b600060208284031215611ed2578081fd5b611cc582611dc4565b600060208284031215611eec578081fd5b81518015158114611cc5578182fd5b600060208284031215611f0c578081fd5b5035919050565b60008060408385031215611f25578081fd5b82359150611f3560208401611dc4565b90509250929050565b600060208284031215611f4f578081fd5b81356001600160e01b031981168114611cc5578182fd5b600080600080600060a08688031215611f7d578081fd5b853567ffffffffffffffff80821115611f94578283fd5b611fa089838a01611e56565b9650602088013595506040880135915080821115611fbc578283fd5b611fc889838a01611e56565b9450606088013593506080880135915080821115611fe4578283fd5b50611ff188828901611de0565b9150509295509295909350565b60008060408385031215611f25578182fd5b600080600060608486031215612024578283fd5b8335925060208085013567ffffffffffffffff80821115612043578485fd5b61204f88838901611de0565b94506040870135915080821115612064578384fd5b818701915087601f830112612077578384fd5b8135612085611e0082612547565b8082825285820191508585018b878560051b88010111156120a4578788fd5b875b848110156120dd578135868111156120bc57898afd5b6120ca8e8a838b0101611e56565b85525092870192908701906001016120a6565b50508096505050505050509250925092565b600080600060608486031215612103578081fd5b8335925060208085013567ffffffffffffffff80821115612122578384fd5b61212e88838901611de0565b94506040870135915080821115612143578384fd5b508501601f81018713612154578283fd5b8035612162611e0082612547565b8082825284820191508484018a868560051b8701011115612181578687fd5b8694505b838510156121a3578035835260019490940193918501918501612185565b5080955050505050509250925092565b6000815180845260208085019450808401835b838110156121eb5781516001600160a01b0316875295820195908201906001016121c6565b509495945050505050565b600081518084526020808501808196508360051b81019150828601855b8581101561223d57828403895261222b84835161224a565b98850198935090840190600101612213565b5091979650505050505050565b600081518084526122628160208601602086016125a2565b601f01601f19169290920160200192915050565b600080835482600182811c91508083168061229257607f831692505b60208084108214156122b257634e487b7160e01b87526022600452602487fd5b8180156122c657600181146122d757612303565b60ff19861689528489019650612303565b60008a815260209020885b868110156122fb5781548b8201529085019083016122e2565b505084890196505b509498975050505050505050565b7f416363657373436f6e74726f6c3a206163636f756e74200000000000000000008152600083516123498160178501602088016125a2565b7001034b99036b4b9b9b4b733903937b6329607d1b601791840191820152835161237a8160288401602088016125a2565b01602801949350505050565b60018060a01b03851681528360208201526080604082015260006123ad60808301856121b3565b82810360608401526123bf81856121f6565b979650505050505050565b602081526000611cc560208301846121f6565b602081526000611cc5602083018461224a565b60006101408083526124048184018e61224a565b90508281036020840152612418818d6121b3565b90508a604084015289606084015288608084015282810360a084015261243e818961224a565b60c084019790975250506001600160a01b039390931660e08401529015156101008301521515610120909101529695505050505050565b60006101008083526124898184018c61224a565b90508915156020840152881515604084015287606084015286608084015282810360a08401526124b9818761224a565b60c084019590955250506001600160a01b039190911660e0909101529695505050505050565b6020808252601a908201527f53656e646572206e6f7420456c656374696f6e2041646d696e21000000000000604082015260600190565b604051601f8201601f1916810167ffffffffffffffff8111828210171561253f5761253f61264f565b604052919050565b600067ffffffffffffffff8211156125615761256161264f565b5060051b60200190565b6000821982111561257e5761257e612639565b500190565b600081600019048311821515161561259d5761259d612639565b500290565b60005b838110156125bd5781810151838201526020016125a5565b838111156125cc576000848401525b50505050565b6000816125e1576125e1612639565b506000190190565b600181811c908216806125fd57607f821691505b60208210811415610e4457634e487b7160e01b600052602260045260246000fd5b600060001982141561263257612632612639565b5060010190565b634e487b7160e01b600052601160045260246000fd5b634e487b7160e01b600052604160045260246000fdfea2646970667358221220331bced83f5f657cd01dc78ff42cbd669a5995738b76a4e705c39b2772fff2ce64736f6c63430008040033",
  "linkReferences": {},
  "deployedLinkReferences": {}
}