{
  "_format": "hh-sol-artifact-1",
  "contractName": "Diplomacy",
  "sourceName": "contracts/Diplomacy.sol",
  "abi": [
    {
      "inputs": [],
      "stateMutability": "nonpayable",
      "type": "constructor"
    },
    {
      "anonymous": false,
      "inputs": [
        {
          "indexed": false,
          "internalType": "address",
          "name": "voter",
          "type": "address"
        },
        {
          "indexed": false,
          "internalType": "uint256",
          "name": "electionId",
          "type": "uint256"
        },
        {
          "indexed": false,
          "internalType": "address[]",
          "name": "adrs",
          "type": "address[]"
        },
        {
          "indexed": false,
          "internalType": "string[]",
          "name": "scores",
          "type": "string[]"
        }
      ],
      "name": "BallotCast",
      "type": "event"
    },
    {
      "anonymous": false,
      "inputs": [
        {
          "indexed": false,
          "internalType": "address",
          "name": "creator",
          "type": "address"
        },
        {
          "indexed": false,
          "internalType": "uint256",
          "name": "electionId",
          "type": "uint256"
        }
      ],
      "name": "ElectionCreated",
      "type": "event"
    },
    {
      "anonymous": false,
      "inputs": [
        {
          "indexed": false,
          "internalType": "uint256",
          "name": "electionId",
          "type": "uint256"
        }
      ],
      "name": "ElectionEnded",
      "type": "event"
    },
    {
      "anonymous": false,
      "inputs": [
        {
          "indexed": false,
          "internalType": "uint256",
          "name": "electionId",
          "type": "uint256"
        }
      ],
      "name": "ElectionPaid",
      "type": "event"
    },
    {
      "anonymous": false,
      "inputs": [
        {
          "indexed": false,
          "internalType": "address",
          "name": "userAddress",
          "type": "address"
        },
        {
          "indexed": false,
          "internalType": "address payable",
          "name": "relayerAddress",
          "type": "address"
        },
        {
          "indexed": false,
          "internalType": "bytes",
          "name": "functionSignature",
          "type": "bytes"
        }
      ],
      "name": "MetaTransactionExecuted",
      "type": "event"
    },
    {
      "anonymous": false,
      "inputs": [
        {
          "indexed": true,
          "internalType": "address",
          "name": "previousOwner",
          "type": "address"
        },
        {
          "indexed": true,
          "internalType": "address",
          "name": "newOwner",
          "type": "address"
        }
      ],
      "name": "OwnershipTransferred",
      "type": "event"
    },
    {
      "anonymous": false,
      "inputs": [
        {
          "indexed": true,
          "internalType": "bytes32",
          "name": "role",
          "type": "bytes32"
        },
        {
          "indexed": true,
          "internalType": "bytes32",
          "name": "previousAdminRole",
          "type": "bytes32"
        },
        {
          "indexed": true,
          "internalType": "bytes32",
          "name": "newAdminRole",
          "type": "bytes32"
        }
      ],
      "name": "RoleAdminChanged",
      "type": "event"
    },
    {
      "anonymous": false,
      "inputs": [
        {
          "indexed": true,
          "internalType": "bytes32",
          "name": "role",
          "type": "bytes32"
        },
        {
          "indexed": true,
          "internalType": "address",
          "name": "account",
          "type": "address"
        },
        {
          "indexed": true,
          "internalType": "address",
          "name": "sender",
          "type": "address"
        }
      ],
      "name": "RoleGranted",
      "type": "event"
    },
    {
      "anonymous": false,
      "inputs": [
        {
          "indexed": true,
          "internalType": "bytes32",
          "name": "role",
          "type": "bytes32"
        },
        {
          "indexed": true,
          "internalType": "address",
          "name": "account",
          "type": "address"
        },
        {
          "indexed": true,
          "internalType": "address",
          "name": "sender",
          "type": "address"
        }
      ],
      "name": "RoleRevoked",
      "type": "event"
    },
    {
      "stateMutability": "payable",
      "type": "fallback"
    },
    {
      "inputs": [],
      "name": "DEFAULT_ADMIN_ROLE",
      "outputs": [
        {
          "internalType": "bytes32",
          "name": "",
          "type": "bytes32"
        }
      ],
      "stateMutability": "view",
      "type": "function"
    },
    {
      "inputs": [
        {
          "internalType": "uint256",
          "name": "electionId",
          "type": "uint256"
        }
      ],
      "name": "approveToken",
      "outputs": [],
      "stateMutability": "nonpayable",
      "type": "function"
    },
    {
      "inputs": [
        {
          "internalType": "uint256",
          "name": "electionId",
          "type": "uint256"
        },
        {
          "internalType": "address",
          "name": "_sender",
          "type": "address"
        }
      ],
      "name": "canVote",
      "outputs": [
        {
          "internalType": "bool",
          "name": "status",
          "type": "bool"
        }
      ],
      "stateMutability": "view",
      "type": "function"
    },
    {
      "inputs": [
        {
          "internalType": "uint256",
          "name": "electionId",
          "type": "uint256"
        },
        {
          "internalType": "address[]",
          "name": "_adrs",
          "type": "address[]"
        },
        {
          "internalType": "string[]",
          "name": "_scores",
          "type": "string[]"
        }
      ],
      "name": "castBallot",
      "outputs": [],
      "stateMutability": "nonpayable",
      "type": "function"
    },
    {
      "inputs": [
        {
          "internalType": "uint256",
          "name": "",
          "type": "uint256"
        }
      ],
      "name": "elections",
      "outputs": [
        {
          "internalType": "string",
          "name": "name",
          "type": "string"
        },
        {
          "internalType": "bool",
          "name": "active",
          "type": "bool"
        },
        {
          "internalType": "bool",
          "name": "paid",
          "type": "bool"
        },
        {
          "internalType": "uint256",
          "name": "createdAt",
          "type": "uint256"
        },
        {
          "internalType": "uint256",
          "name": "funds",
          "type": "uint256"
        },
        {
          "internalType": "address",
          "name": "token",
          "type": "address"
        },
        {
          "internalType": "uint256",
          "name": "votes",
          "type": "uint256"
        },
        {
          "internalType": "address",
          "name": "admin",
          "type": "address"
        }
      ],
      "stateMutability": "view",
      "type": "function"
    },
    {
      "inputs": [
        {
          "internalType": "uint256",
          "name": "electionId",
          "type": "uint256"
        }
      ],
      "name": "endElection",
      "outputs": [],
      "stateMutability": "nonpayable",
      "type": "function"
    },
    {
      "inputs": [
        {
          "internalType": "address",
          "name": "userAddress",
          "type": "address"
        },
        {
          "internalType": "bytes",
          "name": "functionSignature",
          "type": "bytes"
        },
        {
          "internalType": "bytes32",
          "name": "sigR",
          "type": "bytes32"
        },
        {
          "internalType": "bytes32",
          "name": "sigS",
          "type": "bytes32"
        },
        {
          "internalType": "uint8",
          "name": "sigV",
          "type": "uint8"
        }
      ],
      "name": "executeMetaTransaction",
      "outputs": [
        {
          "internalType": "bytes",
          "name": "",
          "type": "bytes"
        }
      ],
      "stateMutability": "payable",
      "type": "function"
    },
    {
      "inputs": [
        {
          "internalType": "uint256",
          "name": "electionId",
          "type": "uint256"
        }
      ],
      "name": "getElectionById",
      "outputs": [
        {
          "internalType": "string",
          "name": "name",
          "type": "string"
        },
        {
          "internalType": "address[]",
          "name": "candidates",
          "type": "address[]"
        },
        {
          "internalType": "uint256",
          "name": "n_addr",
          "type": "uint256"
        },
        {
          "internalType": "uint256",
          "name": "createdAt",
          "type": "uint256"
        },
        {
          "internalType": "uint256",
          "name": "funds",
          "type": "uint256"
        },
        {
          "internalType": "address",
          "name": "token",
          "type": "address"
        },
        {
          "internalType": "uint256",
          "name": "votes",
          "type": "uint256"
        },
        {
          "internalType": "address",
          "name": "admin",
          "type": "address"
        },
        {
          "internalType": "bool",
          "name": "isActive",
          "type": "bool"
        },
        {
          "internalType": "bool",
          "name": "paid",
          "type": "bool"
        }
      ],
      "stateMutability": "view",
      "type": "function"
    },
    {
      "inputs": [
        {
          "internalType": "uint256",
          "name": "electionId",
          "type": "uint256"
        },
        {
          "internalType": "address",
          "name": "_adr",
          "type": "address"
        }
      ],
      "name": "getElectionScores",
      "outputs": [
        {
          "internalType": "string[]",
          "name": "",
          "type": "string[]"
        }
      ],
      "stateMutability": "view",
      "type": "function"
    },
    {
      "inputs": [
        {
          "internalType": "uint256",
          "name": "electionId",
          "type": "uint256"
        }
      ],
      "name": "getElectionVoted",
      "outputs": [
        {
          "internalType": "uint256",
          "name": "count",
          "type": "uint256"
        }
      ],
      "stateMutability": "view",
      "type": "function"
    },
    {
      "inputs": [
        {
          "internalType": "address",
          "name": "user",
          "type": "address"
        }
      ],
      "name": "getNonce",
      "outputs": [
        {
          "internalType": "uint256",
          "name": "nonce",
          "type": "uint256"
        }
      ],
      "stateMutability": "view",
      "type": "function"
    },
    {
      "inputs": [
        {
          "internalType": "bytes32",
          "name": "role",
          "type": "bytes32"
        }
      ],
      "name": "getRoleAdmin",
      "outputs": [
        {
          "internalType": "bytes32",
          "name": "",
          "type": "bytes32"
        }
      ],
      "stateMutability": "view",
      "type": "function"
    },
    {
      "inputs": [
        {
          "internalType": "bytes32",
          "name": "role",
          "type": "bytes32"
        },
        {
          "internalType": "address",
          "name": "account",
          "type": "address"
        }
      ],
      "name": "grantRole",
      "outputs": [],
      "stateMutability": "nonpayable",
      "type": "function"
    },
    {
      "inputs": [
        {
          "internalType": "bytes32",
          "name": "role",
          "type": "bytes32"
        },
        {
          "internalType": "address",
          "name": "account",
          "type": "address"
        }
      ],
      "name": "hasRole",
      "outputs": [
        {
          "internalType": "bool",
          "name": "",
          "type": "bool"
        }
      ],
      "stateMutability": "view",
      "type": "function"
    },
    {
      "inputs": [
        {
          "internalType": "uint256",
          "name": "electionId",
          "type": "uint256"
        },
        {
          "internalType": "address",
          "name": "_sender",
          "type": "address"
        }
      ],
      "name": "hasVoted",
      "outputs": [
        {
          "internalType": "bool",
          "name": "",
          "type": "bool"
        }
      ],
      "stateMutability": "view",
      "type": "function"
    },
    {
      "inputs": [
        {
          "internalType": "uint256",
          "name": "electionId",
          "type": "uint256"
        },
        {
          "internalType": "address",
          "name": "_sender",
          "type": "address"
        }
      ],
      "name": "isElectionAdmin",
      "outputs": [
        {
          "internalType": "bool",
          "name": "",
          "type": "bool"
        }
      ],
      "stateMutability": "view",
      "type": "function"
    },
    {
      "inputs": [
        {
          "internalType": "uint256",
          "name": "electionId",
          "type": "uint256"
        },
        {
          "internalType": "address",
          "name": "_sender",
          "type": "address"
        }
      ],
      "name": "isElectionCandidate",
      "outputs": [
        {
          "internalType": "bool",
          "name": "status",
          "type": "bool"
        }
      ],
      "stateMutability": "view",
      "type": "function"
    },
    {
      "inputs": [
        {
          "internalType": "string",
          "name": "_name",
          "type": "string"
        },
        {
          "internalType": "uint256",
          "name": "_funds",
          "type": "uint256"
        },
        {
          "internalType": "address",
          "name": "_token",
          "type": "address"
        },
        {
          "internalType": "uint256",
          "name": "_votes",
          "type": "uint256"
        },
        {
          "internalType": "address[]",
          "name": "_adrs",
          "type": "address[]"
        }
      ],
      "name": "newElection",
      "outputs": [
        {
          "internalType": "uint256",
          "name": "electionId",
          "type": "uint256"
        }
      ],
      "stateMutability": "nonpayable",
      "type": "function"
    },
    {
      "inputs": [],
      "name": "numElections",
      "outputs": [
        {
          "internalType": "uint256",
          "name": "",
          "type": "uint256"
        }
      ],
      "stateMutability": "view",
      "type": "function"
    },
    {
      "inputs": [],
      "name": "owner",
      "outputs": [
        {
          "internalType": "address",
          "name": "",
          "type": "address"
        }
      ],
      "stateMutability": "view",
      "type": "function"
    },
    {
      "inputs": [
        {
          "internalType": "uint256",
          "name": "electionId",
          "type": "uint256"
        },
        {
          "internalType": "address[]",
          "name": "_adrs",
          "type": "address[]"
        },
        {
          "internalType": "uint256[]",
          "name": "_pay",
          "type": "uint256[]"
        }
      ],
      "name": "payoutElection",
      "outputs": [],
      "stateMutability": "payable",
      "type": "function"
    },
    {
      "inputs": [],
      "name": "renounceOwnership",
      "outputs": [],
      "stateMutability": "nonpayable",
      "type": "function"
    },
    {
      "inputs": [
        {
          "internalType": "bytes32",
          "name": "role",
          "type": "bytes32"
        },
        {
          "internalType": "address",
          "name": "account",
          "type": "address"
        }
      ],
      "name": "renounceRole",
      "outputs": [],
      "stateMutability": "nonpayable",
      "type": "function"
    },
    {
      "inputs": [
        {
          "internalType": "bytes32",
          "name": "role",
          "type": "bytes32"
        },
        {
          "internalType": "address",
          "name": "account",
          "type": "address"
        }
      ],
      "name": "revokeRole",
      "outputs": [],
      "stateMutability": "nonpayable",
      "type": "function"
    },
    {
      "inputs": [
        {
          "internalType": "uint256",
          "name": "",
          "type": "uint256"
        },
        {
          "internalType": "address",
          "name": "",
          "type": "address"
        },
        {
          "internalType": "uint256",
          "name": "",
          "type": "uint256"
        }
      ],
      "name": "scores",
      "outputs": [
        {
          "internalType": "string",
          "name": "",
          "type": "string"
        }
      ],
      "stateMutability": "view",
      "type": "function"
    },
    {
      "inputs": [
        {
          "internalType": "bytes4",
          "name": "interfaceId",
          "type": "bytes4"
        }
      ],
      "name": "supportsInterface",
      "outputs": [
        {
          "internalType": "bool",
          "name": "",
          "type": "bool"
        }
      ],
      "stateMutability": "view",
      "type": "function"
    },
    {
      "inputs": [
        {
          "internalType": "address",
          "name": "newOwner",
          "type": "address"
        }
      ],
      "name": "transferOwnership",
      "outputs": [],
      "stateMutability": "nonpayable",
      "type": "function"
    },
    {
      "inputs": [
        {
          "internalType": "uint256",
          "name": "",
          "type": "uint256"
        },
        {
          "internalType": "address",
          "name": "",
          "type": "address"
        }
      ],
      "name": "voted",
      "outputs": [
        {
          "internalType": "bool",
          "name": "",
          "type": "bool"
        }
      ],
      "stateMutability": "view",
      "type": "function"
    },
    {
      "stateMutability": "payable",
      "type": "receive"
    }
  ],
  "bytecode": "0x60806040523480156200001157600080fd5b50604051806040016040528060098152602001684469706c6f6d61637960b81b815250604051806040016040528060018152602001603160f81b81525081816200006a620000646200011560201b60201c565b62000119565b60016002556040805160808101909152604f808252620032506020830139805190602001208280519060200120828051906020012030620000b06200016b60201b60201c565b60408051602081019690965285019390935260608401919091526001600160a01b0316608083015260a082015260c00160408051601f198184030181529190528051602090910120600355506200010f9250600091503390506200016f565b6200021f565b3390565b600180546001600160a01b038381166001600160a01b0319831681179093556040519116919082907f8be0079c531659141344cd1fd0a4f28419497f9722a3daafe3b4186f6b6457e090600090a35050565b4690565b6200017b82826200017f565b5050565b6000828152602081815260408083206001600160a01b038516845290915290205460ff166200017b576000828152602081815260408083206001600160a01b03851684529091529020805460ff19166001179055620001db3390565b6001600160a01b0316816001600160a01b0316837f2f8788117e7eff1d82e926ec794901d17c78024a50270940304540a733656f0d60405160405180910390a45050565b613021806200022f6000396000f3fe6080604052600436106101a35760003560e01c80635e6fef01116100e0578063a217fddf11610084578063cdb2867b11610061578063cdb2867b14610569578063d547741f14610589578063ea3c6cde146105a9578063f2fde38b146105c957005b8063a217fddf146104fe578063b082c38514610513578063c6958b121461053357005b80638da5cb5b116100bd5780638da5cb5b1461045557806391b84f161461047d57806391d14854146104be5780639c98bcbb146104de57005b80635e6fef01146103f65780636e38d9bd1461042a578063715018a61461044057005b806336568abe116101475780634548e52b116101245780634548e52b1461035b5780634b8b477e1461037b5780635277b4ae1461039b57806352e968ad146103d657005b806336568abe146102d55780633ac9fc11146102f5578063438596321461031557005b80630ece86d0116101805780630ece86d01461022e578063248a9ca3146102415780632d0335ab1461027f5780632f2ff15d146102b557005b806301ffc9a7146101ac57806308108288146101e15780630c53c51c1461020e57005b366101aa57005b005b3480156101b857600080fd5b506101cc6101c7366004612890565b6105e9565b60405190151581526020015b60405180910390f35b3480156101ed57600080fd5b506102016101fc366004612865565b610620565b6040516101d89190612d0d565b61022161021c3660046127a1565b610717565b6040516101d89190612d20565b6101aa61023c366004612a50565b610993565b34801561024d57600080fd5b5061027161025c36600461284d565b60009081526020819052604090206001015490565b6040519081526020016101d8565b34801561028b57600080fd5b5061027161029a366004612787565b6001600160a01b031660009081526004602052604090205490565b3480156102c157600080fd5b506101aa6102d0366004612865565b610b54565b3480156102e157600080fd5b506101aa6102f0366004612865565b610b7f565b34801561030157600080fd5b506101aa61031036600461284d565b610bfd565b34801561032157600080fd5b506101cc610330366004612865565b60009182526005602090815260408084206001600160a01b0393909316845291905290205460ff1690565b34801561036757600080fd5b506101aa610376366004612971565b610c9b565b34801561038757600080fd5b506102716103963660046128b8565b610fb2565b3480156103a757600080fd5b506101cc6103b6366004612865565b600560209081526000928352604080842090915290825290205460ff1681565b3480156103e257600080fd5b506102716103f136600461284d565b611039565b34801561040257600080fd5b5061041661041136600461284d565b6110e8565b6040516101d8989796959493929190612dac565b34801561043657600080fd5b5061027160085481565b34801561044c57600080fd5b506101aa6111c5565b34801561046157600080fd5b506001546040516001600160a01b0390911681526020016101d8565b34801561048957600080fd5b506101cc610498366004612865565b6000918252600760208190526040909220909101546001600160a01b0390811691161490565b3480156104ca57600080fd5b506101cc6104d9366004612865565b61122b565b3480156104ea57600080fd5b506101aa6104f936600461284d565b611254565b34801561050a57600080fd5b50610271600081565b34801561051f57600080fd5b5061022161052e36600461293d565b611369565b34801561053f57600080fd5b5061055361054e36600461284d565b61142f565b6040516101d89a99989796959493929190612d33565b34801561057557600080fd5b506101cc610584366004612865565b611668565b34801561059557600080fd5b506101aa6105a4366004612865565b6116f7565b3480156105b557600080fd5b506101cc6105c4366004612865565b61171d565b3480156105d557600080fd5b506101aa6105e4366004612787565b6117a5565b60006001600160e01b03198216637965db0b60e01b148061061a57506301ffc9a760e01b6001600160e01b03198316145b92915050565b60008281526006602090815260408083206001600160a01b03851684528252808320805482518185028101850190935280835260609492939192909184015b8282101561070b57838290600052602060002001805461067e90612f0c565b80601f01602080910402602001604051908101604052809291908181526020018280546106aa90612f0c565b80156106f75780601f106106cc576101008083540402835291602001916106f7565b820191906000526020600020905b8154815290600101906020018083116106da57829003601f168201915b50505050508152602001906001019061065f565b50505050905092915050565b6060600061072486611870565b90506000356001600160e01b031990811690821614156107b15760405162461bcd60e51b815260206004820152603d60248201527f66756e6374696f6e5369676e61747572652063616e206e6f74206265206f662060448201527f657865637574654d6574615472616e73616374696f6e206d6574686f6400000060648201526084015b60405180910390fd5b604080516060810182526001600160a01b038916600081815260046020908152908490205483528201529081018790526107ee888288888861188c565b6108445760405162461bcd60e51b815260206004820152602160248201527f5369676e657220616e64207369676e617475726520646f206e6f74206d6174636044820152600d60fb1b60648201526084016107a8565b6001600160a01b038816600090815260046020526040902054610868906001611968565b6001600160a01b038916600090815260046020908152604080832093909355915190918291309161089d918c918e9101612bf3565b60408051601f19818403018152908290526108b791612bd7565b6000604051808303816000865af19150503d80600081146108f4576040519150601f19603f3d011682016040523d82523d6000602084013e6108f9565b606091505b50915091508161094b5760405162461bcd60e51b815260206004820152601c60248201527f46756e6374696f6e2063616c6c206e6f74207375636365737366756c0000000060448201526064016107a8565b7f5845892132946850460bff5a0083f71031bc5bf9aadcd40f1de79423eac9b10b8a338b60405161097e93929190612c9f565b60405180910390a19998505050505050505050565b826109ac600080516020612fcc8339815191523361122b565b6109c85760405162461bcd60e51b81526004016107a890612e06565b600081815260076020819052604090912001546001600160a01b03163314610a025760405162461bcd60e51b81526004016107a890612e06565b600280541415610a545760405162461bcd60e51b815260206004820152601f60248201527f5265656e7472616e637947756172643a207265656e7472616e742063616c6c0060448201526064016107a8565b6002805560008481526007602052604090206001015460ff1615610ab35760405162461bcd60e51b8152602060048201526016602482015275456c656374696f6e205374696c6c204163746976652160501b60448201526064016107a8565b6000848152600760205260408120600501546001600160a01b0316610ae457610add85858561197b565b9050610af2565b610aef858585611c31565b90505b600085815260076020908152604091829020600101805461ff0019166101008515150217905590518681527fb27761a3b9064636a27795816e4f8a8e5cadd6ac8b1e3a553bd47bf414c2b402910160405180910390a150506001600255505050565b600082815260208190526040902060010154610b708133611ce7565b610b7a8383611d4b565b505050565b6001600160a01b0381163314610bef5760405162461bcd60e51b815260206004820152602f60248201527f416363657373436f6e74726f6c3a2063616e206f6e6c792072656e6f756e636560448201526e103937b632b9903337b91039b2b63360891b60648201526084016107a8565b610bf98282611dcf565b5050565b600081815260076020526040908190206005810154600491820154925163095ea7b360e01b8152309281019290925260248201929092526001600160a01b039091169063095ea7b390604401602060405180830381600087803b158015610c6357600080fd5b505af1158015610c77573d6000803e3d6000fd5b505050506040513d601f19601f82011682018060405250810190610bf9919061282d565b82610cc67f9096faa56698daa37ec8d3542ff829c66d5e81213bd6faab8ba4e9ce824a5def3361122b565b610d125760405162461bcd60e51b815260206004820152601e60248201527f53656e646572206e6f7420456c656374696f6e2043616e64696461746521000060448201526064016107a8565b610d1c813361171d565b610d685760405162461bcd60e51b815260206004820152601e60248201527f53656e646572206e6f7420456c656374696f6e2043616e64696461746521000060448201526064016107a8565b60008481526007602052604090206001015484908490849060ff16610dc65760405162461bcd60e51b8152602060048201526014602482015273456c656374696f6e204e6f74204163746976652160601b60448201526064016107a8565b600083815260056020908152604080832033845290915290205460ff1615610e285760405162461bcd60e51b815260206004820152601560248201527453656e64657220616c726561647920766f7465642160581b60448201526064016107a8565b8151815114610e795760405162461bcd60e51b815260206004820152601a60248201527f53636f726573202d2041646472657373204d69736d617463682100000000000060448201526064016107a8565b60005b8651811015610f4757600660008981526020019081526020016000206000888381518110610eba57634e487b7160e01b600052603260045260246000fd5b60200260200101516001600160a01b03166001600160a01b03168152602001908152602001600020868281518110610f0257634e487b7160e01b600052603260045260246000fd5b60209081029190910181015182546001810184556000938452928290208151610f349491909101929190910190612590565b5080610f3f81612f41565b915050610e7c565b50600087815260056020908152604080832033808552925291829020805460ff1916600117905590517faaf8175507b94c84621088891ecf31ca1c2548c0aeab2f2f21d3459515f9c4ed91610fa1918a908a908a90612cd4565b60405180910390a150505050505050565b60006001600160a01b038416610fd557610fce86868585611e34565b9050610fe5565b610fe28686868686611ec5565b90505b610fee82611f74565b610ff733611fe3565b60408051338152602081018390527fc91fe4766a7a928d6625f66818425dc115b03c854a8ed8d28de2f34a684e0f1a910160405180910390a195945050505050565b6000805b6000838152600760205260409020600301548110156110e257600083815260076020526040812060030180548390811061108757634e487b7160e01b600052603260045260246000fd5b60009182526020808320909101548683526005825260408084206001600160a01b039092168085529190925291205490915060ff16156110cf57826110cb81612f41565b9350505b50806110da81612f41565b91505061103d565b50919050565b60076020526000908152604090208054819061110390612f0c565b80601f016020809104026020016040519081016040528092919081815260200182805461112f90612f0c565b801561117c5780601f106111515761010080835404028352916020019161117c565b820191906000526020600020905b81548152906001019060200180831161115f57829003601f168201915b50505060018401546002850154600486015460058701546006880154600790980154969760ff8086169861010090960416965092945090926001600160a01b0391821692911688565b6001546001600160a01b0316331461121f5760405162461bcd60e51b815260206004820181905260248201527f4f776e61626c653a2063616c6c6572206973206e6f7420746865206f776e657260448201526064016107a8565b6112296000611ffb565b565b6000918252602082815260408084206001600160a01b0393909316845291905290205460ff1690565b8061126d600080516020612fcc8339815191523361122b565b6112895760405162461bcd60e51b81526004016107a890612e06565b600081815260076020819052604090912001546001600160a01b031633146112c35760405162461bcd60e51b81526004016107a890612e06565b6000828152600760205260409020600181015460ff166113255760405162461bcd60e51b815260206004820152601760248201527f456c656374696f6e20416c726561647920456e6465642100000000000000000060448201526064016107a8565b60018101805460ff191690556040518381527f562cd572b2ba3b666cd989fc4ca98419ec81e75f04528df9d9d76fdb7807ee719060200160405180910390a1505050565b6006602052826000526040600020602052816000526040600020818154811061139157600080fd5b90600052602060002001600092509250505080546113ae90612f0c565b80601f01602080910402602001604051908101604052809291908181526020018280546113da90612f0c565b80156114275780601f106113fc57610100808354040283529160200191611427565b820191906000526020600020905b81548152906001019060200180831161140a57829003601f168201915b505050505081565b606080600080600080600080600080600760008c8152602001908152602001600020600001805461145f90612f0c565b80601f016020809104026020016040519081016040528092919081815260200182805461148b90612f0c565b80156114d85780601f106114ad576101008083540402835291602001916114d8565b820191906000526020600020905b8154815290600101906020018083116114bb57829003601f168201915b50505050509950600760008c815260200190815260200160002060030180548060200260200160405190810160405280929190818152602001828054801561154957602002820191906000526020600020905b81546001600160a01b0316815260019091019060200180831161152b575b50505050509850600760008c8152602001908152602001600020600301805490509750600760008c8152602001908152602001600020600201549650600760008c8152602001908152602001600020600401549550600760008c815260200190815260200160002060050160009054906101000a90046001600160a01b03169450600760008c8152602001908152602001600020600601549350600760008c815260200190815260200160002060070160009054906101000a90046001600160a01b03169250600760008c815260200190815260200160002060010160009054906101000a900460ff169150600760008c815260200190815260200160002060010160019054906101000a900460ff1690509193959799509193959799565b6000805b6000848152600760205260409020600301548110156116f05760008481526007602052604081206003018054839081106116b657634e487b7160e01b600052603260045260246000fd5b6000918252602090912001546001600160a01b03908116915084168114156116dd57600192505b50806116e881612f41565b91505061166c565b5092915050565b6000828152602081905260409020600101546117138133611ce7565b610b7a8383611dcf565b6000805b6000848152600760205260409020600301548110156116f057600084815260076020526040902060030180548290811061176b57634e487b7160e01b600052603260045260246000fd5b6000918252602090912001546001600160a01b038481169116141561179357600191506116f0565b8061179d81612f41565b915050611721565b6001546001600160a01b031633146117ff5760405162461bcd60e51b815260206004820181905260248201527f4f776e61626c653a2063616c6c6572206973206e6f7420746865206f776e657260448201526064016107a8565b6001600160a01b0381166118645760405162461bcd60e51b815260206004820152602660248201527f4f776e61626c653a206e6577206f776e657220697320746865207a65726f206160448201526564647265737360d01b60648201526084016107a8565b61186d81611ffb565b50565b600081516000141561188457506000919050565b506020015190565b60008060016118a261189d8861204d565b6120ca565b6040805160008152602081018083529290925260ff861690820152606081018790526080810186905260a0016020604051602081039080840390855afa1580156118f0573d6000803e3d6000fd5b5050604051601f1901519150506001600160a01b0381166119475760405162461bcd60e51b8152602060048201526011602482015270496e76616c6964207369676e617475726560781b60448201526064016107a8565b866001600160a01b0316816001600160a01b03161491505095945050505050565b60006119748284612e92565b9392505050565b600083611996600080516020612fcc8339815191523361122b565b6119b25760405162461bcd60e51b81526004016107a890612e06565b600081815260076020819052604090912001546001600160a01b031633146119ec5760405162461bcd60e51b81526004016107a890612e06565b6000805b600087815260076020526040902060030154811015611b1857858181518110611a2957634e487b7160e01b600052603260045260246000fd5b60200260200101516001600160a01b0316600760008981526020019081526020016000206003018281548110611a6f57634e487b7160e01b600052603260045260246000fd5b6000918252602090912001546001600160a01b031614611ad15760405162461bcd60e51b815260206004820152601a60248201527f456c656374696f6e2d41646472657373204d69736d617463682100000000000060448201526064016107a8565b848181518110611af157634e487b7160e01b600052603260045260246000fd5b602002602001015182611b049190612e92565b915080611b1081612f41565b9150506119f0565b5060005b8451811015611c2457600080878381518110611b4857634e487b7160e01b600052603260045260246000fd5b60200260200101516001600160a01b0316878481518110611b7957634e487b7160e01b600052603260045260246000fd5b602002602001015160405160006040518083038185875af1925050503d8060008114611bc1576040519150601f19603f3d011682016040523d82523d6000602084013e611bc6565b606091505b509150915081611c0f5760405162461bcd60e51b81526020600482015260146024820152732330b4b632b2103a379039b2b7321022ba3432b960611b60448201526064016107a8565b50508080611c1c90612f41565b915050611b1c565b5060019695505050505050565b6000805b600085815260076020526040902060030154811015611cdc57611cca33858381518110611c7257634e487b7160e01b600052603260045260246000fd5b6020026020010151858481518110611c9a57634e487b7160e01b600052603260045260246000fd5b60209081029190910181015160008a815260079092526040909120600501546001600160a01b03169291906120fa565b80611cd481612f41565b915050611c35565b506001949350505050565b611cf1828261122b565b610bf957611d09816001600160a01b0316601461215a565b611d1483602061215a565b604051602001611d25929190612c2a565b60408051601f198184030181529082905262461bcd60e51b82526107a891600401612d20565b611d55828261122b565b610bf9576000828152602081815260408083206001600160a01b03851684529091529020805460ff19166001179055611d8b3390565b6001600160a01b0316816001600160a01b0316837f2f8788117e7eff1d82e926ec794901d17c78024a50270940304540a733656f0d60405160405180910390a45050565b611dd9828261122b565b15610bf9576000828152602081815260408083206001600160a01b0385168085529252808320805460ff1916905551339285917ff6391f5c32d9c69d2a47ea670b442974b53935d1edc7fd64eb21e047a839171b9190a45050565b6008805460009182611e4583612f41565b909155506000818152600760209081526040909120875192935091611e6f91839190890190612590565b5060048101859055600681018490558251611e939060038301906020860190612614565b504260028201556001808201805460ff1916909117905560070180546001600160a01b03191633179055949350505050565b6008805460009182611ed683612f41565b909155506000818152600760209081526040909120885192935091611f00918391908a0190612590565b50600481018690556005810180546001600160a01b0319166001600160a01b038716179055600681018490558251611f419060038301906020860190612614565b504260028201556001808201805460ff1916909117905560070180546001600160a01b0319163317905595945050505050565b60005b8151811015610bf957611fd17f9096faa56698daa37ec8d3542ff829c66d5e81213bd6faab8ba4e9ce824a5def838381518110611fc457634e487b7160e01b600052603260045260246000fd5b602002602001015161233c565b80611fdb81612f41565b915050611f77565b61186d600080516020612fcc8339815191528261233c565b600180546001600160a01b038381166001600160a01b0319831681179093556040519116919082907f8be0079c531659141344cd1fd0a4f28419497f9722a3daafe3b4186f6b6457e090600090a35050565b6000604051806080016040528060438152602001612f8960439139805160209182012083518483015160408087015180519086012090516120ad950193845260208401929092526001600160a01b03166040830152606082015260800190565b604051602081830303815290604052805190602001209050919050565b60006120d560035490565b60405161190160f01b60208201526022810191909152604281018390526062016120ad565b604080516001600160a01b0385811660248301528416604482015260648082018490528251808303909101815260849091019091526020810180516001600160e01b03166323b872dd60e01b179052612154908590612346565b50505050565b60606000612169836002612eaa565b612174906002612e92565b67ffffffffffffffff81111561219a57634e487b7160e01b600052604160045260246000fd5b6040519080825280601f01601f1916602001820160405280156121c4576020820181803683370190505b509050600360fc1b816000815181106121ed57634e487b7160e01b600052603260045260246000fd5b60200101906001600160f81b031916908160001a905350600f60fb1b8160018151811061222a57634e487b7160e01b600052603260045260246000fd5b60200101906001600160f81b031916908160001a905350600061224e846002612eaa565b612259906001612e92565b90505b60018111156122ed576f181899199a1a9b1b9c1cb0b131b232b360811b85600f166010811061229b57634e487b7160e01b600052603260045260246000fd5b1a60f81b8282815181106122bf57634e487b7160e01b600052603260045260246000fd5b60200101906001600160f81b031916908160001a90535060049490941c936122e681612ef5565b905061225c565b5083156119745760405162461bcd60e51b815260206004820181905260248201527f537472696e67733a20686578206c656e67746820696e73756666696369656e7460448201526064016107a8565b610bf98282611d4b565b600061239b826040518060400160405280602081526020017f5361666545524332303a206c6f772d6c6576656c2063616c6c206661696c6564815250856001600160a01b03166124189092919063ffffffff16565b805190915015610b7a57808060200190518101906123b9919061282d565b610b7a5760405162461bcd60e51b815260206004820152602a60248201527f5361666545524332303a204552433230206f7065726174696f6e20646964206e6044820152691bdd081cdd58d8d9595960b21b60648201526084016107a8565b6060612427848460008561242f565b949350505050565b6060824710156124905760405162461bcd60e51b815260206004820152602660248201527f416464726573733a20696e73756666696369656e742062616c616e636520666f6044820152651c8818d85b1b60d21b60648201526084016107a8565b843b6124de5760405162461bcd60e51b815260206004820152601d60248201527f416464726573733a2063616c6c20746f206e6f6e2d636f6e747261637400000060448201526064016107a8565b600080866001600160a01b031685876040516124fa9190612bd7565b60006040518083038185875af1925050503d8060008114612537576040519150601f19603f3d011682016040523d82523d6000602084013e61253c565b606091505b509150915061254c828286612557565b979650505050505050565b60608315612566575081611974565b8251156125765782518084602001fd5b8160405162461bcd60e51b81526004016107a89190612d20565b82805461259c90612f0c565b90600052602060002090601f0160209004810192826125be5760008555612604565b82601f106125d757805160ff1916838001178555612604565b82800160010185558215612604579182015b828111156126045782518255916020019190600101906125e9565b50612610929150612669565b5090565b828054828255906000526020600020908101928215612604579160200282015b8281111561260457825182546001600160a01b0319166001600160a01b03909116178255602090920191600190910190612634565b5b80821115612610576000815560010161266a565b600067ffffffffffffffff83111561269857612698612f72565b6126ab601f8401601f1916602001612e3d565b90508281528383830111156126bf57600080fd5b828260208301376000602084830101529392505050565b80356001600160a01b03811681146126ed57600080fd5b919050565b600082601f830112612702578081fd5b8135602061271761271283612e6e565b612e3d565b80838252828201915082860187848660051b8901011115612736578586fd5b855b8581101561275b57612749826126d6565b84529284019290840190600101612738565b5090979650505050505050565b600082601f830112612778578081fd5b6119748383356020850161267e565b600060208284031215612798578081fd5b611974826126d6565b600080600080600060a086880312156127b8578081fd5b6127c1866126d6565b9450602086013567ffffffffffffffff8111156127dc578182fd5b8601601f810188136127ec578182fd5b6127fb8882356020840161267e565b9450506040860135925060608601359150608086013560ff8116811461281f578182fd5b809150509295509295909350565b60006020828403121561283e578081fd5b81518015158114611974578182fd5b60006020828403121561285e578081fd5b5035919050565b60008060408385031215612877578182fd5b82359150612887602084016126d6565b90509250929050565b6000602082840312156128a1578081fd5b81356001600160e01b031981168114611974578182fd5b600080600080600060a086880312156128cf578081fd5b853567ffffffffffffffff808211156128e6578283fd5b6128f289838a01612768565b965060208801359550612907604089016126d6565b9450606088013593506080880135915080821115612923578283fd5b50612930888289016126f2565b9150509295509295909350565b600080600060608486031215612951578081fd5b83359250612961602085016126d6565b9150604084013590509250925092565b600080600060608486031215612985578081fd5b8335925060208085013567ffffffffffffffff808211156129a4578384fd5b6129b0888389016126f2565b945060408701359150808211156129c5578384fd5b818701915087601f8301126129d8578384fd5b81356129e661271282612e6e565b8082825285820191508585018b878560051b8801011115612a05578788fd5b875b84811015612a3e57813586811115612a1d57898afd5b612a2b8e8a838b0101612768565b8552509287019290870190600101612a07565b50508096505050505050509250925092565b600080600060608486031215612a64578081fd5b8335925060208085013567ffffffffffffffff80821115612a83578384fd5b612a8f888389016126f2565b94506040870135915080821115612aa4578384fd5b508501601f81018713612ab5578283fd5b8035612ac361271282612e6e565b8082825284820191508484018a868560051b8701011115612ae2578687fd5b8694505b83851015612b04578035835260019490940193918501918501612ae6565b5080955050505050509250925092565b6000815180845260208085019450808401835b83811015612b4c5781516001600160a01b031687529582019590820190600101612b27565b509495945050505050565b600081518084526020808501808196508360051b81019150828601855b85811015612b9e578284038952612b8c848351612bab565b98850198935090840190600101612b74565b5091979650505050505050565b60008151808452612bc3816020860160208601612ec9565b601f01601f19169290920160200192915050565b60008251612be9818460208701612ec9565b9190910192915050565b60008351612c05818460208801612ec9565b60609390931b6bffffffffffffffffffffffff19169190920190815260140192915050565b7f416363657373436f6e74726f6c3a206163636f756e7420000000000000000000815260008351612c62816017850160208801612ec9565b7001034b99036b4b9b9b4b733903937b6329607d1b6017918401918201528351612c93816028840160208801612ec9565b01602801949350505050565b6001600160a01b03848116825283166020820152606060408201819052600090612ccb90830184612bab565b95945050505050565b60018060a01b0385168152836020820152608060408201526000612cfb6080830185612b14565b828103606084015261254c8185612b57565b6020815260006119746020830184612b57565b6020815260006119746020830184612bab565b6000610140808352612d478184018e612bab565b90508281036020840152612d5b818d612b14565b604084019b909b525050606081019790975260808701959095526001600160a01b0393841660a087015260c086019290925290911660e0840152151561010083015215156101209091015292915050565b6000610100808352612dc08184018c612bab565b991515602084015250509515156040870152606086019490945260808501929092526001600160a01b0390811660a085015260c08401919091521660e090910152919050565b6020808252601a908201527f53656e646572206e6f7420456c656374696f6e2041646d696e21000000000000604082015260600190565b604051601f8201601f1916810167ffffffffffffffff81118282101715612e6657612e66612f72565b604052919050565b600067ffffffffffffffff821115612e8857612e88612f72565b5060051b60200190565b60008219821115612ea557612ea5612f5c565b500190565b6000816000190483118215151615612ec457612ec4612f5c565b500290565b60005b83811015612ee4578181015183820152602001612ecc565b838111156121545750506000910152565b600081612f0457612f04612f5c565b506000190190565b600181811c90821680612f2057607f821691505b602082108114156110e257634e487b7160e01b600052602260045260246000fd5b6000600019821415612f5557612f55612f5c565b5060010190565b634e487b7160e01b600052601160045260246000fd5b634e487b7160e01b600052604160045260246000fdfe4d6574615472616e73616374696f6e2875696e74323536206e6f6e63652c616464726573732066726f6d2c62797465732066756e6374696f6e5369676e61747572652916f50c1fe196fa8f2d59c3eca367f2f7bf83b35c12ed36436b26d5af3695f5c4a2646970667358221220a2f9f4adde8a5c337bf023826274499e22043205150afbae6f6e2b643288630a64736f6c63430008040033454950373132446f6d61696e28737472696e67206e616d652c737472696e672076657273696f6e2c6164647265737320766572696679696e67436f6e74726163742c627974657333322073616c7429",
  "linkReferences": {},
  "deployedLinkReferences": {}
}