{
  "address": "0x991866c101521355153deC646A767246784c87aF",
  "abi": [
    {
      "inputs": [],
      "stateMutability": "nonpayable",
      "type": "constructor"
    },
    {
      "anonymous": false,
      "inputs": [
        {
          "indexed": false,
          "internalType": "address",
          "name": "voter",
          "type": "address"
        },
        {
          "indexed": false,
          "internalType": "uint256",
          "name": "electionId",
          "type": "uint256"
        },
        {
          "indexed": false,
          "internalType": "address[]",
          "name": "adrs",
          "type": "address[]"
        },
        {
          "indexed": false,
          "internalType": "string[]",
          "name": "scores",
          "type": "string[]"
        }
      ],
      "name": "BallotCast",
      "type": "event"
    },
    {
      "anonymous": false,
      "inputs": [
        {
          "indexed": false,
          "internalType": "address",
          "name": "creator",
          "type": "address"
        },
        {
          "indexed": false,
          "internalType": "uint256",
          "name": "electionId",
          "type": "uint256"
        }
      ],
      "name": "ElectionCreated",
      "type": "event"
    },
    {
      "anonymous": false,
      "inputs": [
        {
          "indexed": false,
          "internalType": "uint256",
          "name": "electionId",
          "type": "uint256"
        }
      ],
      "name": "ElectionEnded",
      "type": "event"
    },
    {
      "anonymous": false,
      "inputs": [
        {
          "indexed": false,
          "internalType": "uint256",
          "name": "electionId",
          "type": "uint256"
        }
      ],
      "name": "ElectionPaid",
      "type": "event"
    },
    {
      "anonymous": false,
      "inputs": [
        {
          "indexed": true,
          "internalType": "address",
          "name": "previousOwner",
          "type": "address"
        },
        {
          "indexed": true,
          "internalType": "address",
          "name": "newOwner",
          "type": "address"
        }
      ],
      "name": "OwnershipTransferred",
      "type": "event"
    },
    {
      "anonymous": false,
      "inputs": [
        {
          "indexed": true,
          "internalType": "bytes32",
          "name": "role",
          "type": "bytes32"
        },
        {
          "indexed": true,
          "internalType": "bytes32",
          "name": "previousAdminRole",
          "type": "bytes32"
        },
        {
          "indexed": true,
          "internalType": "bytes32",
          "name": "newAdminRole",
          "type": "bytes32"
        }
      ],
      "name": "RoleAdminChanged",
      "type": "event"
    },
    {
      "anonymous": false,
      "inputs": [
        {
          "indexed": true,
          "internalType": "bytes32",
          "name": "role",
          "type": "bytes32"
        },
        {
          "indexed": true,
          "internalType": "address",
          "name": "account",
          "type": "address"
        },
        {
          "indexed": true,
          "internalType": "address",
          "name": "sender",
          "type": "address"
        }
      ],
      "name": "RoleGranted",
      "type": "event"
    },
    {
      "anonymous": false,
      "inputs": [
        {
          "indexed": true,
          "internalType": "bytes32",
          "name": "role",
          "type": "bytes32"
        },
        {
          "indexed": true,
          "internalType": "address",
          "name": "account",
          "type": "address"
        },
        {
          "indexed": true,
          "internalType": "address",
          "name": "sender",
          "type": "address"
        }
      ],
      "name": "RoleRevoked",
      "type": "event"
    },
    {
      "stateMutability": "payable",
      "type": "fallback"
    },
    {
      "inputs": [],
      "name": "DEFAULT_ADMIN_ROLE",
      "outputs": [
        {
          "internalType": "bytes32",
          "name": "",
          "type": "bytes32"
        }
      ],
      "stateMutability": "view",
      "type": "function"
    },
    {
      "inputs": [
        {
          "internalType": "uint256",
          "name": "electionId",
          "type": "uint256"
        }
      ],
      "name": "approveToken",
      "outputs": [],
      "stateMutability": "nonpayable",
      "type": "function"
    },
    {
      "inputs": [
        {
          "internalType": "uint256",
          "name": "electionId",
          "type": "uint256"
        },
        {
          "internalType": "address",
          "name": "_sender",
          "type": "address"
        }
      ],
      "name": "canVote",
      "outputs": [
        {
          "internalType": "bool",
          "name": "status",
          "type": "bool"
        }
      ],
      "stateMutability": "view",
      "type": "function"
    },
    {
      "inputs": [
        {
          "internalType": "uint256",
          "name": "electionId",
          "type": "uint256"
        },
        {
          "internalType": "address[]",
          "name": "_adrs",
          "type": "address[]"
        },
        {
          "internalType": "string[]",
          "name": "_scores",
          "type": "string[]"
        }
      ],
      "name": "castBallot",
      "outputs": [],
      "stateMutability": "nonpayable",
      "type": "function"
    },
    {
      "inputs": [
        {
          "internalType": "uint256",
          "name": "",
          "type": "uint256"
        }
      ],
      "name": "elections",
      "outputs": [
        {
          "internalType": "string",
          "name": "name",
          "type": "string"
        },
        {
          "internalType": "bool",
          "name": "active",
          "type": "bool"
        },
        {
          "internalType": "bool",
          "name": "paid",
          "type": "bool"
        },
        {
          "internalType": "uint256",
          "name": "createdAt",
          "type": "uint256"
        },
        {
          "internalType": "uint256",
          "name": "funds",
          "type": "uint256"
        },
        {
          "internalType": "address",
          "name": "token",
          "type": "address"
        },
        {
          "internalType": "uint256",
          "name": "votes",
          "type": "uint256"
        },
        {
          "internalType": "address",
          "name": "admin",
          "type": "address"
        }
      ],
      "stateMutability": "view",
      "type": "function"
    },
    {
      "inputs": [
        {
          "internalType": "uint256",
          "name": "electionId",
          "type": "uint256"
        }
      ],
      "name": "endElection",
      "outputs": [],
      "stateMutability": "nonpayable",
      "type": "function"
    },
    {
      "inputs": [
        {
          "internalType": "uint256",
          "name": "electionId",
          "type": "uint256"
        }
      ],
      "name": "getElectionById",
      "outputs": [
        {
          "internalType": "string",
          "name": "name",
          "type": "string"
        },
        {
          "internalType": "address[]",
          "name": "candidates",
          "type": "address[]"
        },
        {
          "internalType": "uint256",
          "name": "n_addr",
          "type": "uint256"
        },
        {
          "internalType": "uint256",
          "name": "createdAt",
          "type": "uint256"
        },
        {
          "internalType": "uint256",
          "name": "funds",
          "type": "uint256"
        },
        {
          "internalType": "address",
          "name": "token",
          "type": "address"
        },
        {
          "internalType": "uint256",
          "name": "votes",
          "type": "uint256"
        },
        {
          "internalType": "address",
          "name": "admin",
          "type": "address"
        },
        {
          "internalType": "bool",
          "name": "isActive",
          "type": "bool"
        },
        {
          "internalType": "bool",
          "name": "paid",
          "type": "bool"
        }
      ],
      "stateMutability": "view",
      "type": "function"
    },
    {
      "inputs": [
        {
          "internalType": "uint256",
          "name": "electionId",
          "type": "uint256"
        },
        {
          "internalType": "address",
          "name": "_adr",
          "type": "address"
        }
      ],
      "name": "getElectionScores",
      "outputs": [
        {
          "internalType": "string[]",
          "name": "",
          "type": "string[]"
        }
      ],
      "stateMutability": "view",
      "type": "function"
    },
    {
      "inputs": [
        {
          "internalType": "uint256",
          "name": "electionId",
          "type": "uint256"
        }
      ],
      "name": "getElectionVoted",
      "outputs": [
        {
          "internalType": "uint256",
          "name": "count",
          "type": "uint256"
        }
      ],
      "stateMutability": "view",
      "type": "function"
    },
    {
      "inputs": [
        {
          "internalType": "bytes32",
          "name": "role",
          "type": "bytes32"
        }
      ],
      "name": "getRoleAdmin",
      "outputs": [
        {
          "internalType": "bytes32",
          "name": "",
          "type": "bytes32"
        }
      ],
      "stateMutability": "view",
      "type": "function"
    },
    {
      "inputs": [
        {
          "internalType": "bytes32",
          "name": "role",
          "type": "bytes32"
        },
        {
          "internalType": "address",
          "name": "account",
          "type": "address"
        }
      ],
      "name": "grantRole",
      "outputs": [],
      "stateMutability": "nonpayable",
      "type": "function"
    },
    {
      "inputs": [
        {
          "internalType": "bytes32",
          "name": "role",
          "type": "bytes32"
        },
        {
          "internalType": "address",
          "name": "account",
          "type": "address"
        }
      ],
      "name": "hasRole",
      "outputs": [
        {
          "internalType": "bool",
          "name": "",
          "type": "bool"
        }
      ],
      "stateMutability": "view",
      "type": "function"
    },
    {
      "inputs": [
        {
          "internalType": "uint256",
          "name": "electionId",
          "type": "uint256"
        },
        {
          "internalType": "address",
          "name": "_sender",
          "type": "address"
        }
      ],
      "name": "hasVoted",
      "outputs": [
        {
          "internalType": "bool",
          "name": "",
          "type": "bool"
        }
      ],
      "stateMutability": "view",
      "type": "function"
    },
    {
      "inputs": [
        {
          "internalType": "uint256",
          "name": "electionId",
          "type": "uint256"
        },
        {
          "internalType": "address",
          "name": "_sender",
          "type": "address"
        }
      ],
      "name": "isElectionAdmin",
      "outputs": [
        {
          "internalType": "bool",
          "name": "",
          "type": "bool"
        }
      ],
      "stateMutability": "view",
      "type": "function"
    },
    {
      "inputs": [
        {
          "internalType": "uint256",
          "name": "electionId",
          "type": "uint256"
        },
        {
          "internalType": "address",
          "name": "_sender",
          "type": "address"
        }
      ],
      "name": "isElectionCandidate",
      "outputs": [
        {
          "internalType": "bool",
          "name": "status",
          "type": "bool"
        }
      ],
      "stateMutability": "view",
      "type": "function"
    },
    {
      "inputs": [
        {
          "internalType": "string",
          "name": "_name",
          "type": "string"
        },
        {
          "internalType": "uint256",
          "name": "_funds",
          "type": "uint256"
        },
        {
          "internalType": "address",
          "name": "_token",
          "type": "address"
        },
        {
          "internalType": "uint256",
          "name": "_votes",
          "type": "uint256"
        },
        {
          "internalType": "address[]",
          "name": "_adrs",
          "type": "address[]"
        }
      ],
      "name": "newElection",
      "outputs": [
        {
          "internalType": "uint256",
          "name": "electionId",
          "type": "uint256"
        }
      ],
      "stateMutability": "nonpayable",
      "type": "function"
    },
    {
      "inputs": [],
      "name": "numElections",
      "outputs": [
        {
          "internalType": "uint256",
          "name": "",
          "type": "uint256"
        }
      ],
      "stateMutability": "view",
      "type": "function"
    },
    {
      "inputs": [],
      "name": "owner",
      "outputs": [
        {
          "internalType": "address",
          "name": "",
          "type": "address"
        }
      ],
      "stateMutability": "view",
      "type": "function"
    },
    {
      "inputs": [
        {
          "internalType": "uint256",
          "name": "electionId",
          "type": "uint256"
        },
        {
          "internalType": "address[]",
          "name": "_adrs",
          "type": "address[]"
        },
        {
          "internalType": "uint256[]",
          "name": "_pay",
          "type": "uint256[]"
        }
      ],
      "name": "payoutElection",
      "outputs": [],
      "stateMutability": "payable",
      "type": "function"
    },
    {
      "inputs": [],
      "name": "renounceOwnership",
      "outputs": [],
      "stateMutability": "nonpayable",
      "type": "function"
    },
    {
      "inputs": [
        {
          "internalType": "bytes32",
          "name": "role",
          "type": "bytes32"
        },
        {
          "internalType": "address",
          "name": "account",
          "type": "address"
        }
      ],
      "name": "renounceRole",
      "outputs": [],
      "stateMutability": "nonpayable",
      "type": "function"
    },
    {
      "inputs": [
        {
          "internalType": "bytes32",
          "name": "role",
          "type": "bytes32"
        },
        {
          "internalType": "address",
          "name": "account",
          "type": "address"
        }
      ],
      "name": "revokeRole",
      "outputs": [],
      "stateMutability": "nonpayable",
      "type": "function"
    },
    {
      "inputs": [
        {
          "internalType": "uint256",
          "name": "",
          "type": "uint256"
        },
        {
          "internalType": "address",
          "name": "",
          "type": "address"
        },
        {
          "internalType": "uint256",
          "name": "",
          "type": "uint256"
        }
      ],
      "name": "scores",
      "outputs": [
        {
          "internalType": "string",
          "name": "",
          "type": "string"
        }
      ],
      "stateMutability": "view",
      "type": "function"
    },
    {
      "inputs": [
        {
          "internalType": "bytes4",
          "name": "interfaceId",
          "type": "bytes4"
        }
      ],
      "name": "supportsInterface",
      "outputs": [
        {
          "internalType": "bool",
          "name": "",
          "type": "bool"
        }
      ],
      "stateMutability": "view",
      "type": "function"
    },
    {
      "inputs": [
        {
          "internalType": "address",
          "name": "newOwner",
          "type": "address"
        }
      ],
      "name": "transferOwnership",
      "outputs": [],
      "stateMutability": "nonpayable",
      "type": "function"
    },
    {
      "inputs": [
        {
          "internalType": "uint256",
          "name": "",
          "type": "uint256"
        },
        {
          "internalType": "address",
          "name": "",
          "type": "address"
        }
      ],
      "name": "voted",
      "outputs": [
        {
          "internalType": "bool",
          "name": "",
          "type": "bool"
        }
      ],
      "stateMutability": "view",
      "type": "function"
    },
    {
      "stateMutability": "payable",
      "type": "receive"
    }
  ],
  "transactionHash": "0x50c9a3bed72b1561c41dd89939f24e8a0175be4b006f4ee911cbd73faa95ba52",
  "args": [],
  "solcInputHash": "b475a8646ead1a6c3aa68ef054ec9a6b",
  "bytecode": "0x60806040523480156200001157600080fd5b506200001d3362000035565b60016002556200002f60003362000087565b62000137565b600180546001600160a01b038381166001600160a01b0319831681179093556040519116919082907f8be0079c531659141344cd1fd0a4f28419497f9722a3daafe3b4186f6b6457e090600090a35050565b62000093828262000097565b5050565b6000828152602081815260408083206001600160a01b038516845290915290205460ff1662000093576000828152602081815260408083206001600160a01b03851684529091529020805460ff19166001179055620000f33390565b6001600160a01b0316816001600160a01b0316837f2f8788117e7eff1d82e926ec794901d17c78024a50270940304540a733656f0d60405160405180910390a45050565b612a4680620001476000396000f3fe6080604052600436106101735760003560e01c80636e38d9bd116100c8578063a217fddf11610084578063cdb2867b11610061578063cdb2867b146104ee578063d547741f1461050e578063ea3c6cde1461052e578063f2fde38b1461054e57005b8063a217fddf14610476578063b082c3851461048b578063c6958b12146104b857005b80636e38d9bd146103a4578063715018a6146103ba5780638da5cb5b146103cf57806391b84f16146103f757806391d14854146104365780639c98bcbb1461045657005b80633ac9fc111161012f5780634b8b477e1161010c5780634b8b477e146102f55780635277b4ae1461031557806352e968ad146103505780635e6fef011461037057005b80633ac9fc111461026f578063438596321461028f5780634548e52b146102d557005b806301ffc9a71461017c57806308108288146101b15780630ece86d0146101de578063248a9ca3146101f15780632f2ff15d1461022f57806336568abe1461024f57005b3661017a57005b005b34801561018857600080fd5b5061019c610197366004612352565b61056e565b60405190151581526020015b60405180910390f35b3480156101bd57600080fd5b506101d16101cc3660046123ff565b6105a5565b6040516101a89190612775565b61017a6101ec366004612524565b61069c565b3480156101fd57600080fd5b5061022161020c36600461230f565b60009081526020819052604090206001015490565b6040519081526020016101a8565b34801561023b57600080fd5b5061017a61024a366004612327565b610865565b34801561025b57600080fd5b5061017a61026a366004612327565b610890565b34801561027b57600080fd5b5061017a61028a36600461230f565b61090e565b34801561029b57600080fd5b5061019c6102aa3660046123ff565b60009182526003602090815260408084206001600160a01b0393909316845291905290205460ff1690565b3480156102e157600080fd5b5061017a6102f0366004612445565b6109ad565b34801561030157600080fd5b5061022161031036600461237a565b610cc4565b34801561032157600080fd5b5061019c6103303660046123ff565b600360209081526000928352604080842090915290825290205460ff1681565b34801561035c57600080fd5b5061022161036b36600461230f565b610d4b565b34801561037c57600080fd5b5061039061038b36600461230f565b610dfa565b6040516101a8989796959493929190612814565b3480156103b057600080fd5b5061022160065481565b3480156103c657600080fd5b5061017a610ed7565b3480156103db57600080fd5b506001546040516001600160a01b0390911681526020016101a8565b34801561040357600080fd5b5061019c6104123660046123ff565b600091825260056020526040909120600701546001600160a01b0390811691161490565b34801561044257600080fd5b5061019c610451366004612327565b610f3d565b34801561046257600080fd5b5061017a61047136600461230f565b610f66565b34801561048257600080fd5b50610221600081565b34801561049757600080fd5b506104ab6104a6366004612411565b61107a565b6040516101a89190612788565b3480156104c457600080fd5b506104d86104d336600461230f565b611140565b6040516101a89a9998979695949392919061279b565b3480156104fa57600080fd5b5061019c6105093660046123ff565b611379565b34801561051a57600080fd5b5061017a610529366004612327565b611408565b34801561053a57600080fd5b5061019c6105493660046123ff565b61142e565b34801561055a57600080fd5b5061017a6105693660046122d5565b6114b6565b60006001600160e01b03198216637965db0b60e01b148061059f57506301ffc9a760e01b6001600160e01b03198316145b92915050565b60008281526004602090815260408083206001600160a01b03851684528252808320805482518185028101850190935280835260609492939192909184015b8282101561069057838290600052602060002001805461060390612974565b80601f016020809104026020016040519081016040528092919081815260200182805461062f90612974565b801561067c5780601f106106515761010080835404028352916020019161067c565b820191906000526020600020905b81548152906001019060200180831161065f57829003601f168201915b5050505050815260200190600101906105e4565b50505050905092915050565b826106b56000805160206129f183398151915233610f3d565b6106da5760405162461bcd60e51b81526004016106d19061286e565b60405180910390fd5b6000818152600560205260409020600701546001600160a01b031633146107135760405162461bcd60e51b81526004016106d19061286e565b6002805414156107655760405162461bcd60e51b815260206004820152601f60248201527f5265656e7472616e637947756172643a207265656e7472616e742063616c6c0060448201526064016106d1565b6002805560008481526005602052604090206001015460ff16156107c45760405162461bcd60e51b8152602060048201526016602482015275456c656374696f6e205374696c6c204163746976652160501b60448201526064016106d1565b6000848152600560208190526040822001546001600160a01b03166107f5576107ee858585611581565b9050610803565b610800858585611836565b90505b600085815260056020908152604091829020600101805461ff0019166101008515150217905590518681527fb27761a3b9064636a27795816e4f8a8e5cadd6ac8b1e3a553bd47bf414c2b402910160405180910390a150506001600255505050565b60008281526020819052604090206001015461088181336118ee565b61088b8383611952565b505050565b6001600160a01b03811633146109005760405162461bcd60e51b815260206004820152602f60248201527f416363657373436f6e74726f6c3a2063616e206f6e6c792072656e6f756e636560448201526e103937b632b9903337b91039b2b63360891b60648201526084016106d1565b61090a82826119d6565b5050565b60008181526005602081905260409182902090810154600491820154925163095ea7b360e01b8152309281019290925260248201929092526001600160a01b039091169063095ea7b390604401602060405180830381600087803b15801561097557600080fd5b505af1158015610989573d6000803e3d6000fd5b505050506040513d601f19601f8201168201806040525081019061090a91906122ef565b826109d87f9096faa56698daa37ec8d3542ff829c66d5e81213bd6faab8ba4e9ce824a5def33610f3d565b610a245760405162461bcd60e51b815260206004820152601e60248201527f53656e646572206e6f7420456c656374696f6e2043616e64696461746521000060448201526064016106d1565b610a2e813361142e565b610a7a5760405162461bcd60e51b815260206004820152601e60248201527f53656e646572206e6f7420456c656374696f6e2043616e64696461746521000060448201526064016106d1565b60008481526005602052604090206001015484908490849060ff16610ad85760405162461bcd60e51b8152602060048201526014602482015273456c656374696f6e204e6f74204163746976652160601b60448201526064016106d1565b600083815260036020908152604080832033845290915290205460ff1615610b3a5760405162461bcd60e51b815260206004820152601560248201527453656e64657220616c726561647920766f7465642160581b60448201526064016106d1565b8151815114610b8b5760405162461bcd60e51b815260206004820152601a60248201527f53636f726573202d2041646472657373204d69736d617463682100000000000060448201526064016106d1565b60005b8651811015610c5957600460008981526020019081526020016000206000888381518110610bcc57634e487b7160e01b600052603260045260246000fd5b60200260200101516001600160a01b03166001600160a01b03168152602001908152602001600020868281518110610c1457634e487b7160e01b600052603260045260246000fd5b60209081029190910181015182546001810184556000938452928290208151610c4694919091019291909101906120ea565b5080610c51816129a9565b915050610b8e565b50600087815260036020908152604080832033808552925291829020805460ff1916600117905590517faaf8175507b94c84621088891ecf31ca1c2548c0aeab2f2f21d3459515f9c4ed91610cb3918a908a908a9061273c565b60405180910390a150505050505050565b60006001600160a01b038416610ce757610ce086868585611a3b565b9050610cf7565b610cf48686868686611acc565b90505b610d0082611b7b565b610d0933611bea565b60408051338152602081018390527fc91fe4766a7a928d6625f66818425dc115b03c854a8ed8d28de2f34a684e0f1a910160405180910390a195945050505050565b6000805b600083815260056020526040902060030154811015610df4576000838152600560205260408120600301805483908110610d9957634e487b7160e01b600052603260045260246000fd5b60009182526020808320909101548683526003825260408084206001600160a01b039092168085529190925291205490915060ff1615610de15782610ddd816129a9565b9350505b5080610dec816129a9565b915050610d4f565b50919050565b600560205260009081526040902080548190610e1590612974565b80601f0160208091040260200160405190810160405280929190818152602001828054610e4190612974565b8015610e8e5780601f10610e6357610100808354040283529160200191610e8e565b820191906000526020600020905b815481529060010190602001808311610e7157829003601f168201915b50505060018401546002850154600486015460058701546006880154600790980154969760ff8086169861010090960416965092945090926001600160a01b0391821692911688565b6001546001600160a01b03163314610f315760405162461bcd60e51b815260206004820181905260248201527f4f776e61626c653a2063616c6c6572206973206e6f7420746865206f776e657260448201526064016106d1565b610f3b6000611c02565b565b6000918252602082815260408084206001600160a01b0393909316845291905290205460ff1690565b80610f7f6000805160206129f183398151915233610f3d565b610f9b5760405162461bcd60e51b81526004016106d19061286e565b6000818152600560205260409020600701546001600160a01b03163314610fd45760405162461bcd60e51b81526004016106d19061286e565b6000828152600560205260409020600181015460ff166110365760405162461bcd60e51b815260206004820152601760248201527f456c656374696f6e20416c726561647920456e6465642100000000000000000060448201526064016106d1565b60018101805460ff191690556040518381527f562cd572b2ba3b666cd989fc4ca98419ec81e75f04528df9d9d76fdb7807ee719060200160405180910390a1505050565b600460205282600052604060002060205281600052604060002081815481106110a257600080fd5b90600052602060002001600092509250505080546110bf90612974565b80601f01602080910402602001604051908101604052809291908181526020018280546110eb90612974565b80156111385780601f1061110d57610100808354040283529160200191611138565b820191906000526020600020905b81548152906001019060200180831161111b57829003601f168201915b505050505081565b606080600080600080600080600080600560008c8152602001908152602001600020600001805461117090612974565b80601f016020809104026020016040519081016040528092919081815260200182805461119c90612974565b80156111e95780601f106111be576101008083540402835291602001916111e9565b820191906000526020600020905b8154815290600101906020018083116111cc57829003601f168201915b50505050509950600560008c815260200190815260200160002060030180548060200260200160405190810160405280929190818152602001828054801561125a57602002820191906000526020600020905b81546001600160a01b0316815260019091019060200180831161123c575b50505050509850600560008c8152602001908152602001600020600301805490509750600560008c8152602001908152602001600020600201549650600560008c8152602001908152602001600020600401549550600560008c815260200190815260200160002060050160009054906101000a90046001600160a01b03169450600560008c8152602001908152602001600020600601549350600560008c815260200190815260200160002060070160009054906101000a90046001600160a01b03169250600560008c815260200190815260200160002060010160009054906101000a900460ff169150600560008c815260200190815260200160002060010160019054906101000a900460ff1690509193959799509193959799565b6000805b6000848152600560205260409020600301548110156114015760008481526005602052604081206003018054839081106113c757634e487b7160e01b600052603260045260246000fd5b6000918252602090912001546001600160a01b03908116915084168114156113ee57600192505b50806113f9816129a9565b91505061137d565b5092915050565b60008281526020819052604090206001015461142481336118ee565b61088b83836119d6565b6000805b60008481526005602052604090206003015481101561140157600084815260056020526040902060030180548290811061147c57634e487b7160e01b600052603260045260246000fd5b6000918252602090912001546001600160a01b03848116911614156114a45760019150611401565b806114ae816129a9565b915050611432565b6001546001600160a01b031633146115105760405162461bcd60e51b815260206004820181905260248201527f4f776e61626c653a2063616c6c6572206973206e6f7420746865206f776e657260448201526064016106d1565b6001600160a01b0381166115755760405162461bcd60e51b815260206004820152602660248201527f4f776e61626c653a206e6577206f776e657220697320746865207a65726f206160448201526564647265737360d01b60648201526084016106d1565b61157e81611c02565b50565b60008361159c6000805160206129f183398151915233610f3d565b6115b85760405162461bcd60e51b81526004016106d19061286e565b6000818152600560205260409020600701546001600160a01b031633146115f15760405162461bcd60e51b81526004016106d19061286e565b6000805b60008781526005602052604090206003015481101561171d5785818151811061162e57634e487b7160e01b600052603260045260246000fd5b60200260200101516001600160a01b031660056000898152602001908152602001600020600301828154811061167457634e487b7160e01b600052603260045260246000fd5b6000918252602090912001546001600160a01b0316146116d65760405162461bcd60e51b815260206004820152601a60248201527f456c656374696f6e2d41646472657373204d69736d617463682100000000000060448201526064016106d1565b8481815181106116f657634e487b7160e01b600052603260045260246000fd5b60200260200101518261170991906128fa565b915080611715816129a9565b9150506115f5565b5060005b84518110156118295760008087838151811061174d57634e487b7160e01b600052603260045260246000fd5b60200260200101516001600160a01b031687848151811061177e57634e487b7160e01b600052603260045260246000fd5b602002602001015160405160006040518083038185875af1925050503d80600081146117c6576040519150601f19603f3d011682016040523d82523d6000602084013e6117cb565b606091505b5091509150816118145760405162461bcd60e51b81526020600482015260146024820152732330b4b632b2103a379039b2b7321022ba3432b960611b60448201526064016106d1565b50508080611821906129a9565b915050611721565b5060019695505050505050565b6000805b6000858152600560205260409020600301548110156118e1576118cf3385838151811061187757634e487b7160e01b600052603260045260246000fd5b602002602001015185848151811061189f57634e487b7160e01b600052603260045260246000fd5b60209081029190910181015160008a815260059283905260409020909101546001600160a01b0316929190611c54565b806118d9816129a9565b91505061183a565b50600190505b9392505050565b6118f88282610f3d565b61090a57611910816001600160a01b03166014611cb4565b61191b836020611cb4565b60405160200161192c9291906126c7565b60408051601f198184030181529082905262461bcd60e51b82526106d191600401612788565b61195c8282610f3d565b61090a576000828152602081815260408083206001600160a01b03851684529091529020805460ff191660011790556119923390565b6001600160a01b0316816001600160a01b0316837f2f8788117e7eff1d82e926ec794901d17c78024a50270940304540a733656f0d60405160405180910390a45050565b6119e08282610f3d565b1561090a576000828152602081815260408083206001600160a01b0385168085529252808320805460ff1916905551339285917ff6391f5c32d9c69d2a47ea670b442974b53935d1edc7fd64eb21e047a839171b9190a45050565b6006805460009182611a4c836129a9565b909155506000818152600560209081526040909120875192935091611a76918391908901906120ea565b5060048101859055600681018490558251611a9a906003830190602086019061216e565b504260028201556001808201805460ff1916909117905560070180546001600160a01b03191633179055949350505050565b6006805460009182611add836129a9565b909155506000818152600560209081526040909120885192935091611b07918391908a01906120ea565b50600481018690556005810180546001600160a01b0319166001600160a01b038716179055600681018490558251611b48906003830190602086019061216e565b504260028201556001808201805460ff1916909117905560070180546001600160a01b0319163317905595945050505050565b60005b815181101561090a57611bd87f9096faa56698daa37ec8d3542ff829c66d5e81213bd6faab8ba4e9ce824a5def838381518110611bcb57634e487b7160e01b600052603260045260246000fd5b6020026020010151611e96565b80611be2816129a9565b915050611b7e565b61157e6000805160206129f183398151915282611e96565b600180546001600160a01b038381166001600160a01b0319831681179093556040519116919082907f8be0079c531659141344cd1fd0a4f28419497f9722a3daafe3b4186f6b6457e090600090a35050565b604080516001600160a01b0385811660248301528416604482015260648082018490528251808303909101815260849091019091526020810180516001600160e01b03166323b872dd60e01b179052611cae908590611ea0565b50505050565b60606000611cc3836002612912565b611cce9060026128fa565b67ffffffffffffffff811115611cf457634e487b7160e01b600052604160045260246000fd5b6040519080825280601f01601f191660200182016040528015611d1e576020820181803683370190505b509050600360fc1b81600081518110611d4757634e487b7160e01b600052603260045260246000fd5b60200101906001600160f81b031916908160001a905350600f60fb1b81600181518110611d8457634e487b7160e01b600052603260045260246000fd5b60200101906001600160f81b031916908160001a9053506000611da8846002612912565b611db39060016128fa565b90505b6001811115611e47576f181899199a1a9b1b9c1cb0b131b232b360811b85600f1660108110611df557634e487b7160e01b600052603260045260246000fd5b1a60f81b828281518110611e1957634e487b7160e01b600052603260045260246000fd5b60200101906001600160f81b031916908160001a90535060049490941c93611e408161295d565b9050611db6565b5083156118e75760405162461bcd60e51b815260206004820181905260248201527f537472696e67733a20686578206c656e67746820696e73756666696369656e7460448201526064016106d1565b61090a8282611952565b6000611ef5826040518060400160405280602081526020017f5361666545524332303a206c6f772d6c6576656c2063616c6c206661696c6564815250856001600160a01b0316611f729092919063ffffffff16565b80519091501561088b5780806020019051810190611f1391906122ef565b61088b5760405162461bcd60e51b815260206004820152602a60248201527f5361666545524332303a204552433230206f7065726174696f6e20646964206e6044820152691bdd081cdd58d8d9595960b21b60648201526084016106d1565b6060611f818484600085611f89565b949350505050565b606082471015611fea5760405162461bcd60e51b815260206004820152602660248201527f416464726573733a20696e73756666696369656e742062616c616e636520666f6044820152651c8818d85b1b60d21b60648201526084016106d1565b843b6120385760405162461bcd60e51b815260206004820152601d60248201527f416464726573733a2063616c6c20746f206e6f6e2d636f6e747261637400000060448201526064016106d1565b600080866001600160a01b0316858760405161205491906126ab565b60006040518083038185875af1925050503d8060008114612091576040519150601f19603f3d011682016040523d82523d6000602084013e612096565b606091505b50915091506120a68282866120b1565b979650505050505050565b606083156120c05750816118e7565b8251156120d05782518084602001fd5b8160405162461bcd60e51b81526004016106d19190612788565b8280546120f690612974565b90600052602060002090601f016020900481019282612118576000855561215e565b82601f1061213157805160ff191683800117855561215e565b8280016001018555821561215e579182015b8281111561215e578251825591602001919060010190612143565b5061216a9291506121c3565b5090565b82805482825590600052602060002090810192821561215e579160200282015b8281111561215e57825182546001600160a01b0319166001600160a01b0390911617825560209092019160019091019061218e565b5b8082111561216a57600081556001016121c4565b80356001600160a01b03811681146121ef57600080fd5b919050565b600082601f830112612204578081fd5b81356020612219612214836128d6565b6128a5565b80838252828201915082860187848660051b8901011115612238578586fd5b855b8581101561225d5761224b826121d8565b8452928401929084019060010161223a565b5090979650505050505050565b600082601f83011261227a578081fd5b813567ffffffffffffffff811115612294576122946129da565b6122a7601f8201601f19166020016128a5565b8181528460208386010111156122bb578283fd5b816020850160208301379081016020019190915292915050565b6000602082840312156122e6578081fd5b6118e7826121d8565b600060208284031215612300578081fd5b815180151581146118e7578182fd5b600060208284031215612320578081fd5b5035919050565b60008060408385031215612339578081fd5b82359150612349602084016121d8565b90509250929050565b600060208284031215612363578081fd5b81356001600160e01b0319811681146118e7578182fd5b600080600080600060a08688031215612391578081fd5b853567ffffffffffffffff808211156123a8578283fd5b6123b489838a0161226a565b9650602088013595506123c9604089016121d8565b94506060880135935060808801359150808211156123e5578283fd5b506123f2888289016121f4565b9150509295509295909350565b60008060408385031215612339578182fd5b600080600060608486031215612425578283fd5b83359250612435602085016121d8565b9150604084013590509250925092565b600080600060608486031215612459578081fd5b8335925060208085013567ffffffffffffffff80821115612478578384fd5b612484888389016121f4565b94506040870135915080821115612499578384fd5b818701915087601f8301126124ac578384fd5b81356124ba612214826128d6565b8082825285820191508585018b878560051b88010111156124d9578788fd5b875b84811015612512578135868111156124f157898afd5b6124ff8e8a838b010161226a565b85525092870192908701906001016124db565b50508096505050505050509250925092565b600080600060608486031215612538578081fd5b8335925060208085013567ffffffffffffffff80821115612557578384fd5b612563888389016121f4565b94506040870135915080821115612578578384fd5b508501601f81018713612589578283fd5b8035612597612214826128d6565b8082825284820191508484018a868560051b87010111156125b6578687fd5b8694505b838510156125d85780358352600194909401939185019185016125ba565b5080955050505050509250925092565b6000815180845260208085019450808401835b838110156126205781516001600160a01b0316875295820195908201906001016125fb565b509495945050505050565b600081518084526020808501808196508360051b81019150828601855b8581101561267257828403895261266084835161267f565b98850198935090840190600101612648565b5091979650505050505050565b60008151808452612697816020860160208601612931565b601f01601f19169290920160200192915050565b600082516126bd818460208701612931565b9190910192915050565b7f416363657373436f6e74726f6c3a206163636f756e74200000000000000000008152600083516126ff816017850160208801612931565b7001034b99036b4b9b9b4b733903937b6329607d1b6017918401918201528351612730816028840160208801612931565b01602801949350505050565b60018060a01b038516815283602082015260806040820152600061276360808301856125e8565b82810360608401526120a6818561262b565b6020815260006118e7602083018461262b565b6020815260006118e7602083018461267f565b60006101408083526127af8184018e61267f565b905082810360208401526127c3818d6125e8565b604084019b909b525050606081019790975260808701959095526001600160a01b0393841660a087015260c086019290925290911660e0840152151561010083015215156101209091015292915050565b60006101008083526128288184018c61267f565b991515602084015250509515156040870152606086019490945260808501929092526001600160a01b0390811660a085015260c08401919091521660e090910152919050565b6020808252601a908201527f53656e646572206e6f7420456c656374696f6e2041646d696e21000000000000604082015260600190565b604051601f8201601f1916810167ffffffffffffffff811182821017156128ce576128ce6129da565b604052919050565b600067ffffffffffffffff8211156128f0576128f06129da565b5060051b60200190565b6000821982111561290d5761290d6129c4565b500190565b600081600019048311821515161561292c5761292c6129c4565b500290565b60005b8381101561294c578181015183820152602001612934565b83811115611cae5750506000910152565b60008161296c5761296c6129c4565b506000190190565b600181811c9082168061298857607f821691505b60208210811415610df457634e487b7160e01b600052602260045260246000fd5b60006000198214156129bd576129bd6129c4565b5060010190565b634e487b7160e01b600052601160045260246000fd5b634e487b7160e01b600052604160045260246000fdfe16f50c1fe196fa8f2d59c3eca367f2f7bf83b35c12ed36436b26d5af3695f5c4a2646970667358221220575b74a6a137499eda7b8516621acceda3fff1298d7c23400198b527859f435a64736f6c63430008040033",
  "devdoc": {
    "kind": "dev",
    "methods": {
      "getRoleAdmin(bytes32)": {
        "details": "Returns the admin role that controls `role`. See {grantRole} and {revokeRole}. To change a role's admin, use {_setRoleAdmin}."
      },
      "grantRole(bytes32,address)": {
        "details": "Grants `role` to `account`. If `account` had not been already granted `role`, emits a {RoleGranted} event. Requirements: - the caller must have ``role``'s admin role."
      },
      "hasRole(bytes32,address)": {
        "details": "Returns `true` if `account` has been granted `role`."
      },
      "owner()": {
        "details": "Returns the address of the current owner."
      },
      "renounceOwnership()": {
        "details": "Leaves the contract without owner. It will not be possible to call `onlyOwner` functions anymore. Can only be called by the current owner. NOTE: Renouncing ownership will leave the contract without an owner, thereby removing any functionality that is only available to the owner."
      },
      "renounceRole(bytes32,address)": {
        "details": "Revokes `role` from the calling account. Roles are often managed via {grantRole} and {revokeRole}: this function's purpose is to provide a mechanism for accounts to lose their privileges if they are compromised (such as when a trusted device is misplaced). If the calling account had been granted `role`, emits a {RoleRevoked} event. Requirements: - the caller must be `account`."
      },
      "revokeRole(bytes32,address)": {
        "details": "Revokes `role` from `account`. If `account` had been granted `role`, emits a {RoleRevoked} event. Requirements: - the caller must have ``role``'s admin role."
      },
      "supportsInterface(bytes4)": {
        "details": "See {IERC165-supportsInterface}."
      },
      "transferOwnership(address)": {
        "details": "Transfers ownership of the contract to a new account (`newOwner`). Can only be called by the current owner."
      }
    },
    "version": 1
  },
  "userdoc": {
    "kind": "user",
    "methods": {
      "approveToken(uint256)": {
        "notice": "User Approve selected token for the Funding Amount"
      },
      "castBallot(uint256,address[],string[])": {
        "notice": "Cast a ballot to an election"
      },
      "endElection(uint256)": {
        "notice": "End an Active Election"
      },
      "getElectionById(uint256)": {
        "notice": "Get election metadata by the ID  "
      },
      "newElection(string,uint256,address,uint256,address[])": {
        "notice": "Create a new election  "
      },
      "payoutElection(uint256,address[],uint256[])": {
        "notice": "Payout the election"
      }
    },
    "version": 1
  },
  "storageLayout": {
    "storage": [
      {
        "astId": 24,
        "contract": "contracts/Diplomacy.sol:Diplomacy",
        "label": "_roles",
        "offset": 0,
        "slot": "0",
        "type": "t_mapping(t_bytes32,t_struct(RoleData)19_storage)"
      },
      {
        "astId": 387,
        "contract": "contracts/Diplomacy.sol:Diplomacy",
        "label": "_owner",
        "offset": 0,
        "slot": "1",
        "type": "t_address"
      },
      {
        "astId": 494,
        "contract": "contracts/Diplomacy.sol:Diplomacy",
        "label": "_status",
        "offset": 0,
        "slot": "2",
        "type": "t_uint256"
      },
      {
        "astId": 2315,
        "contract": "contracts/Diplomacy.sol:Diplomacy",
        "label": "voted",
        "offset": 0,
        "slot": "3",
        "type": "t_mapping(t_uint256,t_mapping(t_address,t_bool))"
      },
      {
        "astId": 2322,
        "contract": "contracts/Diplomacy.sol:Diplomacy",
        "label": "scores",
        "offset": 0,
        "slot": "4",
        "type": "t_mapping(t_uint256,t_mapping(t_address,t_array(t_string_storage)dyn_storage))"
      },
      {
        "astId": 2327,
        "contract": "contracts/Diplomacy.sol:Diplomacy",
        "label": "elections",
        "offset": 0,
        "slot": "5",
        "type": "t_mapping(t_uint256,t_struct(Election)2309_storage)"
      },
      {
        "astId": 2480,
        "contract": "contracts/Diplomacy.sol:Diplomacy",
        "label": "numElections",
        "offset": 0,
        "slot": "6",
        "type": "t_uint256"
      }
    ],
    "types": {
      "t_address": {
        "encoding": "inplace",
        "label": "address",
        "numberOfBytes": "20"
      },
      "t_array(t_address)dyn_storage": {
        "base": "t_address",
        "encoding": "dynamic_array",
        "label": "address[]",
        "numberOfBytes": "32"
      },
      "t_array(t_string_storage)dyn_storage": {
        "base": "t_string_storage",
        "encoding": "dynamic_array",
        "label": "string[]",
        "numberOfBytes": "32"
      },
      "t_bool": {
        "encoding": "inplace",
        "label": "bool",
        "numberOfBytes": "1"
      },
      "t_bytes32": {
        "encoding": "inplace",
        "label": "bytes32",
        "numberOfBytes": "32"
      },
      "t_mapping(t_address,t_array(t_string_storage)dyn_storage)": {
        "encoding": "mapping",
        "key": "t_address",
        "label": "mapping(address => string[])",
        "numberOfBytes": "32",
        "value": "t_array(t_string_storage)dyn_storage"
      },
      "t_mapping(t_address,t_bool)": {
        "encoding": "mapping",
        "key": "t_address",
        "label": "mapping(address => bool)",
        "numberOfBytes": "32",
        "value": "t_bool"
      },
      "t_mapping(t_bytes32,t_struct(RoleData)19_storage)": {
        "encoding": "mapping",
        "key": "t_bytes32",
        "label": "mapping(bytes32 => struct AccessControl.RoleData)",
        "numberOfBytes": "32",
        "value": "t_struct(RoleData)19_storage"
      },
      "t_mapping(t_uint256,t_mapping(t_address,t_array(t_string_storage)dyn_storage))": {
        "encoding": "mapping",
        "key": "t_uint256",
        "label": "mapping(uint256 => mapping(address => string[]))",
        "numberOfBytes": "32",
        "value": "t_mapping(t_address,t_array(t_string_storage)dyn_storage)"
      },
      "t_mapping(t_uint256,t_mapping(t_address,t_bool))": {
        "encoding": "mapping",
        "key": "t_uint256",
        "label": "mapping(uint256 => mapping(address => bool))",
        "numberOfBytes": "32",
        "value": "t_mapping(t_address,t_bool)"
      },
      "t_mapping(t_uint256,t_struct(Election)2309_storage)": {
        "encoding": "mapping",
        "key": "t_uint256",
        "label": "mapping(uint256 => struct Diplomacy.Election)",
        "numberOfBytes": "32",
        "value": "t_struct(Election)2309_storage"
      },
      "t_string_storage": {
        "encoding": "bytes",
        "label": "string",
        "numberOfBytes": "32"
      },
      "t_struct(Election)2309_storage": {
        "encoding": "inplace",
        "label": "struct Diplomacy.Election",
        "members": [
          {
            "astId": 2291,
            "contract": "contracts/Diplomacy.sol:Diplomacy",
            "label": "name",
            "offset": 0,
            "slot": "0",
            "type": "t_string_storage"
          },
          {
            "astId": 2293,
            "contract": "contracts/Diplomacy.sol:Diplomacy",
            "label": "active",
            "offset": 0,
            "slot": "1",
            "type": "t_bool"
          },
          {
            "astId": 2295,
            "contract": "contracts/Diplomacy.sol:Diplomacy",
            "label": "paid",
            "offset": 1,
            "slot": "1",
            "type": "t_bool"
          },
          {
            "astId": 2297,
            "contract": "contracts/Diplomacy.sol:Diplomacy",
            "label": "createdAt",
            "offset": 0,
            "slot": "2",
            "type": "t_uint256"
          },
          {
            "astId": 2300,
            "contract": "contracts/Diplomacy.sol:Diplomacy",
            "label": "candidates",
            "offset": 0,
            "slot": "3",
            "type": "t_array(t_address)dyn_storage"
          },
          {
            "astId": 2302,
            "contract": "contracts/Diplomacy.sol:Diplomacy",
            "label": "funds",
            "offset": 0,
            "slot": "4",
            "type": "t_uint256"
          },
          {
            "astId": 2304,
            "contract": "contracts/Diplomacy.sol:Diplomacy",
            "label": "token",
            "offset": 0,
            "slot": "5",
            "type": "t_address"
          },
          {
            "astId": 2306,
            "contract": "contracts/Diplomacy.sol:Diplomacy",
            "label": "votes",
            "offset": 0,
            "slot": "6",
            "type": "t_uint256"
          },
          {
            "astId": 2308,
            "contract": "contracts/Diplomacy.sol:Diplomacy",
            "label": "admin",
            "offset": 0,
            "slot": "7",
            "type": "t_address"
          }
        ],
        "numberOfBytes": "256"
      },
      "t_struct(RoleData)19_storage": {
        "encoding": "inplace",
        "label": "struct AccessControl.RoleData",
        "members": [
          {
            "astId": 16,
            "contract": "contracts/Diplomacy.sol:Diplomacy",
            "label": "members",
            "offset": 0,
            "slot": "0",
            "type": "t_mapping(t_address,t_bool)"
          },
          {
            "astId": 18,
            "contract": "contracts/Diplomacy.sol:Diplomacy",
            "label": "adminRole",
            "offset": 0,
            "slot": "1",
            "type": "t_bytes32"
          }
        ],
        "numberOfBytes": "64"
      },
      "t_uint256": {
        "encoding": "inplace",
        "label": "uint256",
        "numberOfBytes": "32"
      }
    }
  }
}