{
  "address": "0xd2bF2D7b207a2265C84e9EA0957546A8FEe70f72",
  "abi": [
    {
      "inputs": [],
      "stateMutability": "nonpayable",
      "type": "constructor"
    },
    {
      "anonymous": false,
      "inputs": [
        {
          "indexed": false,
          "internalType": "address",
          "name": "voter",
          "type": "address"
        },
        {
          "indexed": false,
          "internalType": "uint256",
          "name": "electionId",
          "type": "uint256"
        },
        {
          "indexed": false,
          "internalType": "address[]",
          "name": "adrs",
          "type": "address[]"
        },
        {
          "indexed": false,
          "internalType": "string[]",
          "name": "scores",
          "type": "string[]"
        }
      ],
      "name": "BallotCast",
      "type": "event"
    },
    {
      "anonymous": false,
      "inputs": [
        {
          "indexed": false,
          "internalType": "address",
          "name": "creator",
          "type": "address"
        },
        {
          "indexed": false,
          "internalType": "uint256",
          "name": "electionId",
          "type": "uint256"
        }
      ],
      "name": "ElectionCreated",
      "type": "event"
    },
    {
      "anonymous": false,
      "inputs": [
        {
          "indexed": false,
          "internalType": "uint256",
          "name": "electionId",
          "type": "uint256"
        }
      ],
      "name": "ElectionEnded",
      "type": "event"
    },
    {
      "anonymous": false,
      "inputs": [
        {
          "indexed": false,
          "internalType": "uint256",
          "name": "electionId",
          "type": "uint256"
        }
      ],
      "name": "ElectionPaid",
      "type": "event"
    },
    {
      "anonymous": false,
      "inputs": [
        {
          "indexed": true,
          "internalType": "address",
          "name": "previousOwner",
          "type": "address"
        },
        {
          "indexed": true,
          "internalType": "address",
          "name": "newOwner",
          "type": "address"
        }
      ],
      "name": "OwnershipTransferred",
      "type": "event"
    },
    {
      "anonymous": false,
      "inputs": [
        {
          "indexed": true,
          "internalType": "bytes32",
          "name": "role",
          "type": "bytes32"
        },
        {
          "indexed": true,
          "internalType": "bytes32",
          "name": "previousAdminRole",
          "type": "bytes32"
        },
        {
          "indexed": true,
          "internalType": "bytes32",
          "name": "newAdminRole",
          "type": "bytes32"
        }
      ],
      "name": "RoleAdminChanged",
      "type": "event"
    },
    {
      "anonymous": false,
      "inputs": [
        {
          "indexed": true,
          "internalType": "bytes32",
          "name": "role",
          "type": "bytes32"
        },
        {
          "indexed": true,
          "internalType": "address",
          "name": "account",
          "type": "address"
        },
        {
          "indexed": true,
          "internalType": "address",
          "name": "sender",
          "type": "address"
        }
      ],
      "name": "RoleGranted",
      "type": "event"
    },
    {
      "anonymous": false,
      "inputs": [
        {
          "indexed": true,
          "internalType": "bytes32",
          "name": "role",
          "type": "bytes32"
        },
        {
          "indexed": true,
          "internalType": "address",
          "name": "account",
          "type": "address"
        },
        {
          "indexed": true,
          "internalType": "address",
          "name": "sender",
          "type": "address"
        }
      ],
      "name": "RoleRevoked",
      "type": "event"
    },
    {
      "stateMutability": "payable",
      "type": "fallback"
    },
    {
      "inputs": [],
      "name": "DEFAULT_ADMIN_ROLE",
      "outputs": [
        {
          "internalType": "bytes32",
          "name": "",
          "type": "bytes32"
        }
      ],
      "stateMutability": "view",
      "type": "function"
    },
    {
      "inputs": [
        {
          "internalType": "uint256",
          "name": "electionId",
          "type": "uint256"
        }
      ],
      "name": "approveToken",
      "outputs": [],
      "stateMutability": "nonpayable",
      "type": "function"
    },
    {
      "inputs": [
        {
          "internalType": "uint256",
          "name": "electionId",
          "type": "uint256"
        },
        {
          "internalType": "address",
          "name": "_sender",
          "type": "address"
        }
      ],
      "name": "canVote",
      "outputs": [
        {
          "internalType": "bool",
          "name": "status",
          "type": "bool"
        }
      ],
      "stateMutability": "view",
      "type": "function"
    },
    {
      "inputs": [
        {
          "internalType": "uint256",
          "name": "electionId",
          "type": "uint256"
        },
        {
          "internalType": "address[]",
          "name": "_adrs",
          "type": "address[]"
        },
        {
          "internalType": "string[]",
          "name": "_scores",
          "type": "string[]"
        }
      ],
      "name": "castBallot",
      "outputs": [],
      "stateMutability": "nonpayable",
      "type": "function"
    },
    {
      "inputs": [
        {
          "internalType": "uint256",
          "name": "",
          "type": "uint256"
        }
      ],
      "name": "elections",
      "outputs": [
        {
          "internalType": "string",
          "name": "name",
          "type": "string"
        },
        {
          "internalType": "bool",
          "name": "active",
          "type": "bool"
        },
        {
          "internalType": "bool",
          "name": "paid",
          "type": "bool"
        },
        {
          "internalType": "uint32",
          "name": "createdAt",
          "type": "uint32"
        },
        {
          "internalType": "uint256",
          "name": "funds",
          "type": "uint256"
        },
        {
          "internalType": "address",
          "name": "token",
          "type": "address"
        },
        {
          "internalType": "int8",
          "name": "votes",
          "type": "int8"
        },
        {
          "internalType": "address",
          "name": "admin",
          "type": "address"
        }
      ],
      "stateMutability": "view",
      "type": "function"
    },
    {
      "inputs": [
        {
          "internalType": "uint256",
          "name": "electionId",
          "type": "uint256"
        }
      ],
      "name": "endElection",
      "outputs": [],
      "stateMutability": "nonpayable",
      "type": "function"
    },
    {
      "inputs": [
        {
          "internalType": "uint256",
          "name": "electionId",
          "type": "uint256"
        }
      ],
      "name": "getElectionById",
      "outputs": [
        {
          "internalType": "string",
          "name": "name",
          "type": "string"
        },
        {
          "internalType": "address[]",
          "name": "candidates",
          "type": "address[]"
        },
        {
          "internalType": "uint256",
          "name": "n_addr",
          "type": "uint256"
        },
        {
          "internalType": "uint256",
          "name": "createdAt",
          "type": "uint256"
        },
        {
          "internalType": "uint256",
          "name": "funds",
          "type": "uint256"
        },
        {
          "internalType": "address",
          "name": "token",
          "type": "address"
        },
        {
          "internalType": "int8",
          "name": "votes",
          "type": "int8"
        },
        {
          "internalType": "address",
          "name": "admin",
          "type": "address"
        },
        {
          "internalType": "bool",
          "name": "isActive",
          "type": "bool"
        },
        {
          "internalType": "bool",
          "name": "paid",
          "type": "bool"
        }
      ],
      "stateMutability": "view",
      "type": "function"
    },
    {
      "inputs": [
        {
          "internalType": "uint256",
          "name": "electionId",
          "type": "uint256"
        },
        {
          "internalType": "address",
          "name": "_adr",
          "type": "address"
        }
      ],
      "name": "getElectionScores",
      "outputs": [
        {
          "internalType": "string[]",
          "name": "",
          "type": "string[]"
        }
      ],
      "stateMutability": "view",
      "type": "function"
    },
    {
      "inputs": [
        {
          "internalType": "uint256",
          "name": "electionId",
          "type": "uint256"
        }
      ],
      "name": "getElectionVoted",
      "outputs": [
        {
          "internalType": "uint256",
          "name": "count",
          "type": "uint256"
        }
      ],
      "stateMutability": "view",
      "type": "function"
    },
    {
      "inputs": [
        {
          "internalType": "bytes32",
          "name": "role",
          "type": "bytes32"
        }
      ],
      "name": "getRoleAdmin",
      "outputs": [
        {
          "internalType": "bytes32",
          "name": "",
          "type": "bytes32"
        }
      ],
      "stateMutability": "view",
      "type": "function"
    },
    {
      "inputs": [
        {
          "internalType": "bytes32",
          "name": "role",
          "type": "bytes32"
        },
        {
          "internalType": "address",
          "name": "account",
          "type": "address"
        }
      ],
      "name": "grantRole",
      "outputs": [],
      "stateMutability": "nonpayable",
      "type": "function"
    },
    {
      "inputs": [
        {
          "internalType": "bytes32",
          "name": "role",
          "type": "bytes32"
        },
        {
          "internalType": "address",
          "name": "account",
          "type": "address"
        }
      ],
      "name": "hasRole",
      "outputs": [
        {
          "internalType": "bool",
          "name": "",
          "type": "bool"
        }
      ],
      "stateMutability": "view",
      "type": "function"
    },
    {
      "inputs": [
        {
          "internalType": "uint256",
          "name": "electionId",
          "type": "uint256"
        },
        {
          "internalType": "address",
          "name": "_sender",
          "type": "address"
        }
      ],
      "name": "hasVoted",
      "outputs": [
        {
          "internalType": "bool",
          "name": "",
          "type": "bool"
        }
      ],
      "stateMutability": "view",
      "type": "function"
    },
    {
      "inputs": [
        {
          "internalType": "uint256",
          "name": "electionId",
          "type": "uint256"
        },
        {
          "internalType": "address",
          "name": "_sender",
          "type": "address"
        }
      ],
      "name": "isElectionAdmin",
      "outputs": [
        {
          "internalType": "bool",
          "name": "",
          "type": "bool"
        }
      ],
      "stateMutability": "view",
      "type": "function"
    },
    {
      "inputs": [
        {
          "internalType": "uint256",
          "name": "electionId",
          "type": "uint256"
        },
        {
          "internalType": "address",
          "name": "_sender",
          "type": "address"
        }
      ],
      "name": "isElectionCandidate",
      "outputs": [
        {
          "internalType": "bool",
          "name": "status",
          "type": "bool"
        }
      ],
      "stateMutability": "view",
      "type": "function"
    },
    {
      "inputs": [
        {
          "internalType": "string",
          "name": "_name",
          "type": "string"
        },
        {
          "internalType": "uint256",
          "name": "_funds",
          "type": "uint256"
        },
        {
          "internalType": "address",
          "name": "_token",
          "type": "address"
        },
        {
          "internalType": "int8",
          "name": "_votes",
          "type": "int8"
        },
        {
          "internalType": "address[]",
          "name": "_adrs",
          "type": "address[]"
        }
      ],
      "name": "newElection",
      "outputs": [
        {
          "internalType": "uint256",
          "name": "electionId",
          "type": "uint256"
        }
      ],
      "stateMutability": "nonpayable",
      "type": "function"
    },
    {
      "inputs": [],
      "name": "numElections",
      "outputs": [
        {
          "internalType": "uint256",
          "name": "",
          "type": "uint256"
        }
      ],
      "stateMutability": "view",
      "type": "function"
    },
    {
      "inputs": [],
      "name": "owner",
      "outputs": [
        {
          "internalType": "address",
          "name": "",
          "type": "address"
        }
      ],
      "stateMutability": "view",
      "type": "function"
    },
    {
      "inputs": [
        {
          "internalType": "uint256",
          "name": "electionId",
          "type": "uint256"
        },
        {
          "internalType": "address[]",
          "name": "_adrs",
          "type": "address[]"
        },
        {
          "internalType": "uint256[]",
          "name": "_pay",
          "type": "uint256[]"
        }
      ],
      "name": "payoutElection",
      "outputs": [],
      "stateMutability": "payable",
      "type": "function"
    },
    {
      "inputs": [],
      "name": "renounceOwnership",
      "outputs": [],
      "stateMutability": "nonpayable",
      "type": "function"
    },
    {
      "inputs": [
        {
          "internalType": "bytes32",
          "name": "role",
          "type": "bytes32"
        },
        {
          "internalType": "address",
          "name": "account",
          "type": "address"
        }
      ],
      "name": "renounceRole",
      "outputs": [],
      "stateMutability": "nonpayable",
      "type": "function"
    },
    {
      "inputs": [
        {
          "internalType": "bytes32",
          "name": "role",
          "type": "bytes32"
        },
        {
          "internalType": "address",
          "name": "account",
          "type": "address"
        }
      ],
      "name": "revokeRole",
      "outputs": [],
      "stateMutability": "nonpayable",
      "type": "function"
    },
    {
      "inputs": [
        {
          "internalType": "uint256",
          "name": "",
          "type": "uint256"
        },
        {
          "internalType": "address",
          "name": "",
          "type": "address"
        },
        {
          "internalType": "uint256",
          "name": "",
          "type": "uint256"
        }
      ],
      "name": "scores",
      "outputs": [
        {
          "internalType": "string",
          "name": "",
          "type": "string"
        }
      ],
      "stateMutability": "view",
      "type": "function"
    },
    {
      "inputs": [
        {
          "internalType": "bytes4",
          "name": "interfaceId",
          "type": "bytes4"
        }
      ],
      "name": "supportsInterface",
      "outputs": [
        {
          "internalType": "bool",
          "name": "",
          "type": "bool"
        }
      ],
      "stateMutability": "view",
      "type": "function"
    },
    {
      "inputs": [
        {
          "internalType": "address",
          "name": "newOwner",
          "type": "address"
        }
      ],
      "name": "transferOwnership",
      "outputs": [],
      "stateMutability": "nonpayable",
      "type": "function"
    },
    {
      "inputs": [
        {
          "internalType": "uint256",
          "name": "",
          "type": "uint256"
        },
        {
          "internalType": "address",
          "name": "",
          "type": "address"
        }
      ],
      "name": "voted",
      "outputs": [
        {
          "internalType": "bool",
          "name": "",
          "type": "bool"
        }
      ],
      "stateMutability": "view",
      "type": "function"
    },
    {
      "stateMutability": "payable",
      "type": "receive"
    }
  ],
  "transactionHash": "0x62b07c9b05bd2fa5f1ca65df5d9b7d487a6042f65c9d2ae489b8164d16bb4f29",
  "args": [],
  "solcInputHash": "9c313231d0552c52847d2dfb9c7184a6",
  "bytecode": "0x60806040523480156200001157600080fd5b506200001d3362000035565b60016002556200002f60003362000087565b62000137565b600180546001600160a01b038381166001600160a01b0319831681179093556040519116919082907f8be0079c531659141344cd1fd0a4f28419497f9722a3daafe3b4186f6b6457e090600090a35050565b62000093828262000097565b5050565b6000828152602081815260408083206001600160a01b038516845290915290205460ff1662000093576000828152602081815260408083206001600160a01b03851684529091529020805460ff19166001179055620000f33390565b6001600160a01b0316816001600160a01b0316837f2f8788117e7eff1d82e926ec794901d17c78024a50270940304540a733656f0d60405160405180910390a45050565b612ced80620001476000396000f3fe6080604052600436106101735760003560e01c8063715018a6116100c8578063b082c38511610084578063cdb2867b11610061578063cdb2867b146104f0578063d547741f14610510578063ea3c6cde14610530578063f2fde38b1461055057005b8063b082c3851461046d578063b8ecddc61461049a578063c6958b12146104ba57005b8063715018a61461039a5780638da5cb5b146103af57806391b84f16146103d757806391d14854146104185780639c98bcbb14610438578063a217fddf1461045857005b80633ac9fc111161012f5780635277b4ae1161010c5780635277b4ae146102f557806352e968ad146103305780635e6fef01146103505780636e38d9bd1461038457005b80633ac9fc111461026f578063438596321461028f5780634548e52b146102d557005b806301ffc9a71461017c57806308108288146101b15780630ece86d0146101de578063248a9ca3146101f15780632f2ff15d1461022f57806336568abe1461024f57005b3661017a57005b005b34801561018857600080fd5b5061019c6101973660046125de565b610570565b60405190151581526020015b60405180910390f35b3480156101bd57600080fd5b506101d16101cc36600461269a565b6105a7565b6040516101a89190612a10565b61017a6101ec3660046127bf565b61069e565b3480156101fd57600080fd5b5061022161020c36600461259b565b60009081526020819052604090206001015490565b6040519081526020016101a8565b34801561023b57600080fd5b5061017a61024a3660046125b3565b6108cf565b34801561025b57600080fd5b5061017a61026a3660046125b3565b6108fa565b34801561027b57600080fd5b5061017a61028a36600461259b565b610978565b34801561029b57600080fd5b5061019c6102aa36600461269a565b60009182526003602090815260408084206001600160a01b0393909316845291905290205460ff1690565b3480156102e157600080fd5b5061017a6102f03660046126e0565b610a15565b34801561030157600080fd5b5061019c61031036600461269a565b600360209081526000928352604080842090915290825290205460ff1681565b34801561033c57600080fd5b5061022161034b36600461259b565b610df4565b34801561035c57600080fd5b5061037061036b36600461259b565b610ea3565b6040516101a8989796959493929190612ab2565b34801561039057600080fd5b5061022160065481565b3480156103a657600080fd5b5061017a610f8b565b3480156103bb57600080fd5b506001546040516001600160a01b0390911681526020016101a8565b3480156103e357600080fd5b5061019c6103f236600461269a565b6000918252600560208190526040909220909101546001600160a01b0390811691161490565b34801561042457600080fd5b5061019c6104333660046125b3565b610ff1565b34801561044457600080fd5b5061017a61045336600461259b565b61101a565b34801561046457600080fd5b50610221600081565b34801561047957600080fd5b5061048d6104883660046126ac565b6111b4565b6040516101a89190612a23565b3480156104a657600080fd5b506102216104b5366004612606565b61127a565b3480156104c657600080fd5b506104da6104d536600461259b565b611301565b6040516101a89a99989796959493929190612a36565b3480156104fc57600080fd5b5061019c61050b36600461269a565b61155d565b34801561051c57600080fd5b5061017a61052b3660046125b3565b6115ec565b34801561053c57600080fd5b5061019c61054b36600461269a565b611612565b34801561055c57600080fd5b5061017a61056b366004612561565b61169a565b60006001600160e01b03198216637965db0b60e01b14806105a157506301ffc9a760e01b6001600160e01b03198316145b92915050565b60008281526004602090815260408083206001600160a01b03851684528252808320805482518185028101850190935280835260609492939192909184015b8282101561069257838290600052602060002001805461060590612c1b565b80601f016020809104026020016040519081016040528092919081815260200182805461063190612c1b565b801561067e5780601f106106535761010080835404028352916020019161067e565b820191906000526020600020905b81548152906001019060200180831161066157829003601f168201915b5050505050815260200190600101906105e6565b50505050905092915050565b826106b7600080516020612c9883398151915233610ff1565b6106dc5760405162461bcd60e51b81526004016106d390612b15565b60405180910390fd5b600081815260056020819052604090912001546001600160a01b031633146107165760405162461bcd60e51b81526004016106d390612b15565b6002805414156107685760405162461bcd60e51b815260206004820152601f60248201527f5265656e7472616e637947756172643a207265656e7472616e742063616c6c0060448201526064016106d3565b6002805560008481526005602052604090206001015460ff16156107c75760405162461bcd60e51b8152602060048201526016602482015275456c656374696f6e205374696c6c204163746976652160501b60448201526064016106d3565b600084815260056020526040902060010154610100900460ff161561082e5760405162461bcd60e51b815260206004820152601a60248201527f456c656374696f6e20416c726561647920506169642d6f75742100000000000060448201526064016106d3565b6000848152600560205260408120600401546001600160a01b031661085f57610858858585611765565b905061086d565b61086a858585611a60565b90505b600085815260056020908152604091829020600101805461ff0019166101008515150217905590518681527fb27761a3b9064636a27795816e4f8a8e5cadd6ac8b1e3a553bd47bf414c2b402910160405180910390a150506001600255505050565b6000828152602081905260409020600101546108eb8133611b18565b6108f58383611b7c565b505050565b6001600160a01b038116331461096a5760405162461bcd60e51b815260206004820152602f60248201527f416363657373436f6e74726f6c3a2063616e206f6e6c792072656e6f756e636560448201526e103937b632b9903337b91039b2b63360891b60648201526084016106d3565b6109748282611c00565b5050565b60008181526005602052604090819020600480820154600390920154925163095ea7b360e01b8152309181019190915260248101929092526001600160a01b03169063095ea7b390604401602060405180830381600087803b1580156109dd57600080fd5b505af11580156109f1573d6000803e3d6000fd5b505050506040513d601f19601f82011682018060405250810190610974919061257b565b82610a407f9096faa56698daa37ec8d3542ff829c66d5e81213bd6faab8ba4e9ce824a5def33610ff1565b610a8c5760405162461bcd60e51b815260206004820152601e60248201527f53656e646572206e6f7420456c656374696f6e2043616e64696461746521000060448201526064016106d3565b610a968133611612565b610ae25760405162461bcd60e51b815260206004820152601e60248201527f53656e646572206e6f7420456c656374696f6e2043616e64696461746521000060448201526064016106d3565b60008481526005602052604090206001015484908490849060ff16610b405760405162461bcd60e51b8152602060048201526014602482015273456c656374696f6e204e6f74204163746976652160601b60448201526064016106d3565b600083815260056020526040902060010154610100900460ff1615610ba75760405162461bcd60e51b815260206004820152601d60248201527f456c656374696f6e20697320616c726561647920706169642d6f75742100000060448201526064016106d3565b600083815260036020908152604080832033845290915290205460ff1615610c095760405162461bcd60e51b815260206004820152601560248201527453656e64657220616c726561647920766f7465642160581b60448201526064016106d3565b8151815114610c5a5760405162461bcd60e51b815260206004820152601a60248201527f53636f726573202d2041646472657373204d69736d617463682100000000000060448201526064016106d3565b600083815260056020526040902060020154825114610cbb5760405162461bcd60e51b815260206004820152601d60248201527f41646472657373202d2043616e646964617465204d69736d617463682100000060448201526064016106d3565b60005b8651811015610d8957600460008981526020019081526020016000206000888381518110610cfc57634e487b7160e01b600052603260045260246000fd5b60200260200101516001600160a01b03166001600160a01b03168152602001908152602001600020868281518110610d4457634e487b7160e01b600052603260045260246000fd5b60209081029190910181015182546001810184556000938452928290208151610d769491909101929190910190612376565b5080610d8181612c50565b915050610cbe565b50600087815260036020908152604080832033808552925291829020805460ff1916600117905590517faaf8175507b94c84621088891ecf31ca1c2548c0aeab2f2f21d3459515f9c4ed91610de3918a908a908a906129d7565b60405180910390a150505050505050565b6000805b600083815260056020526040902060020154811015610e9d576000838152600560205260408120600201805483908110610e4257634e487b7160e01b600052603260045260246000fd5b60009182526020808320909101548683526003825260408084206001600160a01b039092168085529190925291205490915060ff1615610e8a5782610e8681612c50565b9350505b5080610e9581612c50565b915050610df8565b50919050565b600560205260009081526040902080548190610ebe90612c1b565b80601f0160208091040260200160405190810160405280929190818152602001828054610eea90612c1b565b8015610f375780601f10610f0c57610100808354040283529160200191610f37565b820191906000526020600020905b815481529060010190602001808311610f1a57829003601f168201915b50505050600183015460038401546004850154600590950154939460ff80841695610100850490911694506201000090930463ffffffff16926001600160a01b0380831692600160a01b900460000b911688565b6001546001600160a01b03163314610fe55760405162461bcd60e51b815260206004820181905260248201527f4f776e61626c653a2063616c6c6572206973206e6f7420746865206f776e657260448201526064016106d3565b610fef6000611c65565b565b6000918252602082815260408084206001600160a01b0393909316845291905290205460ff1690565b80611033600080516020612c9883398151915233610ff1565b61104f5760405162461bcd60e51b81526004016106d390612b15565b600081815260056020819052604090912001546001600160a01b031633146110895760405162461bcd60e51b81526004016106d390612b15565b60008281526005602052604090206001015460ff166110ea5760405162461bcd60e51b815260206004820152601760248201527f456c656374696f6e20416c726561647920456e6465642100000000000000000060448201526064016106d3565b600082815260056020526040902060010154610100900460ff161561115d5760405162461bcd60e51b815260206004820152602360248201527f456c656374696f6e2068617320616c7265616479206265656e2070616964206f60448201526275742160e81b60648201526084016106d3565b60008281526005602052604090819020600101805460ff19169055517f562cd572b2ba3b666cd989fc4ca98419ec81e75f04528df9d9d76fdb7807ee71906111a89084815260200190565b60405180910390a15050565b600460205282600052604060002060205281600052604060002081815481106111dc57600080fd5b90600052602060002001600092509250505080546111f990612c1b565b80601f016020809104026020016040519081016040528092919081815260200182805461122590612c1b565b80156112725780601f1061124757610100808354040283529160200191611272565b820191906000526020600020905b81548152906001019060200180831161125557829003601f168201915b505050505081565b60006001600160a01b03841661129d5761129686868585611cb7565b90506112ad565b6112aa8686868686611d71565b90505b6112b682611e59565b6112bf33611ec8565b60408051338152602081018390527fc91fe4766a7a928d6625f66818425dc115b03c854a8ed8d28de2f34a684e0f1a910160405180910390a195945050505050565b606080600080600080600080600080600560008c8152602001908152602001600020600001805461133190612c1b565b80601f016020809104026020016040519081016040528092919081815260200182805461135d90612c1b565b80156113aa5780601f1061137f576101008083540402835291602001916113aa565b820191906000526020600020905b81548152906001019060200180831161138d57829003601f168201915b50505050509950600560008c815260200190815260200160002060020180548060200260200160405190810160405280929190818152602001828054801561141b57602002820191906000526020600020905b81546001600160a01b031681526001909101906020018083116113fd575b50505050509850600560008c8152602001908152602001600020600201805490509750600560008c815260200190815260200160002060010160029054906101000a900463ffffffff1663ffffffff169650600560008c8152602001908152602001600020600301549550600560008c815260200190815260200160002060040160009054906101000a90046001600160a01b03169450600560008c815260200190815260200160002060040160149054906101000a900460000b9350600560008c815260200190815260200160002060050160009054906101000a90046001600160a01b03169250600560008c815260200190815260200160002060010160009054906101000a900460ff169150600560008c815260200190815260200160002060010160019054906101000a900460ff1690509193959799509193959799565b6000805b6000848152600560205260409020600201548110156115e55760008481526005602052604081206002018054839081106115ab57634e487b7160e01b600052603260045260246000fd5b6000918252602090912001546001600160a01b03908116915084168114156115d257600192505b50806115dd81612c50565b915050611561565b5092915050565b6000828152602081905260409020600101546116088133611b18565b6108f58383611c00565b6000805b6000848152600560205260409020600201548110156115e557600084815260056020526040902060020180548290811061166057634e487b7160e01b600052603260045260246000fd5b6000918252602090912001546001600160a01b038481169116141561168857600191506115e5565b8061169281612c50565b915050611616565b6001546001600160a01b031633146116f45760405162461bcd60e51b815260206004820181905260248201527f4f776e61626c653a2063616c6c6572206973206e6f7420746865206f776e657260448201526064016106d3565b6001600160a01b0381166117595760405162461bcd60e51b815260206004820152602660248201527f4f776e61626c653a206e6577206f776e657220697320746865207a65726f206160448201526564647265737360d01b60648201526084016106d3565b61176281611c65565b50565b600083611780600080516020612c9883398151915233610ff1565b61179c5760405162461bcd60e51b81526004016106d390612b15565b600081815260056020819052604090912001546001600160a01b031633146117d65760405162461bcd60e51b81526004016106d390612b15565b6000805b6000878152600560205260409020600201548110156119025785818151811061181357634e487b7160e01b600052603260045260246000fd5b60200260200101516001600160a01b031660056000898152602001908152602001600020600201828154811061185957634e487b7160e01b600052603260045260246000fd5b6000918252602090912001546001600160a01b0316146118bb5760405162461bcd60e51b815260206004820152601a60248201527f456c656374696f6e2d41646472657373204d69736d617463682100000000000060448201526064016106d3565b8481815181106118db57634e487b7160e01b600052603260045260246000fd5b6020026020010151826118ee9190612ba1565b9150806118fa81612c50565b9150506117da565b508034101561194c5760405162461bcd60e51b81526020600482015260166024820152754e6f7420656e6f7567682076616c75652073656e742160501b60448201526064016106d3565b60005b8451811015611a5357600086828151811061197a57634e487b7160e01b600052603260045260246000fd5b60200260200101516001600160a01b03168683815181106119ab57634e487b7160e01b600052603260045260246000fd5b602002602001015160405160006040518083038185875af1925050503d80600081146119f3576040519150601f19603f3d011682016040523d82523d6000602084013e6119f8565b606091505b5050905080611a405760405162461bcd60e51b81526020600482015260146024820152732330b4b632b2103a379039b2b7321022ba3432b960611b60448201526064016106d3565b5080611a4b81612c50565b91505061194f565b5060019695505050505050565b6000805b600085815260056020526040902060020154811015611b0b57611af933858381518110611aa157634e487b7160e01b600052603260045260246000fd5b6020026020010151858481518110611ac957634e487b7160e01b600052603260045260246000fd5b60209081029190910181015160008a815260059092526040909120600401546001600160a01b0316929190611ee0565b80611b0381612c50565b915050611a64565b50600190505b9392505050565b611b228282610ff1565b61097457611b3a816001600160a01b03166014611f40565b611b45836020611f40565b604051602001611b56929190612962565b60408051601f198184030181529082905262461bcd60e51b82526106d391600401612a23565b611b868282610ff1565b610974576000828152602081815260408083206001600160a01b03851684529091529020805460ff19166001179055611bbc3390565b6001600160a01b0316816001600160a01b0316837f2f8788117e7eff1d82e926ec794901d17c78024a50270940304540a733656f0d60405160405180910390a45050565b611c0a8282610ff1565b15610974576000828152602081815260408083206001600160a01b0385168085529252808320805460ff1916905551339285917ff6391f5c32d9c69d2a47ea670b442974b53935d1edc7fd64eb21e047a839171b9190a45050565b600180546001600160a01b038381166001600160a01b0319831681179093556040519116919082907f8be0079c531659141344cd1fd0a4f28419497f9722a3daafe3b4186f6b6457e090600090a35050565b6006805460009182611cc883612c50565b909155506000818152600560209081526040909120875192935091611cf291839190890190612376565b506003810185905560048101805460ff60a01b1916600160a01b60ff600088900b16021790558251611d2d90600283019060208601906123fa565b506001808201805460ff1963ffffffff421662010000021665ffffffff00ff1990911617909117905560050180546001600160a01b03191633179055949350505050565b6006805460009182611d8283612c50565b9091555060008181526005602090815260409091208851929350611daa929091890190612376565b5060008181526005602090815260408220600381018890556004810180549387900b60ff16600160a01b026001600160a81b03199094166001600160a01b03891617939093179092558351611e0592600201918501906123fa565b5060008181526005602081905260409091206001808201805460ff1963ffffffff421662010000021665ffffffff00ff199091161790911790550180546001600160a01b0319163317905595945050505050565b60005b815181101561097457611eb67f9096faa56698daa37ec8d3542ff829c66d5e81213bd6faab8ba4e9ce824a5def838381518110611ea957634e487b7160e01b600052603260045260246000fd5b6020026020010151612122565b80611ec081612c50565b915050611e5c565b611762600080516020612c9883398151915282612122565b604080516001600160a01b0385811660248301528416604482015260648082018490528251808303909101815260849091019091526020810180516001600160e01b03166323b872dd60e01b179052611f3a90859061212c565b50505050565b60606000611f4f836002612bb9565b611f5a906002612ba1565b67ffffffffffffffff811115611f8057634e487b7160e01b600052604160045260246000fd5b6040519080825280601f01601f191660200182016040528015611faa576020820181803683370190505b509050600360fc1b81600081518110611fd357634e487b7160e01b600052603260045260246000fd5b60200101906001600160f81b031916908160001a905350600f60fb1b8160018151811061201057634e487b7160e01b600052603260045260246000fd5b60200101906001600160f81b031916908160001a9053506000612034846002612bb9565b61203f906001612ba1565b90505b60018111156120d3576f181899199a1a9b1b9c1cb0b131b232b360811b85600f166010811061208157634e487b7160e01b600052603260045260246000fd5b1a60f81b8282815181106120a557634e487b7160e01b600052603260045260246000fd5b60200101906001600160f81b031916908160001a90535060049490941c936120cc81612c04565b9050612042565b508315611b115760405162461bcd60e51b815260206004820181905260248201527f537472696e67733a20686578206c656e67746820696e73756666696369656e7460448201526064016106d3565b6109748282611b7c565b6000612181826040518060400160405280602081526020017f5361666545524332303a206c6f772d6c6576656c2063616c6c206661696c6564815250856001600160a01b03166121fe9092919063ffffffff16565b8051909150156108f5578080602001905181019061219f919061257b565b6108f55760405162461bcd60e51b815260206004820152602a60248201527f5361666545524332303a204552433230206f7065726174696f6e20646964206e6044820152691bdd081cdd58d8d9595960b21b60648201526084016106d3565b606061220d8484600085612215565b949350505050565b6060824710156122765760405162461bcd60e51b815260206004820152602660248201527f416464726573733a20696e73756666696369656e742062616c616e636520666f6044820152651c8818d85b1b60d21b60648201526084016106d3565b843b6122c45760405162461bcd60e51b815260206004820152601d60248201527f416464726573733a2063616c6c20746f206e6f6e2d636f6e747261637400000060448201526064016106d3565b600080866001600160a01b031685876040516122e09190612946565b60006040518083038185875af1925050503d806000811461231d576040519150601f19603f3d011682016040523d82523d6000602084013e612322565b606091505b509150915061233282828661233d565b979650505050505050565b6060831561234c575081611b11565b82511561235c5782518084602001fd5b8160405162461bcd60e51b81526004016106d39190612a23565b82805461238290612c1b565b90600052602060002090601f0160209004810192826123a457600085556123ea565b82601f106123bd57805160ff19168380011785556123ea565b828001600101855582156123ea579182015b828111156123ea5782518255916020019190600101906123cf565b506123f692915061244f565b5090565b8280548282559060005260206000209081019282156123ea579160200282015b828111156123ea57825182546001600160a01b0319166001600160a01b0390911617825560209092019160019091019061241a565b5b808211156123f65760008155600101612450565b80356001600160a01b038116811461247b57600080fd5b919050565b600082601f830112612490578081fd5b813560206124a56124a083612b7d565b612b4c565b80838252828201915082860187848660051b89010111156124c4578586fd5b855b858110156124e9576124d782612464565b845292840192908401906001016124c6565b5090979650505050505050565b600082601f830112612506578081fd5b813567ffffffffffffffff81111561252057612520612c81565b612533601f8201601f1916602001612b4c565b818152846020838601011115612547578283fd5b816020850160208301379081016020019190915292915050565b600060208284031215612572578081fd5b611b1182612464565b60006020828403121561258c578081fd5b81518015158114611b11578182fd5b6000602082840312156125ac578081fd5b5035919050565b600080604083850312156125c5578081fd5b823591506125d560208401612464565b90509250929050565b6000602082840312156125ef578081fd5b81356001600160e01b031981168114611b11578182fd5b600080600080600060a0868803121561261d578081fd5b853567ffffffffffffffff80821115612634578283fd5b61264089838a016124f6565b96506020880135955061265560408901612464565b94506060880135915081830b821461266b578283fd5b90925060808701359080821115612680578283fd5b5061268d88828901612480565b9150509295509295909350565b600080604083850312156125c5578182fd5b6000806000606084860312156126c0578283fd5b833592506126d060208501612464565b9150604084013590509250925092565b6000806000606084860312156126f4578081fd5b8335925060208085013567ffffffffffffffff80821115612713578384fd5b61271f88838901612480565b94506040870135915080821115612734578384fd5b818701915087601f830112612747578384fd5b81356127556124a082612b7d565b8082825285820191508585018b878560051b8801011115612774578788fd5b875b848110156127ad5781358681111561278c57898afd5b61279a8e8a838b01016124f6565b8552509287019290870190600101612776565b50508096505050505050509250925092565b6000806000606084860312156127d3578081fd5b8335925060208085013567ffffffffffffffff808211156127f2578384fd5b6127fe88838901612480565b94506040870135915080821115612813578384fd5b508501601f81018713612824578283fd5b80356128326124a082612b7d565b8082825284820191508484018a868560051b8701011115612851578687fd5b8694505b83851015612873578035835260019490940193918501918501612855565b5080955050505050509250925092565b6000815180845260208085019450808401835b838110156128bb5781516001600160a01b031687529582019590820190600101612896565b509495945050505050565b600081518084526020808501808196508360051b81019150828601855b8581101561290d5782840389526128fb84835161291a565b988501989350908401906001016128e3565b5091979650505050505050565b60008151808452612932816020860160208601612bd8565b601f01601f19169290920160200192915050565b60008251612958818460208701612bd8565b9190910192915050565b7f416363657373436f6e74726f6c3a206163636f756e742000000000000000000081526000835161299a816017850160208801612bd8565b7001034b99036b4b9b9b4b733903937b6329607d1b60179184019182015283516129cb816028840160208801612bd8565b01602801949350505050565b60018060a01b03851681528360208201526080604082015260006129fe6080830185612883565b828103606084015261233281856128c6565b602081526000611b1160208301846128c6565b602081526000611b11602083018461291a565b6000610140808352612a4a8184018e61291a565b90508281036020840152612a5e818d612883565b604084019b909b525050606081019790975260808701959095526001600160a01b0393841660a087015260009290920b60c086015290911660e0840152151561010083015215156101209091015292915050565b6000610100808352612ac68184018c61291a565b99151560208401525050951515604087015263ffffffff94909416606086015260808501929092526001600160a01b0390811660a085015260009190910b60c08401521660e090910152919050565b6020808252601a908201527f53656e646572206e6f7420456c656374696f6e2041646d696e21000000000000604082015260600190565b604051601f8201601f1916810167ffffffffffffffff81118282101715612b7557612b75612c81565b604052919050565b600067ffffffffffffffff821115612b9757612b97612c81565b5060051b60200190565b60008219821115612bb457612bb4612c6b565b500190565b6000816000190483118215151615612bd357612bd3612c6b565b500290565b60005b83811015612bf3578181015183820152602001612bdb565b83811115611f3a5750506000910152565b600081612c1357612c13612c6b565b506000190190565b600181811c90821680612c2f57607f821691505b60208210811415610e9d57634e487b7160e01b600052602260045260246000fd5b6000600019821415612c6457612c64612c6b565b5060010190565b634e487b7160e01b600052601160045260246000fd5b634e487b7160e01b600052604160045260246000fdfe16f50c1fe196fa8f2d59c3eca367f2f7bf83b35c12ed36436b26d5af3695f5c4a264697066735822122041657649400f9f157579f6026556b2ad82a19ae7af6090dbeba493b600daaa6664736f6c63430008040033",
  "devdoc": {
    "kind": "dev",
    "methods": {
      "getRoleAdmin(bytes32)": {
        "details": "Returns the admin role that controls `role`. See {grantRole} and {revokeRole}. To change a role's admin, use {_setRoleAdmin}."
      },
      "grantRole(bytes32,address)": {
        "details": "Grants `role` to `account`. If `account` had not been already granted `role`, emits a {RoleGranted} event. Requirements: - the caller must have ``role``'s admin role."
      },
      "hasRole(bytes32,address)": {
        "details": "Returns `true` if `account` has been granted `role`."
      },
      "owner()": {
        "details": "Returns the address of the current owner."
      },
      "renounceOwnership()": {
        "details": "Leaves the contract without owner. It will not be possible to call `onlyOwner` functions anymore. Can only be called by the current owner. NOTE: Renouncing ownership will leave the contract without an owner, thereby removing any functionality that is only available to the owner."
      },
      "renounceRole(bytes32,address)": {
        "details": "Revokes `role` from the calling account. Roles are often managed via {grantRole} and {revokeRole}: this function's purpose is to provide a mechanism for accounts to lose their privileges if they are compromised (such as when a trusted device is misplaced). If the calling account had been granted `role`, emits a {RoleRevoked} event. Requirements: - the caller must be `account`."
      },
      "revokeRole(bytes32,address)": {
        "details": "Revokes `role` from `account`. If `account` had been granted `role`, emits a {RoleRevoked} event. Requirements: - the caller must have ``role``'s admin role."
      },
      "supportsInterface(bytes4)": {
        "details": "See {IERC165-supportsInterface}."
      },
      "transferOwnership(address)": {
        "details": "Transfers ownership of the contract to a new account (`newOwner`). Can only be called by the current owner."
      }
    },
    "version": 1
  },
  "userdoc": {
    "kind": "user",
    "methods": {
      "approveToken(uint256)": {
        "notice": "User Approve selected token for the Funding Amount"
      },
      "castBallot(uint256,address[],string[])": {
        "notice": "Cast a ballot to an election"
      },
      "endElection(uint256)": {
        "notice": "End an Active Election"
      },
      "getElectionById(uint256)": {
        "notice": "Get election metadata by the ID  "
      },
      "newElection(string,uint256,address,int8,address[])": {
        "notice": "Create a new election  "
      },
      "payoutElection(uint256,address[],uint256[])": {
        "notice": "Payout the election"
      }
    },
    "version": 1
  },
  "storageLayout": {
    "storage": [
      {
        "astId": 24,
        "contract": "contracts/Diplomacy.sol:Diplomacy",
        "label": "_roles",
        "offset": 0,
        "slot": "0",
        "type": "t_mapping(t_bytes32,t_struct(RoleData)19_storage)"
      },
      {
        "astId": 387,
        "contract": "contracts/Diplomacy.sol:Diplomacy",
        "label": "_owner",
        "offset": 0,
        "slot": "1",
        "type": "t_address"
      },
      {
        "astId": 494,
        "contract": "contracts/Diplomacy.sol:Diplomacy",
        "label": "_status",
        "offset": 0,
        "slot": "2",
        "type": "t_uint256"
      },
      {
        "astId": 1999,
        "contract": "contracts/Diplomacy.sol:Diplomacy",
        "label": "voted",
        "offset": 0,
        "slot": "3",
        "type": "t_mapping(t_uint256,t_mapping(t_address,t_bool))"
      },
      {
        "astId": 2006,
        "contract": "contracts/Diplomacy.sol:Diplomacy",
        "label": "scores",
        "offset": 0,
        "slot": "4",
        "type": "t_mapping(t_uint256,t_mapping(t_address,t_array(t_string_storage)dyn_storage))"
      },
      {
        "astId": 2011,
        "contract": "contracts/Diplomacy.sol:Diplomacy",
        "label": "elections",
        "offset": 0,
        "slot": "5",
        "type": "t_mapping(t_uint256,t_struct(Election)1993_storage)"
      },
      {
        "astId": 2185,
        "contract": "contracts/Diplomacy.sol:Diplomacy",
        "label": "numElections",
        "offset": 0,
        "slot": "6",
        "type": "t_uint256"
      }
    ],
    "types": {
      "t_address": {
        "encoding": "inplace",
        "label": "address",
        "numberOfBytes": "20"
      },
      "t_array(t_address)dyn_storage": {
        "base": "t_address",
        "encoding": "dynamic_array",
        "label": "address[]",
        "numberOfBytes": "32"
      },
      "t_array(t_string_storage)dyn_storage": {
        "base": "t_string_storage",
        "encoding": "dynamic_array",
        "label": "string[]",
        "numberOfBytes": "32"
      },
      "t_bool": {
        "encoding": "inplace",
        "label": "bool",
        "numberOfBytes": "1"
      },
      "t_bytes32": {
        "encoding": "inplace",
        "label": "bytes32",
        "numberOfBytes": "32"
      },
      "t_int8": {
        "encoding": "inplace",
        "label": "int8",
        "numberOfBytes": "1"
      },
      "t_mapping(t_address,t_array(t_string_storage)dyn_storage)": {
        "encoding": "mapping",
        "key": "t_address",
        "label": "mapping(address => string[])",
        "numberOfBytes": "32",
        "value": "t_array(t_string_storage)dyn_storage"
      },
      "t_mapping(t_address,t_bool)": {
        "encoding": "mapping",
        "key": "t_address",
        "label": "mapping(address => bool)",
        "numberOfBytes": "32",
        "value": "t_bool"
      },
      "t_mapping(t_bytes32,t_struct(RoleData)19_storage)": {
        "encoding": "mapping",
        "key": "t_bytes32",
        "label": "mapping(bytes32 => struct AccessControl.RoleData)",
        "numberOfBytes": "32",
        "value": "t_struct(RoleData)19_storage"
      },
      "t_mapping(t_uint256,t_mapping(t_address,t_array(t_string_storage)dyn_storage))": {
        "encoding": "mapping",
        "key": "t_uint256",
        "label": "mapping(uint256 => mapping(address => string[]))",
        "numberOfBytes": "32",
        "value": "t_mapping(t_address,t_array(t_string_storage)dyn_storage)"
      },
      "t_mapping(t_uint256,t_mapping(t_address,t_bool))": {
        "encoding": "mapping",
        "key": "t_uint256",
        "label": "mapping(uint256 => mapping(address => bool))",
        "numberOfBytes": "32",
        "value": "t_mapping(t_address,t_bool)"
      },
      "t_mapping(t_uint256,t_struct(Election)1993_storage)": {
        "encoding": "mapping",
        "key": "t_uint256",
        "label": "mapping(uint256 => struct Diplomacy.Election)",
        "numberOfBytes": "32",
        "value": "t_struct(Election)1993_storage"
      },
      "t_string_storage": {
        "encoding": "bytes",
        "label": "string",
        "numberOfBytes": "32"
      },
      "t_struct(Election)1993_storage": {
        "encoding": "inplace",
        "label": "struct Diplomacy.Election",
        "members": [
          {
            "astId": 1975,
            "contract": "contracts/Diplomacy.sol:Diplomacy",
            "label": "name",
            "offset": 0,
            "slot": "0",
            "type": "t_string_storage"
          },
          {
            "astId": 1977,
            "contract": "contracts/Diplomacy.sol:Diplomacy",
            "label": "active",
            "offset": 0,
            "slot": "1",
            "type": "t_bool"
          },
          {
            "astId": 1979,
            "contract": "contracts/Diplomacy.sol:Diplomacy",
            "label": "paid",
            "offset": 1,
            "slot": "1",
            "type": "t_bool"
          },
          {
            "astId": 1981,
            "contract": "contracts/Diplomacy.sol:Diplomacy",
            "label": "createdAt",
            "offset": 2,
            "slot": "1",
            "type": "t_uint32"
          },
          {
            "astId": 1984,
            "contract": "contracts/Diplomacy.sol:Diplomacy",
            "label": "candidates",
            "offset": 0,
            "slot": "2",
            "type": "t_array(t_address)dyn_storage"
          },
          {
            "astId": 1986,
            "contract": "contracts/Diplomacy.sol:Diplomacy",
            "label": "funds",
            "offset": 0,
            "slot": "3",
            "type": "t_uint256"
          },
          {
            "astId": 1988,
            "contract": "contracts/Diplomacy.sol:Diplomacy",
            "label": "token",
            "offset": 0,
            "slot": "4",
            "type": "t_address"
          },
          {
            "astId": 1990,
            "contract": "contracts/Diplomacy.sol:Diplomacy",
            "label": "votes",
            "offset": 20,
            "slot": "4",
            "type": "t_int8"
          },
          {
            "astId": 1992,
            "contract": "contracts/Diplomacy.sol:Diplomacy",
            "label": "admin",
            "offset": 0,
            "slot": "5",
            "type": "t_address"
          }
        ],
        "numberOfBytes": "192"
      },
      "t_struct(RoleData)19_storage": {
        "encoding": "inplace",
        "label": "struct AccessControl.RoleData",
        "members": [
          {
            "astId": 16,
            "contract": "contracts/Diplomacy.sol:Diplomacy",
            "label": "members",
            "offset": 0,
            "slot": "0",
            "type": "t_mapping(t_address,t_bool)"
          },
          {
            "astId": 18,
            "contract": "contracts/Diplomacy.sol:Diplomacy",
            "label": "adminRole",
            "offset": 0,
            "slot": "1",
            "type": "t_bytes32"
          }
        ],
        "numberOfBytes": "64"
      },
      "t_uint256": {
        "encoding": "inplace",
        "label": "uint256",
        "numberOfBytes": "32"
      },
      "t_uint32": {
        "encoding": "inplace",
        "label": "uint32",
        "numberOfBytes": "4"
      }
    }
  }
}